{
  "_format": "hh-sol-artifact-1",
  "contractName": "FlashloanExecutor",
  "sourceName": "contracts/FlashloanExecutor.sol",
  "abi": [
    {
      "inputs": [
        {
          "internalType": "address",
          "name": "_provider",
          "type": "address"
        },
        {
          "internalType": "address",
          "name": "_goldstem",
          "type": "address"
        },
        {
          "internalType": "address",
          "name": "_rootTreasury",
          "type": "address"
        }
      ],
      "stateMutability": "nonpayable",
      "type": "constructor"
    },
    {
      "inputs": [],
      "name": "EnforcedPause",
      "type": "error"
    },
    {
      "inputs": [],
      "name": "ExpectedPause",
      "type": "error"
    },
    {
      "inputs": [
        {
          "internalType": "address",
          "name": "owner",
          "type": "address"
        }
      ],
      "name": "OwnableInvalidOwner",
      "type": "error"
    },
    {
      "inputs": [
        {
          "internalType": "address",
          "name": "account",
          "type": "address"
        }
      ],
      "name": "OwnableUnauthorizedAccount",
      "type": "error"
    },
    {
      "inputs": [],
      "name": "ReentrancyGuardReentrantCall",
      "type": "error"
    },
    {
      "anonymous": false,
      "inputs": [
        {
          "indexed": false,
          "internalType": "address",
          "name": "asset",
          "type": "address"
        },
        {
          "indexed": false,
          "internalType": "uint256",
          "name": "premium",
          "type": "uint256"
        },
        {
          "indexed": false,
          "internalType": "uint256",
          "name": "profitWei",
          "type": "uint256"
        }
      ],
      "name": "FlashCompleted",
      "type": "event"
    },
    {
      "anonymous": false,
      "inputs": [
        {
          "indexed": false,
          "internalType": "address",
          "name": "asset",
          "type": "address"
        },
        {
          "indexed": false,
          "internalType": "uint256",
          "name": "amount",
          "type": "uint256"
        }
      ],
      "name": "FlashStarted",
      "type": "event"
    },
    {
      "anonymous": false,
      "inputs": [
        {
          "indexed": true,
          "internalType": "address",
          "name": "previousOwner",
          "type": "address"
        },
        {
          "indexed": true,
          "internalType": "address",
          "name": "newOwner",
          "type": "address"
        }
      ],
      "name": "OwnershipTransferred",
      "type": "event"
    },
    {
      "anonymous": false,
      "inputs": [
        {
          "indexed": false,
          "internalType": "address",
          "name": "account",
          "type": "address"
        }
      ],
      "name": "Paused",
      "type": "event"
    },
    {
      "anonymous": false,
      "inputs": [
        {
          "indexed": false,
          "internalType": "address",
          "name": "account",
          "type": "address"
        }
      ],
      "name": "Unpaused",
      "type": "event"
    },
    {
      "inputs": [],
      "name": "ADDRESSES_PROVIDER",
      "outputs": [
        {
          "internalType": "contract IPoolAddressesProvider",
          "name": "",
          "type": "address"
        }
      ],
      "stateMutability": "view",
      "type": "function"
    },
    {
      "inputs": [],
      "name": "POOL",
      "outputs": [
        {
          "internalType": "contract IPool",
          "name": "",
          "type": "address"
        }
      ],
      "stateMutability": "view",
      "type": "function"
    },
    {
      "inputs": [
        {
          "internalType": "address",
          "name": "asset",
          "type": "address"
        },
        {
          "internalType": "uint256",
          "name": "amount",
          "type": "uint256"
        },
        {
          "internalType": "uint256",
          "name": "premium",
          "type": "uint256"
        },
        {
          "internalType": "address",
          "name": "",
          "type": "address"
        },
        {
          "internalType": "bytes",
          "name": "",
          "type": "bytes"
        }
      ],
      "name": "executeOperation",
      "outputs": [
        {
          "internalType": "bool",
          "name": "",
          "type": "bool"
        }
      ],
      "stateMutability": "nonpayable",
      "type": "function"
    },
    {
      "inputs": [],
      "name": "goldstem",
      "outputs": [
        {
          "internalType": "address",
          "name": "",
          "type": "address"
        }
      ],
      "stateMutability": "view",
      "type": "function"
    },
    {
      "inputs": [],
      "name": "owner",
      "outputs": [
        {
          "internalType": "address",
          "name": "",
          "type": "address"
        }
      ],
      "stateMutability": "view",
      "type": "function"
    },
    {
      "inputs": [],
      "name": "paused",
      "outputs": [
        {
          "internalType": "bool",
          "name": "",
          "type": "bool"
        }
      ],
      "stateMutability": "view",
      "type": "function"
    },
    {
      "inputs": [],
      "name": "pool",
      "outputs": [
        {
          "internalType": "address",
          "name": "",
          "type": "address"
        }
      ],
      "stateMutability": "view",
      "type": "function"
    },
    {
      "inputs": [],
      "name": "provider",
      "outputs": [
        {
          "internalType": "address",
          "name": "",
          "type": "address"
        }
      ],
      "stateMutability": "view",
      "type": "function"
    },
    {
      "inputs": [],
      "name": "renounceOwnership",
      "outputs": [],
      "stateMutability": "nonpayable",
      "type": "function"
    },
    {
      "inputs": [],
      "name": "rootTreasury",
      "outputs": [
        {
          "internalType": "address",
          "name": "",
          "type": "address"
        }
      ],
      "stateMutability": "view",
      "type": "function"
    },
    {
      "inputs": [
        {
          "internalType": "address",
          "name": "asset",
          "type": "address"
        },
        {
          "internalType": "uint256",
          "name": "amount",
          "type": "uint256"
        },
        {
          "internalType": "bytes",
          "name": "params",
          "type": "bytes"
        }
      ],
      "name": "runSimpleFlash",
      "outputs": [],
      "stateMutability": "nonpayable",
      "type": "function"
    },
    {
      "inputs": [
        {
          "internalType": "address",
          "name": "a",
          "type": "address"
        }
      ],
      "name": "setGoldstem",
      "outputs": [],
      "stateMutability": "nonpayable",
      "type": "function"
    },
    {
      "inputs": [
        {
          "internalType": "address",
          "name": "a",
          "type": "address"
        }
      ],
      "name": "setRootTreasury",
      "outputs": [],
      "stateMutability": "nonpayable",
      "type": "function"
    },
    {
      "inputs": [
        {
          "internalType": "address",
          "name": "newOwner",
          "type": "address"
        }
      ],
      "name": "transferOwnership",
      "outputs": [],
      "stateMutability": "nonpayable",
      "type": "function"
    }
  ],
  "bytecode": "0x60c06040523480156200001157600080fd5b50604051620018ab380380620018ab83398181016040528101906200003791906200043f565b33600073ffffffffffffffffffffffffffffffffffffffff168173ffffffffffffffffffffffffffffffffffffffff1603620000ad5760006040517f1e4fbdf7000000000000000000000000000000000000000000000000000000008152600401620000a49190620004ac565b60405180910390fd5b620000be816200031160201b60201c565b5060018081905550600073ffffffffffffffffffffffffffffffffffffffff168373ffffffffffffffffffffffffffffffffffffffff1614158015620001315750600073ffffffffffffffffffffffffffffffffffffffff168273ffffffffffffffffffffffffffffffffffffffff1614155b80156200016b5750600073ffffffffffffffffffffffffffffffffffffffff168173ffffffffffffffffffffffffffffffffffffffff1614155b620001ad576040517f08c379a0000000000000000000000000000000000000000000000000000000008152600401620001a4906200052a565b60405180910390fd5b8273ffffffffffffffffffffffffffffffffffffffff1660a08173ffffffffffffffffffffffffffffffffffffffff16815250508273ffffffffffffffffffffffffffffffffffffffff1663026b1d5f6040518163ffffffff1660e01b8152600401602060405180830381865afa1580156200022d573d6000803e3d6000fd5b505050506040513d601f19601f820116820180604052508101906200025391906200054c565b73ffffffffffffffffffffffffffffffffffffffff1660808173ffffffffffffffffffffffffffffffffffffffff168152505081600360006101000a81548173ffffffffffffffffffffffffffffffffffffffff021916908373ffffffffffffffffffffffffffffffffffffffff16021790555080600260006101000a81548173ffffffffffffffffffffffffffffffffffffffff021916908373ffffffffffffffffffffffffffffffffffffffff1602179055505050506200057e565b60008060009054906101000a900473ffffffffffffffffffffffffffffffffffffffff169050816000806101000a81548173ffffffffffffffffffffffffffffffffffffffff021916908373ffffffffffffffffffffffffffffffffffffffff1602179055508173ffffffffffffffffffffffffffffffffffffffff168173ffffffffffffffffffffffffffffffffffffffff167f8be0079c531659141344cd1fd0a4f28419497f9722a3daafe3b4186f6b6457e060405160405180910390a35050565b600080fd5b600073ffffffffffffffffffffffffffffffffffffffff82169050919050565b60006200040782620003da565b9050919050565b6200041981620003fa565b81146200042557600080fd5b50565b60008151905062000439816200040e565b92915050565b6000806000606084860312156200045b576200045a620003d5565b5b60006200046b8682870162000428565b93505060206200047e8682870162000428565b9250506040620004918682870162000428565b9150509250925092565b620004a681620003fa565b82525050565b6000602082019050620004c360008301846200049b565b92915050565b600082825260208201905092915050565b7f7a65726f20616464720000000000000000000000000000000000000000000000600082015250565b600062000512600983620004c9565b91506200051f82620004da565b602082019050919050565b60006020820190508181036000830152620005458162000503565b9050919050565b600060208284031215620005655762000564620003d5565b5b6000620005758482850162000428565b91505092915050565b60805160a0516112dd620005ce6000396000818161028d01526102b30152600081816102d7015281816102fd015281816103b7015281816104570152818161069a015261086101526112dd6000f3fe608060405234801561001057600080fd5b50600436106100ea5760003560e01c80638da5cb5b1161008c578063a7e1114811610066578063a7e1114814610217578063ae8ccfe414610235578063b3d8ad4614610251578063f2fde38b1461026d576100ea565b80638da5cb5b146101bf57806391a99e88146101dd578063994a8b31146101fb576100ea565b80631b11d0ff116100c85780631b11d0ff146101495780635c975abb14610179578063715018a6146101975780637535d246146101a1576100ea565b80630542975c146100ef578063085d48831461010d57806316f0115b1461012b575b600080fd5b6100f7610289565b6040516101049190610beb565b60405180910390f35b6101156102b1565b6040516101229190610c27565b60405180910390f35b6101336102d5565b6040516101409190610c27565b60405180910390f35b610163600480360381019061015e9190610d13565b6102f9565b6040516101709190610dc8565b60405180910390f35b61018161066c565b60405161018e9190610dc8565b60405180910390f35b61019f610682565b005b6101a9610696565b6040516101b69190610e04565b60405180910390f35b6101c76106be565b6040516101d49190610c27565b60405180910390f35b6101e56106e7565b6040516101f29190610c27565b60405180910390f35b61021560048036038101906102109190610e1f565b61070d565b005b61021f610759565b60405161022c9190610c27565b60405180910390f35b61024f600480360381019061024a9190610e1f565b61077f565b005b61026b60048036038101906102669190610e4c565b6107cb565b005b61028760048036038101906102829190610e1f565b610903565b005b60007f0000000000000000000000000000000000000000000000000000000000000000905090565b7f000000000000000000000000000000000000000000000000000000000000000081565b7f000000000000000000000000000000000000000000000000000000000000000081565b60007f000000000000000000000000000000000000000000000000000000000000000073ffffffffffffffffffffffffffffffffffffffff163373ffffffffffffffffffffffffffffffffffffffff1614610389576040517f08c379a000000000000000000000000000000000000000000000000000000000815260040161038090610f1d565b60405180910390fd5b600085876103979190610f6c565b90508773ffffffffffffffffffffffffffffffffffffffff1663095ea7b37f000000000000000000000000000000000000000000000000000000000000000060006040518363ffffffff1660e01b81526004016103f5929190610fdb565b6020604051808303816000875af1158015610414573d6000803e3d6000fd5b505050506040513d601f19601f820116820180604052508101906104389190611030565b508773ffffffffffffffffffffffffffffffffffffffff1663095ea7b37f0000000000000000000000000000000000000000000000000000000000000000836040518363ffffffff1660e01b815260040161049492919061106c565b6020604051808303816000875af11580156104b3573d6000803e3d6000fd5b505050506040513d601f19601f820116820180604052508101906104d79190611030565b5060008873ffffffffffffffffffffffffffffffffffffffff166370a08231306040518263ffffffff1660e01b81526004016105139190610c27565b602060405180830381865afa158015610530573d6000803e3d6000fd5b505050506040513d601f19601f8201168201806040525081019061055491906110aa565b90506000828211610566576000610573565b828261057291906110d7565b5b90506000811115610620578973ffffffffffffffffffffffffffffffffffffffff1663a9059cbb600260009054906101000a900473ffffffffffffffffffffffffffffffffffffffff16836040518363ffffffff1660e01b81526004016105db92919061106c565b6020604051808303816000875af11580156105fa573d6000803e3d6000fd5b505050506040513d601f19601f8201168201806040525081019061061e9190611030565b505b7f6b503ccb8fe3617e786d56756579016943b3839c546866718cfa2accb1cbb3ca8a89836040516106539392919061110b565b60405180910390a1600193505050509695505050505050565b60008060149054906101000a900460ff16905090565b61068a610989565b6106946000610a10565b565b60007f0000000000000000000000000000000000000000000000000000000000000000905090565b60008060009054906101000a900473ffffffffffffffffffffffffffffffffffffffff16905090565b600260009054906101000a900473ffffffffffffffffffffffffffffffffffffffff1681565b610715610989565b80600360006101000a81548173ffffffffffffffffffffffffffffffffffffffff021916908373ffffffffffffffffffffffffffffffffffffffff16021790555050565b600360009054906101000a900473ffffffffffffffffffffffffffffffffffffffff1681565b610787610989565b80600260006101000a81548173ffffffffffffffffffffffffffffffffffffffff021916908373ffffffffffffffffffffffffffffffffffffffff16021790555050565b6107d3610ad4565b6107db610b15565b6107e3610989565b60008311610826576040517f08c379a000000000000000000000000000000000000000000000000000000000815260040161081d9061118e565b60405180910390fd5b7f1e069908b6875ea1e6e903413f4b38ae5d61ba274c0e2cba8c5e3fff60e484c8848460405161085792919061106c565b60405180910390a17f000000000000000000000000000000000000000000000000000000000000000073ffffffffffffffffffffffffffffffffffffffff166342b0b77c308686868660006040518763ffffffff1660e01b81526004016108c39695949392919061124b565b600060405180830381600087803b1580156108dd57600080fd5b505af11580156108f1573d6000803e3d6000fd5b505050506108fd610b5b565b50505050565b61090b610989565b600073ffffffffffffffffffffffffffffffffffffffff168173ffffffffffffffffffffffffffffffffffffffff160361097d5760006040517f1e4fbdf70000000000000000000000000000000000000000000000000000000081526004016109749190610c27565b60405180910390fd5b61098681610a10565b50565b610991610b64565b73ffffffffffffffffffffffffffffffffffffffff166109af6106be565b73ffffffffffffffffffffffffffffffffffffffff1614610a0e576109d2610b64565b6040517f118cdaa7000000000000000000000000000000000000000000000000000000008152600401610a059190610c27565b60405180910390fd5b565b60008060009054906101000a900473ffffffffffffffffffffffffffffffffffffffff169050816000806101000a81548173ffffffffffffffffffffffffffffffffffffffff021916908373ffffffffffffffffffffffffffffffffffffffff1602179055508173ffffffffffffffffffffffffffffffffffffffff168173ffffffffffffffffffffffffffffffffffffffff167f8be0079c531659141344cd1fd0a4f28419497f9722a3daafe3b4186f6b6457e060405160405180910390a35050565b610adc61066c565b15610b13576040517fd93c066500000000000000000000000000000000000000000000000000000000815260040160405180910390fd5b565b600260015403610b51576040517f3ee5aeb500000000000000000000000000000000000000000000000000000000815260040160405180910390fd5b6002600181905550565b60018081905550565b600033905090565b600073ffffffffffffffffffffffffffffffffffffffff82169050919050565b6000819050919050565b6000610bb1610bac610ba784610b6c565b610b8c565b610b6c565b9050919050565b6000610bc382610b96565b9050919050565b6000610bd582610bb8565b9050919050565b610be581610bca565b82525050565b6000602082019050610c006000830184610bdc565b92915050565b6000610c1182610b6c565b9050919050565b610c2181610c06565b82525050565b6000602082019050610c3c6000830184610c18565b92915050565b600080fd5b600080fd5b610c5581610c06565b8114610c6057600080fd5b50565b600081359050610c7281610c4c565b92915050565b6000819050919050565b610c8b81610c78565b8114610c9657600080fd5b50565b600081359050610ca881610c82565b92915050565b600080fd5b600080fd5b600080fd5b60008083601f840112610cd357610cd2610cae565b5b8235905067ffffffffffffffff811115610cf057610cef610cb3565b5b602083019150836001820283011115610d0c57610d0b610cb8565b5b9250929050565b60008060008060008060a08789031215610d3057610d2f610c42565b5b6000610d3e89828a01610c63565b9650506020610d4f89828a01610c99565b9550506040610d6089828a01610c99565b9450506060610d7189828a01610c63565b935050608087013567ffffffffffffffff811115610d9257610d91610c47565b5b610d9e89828a01610cbd565b92509250509295509295509295565b60008115159050919050565b610dc281610dad565b82525050565b6000602082019050610ddd6000830184610db9565b92915050565b6000610dee82610bb8565b9050919050565b610dfe81610de3565b82525050565b6000602082019050610e196000830184610df5565b92915050565b600060208284031215610e3557610e34610c42565b5b6000610e4384828501610c63565b91505092915050565b60008060008060608587031215610e6657610e65610c42565b5b6000610e7487828801610c63565b9450506020610e8587828801610c99565b935050604085013567ffffffffffffffff811115610ea657610ea5610c47565b5b610eb287828801610cbd565b925092505092959194509250565b600082825260208201905092915050565b7f6f6e6c7920706f6f6c0000000000000000000000000000000000000000000000600082015250565b6000610f07600983610ec0565b9150610f1282610ed1565b602082019050919050565b60006020820190508181036000830152610f3681610efa565b9050919050565b7f4e487b7100000000000000000000000000000000000000000000000000000000600052601160045260246000fd5b6000610f7782610c78565b9150610f8283610c78565b9250828201905080821115610f9a57610f99610f3d565b5b92915050565b6000819050919050565b6000610fc5610fc0610fbb84610fa0565b610b8c565b610c78565b9050919050565b610fd581610faa565b82525050565b6000604082019050610ff06000830185610c18565b610ffd6020830184610fcc565b9392505050565b61100d81610dad565b811461101857600080fd5b50565b60008151905061102a81611004565b92915050565b60006020828403121561104657611045610c42565b5b60006110548482850161101b565b91505092915050565b61106681610c78565b82525050565b60006040820190506110816000830185610c18565b61108e602083018461105d565b9392505050565b6000815190506110a481610c82565b92915050565b6000602082840312156110c0576110bf610c42565b5b60006110ce84828501611095565b91505092915050565b60006110e282610c78565b91506110ed83610c78565b925082820390508181111561110557611104610f3d565b5b92915050565b60006060820190506111206000830186610c18565b61112d602083018561105d565b61113a604083018461105d565b949350505050565b7f616d6f756e743d30000000000000000000000000000000000000000000000000600082015250565b6000611178600883610ec0565b915061118382611142565b602082019050919050565b600060208201905081810360008301526111a78161116b565b9050919050565b600082825260208201905092915050565b82818337600083830152505050565b6000601f19601f8301169050919050565b60006111eb83856111ae565b93506111f88385846111bf565b611201836111ce565b840190509392505050565b600061ffff82169050919050565b600061123561123061122b84610fa0565b610b8c565b61120c565b9050919050565b6112458161121a565b82525050565b600060a0820190506112606000830189610c18565b61126d6020830188610c18565b61127a604083018761105d565b818103606083015261128d8185876111df565b905061129c608083018461123c565b97965050505050505056fea2646970667358221220b985574f87a3530d80689a5619aca2bbe69e01f8f8805773ed80ef1962b655a164736f6c63430008180033",
  "linkReferences": {},
  "deployedLinkReferences": {}
}