{
  "_format": "hh-sol-artifact-1",
  "contractName": "FlashloanExecutor",
  "sourceName": "contracts/FlashloanExecutor.sol",
  "abi": [
    {
      "inputs": [
        {
          "internalType": "address",
          "name": "_provider",
          "type": "address"
        },
        {
          "internalType": "address",
          "name": "_goldstem",
          "type": "address"
        },
        {
          "internalType": "address",
          "name": "_rootTreasury",
          "type": "address"
        }
      ],
      "stateMutability": "nonpayable",
      "type": "constructor"
    },
    {
      "inputs": [],
      "name": "EnforcedPause",
      "type": "error"
    },
    {
      "inputs": [],
      "name": "ExpectedPause",
      "type": "error"
    },
    {
      "inputs": [
        {
          "internalType": "address",
          "name": "owner",
          "type": "address"
        }
      ],
      "name": "OwnableInvalidOwner",
      "type": "error"
    },
    {
      "inputs": [
        {
          "internalType": "address",
          "name": "account",
          "type": "address"
        }
      ],
      "name": "OwnableUnauthorizedAccount",
      "type": "error"
    },
    {
      "inputs": [],
      "name": "ReentrancyGuardReentrantCall",
      "type": "error"
    },
    {
      "anonymous": false,
      "inputs": [
        {
          "indexed": true,
          "internalType": "address",
          "name": "asset",
          "type": "address"
        },
        {
          "indexed": false,
          "internalType": "uint256",
          "name": "premium",
          "type": "uint256"
        },
        {
          "indexed": false,
          "internalType": "uint256",
          "name": "profitWei",
          "type": "uint256"
        }
      ],
      "name": "FlashCompleted",
      "type": "event"
    },
    {
      "anonymous": false,
      "inputs": [
        {
          "indexed": true,
          "internalType": "address",
          "name": "asset",
          "type": "address"
        },
        {
          "indexed": false,
          "internalType": "uint256",
          "name": "amount",
          "type": "uint256"
        }
      ],
      "name": "FlashStarted",
      "type": "event"
    },
    {
      "anonymous": false,
      "inputs": [
        {
          "indexed": true,
          "internalType": "uint8",
          "name": "dex",
          "type": "uint8"
        },
        {
          "indexed": false,
          "internalType": "address",
          "name": "tokenIn",
          "type": "address"
        },
        {
          "indexed": false,
          "internalType": "address",
          "name": "tokenOut",
          "type": "address"
        },
        {
          "indexed": false,
          "internalType": "uint256",
          "name": "amountIn",
          "type": "uint256"
        },
        {
          "indexed": false,
          "internalType": "uint256",
          "name": "amountOut",
          "type": "uint256"
        }
      ],
      "name": "LegExecuted",
      "type": "event"
    },
    {
      "anonymous": false,
      "inputs": [
        {
          "indexed": true,
          "internalType": "address",
          "name": "previousOwner",
          "type": "address"
        },
        {
          "indexed": true,
          "internalType": "address",
          "name": "newOwner",
          "type": "address"
        }
      ],
      "name": "OwnershipTransferred",
      "type": "event"
    },
    {
      "anonymous": false,
      "inputs": [
        {
          "indexed": false,
          "internalType": "address",
          "name": "account",
          "type": "address"
        }
      ],
      "name": "Paused",
      "type": "event"
    },
    {
      "anonymous": false,
      "inputs": [
        {
          "indexed": false,
          "internalType": "address",
          "name": "account",
          "type": "address"
        }
      ],
      "name": "Unpaused",
      "type": "event"
    },
    {
      "inputs": [],
      "name": "ADDRESSES_PROVIDER",
      "outputs": [
        {
          "internalType": "contract IPoolAddressesProvider",
          "name": "",
          "type": "address"
        }
      ],
      "stateMutability": "view",
      "type": "function"
    },
    {
      "inputs": [],
      "name": "POOL",
      "outputs": [
        {
          "internalType": "contract IPool",
          "name": "",
          "type": "address"
        }
      ],
      "stateMutability": "view",
      "type": "function"
    },
    {
      "inputs": [],
      "name": "SUSHI_V2_ROUTER",
      "outputs": [
        {
          "internalType": "address",
          "name": "",
          "type": "address"
        }
      ],
      "stateMutability": "view",
      "type": "function"
    },
    {
      "inputs": [],
      "name": "UNISWAP_V3_ROUTER",
      "outputs": [
        {
          "internalType": "address",
          "name": "",
          "type": "address"
        }
      ],
      "stateMutability": "view",
      "type": "function"
    },
    {
      "inputs": [],
      "name": "WETH",
      "outputs": [
        {
          "internalType": "address",
          "name": "",
          "type": "address"
        }
      ],
      "stateMutability": "view",
      "type": "function"
    },
    {
      "inputs": [
        {
          "internalType": "address",
          "name": "token",
          "type": "address"
        }
      ],
      "name": "emergencyWithdraw",
      "outputs": [],
      "stateMutability": "nonpayable",
      "type": "function"
    },
    {
      "inputs": [],
      "name": "emergencyWithdrawETH",
      "outputs": [],
      "stateMutability": "nonpayable",
      "type": "function"
    },
    {
      "inputs": [
        {
          "internalType": "address",
          "name": "asset",
          "type": "address"
        },
        {
          "internalType": "uint256",
          "name": "amount",
          "type": "uint256"
        },
        {
          "internalType": "uint256",
          "name": "premium",
          "type": "uint256"
        },
        {
          "internalType": "address",
          "name": "",
          "type": "address"
        },
        {
          "internalType": "bytes",
          "name": "params",
          "type": "bytes"
        }
      ],
      "name": "executeOperation",
      "outputs": [
        {
          "internalType": "bool",
          "name": "",
          "type": "bool"
        }
      ],
      "stateMutability": "nonpayable",
      "type": "function"
    },
    {
      "inputs": [],
      "name": "goldstem",
      "outputs": [
        {
          "internalType": "address",
          "name": "",
          "type": "address"
        }
      ],
      "stateMutability": "view",
      "type": "function"
    },
    {
      "inputs": [],
      "name": "owner",
      "outputs": [
        {
          "internalType": "address",
          "name": "",
          "type": "address"
        }
      ],
      "stateMutability": "view",
      "type": "function"
    },
    {
      "inputs": [],
      "name": "paused",
      "outputs": [
        {
          "internalType": "bool",
          "name": "",
          "type": "bool"
        }
      ],
      "stateMutability": "view",
      "type": "function"
    },
    {
      "inputs": [],
      "name": "pool",
      "outputs": [
        {
          "internalType": "address",
          "name": "",
          "type": "address"
        }
      ],
      "stateMutability": "view",
      "type": "function"
    },
    {
      "inputs": [],
      "name": "provider",
      "outputs": [
        {
          "internalType": "address",
          "name": "",
          "type": "address"
        }
      ],
      "stateMutability": "view",
      "type": "function"
    },
    {
      "inputs": [],
      "name": "renounceOwnership",
      "outputs": [],
      "stateMutability": "nonpayable",
      "type": "function"
    },
    {
      "inputs": [],
      "name": "rootTreasury",
      "outputs": [
        {
          "internalType": "address",
          "name": "",
          "type": "address"
        }
      ],
      "stateMutability": "view",
      "type": "function"
    },
    {
      "inputs": [
        {
          "internalType": "address",
          "name": "asset",
          "type": "address"
        },
        {
          "internalType": "uint256",
          "name": "amount",
          "type": "uint256"
        },
        {
          "internalType": "bytes",
          "name": "params",
          "type": "bytes"
        }
      ],
      "name": "runSimpleFlash",
      "outputs": [],
      "stateMutability": "nonpayable",
      "type": "function"
    },
    {
      "inputs": [
        {
          "internalType": "address",
          "name": "a",
          "type": "address"
        }
      ],
      "name": "setGoldstem",
      "outputs": [],
      "stateMutability": "nonpayable",
      "type": "function"
    },
    {
      "inputs": [
        {
          "internalType": "address",
          "name": "a",
          "type": "address"
        }
      ],
      "name": "setRootTreasury",
      "outputs": [],
      "stateMutability": "nonpayable",
      "type": "function"
    },
    {
      "inputs": [
        {
          "internalType": "address",
          "name": "newOwner",
          "type": "address"
        }
      ],
      "name": "transferOwnership",
      "outputs": [],
      "stateMutability": "nonpayable",
      "type": "function"
    }
  ],
  "bytecode": "0x60c0604090808252346200020a5760608162001b2a80380380916200002582856200020f565b8339810103126200020a576200003b8162000249565b9060209062000059846200005184840162000249565b920162000249565b903315620001f257600080546001600160a01b0319808216339081178455885191976001600160a01b0397949390919088167f8be0079c531659141344cd1fd0a4f28419497f9722a3daafe3b4186f6b6457e08580a3600180558681169182151580620001e6575b80620001da575b15620001ac5750608052875163026b1d5f60e01b815291908390839060049082905afa928315620001a057908694939291819362000157575b50505060a0521683600354161760035516906002541617600255516118cb90816200025f823960805181610168015260a0518181816101ad0152818161026b01528181610401015281816104640152610a940152f35b8294955080929193503d831162000198575b6200017581836200020f565b81010312620001955750906200018c849262000249565b38808062000101565b80fd5b503d62000169565b508751903d90823e3d90fd5b62461bcd60e51b81526004810185905260096024820152683d32b9379030b2323960b91b6044820152606490fd5b508787161515620000c8565b508786161515620000c1565b8451631e4fbdf760e01b815260006004820152602490fd5b600080fd5b601f909101601f19168101906001600160401b038211908210176200023357604052565b634e487b7160e01b600052604160045260246000fd5b51906001600160a01b03821682036200020a5756fe6080604052600436101561001257600080fd5b60003560e01c80630542975c1461013d578063085d48831461013d57806316f0115b1461011f5780631b11d0ff1461013857806341c64a2f146101335780635c975abb1461012e5780636ff1c9bc14610129578063715018a6146101245780637535d2461461011f578063845360171461011a5780638da5cb5b1461011557806391a99e8814610110578063994a8b311461010b578063a645068914610106578063a7e1114814610101578063ad5c4648146100fc578063ae8ccfe4146100f7578063b3d8ad46146100f25763f2fde38b146100ed57600080fd5b610b68565b6109e4565b61099d565b61096e565b610945565b610916565b6108cf565b6108a6565b61087d565b6107d5565b610197565b610777565b610696565b610670565b610641565b61021b565b610152565b600091031261014d57565b600080fd5b3461014d57600036600319011261014d576040517f00000000000000000000000000000000000000000000000000000000000000006001600160a01b03168152602090f35b3461014d57600036600319011261014d576040517f00000000000000000000000000000000000000000000000000000000000000006001600160a01b03168152602090f35b6001600160a01b0381160361014d57565b9181601f8401121561014d5782359167ffffffffffffffff831161014d576020838186019501011161014d57565b3461014d5760a036600319011261014d576102376004356101dc565b6102426064356101dc565b60843567ffffffffffffffff811161014d576102656102a19136906004016101ed565b610299337f00000000000000000000000000000000000000000000000000000000000000006001600160a01b031614610bf4565b810190610d0e565b926103196102b3878997949599610f4e565b6102bd8888610fdb565b906103066102cb8587610f4e565b916102f06102d98789610fdb565b916004356001600160a01b03908116911614610d7f565b6004356001600160a01b03908116911614610dc1565b6001600160a01b03918216911614610e01565b604080516370a0823160e01b815230600482015290979095602087806024810103816004356001600160a01b03165afa96871561059257600097610614575b509061036d91610373969798602435916112e9565b916112e9565b5082516370a0823160e01b815230600482015290602082806024810103816004356001600160a01b03165afa918215610592576000926105e1575b506103dc91928084116000146105d5576103cb6103d59185610e85565b915b604435610ea1565b1115610eae565b6103ea604435602435610ea1565b825163095ea7b360e01b8082526001600160a01b037f00000000000000000000000000000000000000000000000000000000000000001660048301526000602483015292906020818060448101038160006004356001600160a01b03165af18015610592576105b6575b5083519283526001600160a01b037f0000000000000000000000000000000000000000000000000000000000000000166004840152602483018290526020838060448101038160006004356001600160a01b03165af1928315610592576104c093610597575b50610e85565b80610512575b8151604435815260208101919091526001600160a01b0360043516907f6b503ccb8fe3617e786d56756579016943b3839c546866718cfa2accb1cbb3ca90604090a25160018152602090f35b600254825163a9059cbb60e01b81526001600160a01b039091166004820152602481018290526020818060448101038160006004356001600160a01b03165af1801561059257610563575b506104c6565b6105849060203d60201161058b575b61057c8183610c69565b810190610eeb565b503861055d565b503d610572565b610e4f565b6105af9060203d60201161058b5761057c8183610c69565b50386104ba565b6105ce9060203d60201161058b5761057c8183610c69565b5038610454565b506103d56000916103cd565b6103dc92506106079060203d60201161060d575b6105ff8183610c69565b810190610e40565b916103ae565b503d6105f5565b6103739697509061063761036d939260203d60201161060d576105ff8183610c69565b9796509091610358565b3461014d57600036600319011261014d57602060405173e592427a0aece92de3edee1f18e0157c058615648152f35b3461014d57600036600319011261014d57602060ff60005460a01c166040519015158152f35b3461014d5760208060031936011261014d576004356106b4816101dc565b6106bc6117b2565b6040516370a0823160e01b81523060048201526001600160a01b0391821691908381602481865afa9081156105925760009161075a575b50806106fb57005b6000805460405163a9059cbb60e01b815293166001600160a01b031660048401526024830191909152909183918391908290816044810103925af180156105925761074257005b8161075892903d1061058b5761057c8183610c69565b005b6107719150843d861161060d576105ff8183610c69565b386106f3565b3461014d576000806003193601126107d2576107916117b2565b80546001600160a01b03198116825581906001600160a01b03167f8be0079c531659141344cd1fd0a4f28419497f9722a3daafe3b4186f6b6457e08280a380f35b80fd5b3461014d576000806003193601126107d2576107ef6117b2565b8047806107f95750f35b8154829182918291906001600160a01b03165af13d15610878573d61081d81610cab565b9061082b6040519283610c69565b81528260203d92013e5b1561083d5780f35b60405162461bcd60e51b8152602060048201526013602482015272195d1a081dda5d1a191c985dc819985a5b1959606a1b6044820152606490fd5b610835565b3461014d57600036600319011261014d576000546040516001600160a01b039091168152602090f35b3461014d57600036600319011261014d576002546040516001600160a01b039091168152602090f35b3461014d57602036600319011261014d576004356108ec816101dc565b6108f46117b2565b600380546001600160a01b0319166001600160a01b0392909216919091179055005b3461014d57600036600319011261014d576020604051731b02da8cb0d097eb8d57a175b88c7d8b479975068152f35b3461014d57600036600319011261014d576003546040516001600160a01b039091168152602090f35b3461014d57600036600319011261014d5760206040517382af49447d8a07e3bd95bd0d56f35241523fbab18152f35b3461014d57602036600319011261014d576004356109ba816101dc565b6109c26117b2565b600280546001600160a01b0319166001600160a01b0392909216919091179055005b3461014d57606036600319011261014d5760048035610a02816101dc565b60243560443567ffffffffffffffff811161014d57610a2490369085016101ed565b93909260009460ff865460a01c16610b5757600260015414610b46576002600155610a4d6117b2565b8315610b17576040518481528694939291906001600160a01b0390818416907f1e069908b6875ea1e6e903413f4b38ae5d61ba274c0e2cba8c5e3fff60e484c890602090a27f00000000000000000000000000000000000000000000000000000000000000001692833b15610b1357610ade8692604051988997889687956310ac2ddf60e21b875230908701610f03565b03925af1801561059257610afa575b50610af760018055565b80f35b80610b07610b0d92610c50565b80610142565b38610aed565b8580fd5b60405162461bcd60e51b815260208185015260086024820152670616d6f756e743d360c41b6044820152606490fd5b604051633ee5aeb560e01b81528390fd5b60405163d93c066560e01b81528390fd5b3461014d57602036600319011261014d57600435610b85816101dc565b610b8d6117b2565b6001600160a01b039081168015610bdb57600080546001600160a01b03198116831782559092167f8be0079c531659141344cd1fd0a4f28419497f9722a3daafe3b4186f6b6457e08380a380f35b604051631e4fbdf760e01b815260006004820152602490fd5b15610bfb57565b60405162461bcd60e51b81526020600482015260096024820152681bdb9b1e481c1bdbdb60ba1b6044820152606490fd5b359060ff8216820361014d57565b634e487b7160e01b600052604160045260246000fd5b67ffffffffffffffff8111610c6457604052565b610c3a565b90601f8019910116810190811067ffffffffffffffff821117610c6457604052565b6040519060a0820182811067ffffffffffffffff821117610c6457604052565b67ffffffffffffffff8111610c6457601f01601f191660200190565b81601f8201121561014d57803590610cde82610cab565b92610cec6040519485610c69565b8284526020838301011161014d57816000926020809301838601378301015290565b919060e08382031261014d57610d2383610c2c565b9267ffffffffffffffff92602082013584811161014d5783610d46918401610cc7565b93610d5360408401610c2c565b93606084013591821161014d57610d6b918401610cc7565b9160808101359160c060a083013592013590565b15610d8657565b60405162461bcd60e51b81526020600482015260136024820152721b1959d0481cdd185c9d08084f48185cdcd95d606a1b6044820152606490fd5b15610dc857565b60405162461bcd60e51b81526020600482015260116024820152701b1959d088195b9908084f48185cdcd95d607a1b6044820152606490fd5b15610e0857565b60405162461bcd60e51b815260206004820152601060248201526f1b1959dcc81b9bdd0818da185a5b995960821b6044820152606490fd5b9081602091031261014d575190565b6040513d6000823e3d90fd5b634e487b7160e01b600052601160045260246000fd5b600019810191908211610e8057565b610e5b565b91908203918211610e8057565b9061012c8201809211610e8057565b91908201809211610e8057565b15610eb557565b60405162461bcd60e51b815260206004820152600e60248201526d6e6f742070726f66697461626c6560901b6044820152606490fd5b9081602091031261014d5751801515810361014d5790565b9594600094608094829360c09560018060a01b038092168b521660208a0152604089015260a060608901528160a08901528388013783828288010152601f8019910116850101930152565b60ff1660018114610fce57600214610f915760405162461bcd60e51b815260206004820152600960248201526862616420646578204160b81b6044820152606490fd5b80602080610fa49351830101910161110e565b610fb2600282511015611833565b805115610fc957602001516001600160a01b031690565b611192565b50610fd89061181a565b90565b60ff16600181146110655760021461101e5760405162461bcd60e51b81526020600482015260096024820152683130b2103232bc102160b91b6044820152606490fd5b806020806110319351830101910161110e565b61103f600282511015611833565b80516000198101908111610e80576001600160a01b039161106091906111b5565b511690565b50610fd89061186f565b919091602080825283519360a060208401528451918260c085015260005b8381106110e2575050600060e083850181019190915260208201516001600160a01b0316604085015293945060809060408101516060850152606081015182850152015160a0830152601f8019910116010190565b86810182015185820160e00152810161108d565b67ffffffffffffffff8111610c645760051b60200190565b602090818184031261014d5780519067ffffffffffffffff821161014d57019180601f8401121561014d578251611144816110f6565b936111526040519586610c69565b818552838086019260051b82010192831161014d578301905b828210611179575050505090565b8380918351611187816101dc565b81520191019061116b565b634e487b7160e01b600052603260045260246000fd5b805115610fc95760200190565b8051821015610fc95760209160051b010190565b156111d057565b60405162461bcd60e51b815260206004820152600b60248201526a0c4c2c840ec6440e0c2e8d60ab1b6044820152606490fd5b602090818184031261014d5780519067ffffffffffffffff821161014d57019180601f8401121561014d578251611239816110f6565b936112476040519586610c69565b818552838086019260051b82010192831161014d578301905b82821061126e575050505090565b81518152908301908301611260565b9291909594939560a08401908452602091602085015260a060408501528251809152602060c0850193019160005b8281106112cc5750505050906080919460018060a01b031660608201520152565b83516001600160a01b0316855293810193928101926001016112ab565b60ff90939192931691600183146115aa57600283146113355760405162461bcd60e51b815260206004820152600b60248201526a0eadcd6dcdeeedc40c8caf60ab1b6044820152606490fd5b61134a8151916020808094830101910161110e565b6002815110158061158d575b80611562575b611365906111c9565b61137e611371826111a8565b516001600160a01b031690565b9061139561137161138f8351610e71565b836111b5565b60405163095ea7b360e01b808252731b02da8cb0d097eb8d57a175b88c7d8b4799750660048301526000602483018190529692959092916001600160a01b03861682826044818c855af1908115610592576114289584938d93611545575b508a604051809881958294835260048301919060206040840193731b02da8cb0d097eb8d57a175b88c7d8b4799750681520152565b03925af1928315610592578793611527575b505061144542610e92565b9261146760405194859384936338ed173960e01b855230918d6004870161127d565b038183731b02da8cb0d097eb8d57a175b88c7d8b479975065af1938415610592577fdb6392fe1295a4cbc0d252b5bc387736e02c141596209ca0fde42d148fc3cedd946114fe92826114cb9392611504575b50506114c58151610e71565b906111b5565b51604080516001600160a01b03948516815294909316602085015291830195909552606082018190529381906080820190565b0390a290565b61152092503d8091833e6115188183610c69565b810190611203565b38806114b9565b8161153d92903d1061058b5761057c8183610c69565b50388061143a565b61155b90853d871161058b5761057c8183610c69565b50386113f3565b5061136560018060a01b0361158361137161157d8551610e71565b856111b5565b161515905061135c565b506001600160a01b036115a2611371836111a8565b161515611356565b6115b68193929361181a565b6115bf8261186f565b60405163095ea7b360e01b80825273e592427a0aece92de3edee1f18e0157c0586156460048301526000602483015260209692949092916001600160a01b0385168882806044810103816000855af190811561059257611658958a938c93611795575b50600060405180988195829483526004830191906020604084019373e592427a0aece92de3edee1f18e0157c0586156481520152565b03925af1918215610592576116b2938893611778575b5061167842610e92565b611680610c8b565b9283523084840152604083015288606083015260808201526040518093819263c04b8d5960e01b83526004830161106f565b0381600073e592427a0aece92de3edee1f18e0157c058615645af194851561059257600095611733575b5050604080516001600160a01b0392831681529290911660208301528101939093526060830182905290917fdb6392fe1295a4cbc0d252b5bc387736e02c141596209ca0fde42d148fc3cedd9080608081016114fe565b7fdb6392fe1295a4cbc0d252b5bc387736e02c141596209ca0fde42d148fc3cedd9495506114fe918161177192903d1061060d576105ff8183610c69565b94936116dc565b61178e90843d861161058b5761057c8183610c69565b503861166e565b6117ab90853d871161058b5761057c8183610c69565b5038611622565b6000546001600160a01b031633036117c657565b60405163118cdaa760e01b8152336004820152602490fd5b156117e557565b60405162461bcd60e51b815260206004820152600d60248201526c1d8cc81c185d1a081cda1bdc9d609a1b6044820152606490fd5b60209061182b6014825110156117de565b015160601c90565b1561183a57565b60405162461bcd60e51b815260206004820152600d60248201526c1d8c881c185d1a081cda1bdc9d609a1b6044820152606490fd5b61187d6014825110156117de565b805180601319810111610e805701600c015160601c9056fea2646970667358221220ac5b1d001725b0f4c70276676a46411530429264009e58973c21b5479507ef1364736f6c63430008180033",
  "linkReferences": {},
  "deployedLinkReferences": {}
}