{
  "_format": "hh-sol-artifact-1",
  "contractName": "FlashloanExecutor",
  "sourceName": "contracts/FlashloanExecutor.sol",
  "abi": [
    {
      "inputs": [
        {
          "internalType": "address",
          "name": "_provider",
          "type": "address"
        },
        {
          "internalType": "address",
          "name": "_goldstem",
          "type": "address"
        },
        {
          "internalType": "address",
          "name": "_rootTreasury",
          "type": "address"
        }
      ],
      "stateMutability": "nonpayable",
      "type": "constructor"
    },
    {
      "inputs": [],
      "name": "EnforcedPause",
      "type": "error"
    },
    {
      "inputs": [],
      "name": "ExpectedPause",
      "type": "error"
    },
    {
      "inputs": [
        {
          "internalType": "address",
          "name": "owner",
          "type": "address"
        }
      ],
      "name": "OwnableInvalidOwner",
      "type": "error"
    },
    {
      "inputs": [
        {
          "internalType": "address",
          "name": "account",
          "type": "address"
        }
      ],
      "name": "OwnableUnauthorizedAccount",
      "type": "error"
    },
    {
      "inputs": [],
      "name": "ReentrancyGuardReentrantCall",
      "type": "error"
    },
    {
      "anonymous": false,
      "inputs": [
        {
          "indexed": false,
          "internalType": "address",
          "name": "tokenIn",
          "type": "address"
        },
        {
          "indexed": false,
          "internalType": "address",
          "name": "tokenOut",
          "type": "address"
        },
        {
          "indexed": false,
          "internalType": "uint256",
          "name": "amountIn",
          "type": "uint256"
        },
        {
          "indexed": false,
          "internalType": "uint256",
          "name": "amountOut",
          "type": "uint256"
        },
        {
          "indexed": false,
          "internalType": "uint256",
          "name": "profit",
          "type": "uint256"
        }
      ],
      "name": "ArbitrageExecuted",
      "type": "event"
    },
    {
      "anonymous": false,
      "inputs": [
        {
          "indexed": false,
          "internalType": "address",
          "name": "asset",
          "type": "address"
        },
        {
          "indexed": false,
          "internalType": "uint256",
          "name": "premium",
          "type": "uint256"
        },
        {
          "indexed": false,
          "internalType": "uint256",
          "name": "profitWei",
          "type": "uint256"
        }
      ],
      "name": "FlashCompleted",
      "type": "event"
    },
    {
      "anonymous": false,
      "inputs": [
        {
          "indexed": false,
          "internalType": "address",
          "name": "asset",
          "type": "address"
        },
        {
          "indexed": false,
          "internalType": "uint256",
          "name": "amount",
          "type": "uint256"
        }
      ],
      "name": "FlashStarted",
      "type": "event"
    },
    {
      "anonymous": false,
      "inputs": [
        {
          "indexed": true,
          "internalType": "address",
          "name": "previousOwner",
          "type": "address"
        },
        {
          "indexed": true,
          "internalType": "address",
          "name": "newOwner",
          "type": "address"
        }
      ],
      "name": "OwnershipTransferred",
      "type": "event"
    },
    {
      "anonymous": false,
      "inputs": [
        {
          "indexed": false,
          "internalType": "address",
          "name": "account",
          "type": "address"
        }
      ],
      "name": "Paused",
      "type": "event"
    },
    {
      "anonymous": false,
      "inputs": [
        {
          "indexed": false,
          "internalType": "address",
          "name": "account",
          "type": "address"
        }
      ],
      "name": "Unpaused",
      "type": "event"
    },
    {
      "inputs": [],
      "name": "ADDRESSES_PROVIDER",
      "outputs": [
        {
          "internalType": "contract IPoolAddressesProvider",
          "name": "",
          "type": "address"
        }
      ],
      "stateMutability": "view",
      "type": "function"
    },
    {
      "inputs": [],
      "name": "MAX_FLASH_AMOUNT",
      "outputs": [
        {
          "internalType": "uint256",
          "name": "",
          "type": "uint256"
        }
      ],
      "stateMutability": "view",
      "type": "function"
    },
    {
      "inputs": [],
      "name": "MIN_PROFIT_THRESHOLD",
      "outputs": [
        {
          "internalType": "uint256",
          "name": "",
          "type": "uint256"
        }
      ],
      "stateMutability": "view",
      "type": "function"
    },
    {
      "inputs": [],
      "name": "POOL",
      "outputs": [
        {
          "internalType": "contract IPool",
          "name": "",
          "type": "address"
        }
      ],
      "stateMutability": "view",
      "type": "function"
    },
    {
      "inputs": [],
      "name": "SUSHISWAP_ROUTER",
      "outputs": [
        {
          "internalType": "address",
          "name": "",
          "type": "address"
        }
      ],
      "stateMutability": "view",
      "type": "function"
    },
    {
      "inputs": [],
      "name": "UNISWAP_FEE",
      "outputs": [
        {
          "internalType": "uint24",
          "name": "",
          "type": "uint24"
        }
      ],
      "stateMutability": "view",
      "type": "function"
    },
    {
      "inputs": [],
      "name": "UNISWAP_V3_ROUTER",
      "outputs": [
        {
          "internalType": "address",
          "name": "",
          "type": "address"
        }
      ],
      "stateMutability": "view",
      "type": "function"
    },
    {
      "inputs": [],
      "name": "USDC",
      "outputs": [
        {
          "internalType": "address",
          "name": "",
          "type": "address"
        }
      ],
      "stateMutability": "view",
      "type": "function"
    },
    {
      "inputs": [],
      "name": "USDT",
      "outputs": [
        {
          "internalType": "address",
          "name": "",
          "type": "address"
        }
      ],
      "stateMutability": "view",
      "type": "function"
    },
    {
      "inputs": [],
      "name": "WETH",
      "outputs": [
        {
          "internalType": "address",
          "name": "",
          "type": "address"
        }
      ],
      "stateMutability": "view",
      "type": "function"
    },
    {
      "inputs": [
        {
          "internalType": "address",
          "name": "asset",
          "type": "address"
        }
      ],
      "name": "calculateOptimalFlashAmount",
      "outputs": [
        {
          "internalType": "uint256",
          "name": "optimalAmount",
          "type": "uint256"
        },
        {
          "internalType": "uint256",
          "name": "expectedProfit",
          "type": "uint256"
        }
      ],
      "stateMutability": "view",
      "type": "function"
    },
    {
      "inputs": [
        {
          "internalType": "address",
          "name": "token",
          "type": "address"
        }
      ],
      "name": "emergencyWithdraw",
      "outputs": [],
      "stateMutability": "nonpayable",
      "type": "function"
    },
    {
      "inputs": [],
      "name": "emergencyWithdrawETH",
      "outputs": [],
      "stateMutability": "nonpayable",
      "type": "function"
    },
    {
      "inputs": [
        {
          "internalType": "address",
          "name": "asset",
          "type": "address"
        },
        {
          "internalType": "uint256",
          "name": "amount",
          "type": "uint256"
        }
      ],
      "name": "estimateArbitrageProfit",
      "outputs": [
        {
          "internalType": "uint256",
          "name": "",
          "type": "uint256"
        }
      ],
      "stateMutability": "view",
      "type": "function"
    },
    {
      "inputs": [
        {
          "internalType": "address",
          "name": "asset",
          "type": "address"
        },
        {
          "internalType": "uint256",
          "name": "amount",
          "type": "uint256"
        },
        {
          "internalType": "uint256",
          "name": "premium",
          "type": "uint256"
        },
        {
          "internalType": "address",
          "name": "",
          "type": "address"
        },
        {
          "internalType": "bytes",
          "name": "",
          "type": "bytes"
        }
      ],
      "name": "executeOperation",
      "outputs": [
        {
          "internalType": "bool",
          "name": "",
          "type": "bool"
        }
      ],
      "stateMutability": "nonpayable",
      "type": "function"
    },
    {
      "inputs": [
        {
          "internalType": "uint256",
          "name": "amount",
          "type": "uint256"
        }
      ],
      "name": "executeWethArbitrage",
      "outputs": [
        {
          "internalType": "uint256",
          "name": "profit",
          "type": "uint256"
        }
      ],
      "stateMutability": "nonpayable",
      "type": "function"
    },
    {
      "inputs": [],
      "name": "goldstem",
      "outputs": [
        {
          "internalType": "address",
          "name": "",
          "type": "address"
        }
      ],
      "stateMutability": "view",
      "type": "function"
    },
    {
      "inputs": [],
      "name": "owner",
      "outputs": [
        {
          "internalType": "address",
          "name": "",
          "type": "address"
        }
      ],
      "stateMutability": "view",
      "type": "function"
    },
    {
      "inputs": [],
      "name": "paused",
      "outputs": [
        {
          "internalType": "bool",
          "name": "",
          "type": "bool"
        }
      ],
      "stateMutability": "view",
      "type": "function"
    },
    {
      "inputs": [],
      "name": "pool",
      "outputs": [
        {
          "internalType": "address",
          "name": "",
          "type": "address"
        }
      ],
      "stateMutability": "view",
      "type": "function"
    },
    {
      "inputs": [],
      "name": "provider",
      "outputs": [
        {
          "internalType": "address",
          "name": "",
          "type": "address"
        }
      ],
      "stateMutability": "view",
      "type": "function"
    },
    {
      "inputs": [],
      "name": "renounceOwnership",
      "outputs": [],
      "stateMutability": "nonpayable",
      "type": "function"
    },
    {
      "inputs": [],
      "name": "rootTreasury",
      "outputs": [
        {
          "internalType": "address",
          "name": "",
          "type": "address"
        }
      ],
      "stateMutability": "view",
      "type": "function"
    },
    {
      "inputs": [
        {
          "internalType": "address",
          "name": "asset",
          "type": "address"
        },
        {
          "internalType": "uint256",
          "name": "amount",
          "type": "uint256"
        },
        {
          "internalType": "bytes",
          "name": "params",
          "type": "bytes"
        }
      ],
      "name": "runSimpleFlash",
      "outputs": [],
      "stateMutability": "nonpayable",
      "type": "function"
    },
    {
      "inputs": [
        {
          "internalType": "address",
          "name": "a",
          "type": "address"
        }
      ],
      "name": "setGoldstem",
      "outputs": [],
      "stateMutability": "nonpayable",
      "type": "function"
    },
    {
      "inputs": [
        {
          "internalType": "address",
          "name": "a",
          "type": "address"
        }
      ],
      "name": "setRootTreasury",
      "outputs": [],
      "stateMutability": "nonpayable",
      "type": "function"
    },
    {
      "inputs": [
        {
          "internalType": "address",
          "name": "asset",
          "type": "address"
        },
        {
          "internalType": "uint256",
          "name": "amount",
          "type": "uint256"
        }
      ],
      "name": "simulateArbitrage",
      "outputs": [
        {
          "internalType": "uint256",
          "name": "",
          "type": "uint256"
        }
      ],
      "stateMutability": "pure",
      "type": "function"
    },
    {
      "inputs": [
        {
          "internalType": "address",
          "name": "newOwner",
          "type": "address"
        }
      ],
      "name": "transferOwnership",
      "outputs": [],
      "stateMutability": "nonpayable",
      "type": "function"
    }
  ],
  "bytecode": "0x60c06040523480156200001157600080fd5b50604051620033203803806200332083398181016040528101906200003791906200043f565b33600073ffffffffffffffffffffffffffffffffffffffff168173ffffffffffffffffffffffffffffffffffffffff1603620000ad5760006040517f1e4fbdf7000000000000000000000000000000000000000000000000000000008152600401620000a49190620004ac565b60405180910390fd5b620000be816200031160201b60201c565b5060018081905550600073ffffffffffffffffffffffffffffffffffffffff168373ffffffffffffffffffffffffffffffffffffffff1614158015620001315750600073ffffffffffffffffffffffffffffffffffffffff168273ffffffffffffffffffffffffffffffffffffffff1614155b80156200016b5750600073ffffffffffffffffffffffffffffffffffffffff168173ffffffffffffffffffffffffffffffffffffffff1614155b620001ad576040517f08c379a0000000000000000000000000000000000000000000000000000000008152600401620001a4906200052a565b60405180910390fd5b8273ffffffffffffffffffffffffffffffffffffffff1660a08173ffffffffffffffffffffffffffffffffffffffff16815250508273ffffffffffffffffffffffffffffffffffffffff1663026b1d5f6040518163ffffffff1660e01b8152600401602060405180830381865afa1580156200022d573d6000803e3d6000fd5b505050506040513d601f19601f820116820180604052508101906200025391906200054c565b73ffffffffffffffffffffffffffffffffffffffff1660808173ffffffffffffffffffffffffffffffffffffffff168152505081600360006101000a81548173ffffffffffffffffffffffffffffffffffffffff021916908373ffffffffffffffffffffffffffffffffffffffff16021790555080600260006101000a81548173ffffffffffffffffffffffffffffffffffffffff021916908373ffffffffffffffffffffffffffffffffffffffff1602179055505050506200057e565b60008060009054906101000a900473ffffffffffffffffffffffffffffffffffffffff169050816000806101000a81548173ffffffffffffffffffffffffffffffffffffffff021916908373ffffffffffffffffffffffffffffffffffffffff1602179055508173ffffffffffffffffffffffffffffffffffffffff168173ffffffffffffffffffffffffffffffffffffffff167f8be0079c531659141344cd1fd0a4f28419497f9722a3daafe3b4186f6b6457e060405160405180910390a35050565b600080fd5b600073ffffffffffffffffffffffffffffffffffffffff82169050919050565b60006200040782620003da565b9050919050565b6200041981620003fa565b81146200042557600080fd5b50565b60008151905062000439816200040e565b92915050565b6000806000606084860312156200045b576200045a620003d5565b5b60006200046b8682870162000428565b93505060206200047e8682870162000428565b9250506040620004918682870162000428565b9150509250925092565b620004a681620003fa565b82525050565b6000602082019050620004c360008301846200049b565b92915050565b600082825260208201905092915050565b7f7a65726f20616464720000000000000000000000000000000000000000000000600082015250565b600062000512600983620004c9565b91506200051f82620004da565b602082019050919050565b60006020820190508181036000830152620005458162000503565b9050919050565b600060208284031215620005655762000564620003d5565b5b6000620005758482850162000428565b91505092915050565b60805160a051612d52620005ce60003960008181610bd60152610bfc015260008181610c2001528181610c4601528181610dcf01528181610e6f015281816112a201526117a90152612d526000f3fe608060405234801561001057600080fd5b50600436106101c45760003560e01c80638da5cb5b116100f9578063ae8ccfe411610097578063b3d8ad4611610071578063b3d8ad46146104c6578063c54e44eb146104e2578063e73d668f14610500578063f2fde38b1461051e576101c4565b8063ae8ccfe41461045b578063aed4fa1a14610477578063b1e79cd4146104a8576101c4565b8063994a8b31116100d3578063994a8b31146103e5578063a167722814610401578063a7e111481461041f578063ad5c46481461043d576101c4565b80638da5cb5b1461037957806391a99e8814610397578063958f1ef8146103b5576101c4565b806341f78e2711610166578063715018a611610140578063715018a6146103295780637535d24614610333578063845360171461035157806389a302711461035b576101c4565b806341f78e27146102bf5780635c975abb146102ef5780636ff1c9bc1461030d576101c4565b806316f0115b116101a257806316f0115b146102355780631b11d0ff14610253578063277754ed1461028357806341c64a2f146102a1576101c4565b8063034c40eb146101c95780630542975c146101f9578063085d488314610217575b600080fd5b6101e360048036038101906101de9190611d04565b61053a565b6040516101f09190611d40565b60405180910390f35b610201610bd2565b60405161020e9190611dda565b60405180910390f35b61021f610bfa565b60405161022c9190611e16565b60405180910390f35b61023d610c1e565b60405161024a9190611e16565b60405180910390f35b61026d60048036038101906102689190611ec2565b610c42565b60405161027a9190611f77565b60405180910390f35b61028b611086565b6040516102989190611e16565b60405180910390f35b6102a961109e565b6040516102b69190611e16565b60405180910390f35b6102d960048036038101906102d49190611f92565b6110b6565b6040516102e69190611d40565b60405180910390f35b6102f761115a565b6040516103049190611f77565b60405180910390f35b61032760048036038101906103229190611fd2565b611170565b005b61033161128a565b005b61033b61129e565b6040516103489190612020565b60405180910390f35b6103596112c6565b005b610363611394565b6040516103709190611e16565b60405180910390f35b6103816113ac565b60405161038e9190611e16565b60405180910390f35b61039f6113d5565b6040516103ac9190611e16565b60405180910390f35b6103cf60048036038101906103ca9190611f92565b6113fb565b6040516103dc9190611d40565b60405180910390f35b6103ff60048036038101906103fa9190611fd2565b6114da565b005b610409611526565b6040516104169190612059565b60405180910390f35b61042761152c565b6040516104349190611e16565b60405180910390f35b610445611552565b6040516104529190611e16565b60405180910390f35b61047560048036038101906104709190611fd2565b61156a565b005b610491600480360381019061048c9190611fd2565b6115b6565b60405161049f929190612074565b60405180910390f35b6104b06116a3565b6040516104bd9190611d40565b60405180910390f35b6104e060048036038101906104db919061209d565b6116b0565b005b6104ea61184c565b6040516104f79190611e16565b60405180910390f35b610508611864565b6040516105159190611d40565b60405180910390f35b61053860048036038101906105339190611fd2565b61186f565b005b60003073ffffffffffffffffffffffffffffffffffffffff163373ffffffffffffffffffffffffffffffffffffffff16146105aa576040517f08c379a00000000000000000000000000000000000000000000000000000000081526004016105a19061216e565b60405180910390fd5b60007382af49447d8a07e3bd95bd0d56f35241523fbab173ffffffffffffffffffffffffffffffffffffffff166370a08231306040518263ffffffff1660e01b81526004016105f99190611e16565b602060405180830381865afa158015610616573d6000803e3d6000fd5b505050506040513d601f19601f8201168201806040525081019061063a91906121a3565b90507382af49447d8a07e3bd95bd0d56f35241523fbab173ffffffffffffffffffffffffffffffffffffffff1663095ea7b373e592427a0aece92de3edee1f18e0157c05861564856040518363ffffffff1660e01b815260040161069f9291906121d0565b6020604051808303816000875af11580156106be573d6000803e3d6000fd5b505050506040513d601f19601f820116820180604052508101906106e29190612225565b5060006040518061010001604052807382af49447d8a07e3bd95bd0d56f35241523fbab173ffffffffffffffffffffffffffffffffffffffff16815260200173ff970a61a04b1ca14834a43f5de4533ebddb5cc873ffffffffffffffffffffffffffffffffffffffff168152602001610bb862ffffff1681526020013073ffffffffffffffffffffffffffffffffffffffff16815260200161012c426107889190612281565b815260200185815260200160008152602001600073ffffffffffffffffffffffffffffffffffffffff168152509050600073e592427a0aece92de3edee1f18e0157c0586156473ffffffffffffffffffffffffffffffffffffffff1663414bf389836040518263ffffffff1660e01b81526004016108069190612393565b6020604051808303816000875af1158015610825573d6000803e3d6000fd5b505050506040513d601f19601f8201168201806040525081019061084991906121a3565b905073ff970a61a04b1ca14834a43f5de4533ebddb5cc873ffffffffffffffffffffffffffffffffffffffff1663095ea7b3731b02da8cb0d097eb8d57a175b88c7d8b47997506836040518363ffffffff1660e01b81526004016108ae9291906121d0565b6020604051808303816000875af11580156108cd573d6000803e3d6000fd5b505050506040513d601f19601f820116820180604052508101906108f19190612225565b506000600267ffffffffffffffff81111561090f5761090e6123af565b5b60405190808252806020026020018201604052801561093d5781602001602082028036833780820191505090505b50905073ff970a61a04b1ca14834a43f5de4533ebddb5cc881600081518110610969576109686123de565b5b602002602001019073ffffffffffffffffffffffffffffffffffffffff16908173ffffffffffffffffffffffffffffffffffffffff16815250507382af49447d8a07e3bd95bd0d56f35241523fbab1816001815181106109cc576109cb6123de565b5b602002602001019073ffffffffffffffffffffffffffffffffffffffff16908173ffffffffffffffffffffffffffffffffffffffff1681525050731b02da8cb0d097eb8d57a175b88c7d8b4799750673ffffffffffffffffffffffffffffffffffffffff166338ed1739836000843061012c42610a499190612281565b6040518663ffffffff1660e01b8152600401610a699594939291906124f7565b6000604051808303816000875af1158015610a88573d6000803e3d6000fd5b505050506040513d6000823e3d601f19601f82011682018060405250810190610ab19190612671565b5060007382af49447d8a07e3bd95bd0d56f35241523fbab173ffffffffffffffffffffffffffffffffffffffff166370a08231306040518263ffffffff1660e01b8152600401610b019190611e16565b602060405180830381865afa158015610b1e573d6000803e3d6000fd5b505050506040513d601f19601f82011682018060405250810190610b4291906121a3565b9050848111610b52576000610b5f565b8481610b5e91906126ba565b5b95507f0479602bef4bb9277c21beadda23c5e4db7f0b2d4877d00070d6e0739e8c7c0e7382af49447d8a07e3bd95bd0d56f35241523fbab173ff970a61a04b1ca14834a43f5de4533ebddb5cc889868a604051610bc09594939291906126ee565b60405180910390a15050505050919050565b60007f0000000000000000000000000000000000000000000000000000000000000000905090565b7f000000000000000000000000000000000000000000000000000000000000000081565b7f000000000000000000000000000000000000000000000000000000000000000081565b60007f000000000000000000000000000000000000000000000000000000000000000073ffffffffffffffffffffffffffffffffffffffff163373ffffffffffffffffffffffffffffffffffffffff1614610cd2576040517f08c379a0000000000000000000000000000000000000000000000000000000008152600401610cc99061278d565b60405180910390fd5b6000610cde88886118f5565b905060008688610cee9190612281565b905060008973ffffffffffffffffffffffffffffffffffffffff166370a08231306040518263ffffffff1660e01b8152600401610d2b9190611e16565b602060405180830381865afa158015610d48573d6000803e3d6000fd5b505050506040513d601f19601f82011682018060405250810190610d6c91906121a3565b905081811015610db1576040517f08c379a0000000000000000000000000000000000000000000000000000000008152600401610da89061281f565b60405180910390fd5b8973ffffffffffffffffffffffffffffffffffffffff1663095ea7b37f000000000000000000000000000000000000000000000000000000000000000060006040518363ffffffff1660e01b8152600401610e0d92919061283f565b6020604051808303816000875af1158015610e2c573d6000803e3d6000fd5b505050506040513d601f19601f82011682018060405250810190610e509190612225565b508973ffffffffffffffffffffffffffffffffffffffff1663095ea7b37f0000000000000000000000000000000000000000000000000000000000000000846040518363ffffffff1660e01b8152600401610eac9291906121d0565b6020604051808303816000875af1158015610ecb573d6000803e3d6000fd5b505050506040513d601f19601f82011682018060405250810190610eef9190612225565b5060008a73ffffffffffffffffffffffffffffffffffffffff166370a08231306040518263ffffffff1660e01b8152600401610f2b9190611e16565b602060405180830381865afa158015610f48573d6000803e3d6000fd5b505050506040513d601f19601f82011682018060405250810190610f6c91906121a3565b90506000838211610f7e576000610f8b565b8382610f8a91906126ba565b5b90506000811115611038578b73ffffffffffffffffffffffffffffffffffffffff1663a9059cbb600260009054906101000a900473ffffffffffffffffffffffffffffffffffffffff16836040518363ffffffff1660e01b8152600401610ff39291906121d0565b6020604051808303816000875af1158015611012573d6000803e3d6000fd5b505050506040513d601f19601f820116820180604052508101906110369190612225565b505b7f6b503ccb8fe3617e786d56756579016943b3839c546866718cfa2accb1cbb3ca8c8b8360405161106b93929190612868565b60405180910390a16001955050505050509695505050505050565b731b02da8cb0d097eb8d57a175b88c7d8b4799750681565b73e592427a0aece92de3edee1f18e0157c0586156481565b60007382af49447d8a07e3bd95bd0d56f35241523fbab173ffffffffffffffffffffffffffffffffffffffff168373ffffffffffffffffffffffffffffffffffffffff16146111085760009050611154565b60006103e860038461111a919061289f565b6111249190612910565b905060006103e880856111379190612941565b6111419190612910565b8261114c9190612281565b905080925050505b92915050565b60008060149054906101000a900460ff16905090565b611178611ad7565b60008173ffffffffffffffffffffffffffffffffffffffff166370a08231306040518263ffffffff1660e01b81526004016111b39190611e16565b602060405180830381865afa1580156111d0573d6000803e3d6000fd5b505050506040513d601f19601f820116820180604052508101906111f491906121a3565b90506000811115611286578173ffffffffffffffffffffffffffffffffffffffff1663a9059cbb6112236113ac565b836040518363ffffffff1660e01b81526004016112419291906121d0565b6020604051808303816000875af1158015611260573d6000803e3d6000fd5b505050506040513d601f19601f820116820180604052508101906112849190612225565b505b5050565b611292611ad7565b61129c6000611b5e565b565b60007f0000000000000000000000000000000000000000000000000000000000000000905090565b6112ce611ad7565b600047905060008111156113915760006112e66113ac565b73ffffffffffffffffffffffffffffffffffffffff1682604051611309906129a3565b60006040518083038185875af1925050503d8060008114611346576040519150601f19603f3d011682016040523d82523d6000602084013e61134b565b606091505b505090508061138f576040517f08c379a000000000000000000000000000000000000000000000000000000000815260040161138690612a04565b60405180910390fd5b505b50565b73ff970a61a04b1ca14834a43f5de4533ebddb5cc881565b60008060009054906101000a900473ffffffffffffffffffffffffffffffffffffffff16905090565b600260009054906101000a900473ffffffffffffffffffffffffffffffffffffffff1681565b60007382af49447d8a07e3bd95bd0d56f35241523fbab173ffffffffffffffffffffffffffffffffffffffff168373ffffffffffffffffffffffffffffffffffffffff161461144d57600090506114d4565b3073ffffffffffffffffffffffffffffffffffffffff166341f78e2784846040518363ffffffff1660e01b81526004016114889291906121d0565b602060405180830381865afa9250505080156114c257506040513d601f19601f820116820180604052508101906114bf91906121a3565b60015b6114cf57600090506114d4565b809150505b92915050565b6114e2611ad7565b80600360006101000a81548173ffffffffffffffffffffffffffffffffffffffff021916908373ffffffffffffffffffffffffffffffffffffffff16021790555050565b610bb881565b600360009054906101000a900473ffffffffffffffffffffffffffffffffffffffff1681565b7382af49447d8a07e3bd95bd0d56f35241523fbab181565b611572611ad7565b80600260006101000a81548173ffffffffffffffffffffffffffffffffffffffff021916908373ffffffffffffffffffffffffffffffffffffffff16021790555050565b6000807382af49447d8a07e3bd95bd0d56f35241523fbab173ffffffffffffffffffffffffffffffffffffffff168373ffffffffffffffffffffffffffffffffffffffff161461160c576000809150915061169e565b6000670de0b6b3a76400009050600068056bc75e2d63100000905060008290506000808490505b83811161167357600061164689836113fb565b905082811115611657578092508193505b50678ac7230489e800008161166c9190612281565b9050611633565b5066038d7ea4c68000811115611692578181955095505050505061169e565b60008095509550505050505b915091565b68056bc75e2d6310000081565b6116b8611c22565b6116c0611c63565b6116c8611ad7565b60008390506000810361172b5760006116e0866115b6565b50905060008111611726576040517f08c379a000000000000000000000000000000000000000000000000000000000815260040161171d90612a96565b60405180910390fd5b809150505b6000811161176e576040517f08c379a000000000000000000000000000000000000000000000000000000000815260040161176590612b02565b60405180910390fd5b7f1e069908b6875ea1e6e903413f4b38ae5d61ba274c0e2cba8c5e3fff60e484c8858260405161179f9291906121d0565b60405180910390a17f000000000000000000000000000000000000000000000000000000000000000073ffffffffffffffffffffffffffffffffffffffff166342b0b77c308784878760006040518763ffffffff1660e01b815260040161180b96959493929190612bae565b600060405180830381600087803b15801561182557600080fd5b505af1158015611839573d6000803e3d6000fd5b5050505050611846611ca9565b50505050565b73fd086bc7cd5c481dcc9c85ebe478a1c0b69fcbb981565b66038d7ea4c6800081565b611877611ad7565b600073ffffffffffffffffffffffffffffffffffffffff168173ffffffffffffffffffffffffffffffffffffffff16036118e95760006040517f1e4fbdf70000000000000000000000000000000000000000000000000000000081526004016118e09190611e16565b60405180910390fd5b6118f281611b5e565b50565b60007382af49447d8a07e3bd95bd0d56f35241523fbab173ffffffffffffffffffffffffffffffffffffffff168373ffffffffffffffffffffffffffffffffffffffff16146119475760009050611ad1565b3073ffffffffffffffffffffffffffffffffffffffff1663034c40eb836040518263ffffffff1660e01b81526004016119809190611d40565b6020604051808303816000875af19250505080156119bc57506040513d601f19601f820116820180604052508101906119b991906121a3565b60015b611acc576119c8612c17565b806308c379a003611a5957506119dc612c39565b806119e75750611a5b565b7f0479602bef4bb9277c21beadda23c5e4db7f0b2d4877d00070d6e0739e8c7c0e7382af49447d8a07e3bd95bd0d56f35241523fbab173ff970a61a04b1ca14834a43f5de4533ebddb5cc885600080604051611a47959493929190612cc9565b60405180910390a16000915050611ad1565b505b7f0479602bef4bb9277c21beadda23c5e4db7f0b2d4877d00070d6e0739e8c7c0e7382af49447d8a07e3bd95bd0d56f35241523fbab173ff970a61a04b1ca14834a43f5de4533ebddb5cc884600080604051611abb959493929190612cc9565b60405180910390a160009050611ad1565b809150505b92915050565b611adf611cb2565b73ffffffffffffffffffffffffffffffffffffffff16611afd6113ac565b73ffffffffffffffffffffffffffffffffffffffff1614611b5c57611b20611cb2565b6040517f118cdaa7000000000000000000000000000000000000000000000000000000008152600401611b539190611e16565b60405180910390fd5b565b60008060009054906101000a900473ffffffffffffffffffffffffffffffffffffffff169050816000806101000a81548173ffffffffffffffffffffffffffffffffffffffff021916908373ffffffffffffffffffffffffffffffffffffffff1602179055508173ffffffffffffffffffffffffffffffffffffffff168173ffffffffffffffffffffffffffffffffffffffff167f8be0079c531659141344cd1fd0a4f28419497f9722a3daafe3b4186f6b6457e060405160405180910390a35050565b611c2a61115a565b15611c61576040517fd93c066500000000000000000000000000000000000000000000000000000000815260040160405180910390fd5b565b600260015403611c9f576040517f3ee5aeb500000000000000000000000000000000000000000000000000000000815260040160405180910390fd5b6002600181905550565b60018081905550565b600033905090565b6000604051905090565b600080fd5b600080fd5b6000819050919050565b611ce181611cce565b8114611cec57600080fd5b50565b600081359050611cfe81611cd8565b92915050565b600060208284031215611d1a57611d19611cc4565b5b6000611d2884828501611cef565b91505092915050565b611d3a81611cce565b82525050565b6000602082019050611d556000830184611d31565b92915050565b600073ffffffffffffffffffffffffffffffffffffffff82169050919050565b6000819050919050565b6000611da0611d9b611d9684611d5b565b611d7b565b611d5b565b9050919050565b6000611db282611d85565b9050919050565b6000611dc482611da7565b9050919050565b611dd481611db9565b82525050565b6000602082019050611def6000830184611dcb565b92915050565b6000611e0082611d5b565b9050919050565b611e1081611df5565b82525050565b6000602082019050611e2b6000830184611e07565b92915050565b611e3a81611df5565b8114611e4557600080fd5b50565b600081359050611e5781611e31565b92915050565b600080fd5b600080fd5b600080fd5b60008083601f840112611e8257611e81611e5d565b5b8235905067ffffffffffffffff811115611e9f57611e9e611e62565b5b602083019150836001820283011115611ebb57611eba611e67565b5b9250929050565b60008060008060008060a08789031215611edf57611ede611cc4565b5b6000611eed89828a01611e48565b9650506020611efe89828a01611cef565b9550506040611f0f89828a01611cef565b9450506060611f2089828a01611e48565b935050608087013567ffffffffffffffff811115611f4157611f40611cc9565b5b611f4d89828a01611e6c565b92509250509295509295509295565b60008115159050919050565b611f7181611f5c565b82525050565b6000602082019050611f8c6000830184611f68565b92915050565b60008060408385031215611fa957611fa8611cc4565b5b6000611fb785828601611e48565b9250506020611fc885828601611cef565b9150509250929050565b600060208284031215611fe857611fe7611cc4565b5b6000611ff684828501611e48565b91505092915050565b600061200a82611da7565b9050919050565b61201a81611fff565b82525050565b60006020820190506120356000830184612011565b92915050565b600062ffffff82169050919050565b6120538161203b565b82525050565b600060208201905061206e600083018461204a565b92915050565b60006040820190506120896000830185611d31565b6120966020830184611d31565b9392505050565b600080600080606085870312156120b7576120b6611cc4565b5b60006120c587828801611e48565b94505060206120d687828801611cef565b935050604085013567ffffffffffffffff8111156120f7576120f6611cc9565b5b61210387828801611e6c565b925092505092959194509250565b600082825260208201905092915050565b7f4f6e6c792073656c662d63616c6c20616c6c6f77656400000000000000000000600082015250565b6000612158601683612111565b915061216382612122565b602082019050919050565b600060208201905081810360008301526121878161214b565b9050919050565b60008151905061219d81611cd8565b92915050565b6000602082840312156121b9576121b8611cc4565b5b60006121c78482850161218e565b91505092915050565b60006040820190506121e56000830185611e07565b6121f26020830184611d31565b9392505050565b61220281611f5c565b811461220d57600080fd5b50565b60008151905061221f816121f9565b92915050565b60006020828403121561223b5761223a611cc4565b5b600061224984828501612210565b91505092915050565b7f4e487b7100000000000000000000000000000000000000000000000000000000600052601160045260246000fd5b600061228c82611cce565b915061229783611cce565b92508282019050808211156122af576122ae612252565b5b92915050565b6122be81611df5565b82525050565b6122cd8161203b565b82525050565b6122dc81611cce565b82525050565b6122eb81611d5b565b82525050565b6101008201600082015161230860008501826122b5565b50602082015161231b60208501826122b5565b50604082015161232e60408501826122c4565b50606082015161234160608501826122b5565b50608082015161235460808501826122d3565b5060a082015161236760a08501826122d3565b5060c082015161237a60c08501826122d3565b5060e082015161238d60e08501826122e2565b50505050565b6000610100820190506123a960008301846122f1565b92915050565b7f4e487b7100000000000000000000000000000000000000000000000000000000600052604160045260246000fd5b7f4e487b7100000000000000000000000000000000000000000000000000000000600052603260045260246000fd5b6000819050919050565b600061243261242d6124288461240d565b611d7b565b611cce565b9050919050565b61244281612417565b82525050565b600081519050919050565b600082825260208201905092915050565b6000819050602082019050919050565b600061248083836122b5565b60208301905092915050565b6000602082019050919050565b60006124a482612448565b6124ae8185612453565b93506124b983612464565b8060005b838110156124ea5781516124d18882612474565b97506124dc8361248c565b9250506001810190506124bd565b5085935050505092915050565b600060a08201905061250c6000830188611d31565b6125196020830187612439565b818103604083015261252b8186612499565b905061253a6060830185611e07565b6125476080830184611d31565b9695505050505050565b6000601f19601f8301169050919050565b61256b82612551565b810181811067ffffffffffffffff8211171561258a576125896123af565b5b80604052505050565b600061259d611cba565b90506125a98282612562565b919050565b600067ffffffffffffffff8211156125c9576125c86123af565b5b602082029050602081019050919050565b60006125ed6125e8846125ae565b612593565b905080838252602082019050602084028301858111156126105761260f611e67565b5b835b818110156126395780612625888261218e565b845260208401935050602081019050612612565b5050509392505050565b600082601f83011261265857612657611e5d565b5b81516126688482602086016125da565b91505092915050565b60006020828403121561268757612686611cc4565b5b600082015167ffffffffffffffff8111156126a5576126a4611cc9565b5b6126b184828501612643565b91505092915050565b60006126c582611cce565b91506126d083611cce565b92508282039050818111156126e8576126e7612252565b5b92915050565b600060a0820190506127036000830188611e07565b6127106020830187611e07565b61271d6040830186611d31565b61272a6060830185611d31565b6127376080830184611d31565b9695505050505050565b7f6f6e6c7920706f6f6c0000000000000000000000000000000000000000000000600082015250565b6000612777600983612111565b915061278282612741565b602082019050919050565b600060208201905081810360008301526127a68161276a565b9050919050565b7f496e73756666696369656e742062616c616e636520746f20726570617920666c60008201527f617368206c6f616e000000000000000000000000000000000000000000000000602082015250565b6000612809602883612111565b9150612814826127ad565b604082019050919050565b60006020820190508181036000830152612838816127fc565b9050919050565b60006040820190506128546000830185611e07565b6128616020830184612439565b9392505050565b600060608201905061287d6000830186611e07565b61288a6020830185611d31565b6128976040830184611d31565b949350505050565b60006128aa82611cce565b91506128b583611cce565b92508282026128c381611cce565b915082820484148315176128da576128d9612252565b5b5092915050565b7f4e487b7100000000000000000000000000000000000000000000000000000000600052601260045260246000fd5b600061291b82611cce565b915061292683611cce565b925082612936576129356128e1565b5b828204905092915050565b600061294c82611cce565b915061295783611cce565b925082612967576129666128e1565b5b828206905092915050565b600081905092915050565b50565b600061298d600083612972565b91506129988261297d565b600082019050919050565b60006129ae82612980565b9150819050919050565b7f455448207769746864726177616c206661696c65640000000000000000000000600082015250565b60006129ee601583612111565b91506129f9826129b8565b602082019050919050565b60006020820190508181036000830152612a1d816129e1565b9050919050565b7f4e6f2070726f66697461626c6520617262697472616765206f70706f7274756e60008201527f69747920666f756e640000000000000000000000000000000000000000000000602082015250565b6000612a80602983612111565b9150612a8b82612a24565b604082019050919050565b60006020820190508181036000830152612aaf81612a73565b9050919050565b7f616d6f756e743d30000000000000000000000000000000000000000000000000600082015250565b6000612aec600883612111565b9150612af782612ab6565b602082019050919050565b60006020820190508181036000830152612b1b81612adf565b9050919050565b600082825260208201905092915050565b82818337600083830152505050565b6000612b4e8385612b22565b9350612b5b838584612b33565b612b6483612551565b840190509392505050565b600061ffff82169050919050565b6000612b98612b93612b8e8461240d565b611d7b565b612b6f565b9050919050565b612ba881612b7d565b82525050565b600060a082019050612bc36000830189611e07565b612bd06020830188611e07565b612bdd6040830187611d31565b8181036060830152612bf0818587612b42565b9050612bff6080830184612b9f565b979650505050505050565b60008160e01c9050919050565b600060033d1115612c365760046000803e612c33600051612c0a565b90505b90565b600060443d10612cc657612c4b611cba565b60043d036004823e80513d602482011167ffffffffffffffff82111715612c73575050612cc6565b808201805167ffffffffffffffff811115612c915750505050612cc6565b80602083010160043d038501811115612cae575050505050612cc6565b612cbd82602001850186612562565b82955050505050505b90565b600060a082019050612cde6000830188611e07565b612ceb6020830187611e07565b612cf86040830186611d31565b612d056060830185612439565b612d126080830184612439565b969550505050505056fea264697066735822122071847abc9fa4b01126cb54259a1ede1c8f6eea870158761ec205a2e6138313fa64736f6c63430008180033",
  "linkReferences": {},
  "deployedLinkReferences": {}
}