{
  "_format": "hh-sol-artifact-1",
  "contractName": "FlashloanExecutor",
  "sourceName": "contracts/FlashloanExecutor.sol",
  "abi": [
    {
      "inputs": [
        {
          "internalType": "address",
          "name": "_provider",
          "type": "address"
        },
        {
          "internalType": "address",
          "name": "_goldstem",
          "type": "address"
        },
        {
          "internalType": "address",
          "name": "_rootTreasury",
          "type": "address"
        }
      ],
      "stateMutability": "nonpayable",
      "type": "constructor"
    },
    {
      "inputs": [],
      "name": "EnforcedPause",
      "type": "error"
    },
    {
      "inputs": [],
      "name": "ExpectedPause",
      "type": "error"
    },
    {
      "inputs": [
        {
          "internalType": "address",
          "name": "owner",
          "type": "address"
        }
      ],
      "name": "OwnableInvalidOwner",
      "type": "error"
    },
    {
      "inputs": [
        {
          "internalType": "address",
          "name": "account",
          "type": "address"
        }
      ],
      "name": "OwnableUnauthorizedAccount",
      "type": "error"
    },
    {
      "inputs": [],
      "name": "ReentrancyGuardReentrantCall",
      "type": "error"
    },
    {
      "anonymous": false,
      "inputs": [
        {
          "indexed": false,
          "internalType": "address",
          "name": "tokenIn",
          "type": "address"
        },
        {
          "indexed": false,
          "internalType": "address",
          "name": "tokenOut",
          "type": "address"
        },
        {
          "indexed": false,
          "internalType": "uint256",
          "name": "amountIn",
          "type": "uint256"
        },
        {
          "indexed": false,
          "internalType": "uint256",
          "name": "amountOut",
          "type": "uint256"
        },
        {
          "indexed": false,
          "internalType": "uint256",
          "name": "profit",
          "type": "uint256"
        }
      ],
      "name": "ArbitrageExecuted",
      "type": "event"
    },
    {
      "anonymous": false,
      "inputs": [
        {
          "indexed": false,
          "internalType": "address",
          "name": "asset",
          "type": "address"
        },
        {
          "indexed": false,
          "internalType": "uint256",
          "name": "premium",
          "type": "uint256"
        },
        {
          "indexed": false,
          "internalType": "uint256",
          "name": "profitWei",
          "type": "uint256"
        }
      ],
      "name": "FlashCompleted",
      "type": "event"
    },
    {
      "anonymous": false,
      "inputs": [
        {
          "indexed": false,
          "internalType": "address",
          "name": "asset",
          "type": "address"
        },
        {
          "indexed": false,
          "internalType": "uint256",
          "name": "amount",
          "type": "uint256"
        }
      ],
      "name": "FlashStarted",
      "type": "event"
    },
    {
      "anonymous": false,
      "inputs": [
        {
          "indexed": true,
          "internalType": "address",
          "name": "previousOwner",
          "type": "address"
        },
        {
          "indexed": true,
          "internalType": "address",
          "name": "newOwner",
          "type": "address"
        }
      ],
      "name": "OwnershipTransferred",
      "type": "event"
    },
    {
      "anonymous": false,
      "inputs": [
        {
          "indexed": false,
          "internalType": "address",
          "name": "account",
          "type": "address"
        }
      ],
      "name": "Paused",
      "type": "event"
    },
    {
      "anonymous": false,
      "inputs": [
        {
          "indexed": false,
          "internalType": "address",
          "name": "account",
          "type": "address"
        }
      ],
      "name": "Unpaused",
      "type": "event"
    },
    {
      "inputs": [],
      "name": "ADDRESSES_PROVIDER",
      "outputs": [
        {
          "internalType": "contract IPoolAddressesProvider",
          "name": "",
          "type": "address"
        }
      ],
      "stateMutability": "view",
      "type": "function"
    },
    {
      "inputs": [],
      "name": "MAX_FLASH_AMOUNT",
      "outputs": [
        {
          "internalType": "uint256",
          "name": "",
          "type": "uint256"
        }
      ],
      "stateMutability": "view",
      "type": "function"
    },
    {
      "inputs": [],
      "name": "MIN_PROFIT_THRESHOLD",
      "outputs": [
        {
          "internalType": "uint256",
          "name": "",
          "type": "uint256"
        }
      ],
      "stateMutability": "view",
      "type": "function"
    },
    {
      "inputs": [],
      "name": "POOL",
      "outputs": [
        {
          "internalType": "contract IPool",
          "name": "",
          "type": "address"
        }
      ],
      "stateMutability": "view",
      "type": "function"
    },
    {
      "inputs": [],
      "name": "SUSHISWAP_ROUTER",
      "outputs": [
        {
          "internalType": "address",
          "name": "",
          "type": "address"
        }
      ],
      "stateMutability": "view",
      "type": "function"
    },
    {
      "inputs": [],
      "name": "UNISWAP_FEE",
      "outputs": [
        {
          "internalType": "uint24",
          "name": "",
          "type": "uint24"
        }
      ],
      "stateMutability": "view",
      "type": "function"
    },
    {
      "inputs": [],
      "name": "UNISWAP_V3_ROUTER",
      "outputs": [
        {
          "internalType": "address",
          "name": "",
          "type": "address"
        }
      ],
      "stateMutability": "view",
      "type": "function"
    },
    {
      "inputs": [],
      "name": "USDC",
      "outputs": [
        {
          "internalType": "address",
          "name": "",
          "type": "address"
        }
      ],
      "stateMutability": "view",
      "type": "function"
    },
    {
      "inputs": [],
      "name": "USDT",
      "outputs": [
        {
          "internalType": "address",
          "name": "",
          "type": "address"
        }
      ],
      "stateMutability": "view",
      "type": "function"
    },
    {
      "inputs": [],
      "name": "WETH",
      "outputs": [
        {
          "internalType": "address",
          "name": "",
          "type": "address"
        }
      ],
      "stateMutability": "view",
      "type": "function"
    },
    {
      "inputs": [
        {
          "internalType": "address",
          "name": "asset",
          "type": "address"
        }
      ],
      "name": "calculateOptimalFlashAmount",
      "outputs": [
        {
          "internalType": "uint256",
          "name": "optimalAmount",
          "type": "uint256"
        },
        {
          "internalType": "uint256",
          "name": "expectedProfit",
          "type": "uint256"
        }
      ],
      "stateMutability": "view",
      "type": "function"
    },
    {
      "inputs": [
        {
          "internalType": "address",
          "name": "token",
          "type": "address"
        }
      ],
      "name": "emergencyWithdraw",
      "outputs": [],
      "stateMutability": "nonpayable",
      "type": "function"
    },
    {
      "inputs": [],
      "name": "emergencyWithdrawETH",
      "outputs": [],
      "stateMutability": "nonpayable",
      "type": "function"
    },
    {
      "inputs": [
        {
          "internalType": "address",
          "name": "asset",
          "type": "address"
        },
        {
          "internalType": "uint256",
          "name": "amount",
          "type": "uint256"
        }
      ],
      "name": "estimateArbitrageProfit",
      "outputs": [
        {
          "internalType": "uint256",
          "name": "",
          "type": "uint256"
        }
      ],
      "stateMutability": "view",
      "type": "function"
    },
    {
      "inputs": [
        {
          "internalType": "address",
          "name": "asset",
          "type": "address"
        },
        {
          "internalType": "uint256",
          "name": "amount",
          "type": "uint256"
        },
        {
          "internalType": "uint256",
          "name": "premium",
          "type": "uint256"
        },
        {
          "internalType": "address",
          "name": "",
          "type": "address"
        },
        {
          "internalType": "bytes",
          "name": "",
          "type": "bytes"
        }
      ],
      "name": "executeOperation",
      "outputs": [
        {
          "internalType": "bool",
          "name": "",
          "type": "bool"
        }
      ],
      "stateMutability": "nonpayable",
      "type": "function"
    },
    {
      "inputs": [],
      "name": "goldstem",
      "outputs": [
        {
          "internalType": "address",
          "name": "",
          "type": "address"
        }
      ],
      "stateMutability": "view",
      "type": "function"
    },
    {
      "inputs": [],
      "name": "owner",
      "outputs": [
        {
          "internalType": "address",
          "name": "",
          "type": "address"
        }
      ],
      "stateMutability": "view",
      "type": "function"
    },
    {
      "inputs": [],
      "name": "paused",
      "outputs": [
        {
          "internalType": "bool",
          "name": "",
          "type": "bool"
        }
      ],
      "stateMutability": "view",
      "type": "function"
    },
    {
      "inputs": [],
      "name": "pool",
      "outputs": [
        {
          "internalType": "address",
          "name": "",
          "type": "address"
        }
      ],
      "stateMutability": "view",
      "type": "function"
    },
    {
      "inputs": [],
      "name": "provider",
      "outputs": [
        {
          "internalType": "address",
          "name": "",
          "type": "address"
        }
      ],
      "stateMutability": "view",
      "type": "function"
    },
    {
      "inputs": [],
      "name": "renounceOwnership",
      "outputs": [],
      "stateMutability": "nonpayable",
      "type": "function"
    },
    {
      "inputs": [],
      "name": "rootTreasury",
      "outputs": [
        {
          "internalType": "address",
          "name": "",
          "type": "address"
        }
      ],
      "stateMutability": "view",
      "type": "function"
    },
    {
      "inputs": [
        {
          "internalType": "address",
          "name": "asset",
          "type": "address"
        },
        {
          "internalType": "uint256",
          "name": "amount",
          "type": "uint256"
        },
        {
          "internalType": "bytes",
          "name": "params",
          "type": "bytes"
        }
      ],
      "name": "runSimpleFlash",
      "outputs": [],
      "stateMutability": "nonpayable",
      "type": "function"
    },
    {
      "inputs": [
        {
          "internalType": "address",
          "name": "a",
          "type": "address"
        }
      ],
      "name": "setGoldstem",
      "outputs": [],
      "stateMutability": "nonpayable",
      "type": "function"
    },
    {
      "inputs": [
        {
          "internalType": "address",
          "name": "a",
          "type": "address"
        }
      ],
      "name": "setRootTreasury",
      "outputs": [],
      "stateMutability": "nonpayable",
      "type": "function"
    },
    {
      "inputs": [
        {
          "internalType": "address",
          "name": "asset",
          "type": "address"
        },
        {
          "internalType": "uint256",
          "name": "amount",
          "type": "uint256"
        }
      ],
      "name": "simulateArbitrage",
      "outputs": [
        {
          "internalType": "uint256",
          "name": "",
          "type": "uint256"
        }
      ],
      "stateMutability": "pure",
      "type": "function"
    },
    {
      "inputs": [
        {
          "internalType": "address",
          "name": "newOwner",
          "type": "address"
        }
      ],
      "name": "transferOwnership",
      "outputs": [],
      "stateMutability": "nonpayable",
      "type": "function"
    }
  ],
  "bytecode": "0x60c06040523480156200001157600080fd5b506040516200233d3803806200233d83398181016040528101906200003791906200043f565b33600073ffffffffffffffffffffffffffffffffffffffff168173ffffffffffffffffffffffffffffffffffffffff1603620000ad5760006040517f1e4fbdf7000000000000000000000000000000000000000000000000000000008152600401620000a49190620004ac565b60405180910390fd5b620000be816200031160201b60201c565b5060018081905550600073ffffffffffffffffffffffffffffffffffffffff168373ffffffffffffffffffffffffffffffffffffffff1614158015620001315750600073ffffffffffffffffffffffffffffffffffffffff168273ffffffffffffffffffffffffffffffffffffffff1614155b80156200016b5750600073ffffffffffffffffffffffffffffffffffffffff168173ffffffffffffffffffffffffffffffffffffffff1614155b620001ad576040517f08c379a0000000000000000000000000000000000000000000000000000000008152600401620001a4906200052a565b60405180910390fd5b8273ffffffffffffffffffffffffffffffffffffffff1660a08173ffffffffffffffffffffffffffffffffffffffff16815250508273ffffffffffffffffffffffffffffffffffffffff1663026b1d5f6040518163ffffffff1660e01b8152600401602060405180830381865afa1580156200022d573d6000803e3d6000fd5b505050506040513d601f19601f820116820180604052508101906200025391906200054c565b73ffffffffffffffffffffffffffffffffffffffff1660808173ffffffffffffffffffffffffffffffffffffffff168152505081600360006101000a81548173ffffffffffffffffffffffffffffffffffffffff021916908373ffffffffffffffffffffffffffffffffffffffff16021790555080600260006101000a81548173ffffffffffffffffffffffffffffffffffffffff021916908373ffffffffffffffffffffffffffffffffffffffff1602179055505050506200057e565b60008060009054906101000a900473ffffffffffffffffffffffffffffffffffffffff169050816000806101000a81548173ffffffffffffffffffffffffffffffffffffffff021916908373ffffffffffffffffffffffffffffffffffffffff1602179055508173ffffffffffffffffffffffffffffffffffffffff168173ffffffffffffffffffffffffffffffffffffffff167f8be0079c531659141344cd1fd0a4f28419497f9722a3daafe3b4186f6b6457e060405160405180910390a35050565b600080fd5b600073ffffffffffffffffffffffffffffffffffffffff82169050919050565b60006200040782620003da565b9050919050565b6200041981620003fa565b81146200042557600080fd5b50565b60008151905062000439816200040e565b92915050565b6000806000606084860312156200045b576200045a620003d5565b5b60006200046b8682870162000428565b93505060206200047e8682870162000428565b9250506040620004918682870162000428565b9150509250925092565b620004a681620003fa565b82525050565b6000602082019050620004c360008301846200049b565b92915050565b600082825260208201905092915050565b7f7a65726f20616464720000000000000000000000000000000000000000000000600082015250565b600062000512600983620004c9565b91506200051f82620004da565b602082019050919050565b60006020820190508181036000830152620005458162000503565b9050919050565b600060208284031215620005655762000564620003d5565b5b6000620005758482850162000428565b91505092915050565b60805160a051611d6f620005ce600039600081816104f3015261051901526000818161053d0152818161056301528181610622015281816106c201528181610af40152610ffb0152611d6f6000f3fe608060405234801561001057600080fd5b50600436106101a95760003560e01c80638da5cb5b116100f9578063ae8ccfe411610097578063b3d8ad4611610071578063b3d8ad461461047b578063c54e44eb14610497578063e73d668f146104b5578063f2fde38b146104d3576101a9565b8063ae8ccfe414610410578063aed4fa1a1461042c578063b1e79cd41461045d576101a9565b8063994a8b31116100d3578063994a8b311461039a578063a1677228146103b6578063a7e11148146103d4578063ad5c4648146103f2576101a9565b80638da5cb5b1461032e57806391a99e881461034c578063958f1ef81461036a576101a9565b806341f78e2711610166578063715018a611610140578063715018a6146102de5780637535d246146102e8578063845360171461030657806389a3027114610310576101a9565b806341f78e27146102745780635c975abb146102a45780636ff1c9bc146102c2576101a9565b80630542975c146101ae578063085d4883146101cc57806316f0115b146101ea5780631b11d0ff14610208578063277754ed1461023857806341c64a2f14610256575b600080fd5b6101b66104ef565b6040516101c391906113a9565b60405180910390f35b6101d4610517565b6040516101e191906113e5565b60405180910390f35b6101f261053b565b6040516101ff91906113e5565b60405180910390f35b610222600480360381019061021d91906114d1565b61055f565b60405161022f9190611586565b60405180910390f35b6102406108d8565b60405161024d91906113e5565b60405180910390f35b61025e6108f0565b60405161026b91906113e5565b60405180910390f35b61028e600480360381019061028991906115a1565b610908565b60405161029b91906115f0565b60405180910390f35b6102ac6109ac565b6040516102b99190611586565b60405180910390f35b6102dc60048036038101906102d7919061160b565b6109c2565b005b6102e6610adc565b005b6102f0610af0565b6040516102fd9190611659565b60405180910390f35b61030e610b18565b005b610318610be6565b60405161032591906113e5565b60405180910390f35b610336610bfe565b60405161034391906113e5565b60405180910390f35b610354610c27565b60405161036191906113e5565b60405180910390f35b610384600480360381019061037f91906115a1565b610c4d565b60405161039191906115f0565b60405180910390f35b6103b460048036038101906103af919061160b565b610d2c565b005b6103be610d78565b6040516103cb9190611692565b60405180910390f35b6103dc610d7e565b6040516103e991906113e5565b60405180910390f35b6103fa610da4565b60405161040791906113e5565b60405180910390f35b61042a6004803603810190610425919061160b565b610dbc565b005b6104466004803603810190610441919061160b565b610e08565b6040516104549291906116ad565b60405180910390f35b610465610ef5565b60405161047291906115f0565b60405180910390f35b610495600480360381019061049091906116d6565b610f02565b005b61049f61109e565b6040516104ac91906113e5565b60405180910390f35b6104bd6110b6565b6040516104ca91906115f0565b60405180910390f35b6104ed60048036038101906104e8919061160b565b6110c1565b005b60007f0000000000000000000000000000000000000000000000000000000000000000905090565b7f000000000000000000000000000000000000000000000000000000000000000081565b7f000000000000000000000000000000000000000000000000000000000000000081565b60007f000000000000000000000000000000000000000000000000000000000000000073ffffffffffffffffffffffffffffffffffffffff163373ffffffffffffffffffffffffffffffffffffffff16146105ef576040517f08c379a00000000000000000000000000000000000000000000000000000000081526004016105e6906117a7565b60405180910390fd5b600085876105fd91906117f6565b905060008890508073ffffffffffffffffffffffffffffffffffffffff1663095ea7b37f000000000000000000000000000000000000000000000000000000000000000060006040518363ffffffff1660e01b8152600401610660929190611865565b6020604051808303816000875af115801561067f573d6000803e3d6000fd5b505050506040513d601f19601f820116820180604052508101906106a391906118ba565b508073ffffffffffffffffffffffffffffffffffffffff1663095ea7b37f0000000000000000000000000000000000000000000000000000000000000000846040518363ffffffff1660e01b81526004016106ff9291906118e7565b6020604051808303816000875af115801561071e573d6000803e3d6000fd5b505050506040513d601f19601f8201168201806040525081019061074291906118ba565b5060008173ffffffffffffffffffffffffffffffffffffffff166370a08231306040518263ffffffff1660e01b815260040161077e91906113e5565b602060405180830381865afa15801561079b573d6000803e3d6000fd5b505050506040513d601f19601f820116820180604052508101906107bf9190611925565b905060008382116107d15760006107de565b83826107dd9190611952565b5b9050600081111561088b578273ffffffffffffffffffffffffffffffffffffffff1663a9059cbb600260009054906101000a900473ffffffffffffffffffffffffffffffffffffffff16836040518363ffffffff1660e01b81526004016108469291906118e7565b6020604051808303816000875af1158015610865573d6000803e3d6000fd5b505050506040513d601f19601f8201168201806040525081019061088991906118ba565b505b7f6b503ccb8fe3617e786d56756579016943b3839c546866718cfa2accb1cbb3ca8b8a836040516108be93929190611986565b60405180910390a160019450505050509695505050505050565b731b02da8cb0d097eb8d57a175b88c7d8b4799750681565b73e592427a0aece92de3edee1f18e0157c0586156481565b60007382af49447d8a07e3bd95bd0d56f35241523fbab173ffffffffffffffffffffffffffffffffffffffff168373ffffffffffffffffffffffffffffffffffffffff161461095a57600090506109a6565b60006103e860038461096c91906119bd565b6109769190611a2e565b905060006103e880856109899190611a5f565b6109939190611a2e565b8261099e91906117f6565b905080925050505b92915050565b60008060149054906101000a900460ff16905090565b6109ca611147565b60008173ffffffffffffffffffffffffffffffffffffffff166370a08231306040518263ffffffff1660e01b8152600401610a0591906113e5565b602060405180830381865afa158015610a22573d6000803e3d6000fd5b505050506040513d601f19601f82011682018060405250810190610a469190611925565b90506000811115610ad8578173ffffffffffffffffffffffffffffffffffffffff1663a9059cbb610a75610bfe565b836040518363ffffffff1660e01b8152600401610a939291906118e7565b6020604051808303816000875af1158015610ab2573d6000803e3d6000fd5b505050506040513d601f19601f82011682018060405250810190610ad691906118ba565b505b5050565b610ae4611147565b610aee60006111ce565b565b60007f0000000000000000000000000000000000000000000000000000000000000000905090565b610b20611147565b60004790506000811115610be3576000610b38610bfe565b73ffffffffffffffffffffffffffffffffffffffff1682604051610b5b90611ac1565b60006040518083038185875af1925050503d8060008114610b98576040519150601f19603f3d011682016040523d82523d6000602084013e610b9d565b606091505b5050905080610be1576040517f08c379a0000000000000000000000000000000000000000000000000000000008152600401610bd890611b22565b60405180910390fd5b505b50565b73ff970a61a04b1ca14834a43f5de4533ebddb5cc881565b60008060009054906101000a900473ffffffffffffffffffffffffffffffffffffffff16905090565b600260009054906101000a900473ffffffffffffffffffffffffffffffffffffffff1681565b60007382af49447d8a07e3bd95bd0d56f35241523fbab173ffffffffffffffffffffffffffffffffffffffff168373ffffffffffffffffffffffffffffffffffffffff1614610c9f5760009050610d26565b3073ffffffffffffffffffffffffffffffffffffffff166341f78e2784846040518363ffffffff1660e01b8152600401610cda9291906118e7565b602060405180830381865afa925050508015610d1457506040513d601f19601f82011682018060405250810190610d119190611925565b60015b610d215760009050610d26565b809150505b92915050565b610d34611147565b80600360006101000a81548173ffffffffffffffffffffffffffffffffffffffff021916908373ffffffffffffffffffffffffffffffffffffffff16021790555050565b610bb881565b600360009054906101000a900473ffffffffffffffffffffffffffffffffffffffff1681565b7382af49447d8a07e3bd95bd0d56f35241523fbab181565b610dc4611147565b80600260006101000a81548173ffffffffffffffffffffffffffffffffffffffff021916908373ffffffffffffffffffffffffffffffffffffffff16021790555050565b6000807382af49447d8a07e3bd95bd0d56f35241523fbab173ffffffffffffffffffffffffffffffffffffffff168373ffffffffffffffffffffffffffffffffffffffff1614610e5e5760008091509150610ef0565b6000670de0b6b3a76400009050600068056bc75e2d63100000905060008290506000808490505b838111610ec5576000610e988983610c4d565b905082811115610ea9578092508193505b50678ac7230489e8000081610ebe91906117f6565b9050610e85565b5066038d7ea4c68000811115610ee45781819550955050505050610ef0565b60008095509550505050505b915091565b68056bc75e2d6310000081565b610f0a611292565b610f126112d3565b610f1a611147565b600083905060008103610f7d576000610f3286610e08565b50905060008111610f78576040517f08c379a0000000000000000000000000000000000000000000000000000000008152600401610f6f90611bb4565b60405180910390fd5b809150505b60008111610fc0576040517f08c379a0000000000000000000000000000000000000000000000000000000008152600401610fb790611c20565b60405180910390fd5b7f1e069908b6875ea1e6e903413f4b38ae5d61ba274c0e2cba8c5e3fff60e484c88582604051610ff19291906118e7565b60405180910390a17f000000000000000000000000000000000000000000000000000000000000000073ffffffffffffffffffffffffffffffffffffffff166342b0b77c308784878760006040518763ffffffff1660e01b815260040161105d96959493929190611cdd565b600060405180830381600087803b15801561107757600080fd5b505af115801561108b573d6000803e3d6000fd5b5050505050611098611319565b50505050565b73fd086bc7cd5c481dcc9c85ebe478a1c0b69fcbb981565b66038d7ea4c6800081565b6110c9611147565b600073ffffffffffffffffffffffffffffffffffffffff168173ffffffffffffffffffffffffffffffffffffffff160361113b5760006040517f1e4fbdf700000000000000000000000000000000000000000000000000000000815260040161113291906113e5565b60405180910390fd5b611144816111ce565b50565b61114f611322565b73ffffffffffffffffffffffffffffffffffffffff1661116d610bfe565b73ffffffffffffffffffffffffffffffffffffffff16146111cc57611190611322565b6040517f118cdaa70000000000000000000000000000000000000000000000000000000081526004016111c391906113e5565b60405180910390fd5b565b60008060009054906101000a900473ffffffffffffffffffffffffffffffffffffffff169050816000806101000a81548173ffffffffffffffffffffffffffffffffffffffff021916908373ffffffffffffffffffffffffffffffffffffffff1602179055508173ffffffffffffffffffffffffffffffffffffffff168173ffffffffffffffffffffffffffffffffffffffff167f8be0079c531659141344cd1fd0a4f28419497f9722a3daafe3b4186f6b6457e060405160405180910390a35050565b61129a6109ac565b156112d1576040517fd93c066500000000000000000000000000000000000000000000000000000000815260040160405180910390fd5b565b60026001540361130f576040517f3ee5aeb500000000000000000000000000000000000000000000000000000000815260040160405180910390fd5b6002600181905550565b60018081905550565b600033905090565b600073ffffffffffffffffffffffffffffffffffffffff82169050919050565b6000819050919050565b600061136f61136a6113658461132a565b61134a565b61132a565b9050919050565b600061138182611354565b9050919050565b600061139382611376565b9050919050565b6113a381611388565b82525050565b60006020820190506113be600083018461139a565b92915050565b60006113cf8261132a565b9050919050565b6113df816113c4565b82525050565b60006020820190506113fa60008301846113d6565b92915050565b600080fd5b600080fd5b611413816113c4565b811461141e57600080fd5b50565b6000813590506114308161140a565b92915050565b6000819050919050565b61144981611436565b811461145457600080fd5b50565b60008135905061146681611440565b92915050565b600080fd5b600080fd5b600080fd5b60008083601f8401126114915761149061146c565b5b8235905067ffffffffffffffff8111156114ae576114ad611471565b5b6020830191508360018202830111156114ca576114c9611476565b5b9250929050565b60008060008060008060a087890312156114ee576114ed611400565b5b60006114fc89828a01611421565b965050602061150d89828a01611457565b955050604061151e89828a01611457565b945050606061152f89828a01611421565b935050608087013567ffffffffffffffff8111156115505761154f611405565b5b61155c89828a0161147b565b92509250509295509295509295565b60008115159050919050565b6115808161156b565b82525050565b600060208201905061159b6000830184611577565b92915050565b600080604083850312156115b8576115b7611400565b5b60006115c685828601611421565b92505060206115d785828601611457565b9150509250929050565b6115ea81611436565b82525050565b600060208201905061160560008301846115e1565b92915050565b60006020828403121561162157611620611400565b5b600061162f84828501611421565b91505092915050565b600061164382611376565b9050919050565b61165381611638565b82525050565b600060208201905061166e600083018461164a565b92915050565b600062ffffff82169050919050565b61168c81611674565b82525050565b60006020820190506116a76000830184611683565b92915050565b60006040820190506116c260008301856115e1565b6116cf60208301846115e1565b9392505050565b600080600080606085870312156116f0576116ef611400565b5b60006116fe87828801611421565b945050602061170f87828801611457565b935050604085013567ffffffffffffffff8111156117305761172f611405565b5b61173c8782880161147b565b925092505092959194509250565b600082825260208201905092915050565b7f6f6e6c7920706f6f6c0000000000000000000000000000000000000000000000600082015250565b600061179160098361174a565b915061179c8261175b565b602082019050919050565b600060208201905081810360008301526117c081611784565b9050919050565b7f4e487b7100000000000000000000000000000000000000000000000000000000600052601160045260246000fd5b600061180182611436565b915061180c83611436565b9250828201905080821115611824576118236117c7565b5b92915050565b6000819050919050565b600061184f61184a6118458461182a565b61134a565b611436565b9050919050565b61185f81611834565b82525050565b600060408201905061187a60008301856113d6565b6118876020830184611856565b9392505050565b6118978161156b565b81146118a257600080fd5b50565b6000815190506118b48161188e565b92915050565b6000602082840312156118d0576118cf611400565b5b60006118de848285016118a5565b91505092915050565b60006040820190506118fc60008301856113d6565b61190960208301846115e1565b9392505050565b60008151905061191f81611440565b92915050565b60006020828403121561193b5761193a611400565b5b600061194984828501611910565b91505092915050565b600061195d82611436565b915061196883611436565b92508282039050818111156119805761197f6117c7565b5b92915050565b600060608201905061199b60008301866113d6565b6119a860208301856115e1565b6119b560408301846115e1565b949350505050565b60006119c882611436565b91506119d383611436565b92508282026119e181611436565b915082820484148315176119f8576119f76117c7565b5b5092915050565b7f4e487b7100000000000000000000000000000000000000000000000000000000600052601260045260246000fd5b6000611a3982611436565b9150611a4483611436565b925082611a5457611a536119ff565b5b828204905092915050565b6000611a6a82611436565b9150611a7583611436565b925082611a8557611a846119ff565b5b828206905092915050565b600081905092915050565b50565b6000611aab600083611a90565b9150611ab682611a9b565b600082019050919050565b6000611acc82611a9e565b9150819050919050565b7f455448207769746864726177616c206661696c65640000000000000000000000600082015250565b6000611b0c60158361174a565b9150611b1782611ad6565b602082019050919050565b60006020820190508181036000830152611b3b81611aff565b9050919050565b7f4e6f2070726f66697461626c6520617262697472616765206f70706f7274756e60008201527f69747920666f756e640000000000000000000000000000000000000000000000602082015250565b6000611b9e60298361174a565b9150611ba982611b42565b604082019050919050565b60006020820190508181036000830152611bcd81611b91565b9050919050565b7f616d6f756e743d30000000000000000000000000000000000000000000000000600082015250565b6000611c0a60088361174a565b9150611c1582611bd4565b602082019050919050565b60006020820190508181036000830152611c3981611bfd565b9050919050565b600082825260208201905092915050565b82818337600083830152505050565b6000601f19601f8301169050919050565b6000611c7d8385611c40565b9350611c8a838584611c51565b611c9383611c60565b840190509392505050565b600061ffff82169050919050565b6000611cc7611cc2611cbd8461182a565b61134a565b611c9e565b9050919050565b611cd781611cac565b82525050565b600060a082019050611cf260008301896113d6565b611cff60208301886113d6565b611d0c60408301876115e1565b8181036060830152611d1f818587611c71565b9050611d2e6080830184611cce565b97965050505050505056fea264697066735822122005dea92690c4dbc6c365ea22b460b2cfbb779d77347435529e37cb91f407aed364736f6c63430008180033",
  "linkReferences": {},
  "deployedLinkReferences": {}
}