{
  "_format": "hh-sol-artifact-1",
  "contractName": "FlashloanExecutor",
  "sourceName": "contracts/FlashloanExecutor.sol",
  "abi": [
    {
      "inputs": [
        {
          "internalType": "address",
          "name": "_provider",
          "type": "address"
        },
        {
          "internalType": "address",
          "name": "_goldstem",
          "type": "address"
        },
        {
          "internalType": "address",
          "name": "_rootTreasury",
          "type": "address"
        }
      ],
      "stateMutability": "nonpayable",
      "type": "constructor"
    },
    {
      "inputs": [],
      "name": "EnforcedPause",
      "type": "error"
    },
    {
      "inputs": [],
      "name": "ExpectedPause",
      "type": "error"
    },
    {
      "inputs": [
        {
          "internalType": "address",
          "name": "owner",
          "type": "address"
        }
      ],
      "name": "OwnableInvalidOwner",
      "type": "error"
    },
    {
      "inputs": [
        {
          "internalType": "address",
          "name": "account",
          "type": "address"
        }
      ],
      "name": "OwnableUnauthorizedAccount",
      "type": "error"
    },
    {
      "inputs": [],
      "name": "ReentrancyGuardReentrantCall",
      "type": "error"
    },
    {
      "anonymous": false,
      "inputs": [
        {
          "indexed": false,
          "internalType": "address",
          "name": "tokenIn",
          "type": "address"
        },
        {
          "indexed": false,
          "internalType": "address",
          "name": "tokenOut",
          "type": "address"
        },
        {
          "indexed": false,
          "internalType": "uint256",
          "name": "amountIn",
          "type": "uint256"
        },
        {
          "indexed": false,
          "internalType": "uint256",
          "name": "amountOut",
          "type": "uint256"
        },
        {
          "indexed": false,
          "internalType": "uint256",
          "name": "profit",
          "type": "uint256"
        }
      ],
      "name": "ArbitrageExecuted",
      "type": "event"
    },
    {
      "anonymous": false,
      "inputs": [
        {
          "indexed": false,
          "internalType": "address",
          "name": "asset",
          "type": "address"
        },
        {
          "indexed": false,
          "internalType": "uint256",
          "name": "premium",
          "type": "uint256"
        },
        {
          "indexed": false,
          "internalType": "uint256",
          "name": "profitWei",
          "type": "uint256"
        }
      ],
      "name": "FlashCompleted",
      "type": "event"
    },
    {
      "anonymous": false,
      "inputs": [
        {
          "indexed": false,
          "internalType": "address",
          "name": "asset",
          "type": "address"
        },
        {
          "indexed": false,
          "internalType": "uint256",
          "name": "amount",
          "type": "uint256"
        }
      ],
      "name": "FlashStarted",
      "type": "event"
    },
    {
      "anonymous": false,
      "inputs": [
        {
          "indexed": true,
          "internalType": "address",
          "name": "previousOwner",
          "type": "address"
        },
        {
          "indexed": true,
          "internalType": "address",
          "name": "newOwner",
          "type": "address"
        }
      ],
      "name": "OwnershipTransferred",
      "type": "event"
    },
    {
      "anonymous": false,
      "inputs": [
        {
          "indexed": false,
          "internalType": "address",
          "name": "account",
          "type": "address"
        }
      ],
      "name": "Paused",
      "type": "event"
    },
    {
      "anonymous": false,
      "inputs": [
        {
          "indexed": false,
          "internalType": "address",
          "name": "account",
          "type": "address"
        }
      ],
      "name": "Unpaused",
      "type": "event"
    },
    {
      "inputs": [],
      "name": "ADDRESSES_PROVIDER",
      "outputs": [
        {
          "internalType": "contract IPoolAddressesProvider",
          "name": "",
          "type": "address"
        }
      ],
      "stateMutability": "view",
      "type": "function"
    },
    {
      "inputs": [],
      "name": "MAX_FLASH_AMOUNT",
      "outputs": [
        {
          "internalType": "uint256",
          "name": "",
          "type": "uint256"
        }
      ],
      "stateMutability": "view",
      "type": "function"
    },
    {
      "inputs": [],
      "name": "MIN_PROFIT_THRESHOLD",
      "outputs": [
        {
          "internalType": "uint256",
          "name": "",
          "type": "uint256"
        }
      ],
      "stateMutability": "view",
      "type": "function"
    },
    {
      "inputs": [],
      "name": "POOL",
      "outputs": [
        {
          "internalType": "contract IPool",
          "name": "",
          "type": "address"
        }
      ],
      "stateMutability": "view",
      "type": "function"
    },
    {
      "inputs": [],
      "name": "UNISWAP_V3_ROUTER",
      "outputs": [
        {
          "internalType": "address",
          "name": "",
          "type": "address"
        }
      ],
      "stateMutability": "view",
      "type": "function"
    },
    {
      "inputs": [],
      "name": "USDC",
      "outputs": [
        {
          "internalType": "address",
          "name": "",
          "type": "address"
        }
      ],
      "stateMutability": "view",
      "type": "function"
    },
    {
      "inputs": [],
      "name": "USDT",
      "outputs": [
        {
          "internalType": "address",
          "name": "",
          "type": "address"
        }
      ],
      "stateMutability": "view",
      "type": "function"
    },
    {
      "inputs": [],
      "name": "WETH",
      "outputs": [
        {
          "internalType": "address",
          "name": "",
          "type": "address"
        }
      ],
      "stateMutability": "view",
      "type": "function"
    },
    {
      "inputs": [
        {
          "internalType": "address",
          "name": "asset",
          "type": "address"
        }
      ],
      "name": "calculateOptimalFlashAmount",
      "outputs": [
        {
          "internalType": "uint256",
          "name": "optimalAmount",
          "type": "uint256"
        },
        {
          "internalType": "uint256",
          "name": "expectedProfit",
          "type": "uint256"
        }
      ],
      "stateMutability": "view",
      "type": "function"
    },
    {
      "inputs": [
        {
          "internalType": "address",
          "name": "token",
          "type": "address"
        }
      ],
      "name": "emergencyWithdraw",
      "outputs": [],
      "stateMutability": "nonpayable",
      "type": "function"
    },
    {
      "inputs": [],
      "name": "emergencyWithdrawETH",
      "outputs": [],
      "stateMutability": "nonpayable",
      "type": "function"
    },
    {
      "inputs": [
        {
          "internalType": "address",
          "name": "asset",
          "type": "address"
        },
        {
          "internalType": "uint256",
          "name": "amount",
          "type": "uint256"
        }
      ],
      "name": "estimateArbitrageProfit",
      "outputs": [
        {
          "internalType": "uint256",
          "name": "",
          "type": "uint256"
        }
      ],
      "stateMutability": "view",
      "type": "function"
    },
    {
      "inputs": [
        {
          "internalType": "address",
          "name": "asset",
          "type": "address"
        },
        {
          "internalType": "uint256",
          "name": "amount",
          "type": "uint256"
        },
        {
          "internalType": "uint256",
          "name": "premium",
          "type": "uint256"
        },
        {
          "internalType": "address",
          "name": "",
          "type": "address"
        },
        {
          "internalType": "bytes",
          "name": "params",
          "type": "bytes"
        }
      ],
      "name": "executeOperation",
      "outputs": [
        {
          "internalType": "bool",
          "name": "",
          "type": "bool"
        }
      ],
      "stateMutability": "nonpayable",
      "type": "function"
    },
    {
      "inputs": [],
      "name": "goldstem",
      "outputs": [
        {
          "internalType": "address",
          "name": "",
          "type": "address"
        }
      ],
      "stateMutability": "view",
      "type": "function"
    },
    {
      "inputs": [],
      "name": "owner",
      "outputs": [
        {
          "internalType": "address",
          "name": "",
          "type": "address"
        }
      ],
      "stateMutability": "view",
      "type": "function"
    },
    {
      "inputs": [],
      "name": "paused",
      "outputs": [
        {
          "internalType": "bool",
          "name": "",
          "type": "bool"
        }
      ],
      "stateMutability": "view",
      "type": "function"
    },
    {
      "inputs": [],
      "name": "pool",
      "outputs": [
        {
          "internalType": "address",
          "name": "",
          "type": "address"
        }
      ],
      "stateMutability": "view",
      "type": "function"
    },
    {
      "inputs": [],
      "name": "provider",
      "outputs": [
        {
          "internalType": "address",
          "name": "",
          "type": "address"
        }
      ],
      "stateMutability": "view",
      "type": "function"
    },
    {
      "inputs": [],
      "name": "renounceOwnership",
      "outputs": [],
      "stateMutability": "nonpayable",
      "type": "function"
    },
    {
      "inputs": [],
      "name": "rootTreasury",
      "outputs": [
        {
          "internalType": "address",
          "name": "",
          "type": "address"
        }
      ],
      "stateMutability": "view",
      "type": "function"
    },
    {
      "inputs": [
        {
          "internalType": "address",
          "name": "asset",
          "type": "address"
        },
        {
          "internalType": "uint256",
          "name": "amount",
          "type": "uint256"
        },
        {
          "internalType": "bytes",
          "name": "params",
          "type": "bytes"
        }
      ],
      "name": "runSimpleFlash",
      "outputs": [],
      "stateMutability": "nonpayable",
      "type": "function"
    },
    {
      "inputs": [
        {
          "internalType": "address",
          "name": "a",
          "type": "address"
        }
      ],
      "name": "setGoldstem",
      "outputs": [],
      "stateMutability": "nonpayable",
      "type": "function"
    },
    {
      "inputs": [
        {
          "internalType": "address",
          "name": "a",
          "type": "address"
        }
      ],
      "name": "setRootTreasury",
      "outputs": [],
      "stateMutability": "nonpayable",
      "type": "function"
    },
    {
      "inputs": [
        {
          "internalType": "address",
          "name": "asset",
          "type": "address"
        },
        {
          "internalType": "uint256",
          "name": "amount",
          "type": "uint256"
        }
      ],
      "name": "simulateArbitrage",
      "outputs": [
        {
          "internalType": "uint256",
          "name": "",
          "type": "uint256"
        }
      ],
      "stateMutability": "pure",
      "type": "function"
    },
    {
      "inputs": [
        {
          "internalType": "address",
          "name": "newOwner",
          "type": "address"
        }
      ],
      "name": "transferOwnership",
      "outputs": [],
      "stateMutability": "nonpayable",
      "type": "function"
    }
  ],
  "bytecode": "0x60c060409080825234620001fc57606081620019b7803803809162000025828562000201565b833981010312620001fc576200003b816200023b565b906020906200005984620000518484016200023b565b92016200023b565b903315620001e457600080546001600160a01b0319808216339081178455885191976001600160a01b0397949390919088167f8be0079c531659141344cd1fd0a4f28419497f9722a3daafe3b4186f6b6457e08580a3600180558681169182151580620001d8575b80620001cc575b156200019e575060a052875163026b1d5f60e01b815291908390839060049082905afa9283156200019257908694939291819362000149575b505050608052168360035416176003551690600254161760025551611766908162000251823960805181818161020d015281816102e00152610ab9015260a051816101c80152f35b8294955080929193503d83116200018a575b62000167818362000201565b81010312620001875750906200017e84926200023b565b38808062000101565b80fd5b503d6200015b565b508751903d90823e3d90fd5b62461bcd60e51b81526004810185905260096024820152683d32b9379030b2323960b91b6044820152606490fd5b508787161515620000c8565b508786161515620000c1565b8451631e4fbdf760e01b815260006004820152602490fd5b600080fd5b601f909101601f19168101906001600160401b038211908210176200022557604052565b634e487b7160e01b600052604160045260246000fd5b51906001600160a01b0382168203620001fc5756fe6080604052600436101561001257600080fd5b60003560e01c80630542975c1461019d578063085d48831461019d57806316f0115b1461017a5780631b11d0ff1461019857806341c64a2f1461019357806341f78e271461018e5780635c975abb146101895780636ff1c9bc14610184578063715018a61461017f5780637535d2461461017a578063845360171461017557806389a30271146101705780638da5cb5b1461016b57806391a99e8814610166578063958f1ef814610161578063994a8b311461015c578063a7e1114814610157578063ad5c464814610152578063ae8ccfe41461014d578063aed4fa1a14610148578063b1e79cd414610143578063b3d8ad461461013e578063c54e44eb14610139578063e73d668f146101345763f2fde38b1461012f57600080fd5b610bd5565b610bb3565b610b84565b610a04565b6109e0565b6109b1565b61096e565b61093f565b610916565b6108d3565b6108ac565b610883565b61085a565b61082b565b610781565b6101f7565b610723565b610646565b610620565b6105f1565b6105c2565b610296565b6101b2565b60009103126101ad57565b600080fd5b346101ad5760003660031901126101ad576040517f00000000000000000000000000000000000000000000000000000000000000006001600160a01b03168152602090f35b346101ad5760003660031901126101ad576040517f00000000000000000000000000000000000000000000000000000000000000006001600160a01b03168152602090f35b600435906001600160a01b03821682036101ad57565b606435906001600160a01b03821682036101ad57565b9181601f840112156101ad5782359167ffffffffffffffff83116101ad57602083818601950101116101ad57565b346101ad5760a03660031901126101ad576102af61023c565b6024356044356102bd610252565b5060843567ffffffffffffffff81116101ad576102de903690600401610268565b7f000000000000000000000000000000000000000000000000000000000000000094916001600160a01b039161032b916103269161031f33868b1614610c5d565b3691610d22565b6110d7565b604080516370a0823160e01b8152306004820152909a9688169960209794919390929188856024818f5afa96871561052e578a988c968b60009a610579575b5050916103a894939161038393876103ad9a9b9c61126b565b968088111561056d576103996103a19189610d8a565b915b85610dab565b1115610db8565b610dab565b875163095ea7b360e01b8082526001600160a01b0384166004830152600060248301529193909290919085848060448101038160008d5af191821561052e5785948793610550575b508a519081526001600160a01b0391909116600482015260248101949094528360448160008b5af192831561052e5761043393610533575b50610d8a565b9384610490575b505083516001600160a01b039091168152602081019190915260408101919091527f6b503ccb8fe3617e786d56756579016943b3839c546866718cfa2accb1cbb3ca9080606081015b0390a15160018152602090f35b600254865163a9059cbb60e01b81526001600160a01b0390911660048201526024810186905294908290869060449082906000905af191821561052e577f6b503ccb8fe3617e786d56756579016943b3839c546866718cfa2accb1cbb3ca9561048393610500575b50509361043a565b8161051f92903d10610527575b6105178183610cc4565b810190610df5565b5038806104f8565b503d61050d565b610d68565b61054990853d8711610527576105178183610cc4565b503861042d565b61056690843d8611610527576105178183610cc4565b50386103f5565b506103a160009161039b565b6103ad999a5091876105ab6103a898979593856103839896903d106105bb575b6105a38183610cc4565b810190610d59565b9b9a50509193509193948b61036a565b503d610599565b346101ad5760003660031901126101ad57602060405173e592427a0aece92de3edee1f18e0157c058615648152f35b346101ad5760403660031901126101ad57602061061861060f61023c565b60243590610e0d565b604051908152f35b346101ad5760003660031901126101ad57602060ff60005460a01c166040519015158152f35b346101ad576020806003193601126101ad5761066061023c565b61066861168c565b6040516370a0823160e01b81523060048201526001600160a01b0391821691908381602481865afa90811561052e57600091610706575b50806106a757005b6000805460405163a9059cbb60e01b815293166001600160a01b031660048401526024830191909152909183918391908290816044810103925af1801561052e576106ee57005b8161070492903d10610527576105178183610cc4565b005b61071d9150843d86116105bb576105a38183610cc4565b3861069f565b346101ad5760008060031936011261077e5761073d61168c565b80546001600160a01b03198116825581906001600160a01b03167f8be0079c531659141344cd1fd0a4f28419497f9722a3daafe3b4186f6b6457e08280a380f35b80fd5b346101ad5760008060031936011261077e5761079b61168c565b8047806107a55750f35b8154829182918291906001600160a01b03165af13d15610826573d6107c981610d06565b906107d76040519283610cc4565b81528260203d92013e5b156107e95780f35b60405162461bcd60e51b8152602060048201526015602482015274115512081dda5d1a191c985dd85b0819985a5b1959605a1b6044820152606490fd5b6107e1565b346101ad5760003660031901126101ad57602060405173ff970a61a04b1ca14834a43f5de4533ebddb5cc88152f35b346101ad5760003660031901126101ad576000546040516001600160a01b039091168152602090f35b346101ad5760003660031901126101ad576002546040516001600160a01b039091168152602090f35b346101ad5760403660031901126101ad5760206106186108ca61023c565b60243590610e5f565b346101ad5760203660031901126101ad576108ec61023c565b6108f461168c565b600380546001600160a01b0319166001600160a01b0392909216919091179055005b346101ad5760003660031901126101ad576003546040516001600160a01b039091168152602090f35b346101ad5760003660031901126101ad5760206040517382af49447d8a07e3bd95bd0d56f35241523fbab18152f35b346101ad5760203660031901126101ad5761098761023c565b61098f61168c565b600280546001600160a01b0319166001600160a01b0392909216919091179055005b346101ad5760203660031901126101ad5760406109d46109cf61023c565b610ef2565b82519182526020820152f35b346101ad5760003660031901126101ad57602060405168056bc75e2d631000008152f35b346101ad5760603660031901126101ad57610a1d61023c565b60243560443567ffffffffffffffff81116101ad57610a40903690600401610268565b919060009360ff855460a01c16610b7257600260015414610b605784926002600155610a6a61168c565b8015610b45575b610a7c811515610ff0565b604080516001600160a01b0384168152602081018390527f1e069908b6875ea1e6e903413f4b38ae5d61ba274c0e2cba8c5e3fff60e484c89190a17f00000000000000000000000000000000000000000000000000000000000000006001600160a01b031691823b15610b41578490610b0c604051978896879586946310ac2ddf60e21b86523060048701611027565b03925af1801561052e57610b28575b50610b2560018055565b80f35b80610b35610b3b92610cab565b806101a2565b38610b1b565b8480fd5b50610b4f81610ef2565b50610b5b811515610f92565b610a71565b604051633ee5aeb560e01b8152600490fd5b60405163d93c066560e01b8152600490fd5b346101ad5760003660031901126101ad57602060405173fd086bc7cd5c481dcc9c85ebe478a1c0b69fcbb98152f35b346101ad5760003660031901126101ad57602060405166038d7ea4c680008152f35b346101ad5760203660031901126101ad57610bee61023c565b610bf661168c565b6001600160a01b039081168015610c4457600080546001600160a01b03198116831782559092167f8be0079c531659141344cd1fd0a4f28419497f9722a3daafe3b4186f6b6457e08380a380f35b604051631e4fbdf760e01b815260006004820152602490fd5b15610c6457565b60405162461bcd60e51b81526020600482015260096024820152681bdb9b1e481c1bdbdb60ba1b6044820152606490fd5b634e487b7160e01b600052604160045260246000fd5b67ffffffffffffffff8111610cbf57604052565b610c95565b90601f8019910116810190811067ffffffffffffffff821117610cbf57604052565b6040519060a0820182811067ffffffffffffffff821117610cbf57604052565b67ffffffffffffffff8111610cbf57601f01601f191660200190565b929192610d2e82610d06565b91610d3c6040519384610cc4565b8294818452818301116101ad578281602093846000960137010152565b908160209103126101ad575190565b6040513d6000823e3d90fd5b634e487b7160e01b600052601160045260246000fd5b91908203918211610d9757565b610d74565b9061012c8201809211610d9757565b91908201809211610d9757565b15610dbf57565b60405162461bcd60e51b815260206004820152600e60248201526d6e6f742070726f66697461626c6560901b6044820152606490fd5b908160209103126101ad575180151581036101ad5790565b6001600160a01b03167382af49447d8a07e3bd95bd0d56f35241523fbab01901610e59576003810281810460031482151715610d97576103e8808092049206048101809111610d975790565b50600090565b7382af49447d8a07e3bd95bd0d56f35241523fbab0196001600160a01b03821601610eeb576040516341f78e2760e01b81526001600160a01b039190911660048201526024810191909152602081604481305afa60009181610eca575b50610ec75750600090565b90565b610ee491925060203d6020116105bb576105a38183610cc4565b9038610ebc565b5050600090565b907382af49447d8a07e3bd95bd0d56f35241523fbab0196001600160a01b03831601610f8a57670de0b6b3a7640000600092815b68056bc75e2d63100000811115610f5457505066038d7ea4c680008311610f505750600091508190565b9190565b610f5e8183610e5f565b858111610f7f575b50678ac7230489e80000810180911115610f2657610d74565b945091508138610f66565b600091508190565b15610f9957565b60405162461bcd60e51b815260206004820152602960248201527f4e6f2070726f66697461626c6520617262697472616765206f70706f7274756e6044820152681a5d1e48199bdd5b9960ba1b6064820152608490fd5b15610ff757565b60405162461bcd60e51b81526020600482015260086024820152670616d6f756e743d360c41b6044820152606490fd5b9594600094608094829360c09560018060a01b038092168b521660208a0152604089015260a060608901528160a08901528388013783828288010152601f8019910116850101930152565b60005b8381106110855750506000910152565b8181015183820152602001611075565b81601f820112156101ad5780516110ab81610d06565b926110b96040519485610cc4565b818452602082840101116101ad57610ec79160208085019101611072565b90815182019160a081602085019403126101ad57602081015167ffffffffffffffff908181116101ad5784602061111092850101611095565b9360408301519182116101ad57602061112b92840101611095565b6060820151608083015160a090930151919390929190565b1561114a57565b60405162461bcd60e51b81526020600482015260146024820152731c185d1a10481cdd185c9d08084f48185cdcd95d60621b6044820152606490fd5b1561118d57565b60405162461bcd60e51b81526020600482015260126024820152711c185d1a1088195b9908084f48185cdcd95d60721b6044820152606490fd5b156111ce57565b60405162461bcd60e51b81526020600482015260116024820152701c185d1a1cc81b9bdd0818da185a5b9959607a1b6044820152606490fd5b60e09160208252608081519160a06020850152611233835180948160c088015260208888019101611072565b60018060a01b03602082015116604085015260408101516060850152606081015182850152015160a0830152601f8019910116010190565b95949291909161127a826116f1565b926112848361170a565b9761128e836116f1565b966112988461170a565b6001600160a01b038781169b9381169991989093909184906112bb8e8d14611143565b6112c88b83168d14611186565b16936112d6911684146111c7565b604080516370a0823160e01b808252306004830152909c6020989297919491929091898f8e81806024810103915afa9e8f1561052e5760009f61166d575b50885163095ea7b360e01b80825273e592427a0aece92de3edee1f18e0157c0586156460048301526000602483015293908b81806044810103816000865af1801561052e576000928d9261139c92611650575b508b8d519485809481938b83526004830191906020604084019373e592427a0aece92de3edee1f18e0157c0586156481520152565b03925af1801561052e57611633575b506113b542610d9c565b6113bd610ce6565b928352308b840152898301528760608301526080820152875193846113f063c04b8d5960e01b9384835260048301611207565b03928a8673e592427a0aece92de3edee1f18e0157c0586156495816000885af195861561052e57600096611614575b50895181815273e592427a0aece92de3edee1f18e0157c05861564600482015260006024820152908b828060448101038160008d5af191821561052e578c926115f7575b508a5190815273e592427a0aece92de3edee1f18e0157c0586156460048201526024810187905297889060449082906000905af194851561052e576114e6978b966115da575b506114b342610d9c565b6114bb610ce6565b95865230878701528a8601526060850152608084015260008851809781958294835260048301611207565b03925af191821561052e5785926115bd575b50835190815230600482015296879060249082905afa90811561052e577f0479602bef4bb9277c21beadda23c5e4db7f0b2d4877d00070d6e0739e8c7c0e966115909460009361159e575b505081988083116000146115955761155b9083610d8a565b925b519586958691959493909260809360a084019760018060a01b038092168552166020840152604083015260608201520152565b0390a1565b5060009261155d565b6115b5929350803d106105bb576105a38183610cc4565b903880611543565b6115d390833d85116105bb576105a38183610cc4565b50386114f8565b6115f090873d8911610527576105178183610cc4565b50386114a9565b61160d90833d8511610527576105178183610cc4565b5038611463565b61162c9196508b3d8d116105bb576105a38183610cc4565b943861141f565b611649908b3d8d11610527576105178183610cc4565b50386113ab565b61166690843d8611610527576105178183610cc4565b5038611367565b611685919f508a3d8c116105bb576105a38183610cc4565b9d38611314565b6000546001600160a01b031633036116a057565b60405163118cdaa760e01b8152336004820152602490fd5b156116bf57565b60405162461bcd60e51b815260206004820152600a6024820152691c185d1a081cda1bdc9d60b21b6044820152606490fd5b6020906117026014825110156116b8565b015160601c90565b6117186014825110156116b8565b805180601319810111610d975701600c015160601c9056fea264697066735822122000dbbd39a663fcfb663fdb28a0954fd5d535c020e2029c4f184004d1ba62b99764736f6c63430008180033",
  "linkReferences": {},
  "deployedLinkReferences": {}
}