{
  "_format": "hh-sol-artifact-1",
  "contractName": "Goldstem",
  "sourceName": "contracts/Goldstem.sol",
  "abi": [
    {
      "inputs": [
        {
          "internalType": "address",
          "name": "_fruitWallet",
          "type": "address"
        },
        {
          "internalType": "address",
          "name": "_branchesWallet",
          "type": "address"
        }
      ],
      "stateMutability": "nonpayable",
      "type": "constructor"
    },
    {
      "anonymous": false,
      "inputs": [
        {
          "indexed": true,
          "internalType": "address",
          "name": "from",
          "type": "address"
        },
        {
          "indexed": false,
          "internalType": "uint256",
          "name": "amount",
          "type": "uint256"
        },
        {
          "indexed": false,
          "internalType": "uint256",
          "name": "fruitAmount",
          "type": "uint256"
        },
        {
          "indexed": false,
          "internalType": "uint256",
          "name": "branchesAmount",
          "type": "uint256"
        }
      ],
      "name": "FundsSplit",
      "type": "event"
    },
    {
      "inputs": [],
      "name": "branchesShare",
      "outputs": [
        {
          "internalType": "uint256",
          "name": "",
          "type": "uint256"
        }
      ],
      "stateMutability": "view",
      "type": "function"
    },
    {
      "inputs": [],
      "name": "branchesWallet",
      "outputs": [
        {
          "internalType": "address",
          "name": "",
          "type": "address"
        }
      ],
      "stateMutability": "view",
      "type": "function"
    },
    {
      "inputs": [],
      "name": "fruitShare",
      "outputs": [
        {
          "internalType": "uint256",
          "name": "",
          "type": "uint256"
        }
      ],
      "stateMutability": "view",
      "type": "function"
    },
    {
      "inputs": [],
      "name": "fruitWallet",
      "outputs": [
        {
          "internalType": "address",
          "name": "",
          "type": "address"
        }
      ],
      "stateMutability": "view",
      "type": "function"
    },
    {
      "inputs": [],
      "name": "owner",
      "outputs": [
        {
          "internalType": "address",
          "name": "",
          "type": "address"
        }
      ],
      "stateMutability": "view",
      "type": "function"
    },
    {
      "inputs": [
        {
          "internalType": "uint256",
          "name": "_fruitShare",
          "type": "uint256"
        },
        {
          "internalType": "uint256",
          "name": "_branchesShare",
          "type": "uint256"
        }
      ],
      "name": "setShares",
      "outputs": [],
      "stateMutability": "nonpayable",
      "type": "function"
    },
    {
      "inputs": [
        {
          "internalType": "address",
          "name": "_fruitWallet",
          "type": "address"
        },
        {
          "internalType": "address",
          "name": "_branchesWallet",
          "type": "address"
        }
      ],
      "name": "setWallets",
      "outputs": [],
      "stateMutability": "nonpayable",
      "type": "function"
    },
    {
      "inputs": [],
      "name": "withdraw",
      "outputs": [],
      "stateMutability": "nonpayable",
      "type": "function"
    },
    {
      "stateMutability": "payable",
      "type": "receive"
    }
  ],
  "bytecode": "0x60803461009c57601f61066438819003918201601f19168301916001600160401b038311848410176100a157808492604094855283398101031261009c57610052602061004b836100b7565b92016100b7565b906014600355605060045560018060a01b0319913383600054161760005560018060a01b038092168360015416176001551690600254161760025560405161059890816100cc8239f35b600080fd5b634e487b7160e01b600052604160045260246000fd5b51906001600160a01b038216820361009c5756fe60806040818152600480361015610029575b505050361561001f57600080fd5b610027610421565b005b600092833560e01c90816312d437761461037b575080632aca3e7d146102a25780633ccfd60b146101dc5780638a780b92146101b35780638da5cb5b1461018b578063940a49bd14610162578063b4d7fb121461013f5763d3f6a15703610011573461013b578160031936011261013b576001600160a01b0391813583811692919083900361013757602435938085168095036101335785541633036100f05750506bffffffffffffffffffffffff60a01b90816001541617600155600254161760025580f35b906020606492519162461bcd60e51b8352820152601a60248201527f4f6e6c79206f776e65722063616e207365742077616c6c6574730000000000006044820152fd5b8580fd5b8480fd5b8280fd5b50503461015e578160031936011261015e576020906003549051908152f35b5080fd5b50503461015e578160031936011261015e5760015490516001600160a01b039091168152602090f35b50503461015e578160031936011261015e57905490516001600160a01b039091168152602090f35b50503461015e578160031936011261015e5760025490516001600160a01b039091168152602090f35b50903461013b578260031936011261013b5782546001600160a01b03163381900361025f57838080809347905af1610212610397565b501561021c578280f35b906020606492519162461bcd60e51b8352820152601860248201527f4661696c656420746f2077697468647261772066756e647300000000000000006044820152fd5b815162461bcd60e51b8152602081850152601760248201527f4f6e6c79206f776e65722063616e2077697468647261770000000000000000006044820152606490fd5b503461013b578160031936011261013b578254602435928235916001600160a01b0316330361033957838201808311610326576064036102e457506003555580f35b5162461bcd60e51b8152602081840152601960248201527f536861726573206d7573742061646420757020746f20313030000000000000006044820152606490fd5b634e487b7160e01b865260118452602486fd5b5162461bcd60e51b8152602081840152601960248201527f4f6e6c79206f776e65722063616e2073657420736861726573000000000000006044820152606490fd5b9250503461013b578260031936011261013b5760209250548152f35b3d156103f35767ffffffffffffffff903d8281116103dd5760405192601f8201601f19908116603f01168401908111848210176103dd5760405282523d6000602084013e565b634e487b7160e01b600052604160045260246000fd5b606090565b8181029291811591840414171561040b57565b634e487b7160e01b600052601160045260246000fd5b3415610560576064610435600354346103f8565b046064610444600454346103f8565b04600060018060a01b03818080808785600154165af1610462610397565b501561050f578180848193600254165af161047b610397565b50156104ba5760405191348352602083015260408201527f7f23c79eca79eabf5f003b161350b7b38c9d413b8c990d5ade37a24f49b2dd8760603392a2565b60405162461bcd60e51b815260206004820152602760248201527f4661696c656420746f2073656e642066756e647320746f206272616e63686573604482015266081dd85b1b195d60ca1b6064820152608490fd5b60405162461bcd60e51b8152602060048201526024808201527f4661696c656420746f2073656e642066756e647320746f2066727569742077616044820152631b1b195d60e21b6064820152608490fd5b56fea2646970667358221220c92953c47430e8a8b5dc457d41e747d9291c781c0bfd9a0aeb7e08df566715d164736f6c63430008180033",
  "linkReferences": {},
  "deployedLinkReferences": {}
}