{
  "_format": "hh-sol-artifact-1",
  "contractName": "Goldstem",
  "sourceName": "contracts/Goldstem.sol",
  "abi": [
    {
      "inputs": [
        {
          "internalType": "address",
          "name": "_fruitWallet",
          "type": "address"
        },
        {
          "internalType": "address",
          "name": "_branchesWallet",
          "type": "address"
        }
      ],
      "stateMutability": "nonpayable",
      "type": "constructor"
    },
    {
      "anonymous": false,
      "inputs": [
        {
          "indexed": true,
          "internalType": "address",
          "name": "from",
          "type": "address"
        },
        {
          "indexed": false,
          "internalType": "uint256",
          "name": "amount",
          "type": "uint256"
        },
        {
          "indexed": false,
          "internalType": "uint256",
          "name": "fruitAmount",
          "type": "uint256"
        },
        {
          "indexed": false,
          "internalType": "uint256",
          "name": "branchesAmount",
          "type": "uint256"
        }
      ],
      "name": "FundsSplit",
      "type": "event"
    },
    {
      "inputs": [],
      "name": "branchesShare",
      "outputs": [
        {
          "internalType": "uint256",
          "name": "",
          "type": "uint256"
        }
      ],
      "stateMutability": "view",
      "type": "function"
    },
    {
      "inputs": [],
      "name": "branchesWallet",
      "outputs": [
        {
          "internalType": "address",
          "name": "",
          "type": "address"
        }
      ],
      "stateMutability": "view",
      "type": "function"
    },
    {
      "inputs": [],
      "name": "fruitShare",
      "outputs": [
        {
          "internalType": "uint256",
          "name": "",
          "type": "uint256"
        }
      ],
      "stateMutability": "view",
      "type": "function"
    },
    {
      "inputs": [],
      "name": "fruitWallet",
      "outputs": [
        {
          "internalType": "address",
          "name": "",
          "type": "address"
        }
      ],
      "stateMutability": "view",
      "type": "function"
    },
    {
      "inputs": [],
      "name": "owner",
      "outputs": [
        {
          "internalType": "address",
          "name": "",
          "type": "address"
        }
      ],
      "stateMutability": "view",
      "type": "function"
    },
    {
      "inputs": [
        {
          "internalType": "address",
          "name": "_fruitWallet",
          "type": "address"
        },
        {
          "internalType": "address",
          "name": "_branchesWallet",
          "type": "address"
        }
      ],
      "name": "setWallets",
      "outputs": [],
      "stateMutability": "nonpayable",
      "type": "function"
    },
    {
      "inputs": [],
      "name": "withdraw",
      "outputs": [],
      "stateMutability": "nonpayable",
      "type": "function"
    },
    {
      "stateMutability": "payable",
      "type": "receive"
    }
  ],
  "bytecode": "0x60803461009c57601f61056c38819003918201601f19168301916001600160401b038311848410176100a157808492604094855283398101031261009c57610052602061004b836100b7565b92016100b7565b906014600355605060045560018060a01b0319913383600054161760005560018060a01b03809216836001541617600155169060025416176002556040516104a090816100cc8239f35b600080fd5b634e487b7160e01b600052604160045260246000fd5b51906001600160a01b038216820361009c5756fe60806040818152600480361015610029575b505050361561001f57600080fd5b610027610314565b005b600092833560e01c90816312d4377614610297575080633ccfd60b146101d15780638a780b92146101a85780638da5cb5b14610180578063940a49bd14610157578063b4d7fb12146101345763d3f6a1570361001157346101305781600319360112610130576001600160a01b0391813583811692919083900361012c57602435938085168095036101285785541633036100e55750506bffffffffffffffffffffffff60a01b90816001541617600155600254161760025580f35b906020606492519162461bcd60e51b8352820152601a60248201527f4f6e6c79206f776e65722063616e207365742077616c6c6574730000000000006044820152fd5b8580fd5b8480fd5b8280fd5b5050346101535781600319360112610153576020906003549051908152f35b5080fd5b50503461015357816003193601126101535760015490516001600160a01b039091168152602090f35b505034610153578160031936011261015357905490516001600160a01b039091168152602090f35b50503461015357816003193601126101535760025490516001600160a01b039091168152602090f35b50903461013057826003193601126101305782546001600160a01b03163381900361025457838080809347905af16102076102b3565b5015610211578280f35b906020606492519162461bcd60e51b8352820152601860248201527f4661696c656420746f2077697468647261772066756e647300000000000000006044820152fd5b815162461bcd60e51b8152602081850152601760248201527f4f6e6c79206f776e65722063616e2077697468647261770000000000000000006044820152606490fd5b9250503461013057826003193601126101305760209250548152f35b3d1561030f5767ffffffffffffffff903d8281116102f95760405192601f8201601f19908116603f01168401908111848210176102f95760405282523d6000602084013e565b634e487b7160e01b600052604160045260246000fd5b606090565b3415610468576003548034029034820403610452576064900480340334811161045257600060018060a01b03818080808785600154165af16103546102b3565b5015610401578180848193600254165af161036d6102b3565b50156103ac5760405191348352602083015260408201527f7f23c79eca79eabf5f003b161350b7b38c9d413b8c990d5ade37a24f49b2dd8760603392a2565b60405162461bcd60e51b815260206004820152602760248201527f4661696c656420746f2073656e642066756e647320746f206272616e63686573604482015266081dd85b1b195d60ca1b6064820152608490fd5b60405162461bcd60e51b8152602060048201526024808201527f4661696c656420746f2073656e642066756e647320746f2066727569742077616044820152631b1b195d60e21b6064820152608490fd5b634e487b7160e01b600052601160045260246000fd5b56fea26469706673582212200a1672e085c6bbf8378fb3547a01a9744821b5524e17b6d84d9241916d8070f164736f6c63430008180033",
  "linkReferences": {},
  "deployedLinkReferences": {}
}