{"contracts/FlashloanExecutor.sol":{"FlashloanExecutor":{"abi":[{"inputs":[{"internalType":"address","name":"_provider","type":"address"},{"internalType":"address","name":"_goldstem","type":"address"},{"internalType":"address","name":"_rootTreasury","type":"address"}],"stateMutability":"nonpayable","type":"constructor"},{"inputs":[],"name":"EnforcedPause","type":"error"},{"inputs":[],"name":"ExpectedPause","type":"error"},{"inputs":[{"internalType":"address","name":"owner","type":"address"}],"name":"OwnableInvalidOwner","type":"error"},{"inputs":[{"internalType":"address","name":"account","type":"address"}],"name":"OwnableUnauthorizedAccount","type":"error"},{"inputs":[],"name":"ReentrancyGuardReentrantCall","type":"error"},{"anonymous":false,"inputs":[{"indexed":false,"internalType":"address","name":"tokenIn","type":"address"},{"indexed":false,"internalType":"address","name":"tokenOut","type":"address"},{"indexed":false,"internalType":"uint256","name":"amountIn","type":"uint256"},{"indexed":false,"internalType":"uint256","name":"amountOut","type":"uint256"},{"indexed":false,"internalType":"uint256","name":"profit","type":"uint256"}],"name":"ArbitrageExecuted","type":"event"},{"anonymous":false,"inputs":[{"indexed":false,"internalType":"address","name":"asset","type":"address"},{"indexed":false,"internalType":"uint256","name":"premium","type":"uint256"},{"indexed":false,"internalType":"uint256","name":"profitWei","type":"uint256"}],"name":"FlashCompleted","type":"event"},{"anonymous":false,"inputs":[{"indexed":false,"internalType":"address","name":"asset","type":"address"},{"indexed":false,"internalType":"uint256","name":"amount","type":"uint256"}],"name":"FlashStarted","type":"event"},{"anonymous":false,"inputs":[{"indexed":true,"internalType":"address","name":"previousOwner","type":"address"},{"indexed":true,"internalType":"address","name":"newOwner","type":"address"}],"name":"OwnershipTransferred","type":"event"},{"anonymous":false,"inputs":[{"indexed":false,"internalType":"address","name":"account","type":"address"}],"name":"Paused","type":"event"},{"anonymous":false,"inputs":[{"indexed":false,"internalType":"address","name":"account","type":"address"}],"name":"Unpaused","type":"event"},{"inputs":[],"name":"ADDRESSES_PROVIDER","outputs":[{"internalType":"contract IPoolAddressesProvider","name":"","type":"address"}],"stateMutability":"view","type":"function"},{"inputs":[],"name":"MAX_FLASH_AMOUNT","outputs":[{"internalType":"uint256","name":"","type":"uint256"}],"stateMutability":"view","type":"function"},{"inputs":[],"name":"MIN_PROFIT_THRESHOLD","outputs":[{"internalType":"uint256","name":"","type":"uint256"}],"stateMutability":"view","type":"function"},{"inputs":[],"name":"POOL","outputs":[{"internalType":"contract IPool","name":"","type":"address"}],"stateMutability":"view","type":"function"},{"inputs":[],"name":"UNISWAP_V3_ROUTER","outputs":[{"internalType":"address","name":"","type":"address"}],"stateMutability":"view","type":"function"},{"inputs":[],"name":"USDC","outputs":[{"internalType":"address","name":"","type":"address"}],"stateMutability":"view","type":"function"},{"inputs":[],"name":"USDT","outputs":[{"internalType":"address","name":"","type":"address"}],"stateMutability":"view","type":"function"},{"inputs":[],"name":"WETH","outputs":[{"internalType":"address","name":"","type":"address"}],"stateMutability":"view","type":"function"},{"inputs":[{"internalType":"address","name":"asset","type":"address"}],"name":"calculateOptimalFlashAmount","outputs":[{"internalType":"uint256","name":"optimalAmount","type":"uint256"},{"internalType":"uint256","name":"expectedProfit","type":"uint256"}],"stateMutability":"view","type":"function"},{"inputs":[{"internalType":"address","name":"token","type":"address"}],"name":"emergencyWithdraw","outputs":[],"stateMutability":"nonpayable","type":"function"},{"inputs":[],"name":"emergencyWithdrawETH","outputs":[],"stateMutability":"nonpayable","type":"function"},{"inputs":[{"internalType":"address","name":"asset","type":"address"},{"internalType":"uint256","name":"amount","type":"uint256"}],"name":"estimateArbitrageProfit","outputs":[{"internalType":"uint256","name":"","type":"uint256"}],"stateMutability":"view","type":"function"},{"inputs":[{"internalType":"address","name":"asset","type":"address"},{"internalType":"uint256","name":"amount","type":"uint256"},{"internalType":"uint256","name":"premium","type":"uint256"},{"internalType":"address","name":"","type":"address"},{"internalType":"bytes","name":"params","type":"bytes"}],"name":"executeOperation","outputs":[{"internalType":"bool","name":"","type":"bool"}],"stateMutability":"nonpayable","type":"function"},{"inputs":[],"name":"goldstem","outputs":[{"internalType":"address","name":"","type":"address"}],"stateMutability":"view","type":"function"},{"inputs":[],"name":"owner","outputs":[{"internalType":"address","name":"","type":"address"}],"stateMutability":"view","type":"function"},{"inputs":[],"name":"paused","outputs":[{"internalType":"bool","name":"","type":"bool"}],"stateMutability":"view","type":"function"},{"inputs":[],"name":"pool","outputs":[{"internalType":"address","name":"","type":"address"}],"stateMutability":"view","type":"function"},{"inputs":[],"name":"provider","outputs":[{"internalType":"address","name":"","type":"address"}],"stateMutability":"view","type":"function"},{"inputs":[],"name":"renounceOwnership","outputs":[],"stateMutability":"nonpayable","type":"function"},{"inputs":[],"name":"rootTreasury","outputs":[{"internalType":"address","name":"","type":"address"}],"stateMutability":"view","type":"function"},{"inputs":[{"internalType":"address","name":"asset","type":"address"},{"internalType":"uint256","name":"amount","type":"uint256"},{"internalType":"bytes","name":"params","type":"bytes"}],"name":"runSimpleFlash","outputs":[],"stateMutability":"nonpayable","type":"function"},{"inputs":[{"internalType":"address","name":"a","type":"address"}],"name":"setGoldstem","outputs":[],"stateMutability":"nonpayable","type":"function"},{"inputs":[{"internalType":"address","name":"a","type":"address"}],"name":"setRootTreasury","outputs":[],"stateMutability":"nonpayable","type":"function"},{"inputs":[{"internalType":"address","name":"asset","type":"address"},{"internalType":"uint256","name":"amount","type":"uint256"}],"name":"simulateArbitrage","outputs":[{"internalType":"uint256","name":"","type":"uint256"}],"stateMutability":"pure","type":"function"},{"inputs":[{"internalType":"address","name":"newOwner","type":"address"}],"name":"transferOwnership","outputs":[],"stateMutability":"nonpayable","type":"function"}],"evm":{"bytecode":{"linkReferences":{},"object":"60c060409080825234620001fc57606081620019b7803803809162000025828562000201565b833981010312620001fc576200003b816200023b565b906020906200005984620000518484016200023b565b92016200023b565b903315620001e457600080546001600160a01b0319808216339081178455885191976001600160a01b0397949390919088167f8be0079c531659141344cd1fd0a4f28419497f9722a3daafe3b4186f6b6457e08580a3600180558681169182151580620001d8575b80620001cc575b156200019e575060a052875163026b1d5f60e01b815291908390839060049082905afa9283156200019257908694939291819362000149575b505050608052168360035416176003551690600254161760025551611766908162000251823960805181818161020d015281816102e00152610ab9015260a051816101c80152f35b8294955080929193503d83116200018a575b62000167818362000201565b81010312620001875750906200017e84926200023b565b38808062000101565b80fd5b503d6200015b565b508751903d90823e3d90fd5b62461bcd60e51b81526004810185905260096024820152683d32b9379030b2323960b91b6044820152606490fd5b508787161515620000c8565b508786161515620000c1565b8451631e4fbdf760e01b815260006004820152602490fd5b600080fd5b601f909101601f19168101906001600160401b038211908210176200022557604052565b634e487b7160e01b600052604160045260246000fd5b51906001600160a01b0382168203620001fc5756fe6080604052600436101561001257600080fd5b60003560e01c80630542975c1461019d578063085d48831461019d57806316f0115b1461017a5780631b11d0ff1461019857806341c64a2f1461019357806341f78e271461018e5780635c975abb146101895780636ff1c9bc14610184578063715018a61461017f5780637535d2461461017a578063845360171461017557806389a30271146101705780638da5cb5b1461016b57806391a99e8814610166578063958f1ef814610161578063994a8b311461015c578063a7e1114814610157578063ad5c464814610152578063ae8ccfe41461014d578063aed4fa1a14610148578063b1e79cd414610143578063b3d8ad461461013e578063c54e44eb14610139578063e73d668f146101345763f2fde38b1461012f57600080fd5b610bd5565b610bb3565b610b84565b610a04565b6109e0565b6109b1565b61096e565b61093f565b610916565b6108d3565b6108ac565b610883565b61085a565b61082b565b610781565b6101f7565b610723565b610646565b610620565b6105f1565b6105c2565b610296565b6101b2565b60009103126101ad57565b600080fd5b346101ad5760003660031901126101ad576040517f00000000000000000000000000000000000000000000000000000000000000006001600160a01b03168152602090f35b346101ad5760003660031901126101ad576040517f00000000000000000000000000000000000000000000000000000000000000006001600160a01b03168152602090f35b600435906001600160a01b03821682036101ad57565b606435906001600160a01b03821682036101ad57565b9181601f840112156101ad5782359167ffffffffffffffff83116101ad57602083818601950101116101ad57565b346101ad5760a03660031901126101ad576102af61023c565b6024356044356102bd610252565b5060843567ffffffffffffffff81116101ad576102de903690600401610268565b7f000000000000000000000000000000000000000000000000000000000000000094916001600160a01b039161032b916103269161031f33868b1614610c5d565b3691610d22565b6110d7565b604080516370a0823160e01b8152306004820152909a9688169960209794919390929188856024818f5afa96871561052e578a988c968b60009a610579575b5050916103a894939161038393876103ad9a9b9c61126b565b968088111561056d576103996103a19189610d8a565b915b85610dab565b1115610db8565b610dab565b875163095ea7b360e01b8082526001600160a01b0384166004830152600060248301529193909290919085848060448101038160008d5af191821561052e5785948793610550575b508a519081526001600160a01b0391909116600482015260248101949094528360448160008b5af192831561052e5761043393610533575b50610d8a565b9384610490575b505083516001600160a01b039091168152602081019190915260408101919091527f6b503ccb8fe3617e786d56756579016943b3839c546866718cfa2accb1cbb3ca9080606081015b0390a15160018152602090f35b600254865163a9059cbb60e01b81526001600160a01b0390911660048201526024810186905294908290869060449082906000905af191821561052e577f6b503ccb8fe3617e786d56756579016943b3839c546866718cfa2accb1cbb3ca9561048393610500575b50509361043a565b8161051f92903d10610527575b6105178183610cc4565b810190610df5565b5038806104f8565b503d61050d565b610d68565b61054990853d8711610527576105178183610cc4565b503861042d565b61056690843d8611610527576105178183610cc4565b50386103f5565b506103a160009161039b565b6103ad999a5091876105ab6103a898979593856103839896903d106105bb575b6105a38183610cc4565b810190610d59565b9b9a50509193509193948b61036a565b503d610599565b346101ad5760003660031901126101ad57602060405173e592427a0aece92de3edee1f18e0157c058615648152f35b346101ad5760403660031901126101ad57602061061861060f61023c565b60243590610e0d565b604051908152f35b346101ad5760003660031901126101ad57602060ff60005460a01c166040519015158152f35b346101ad576020806003193601126101ad5761066061023c565b61066861168c565b6040516370a0823160e01b81523060048201526001600160a01b0391821691908381602481865afa90811561052e57600091610706575b50806106a757005b6000805460405163a9059cbb60e01b815293166001600160a01b031660048401526024830191909152909183918391908290816044810103925af1801561052e576106ee57005b8161070492903d10610527576105178183610cc4565b005b61071d9150843d86116105bb576105a38183610cc4565b3861069f565b346101ad5760008060031936011261077e5761073d61168c565b80546001600160a01b03198116825581906001600160a01b03167f8be0079c531659141344cd1fd0a4f28419497f9722a3daafe3b4186f6b6457e08280a380f35b80fd5b346101ad5760008060031936011261077e5761079b61168c565b8047806107a55750f35b8154829182918291906001600160a01b03165af13d15610826573d6107c981610d06565b906107d76040519283610cc4565b81528260203d92013e5b156107e95780f35b60405162461bcd60e51b8152602060048201526015602482015274115512081dda5d1a191c985dd85b0819985a5b1959605a1b6044820152606490fd5b6107e1565b346101ad5760003660031901126101ad57602060405173ff970a61a04b1ca14834a43f5de4533ebddb5cc88152f35b346101ad5760003660031901126101ad576000546040516001600160a01b039091168152602090f35b346101ad5760003660031901126101ad576002546040516001600160a01b039091168152602090f35b346101ad5760403660031901126101ad5760206106186108ca61023c565b60243590610e5f565b346101ad5760203660031901126101ad576108ec61023c565b6108f461168c565b600380546001600160a01b0319166001600160a01b0392909216919091179055005b346101ad5760003660031901126101ad576003546040516001600160a01b039091168152602090f35b346101ad5760003660031901126101ad5760206040517382af49447d8a07e3bd95bd0d56f35241523fbab18152f35b346101ad5760203660031901126101ad5761098761023c565b61098f61168c565b600280546001600160a01b0319166001600160a01b0392909216919091179055005b346101ad5760203660031901126101ad5760406109d46109cf61023c565b610ef2565b82519182526020820152f35b346101ad5760003660031901126101ad57602060405168056bc75e2d631000008152f35b346101ad5760603660031901126101ad57610a1d61023c565b60243560443567ffffffffffffffff81116101ad57610a40903690600401610268565b919060009360ff855460a01c16610b7257600260015414610b605784926002600155610a6a61168c565b8015610b45575b610a7c811515610ff0565b604080516001600160a01b0384168152602081018390527f1e069908b6875ea1e6e903413f4b38ae5d61ba274c0e2cba8c5e3fff60e484c89190a17f00000000000000000000000000000000000000000000000000000000000000006001600160a01b031691823b15610b41578490610b0c604051978896879586946310ac2ddf60e21b86523060048701611027565b03925af1801561052e57610b28575b50610b2560018055565b80f35b80610b35610b3b92610cab565b806101a2565b38610b1b565b8480fd5b50610b4f81610ef2565b50610b5b811515610f92565b610a71565b604051633ee5aeb560e01b8152600490fd5b60405163d93c066560e01b8152600490fd5b346101ad5760003660031901126101ad57602060405173fd086bc7cd5c481dcc9c85ebe478a1c0b69fcbb98152f35b346101ad5760003660031901126101ad57602060405166038d7ea4c680008152f35b346101ad5760203660031901126101ad57610bee61023c565b610bf661168c565b6001600160a01b039081168015610c4457600080546001600160a01b03198116831782559092167f8be0079c531659141344cd1fd0a4f28419497f9722a3daafe3b4186f6b6457e08380a380f35b604051631e4fbdf760e01b815260006004820152602490fd5b15610c6457565b60405162461bcd60e51b81526020600482015260096024820152681bdb9b1e481c1bdbdb60ba1b6044820152606490fd5b634e487b7160e01b600052604160045260246000fd5b67ffffffffffffffff8111610cbf57604052565b610c95565b90601f8019910116810190811067ffffffffffffffff821117610cbf57604052565b6040519060a0820182811067ffffffffffffffff821117610cbf57604052565b67ffffffffffffffff8111610cbf57601f01601f191660200190565b929192610d2e82610d06565b91610d3c6040519384610cc4565b8294818452818301116101ad578281602093846000960137010152565b908160209103126101ad575190565b6040513d6000823e3d90fd5b634e487b7160e01b600052601160045260246000fd5b91908203918211610d9757565b610d74565b9061012c8201809211610d9757565b91908201809211610d9757565b15610dbf57565b60405162461bcd60e51b815260206004820152600e60248201526d6e6f742070726f66697461626c6560901b6044820152606490fd5b908160209103126101ad575180151581036101ad5790565b6001600160a01b03167382af49447d8a07e3bd95bd0d56f35241523fbab01901610e59576003810281810460031482151715610d97576103e8808092049206048101809111610d975790565b50600090565b7382af49447d8a07e3bd95bd0d56f35241523fbab0196001600160a01b03821601610eeb576040516341f78e2760e01b81526001600160a01b039190911660048201526024810191909152602081604481305afa60009181610eca575b50610ec75750600090565b90565b610ee491925060203d6020116105bb576105a38183610cc4565b9038610ebc565b5050600090565b907382af49447d8a07e3bd95bd0d56f35241523fbab0196001600160a01b03831601610f8a57670de0b6b3a7640000600092815b68056bc75e2d63100000811115610f5457505066038d7ea4c680008311610f505750600091508190565b9190565b610f5e8183610e5f565b858111610f7f575b50678ac7230489e80000810180911115610f2657610d74565b945091508138610f66565b600091508190565b15610f9957565b60405162461bcd60e51b815260206004820152602960248201527f4e6f2070726f66697461626c6520617262697472616765206f70706f7274756e6044820152681a5d1e48199bdd5b9960ba1b6064820152608490fd5b15610ff757565b60405162461bcd60e51b81526020600482015260086024820152670616d6f756e743d360c41b6044820152606490fd5b9594600094608094829360c09560018060a01b038092168b521660208a0152604089015260a060608901528160a08901528388013783828288010152601f8019910116850101930152565b60005b8381106110855750506000910152565b8181015183820152602001611075565b81601f820112156101ad5780516110ab81610d06565b926110b96040519485610cc4565b818452602082840101116101ad57610ec79160208085019101611072565b90815182019160a081602085019403126101ad57602081015167ffffffffffffffff908181116101ad5784602061111092850101611095565b9360408301519182116101ad57602061112b92840101611095565b6060820151608083015160a090930151919390929190565b1561114a57565b60405162461bcd60e51b81526020600482015260146024820152731c185d1a10481cdd185c9d08084f48185cdcd95d60621b6044820152606490fd5b1561118d57565b60405162461bcd60e51b81526020600482015260126024820152711c185d1a1088195b9908084f48185cdcd95d60721b6044820152606490fd5b156111ce57565b60405162461bcd60e51b81526020600482015260116024820152701c185d1a1cc81b9bdd0818da185a5b9959607a1b6044820152606490fd5b60e09160208252608081519160a06020850152611233835180948160c088015260208888019101611072565b60018060a01b03602082015116604085015260408101516060850152606081015182850152015160a0830152601f8019910116010190565b95949291909161127a826116f1565b926112848361170a565b9761128e836116f1565b966112988461170a565b6001600160a01b038781169b9381169991989093909184906112bb8e8d14611143565b6112c88b83168d14611186565b16936112d6911684146111c7565b604080516370a0823160e01b808252306004830152909c6020989297919491929091898f8e81806024810103915afa9e8f1561052e5760009f61166d575b50885163095ea7b360e01b80825273e592427a0aece92de3edee1f18e0157c0586156460048301526000602483015293908b81806044810103816000865af1801561052e576000928d9261139c92611650575b508b8d519485809481938b83526004830191906020604084019373e592427a0aece92de3edee1f18e0157c0586156481520152565b03925af1801561052e57611633575b506113b542610d9c565b6113bd610ce6565b928352308b840152898301528760608301526080820152875193846113f063c04b8d5960e01b9384835260048301611207565b03928a8673e592427a0aece92de3edee1f18e0157c0586156495816000885af195861561052e57600096611614575b50895181815273e592427a0aece92de3edee1f18e0157c05861564600482015260006024820152908b828060448101038160008d5af191821561052e578c926115f7575b508a5190815273e592427a0aece92de3edee1f18e0157c0586156460048201526024810187905297889060449082906000905af194851561052e576114e6978b966115da575b506114b342610d9c565b6114bb610ce6565b95865230878701528a8601526060850152608084015260008851809781958294835260048301611207565b03925af191821561052e5785926115bd575b50835190815230600482015296879060249082905afa90811561052e577f0479602bef4bb9277c21beadda23c5e4db7f0b2d4877d00070d6e0739e8c7c0e966115909460009361159e575b505081988083116000146115955761155b9083610d8a565b925b519586958691959493909260809360a084019760018060a01b038092168552166020840152604083015260608201520152565b0390a1565b5060009261155d565b6115b5929350803d106105bb576105a38183610cc4565b903880611543565b6115d390833d85116105bb576105a38183610cc4565b50386114f8565b6115f090873d8911610527576105178183610cc4565b50386114a9565b61160d90833d8511610527576105178183610cc4565b5038611463565b61162c9196508b3d8d116105bb576105a38183610cc4565b943861141f565b611649908b3d8d11610527576105178183610cc4565b50386113ab565b61166690843d8611610527576105178183610cc4565b5038611367565b611685919f508a3d8c116105bb576105a38183610cc4565b9d38611314565b6000546001600160a01b031633036116a057565b60405163118cdaa760e01b8152336004820152602490fd5b156116bf57565b60405162461bcd60e51b815260206004820152600a6024820152691c185d1a081cda1bdc9d60b21b6044820152606490fd5b6020906117026014825110156116b8565b015160601c90565b6117186014825110156116b8565b805180601319810111610d975701600c015160601c9056fea264697066735822122000dbbd39a663fcfb663fdb28a0954fd5d535c020e2029c4f184004d1ba62b99764736f6c63430008180033","opcodes":"PUSH1 0xC0 PUSH1 0x40 SWAP1 DUP1 DUP3 MSTORE CALLVALUE PUSH3 0x1FC JUMPI PUSH1 0x60 DUP2 PUSH3 0x19B7 DUP1 CODESIZE SUB DUP1 SWAP2 PUSH3 0x25 DUP3 DUP6 PUSH3 0x201 JUMP JUMPDEST DUP4 CODECOPY DUP2 ADD SUB SLT PUSH3 0x1FC JUMPI PUSH3 0x3B DUP2 PUSH3 0x23B JUMP JUMPDEST SWAP1 PUSH1 0x20 SWAP1 PUSH3 0x59 DUP5 PUSH3 0x51 DUP5 DUP5 ADD PUSH3 0x23B JUMP JUMPDEST SWAP3 ADD PUSH3 0x23B JUMP JUMPDEST SWAP1 CALLER ISZERO PUSH3 0x1E4 JUMPI PUSH1 0x0 DUP1 SLOAD PUSH1 0x1 PUSH1 0x1 PUSH1 0xA0 SHL SUB NOT DUP1 DUP3 AND CALLER SWAP1 DUP2 OR DUP5 SSTORE DUP9 MLOAD SWAP2 SWAP8 PUSH1 0x1 PUSH1 0x1 PUSH1 0xA0 SHL SUB SWAP8 SWAP5 SWAP4 SWAP1 SWAP2 SWAP1 DUP9 AND PUSH32 0x8BE0079C531659141344CD1FD0A4F28419497F9722A3DAAFE3B4186F6B6457E0 DUP6 DUP1 LOG3 PUSH1 0x1 DUP1 SSTORE DUP7 DUP2 AND SWAP2 DUP3 ISZERO ISZERO DUP1 PUSH3 0x1D8 JUMPI JUMPDEST DUP1 PUSH3 0x1CC JUMPI JUMPDEST ISZERO PUSH3 0x19E JUMPI POP PUSH1 0xA0 MSTORE DUP8 MLOAD PUSH4 0x26B1D5F PUSH1 0xE0 SHL DUP2 MSTORE SWAP2 SWAP1 DUP4 SWAP1 DUP4 SWAP1 PUSH1 0x4 SWAP1 DUP3 SWAP1 GAS STATICCALL SWAP3 DUP4 ISZERO PUSH3 0x192 JUMPI SWAP1 DUP7 SWAP5 SWAP4 SWAP3 SWAP2 DUP2 SWAP4 PUSH3 0x149 JUMPI JUMPDEST POP POP POP PUSH1 0x80 MSTORE AND DUP4 PUSH1 0x3 SLOAD AND OR PUSH1 0x3 SSTORE AND SWAP1 PUSH1 0x2 SLOAD AND OR PUSH1 0x2 SSTORE MLOAD PUSH2 0x1766 SWAP1 DUP2 PUSH3 0x251 DUP3 CODECOPY PUSH1 0x80 MLOAD DUP2 DUP2 DUP2 PUSH2 0x20D ADD MSTORE DUP2 DUP2 PUSH2 0x2E0 ADD MSTORE PUSH2 0xAB9 ADD MSTORE PUSH1 0xA0 MLOAD DUP2 PUSH2 0x1C8 ADD MSTORE RETURN JUMPDEST DUP3 SWAP5 SWAP6 POP DUP1 SWAP3 SWAP2 SWAP4 POP RETURNDATASIZE DUP4 GT PUSH3 0x18A JUMPI JUMPDEST PUSH3 0x167 DUP2 DUP4 PUSH3 0x201 JUMP JUMPDEST DUP2 ADD SUB SLT PUSH3 0x187 JUMPI POP SWAP1 PUSH3 0x17E DUP5 SWAP3 PUSH3 0x23B JUMP JUMPDEST CODESIZE DUP1 DUP1 PUSH3 0x101 JUMP JUMPDEST DUP1 REVERT JUMPDEST POP RETURNDATASIZE PUSH3 0x15B JUMP JUMPDEST POP DUP8 MLOAD SWAP1 RETURNDATASIZE SWAP1 DUP3 RETURNDATACOPY RETURNDATASIZE SWAP1 REVERT JUMPDEST PUSH3 0x461BCD PUSH1 0xE5 SHL DUP2 MSTORE PUSH1 0x4 DUP2 ADD DUP6 SWAP1 MSTORE PUSH1 0x9 PUSH1 0x24 DUP3 ADD MSTORE PUSH9 0x3D32B9379030B23239 PUSH1 0xB9 SHL PUSH1 0x44 DUP3 ADD MSTORE PUSH1 0x64 SWAP1 REVERT JUMPDEST POP DUP8 DUP8 AND ISZERO ISZERO PUSH3 0xC8 JUMP JUMPDEST POP DUP8 DUP7 AND ISZERO ISZERO PUSH3 0xC1 JUMP JUMPDEST DUP5 MLOAD PUSH4 0x1E4FBDF7 PUSH1 0xE0 SHL DUP2 MSTORE PUSH1 0x0 PUSH1 0x4 DUP3 ADD MSTORE PUSH1 0x24 SWAP1 REVERT JUMPDEST PUSH1 0x0 DUP1 REVERT JUMPDEST PUSH1 0x1F SWAP1 SWAP2 ADD PUSH1 0x1F NOT AND DUP2 ADD SWAP1 PUSH1 0x1 PUSH1 0x1 PUSH1 0x40 SHL SUB DUP3 GT SWAP1 DUP3 LT OR PUSH3 0x225 JUMPI PUSH1 0x40 MSTORE JUMP JUMPDEST PUSH4 0x4E487B71 PUSH1 0xE0 SHL PUSH1 0x0 MSTORE PUSH1 0x41 PUSH1 0x4 MSTORE PUSH1 0x24 PUSH1 0x0 REVERT JUMPDEST MLOAD SWAP1 PUSH1 0x1 PUSH1 0x1 PUSH1 0xA0 SHL SUB DUP3 AND DUP3 SUB PUSH3 0x1FC JUMPI JUMP INVALID PUSH1 0x80 PUSH1 0x40 MSTORE PUSH1 0x4 CALLDATASIZE LT ISZERO PUSH2 0x12 JUMPI PUSH1 0x0 DUP1 REVERT JUMPDEST PUSH1 0x0 CALLDATALOAD PUSH1 0xE0 SHR DUP1 PUSH4 0x542975C EQ PUSH2 0x19D JUMPI DUP1 PUSH4 0x85D4883 EQ PUSH2 0x19D JUMPI DUP1 PUSH4 0x16F0115B EQ PUSH2 0x17A JUMPI DUP1 PUSH4 0x1B11D0FF EQ PUSH2 0x198 JUMPI DUP1 PUSH4 0x41C64A2F EQ PUSH2 0x193 JUMPI DUP1 PUSH4 0x41F78E27 EQ PUSH2 0x18E JUMPI DUP1 PUSH4 0x5C975ABB EQ PUSH2 0x189 JUMPI DUP1 PUSH4 0x6FF1C9BC EQ PUSH2 0x184 JUMPI DUP1 PUSH4 0x715018A6 EQ PUSH2 0x17F JUMPI DUP1 PUSH4 0x7535D246 EQ PUSH2 0x17A JUMPI DUP1 PUSH4 0x84536017 EQ PUSH2 0x175 JUMPI DUP1 PUSH4 0x89A30271 EQ PUSH2 0x170 JUMPI DUP1 PUSH4 0x8DA5CB5B EQ PUSH2 0x16B JUMPI DUP1 PUSH4 0x91A99E88 EQ PUSH2 0x166 JUMPI DUP1 PUSH4 0x958F1EF8 EQ PUSH2 0x161 JUMPI DUP1 PUSH4 0x994A8B31 EQ PUSH2 0x15C JUMPI DUP1 PUSH4 0xA7E11148 EQ PUSH2 0x157 JUMPI DUP1 PUSH4 0xAD5C4648 EQ PUSH2 0x152 JUMPI DUP1 PUSH4 0xAE8CCFE4 EQ PUSH2 0x14D JUMPI DUP1 PUSH4 0xAED4FA1A EQ PUSH2 0x148 JUMPI DUP1 PUSH4 0xB1E79CD4 EQ PUSH2 0x143 JUMPI DUP1 PUSH4 0xB3D8AD46 EQ PUSH2 0x13E JUMPI DUP1 PUSH4 0xC54E44EB EQ PUSH2 0x139 JUMPI DUP1 PUSH4 0xE73D668F EQ PUSH2 0x134 JUMPI PUSH4 0xF2FDE38B EQ PUSH2 0x12F JUMPI PUSH1 0x0 DUP1 REVERT JUMPDEST PUSH2 0xBD5 JUMP JUMPDEST PUSH2 0xBB3 JUMP JUMPDEST PUSH2 0xB84 JUMP JUMPDEST PUSH2 0xA04 JUMP JUMPDEST PUSH2 0x9E0 JUMP JUMPDEST PUSH2 0x9B1 JUMP JUMPDEST PUSH2 0x96E JUMP JUMPDEST PUSH2 0x93F JUMP JUMPDEST PUSH2 0x916 JUMP JUMPDEST PUSH2 0x8D3 JUMP JUMPDEST PUSH2 0x8AC JUMP JUMPDEST PUSH2 0x883 JUMP JUMPDEST PUSH2 0x85A JUMP JUMPDEST PUSH2 0x82B JUMP JUMPDEST PUSH2 0x781 JUMP JUMPDEST PUSH2 0x1F7 JUMP JUMPDEST PUSH2 0x723 JUMP JUMPDEST PUSH2 0x646 JUMP JUMPDEST PUSH2 0x620 JUMP JUMPDEST PUSH2 0x5F1 JUMP JUMPDEST PUSH2 0x5C2 JUMP JUMPDEST PUSH2 0x296 JUMP JUMPDEST PUSH2 0x1B2 JUMP JUMPDEST PUSH1 0x0 SWAP2 SUB SLT PUSH2 0x1AD JUMPI JUMP JUMPDEST PUSH1 0x0 DUP1 REVERT JUMPDEST CALLVALUE PUSH2 0x1AD JUMPI PUSH1 0x0 CALLDATASIZE PUSH1 0x3 NOT ADD SLT PUSH2 0x1AD JUMPI PUSH1 0x40 MLOAD PUSH32 0x0 PUSH1 0x1 PUSH1 0x1 PUSH1 0xA0 SHL SUB AND DUP2 MSTORE PUSH1 0x20 SWAP1 RETURN JUMPDEST CALLVALUE PUSH2 0x1AD JUMPI PUSH1 0x0 CALLDATASIZE PUSH1 0x3 NOT ADD SLT PUSH2 0x1AD JUMPI PUSH1 0x40 MLOAD PUSH32 0x0 PUSH1 0x1 PUSH1 0x1 PUSH1 0xA0 SHL SUB AND DUP2 MSTORE PUSH1 0x20 SWAP1 RETURN JUMPDEST PUSH1 0x4 CALLDATALOAD SWAP1 PUSH1 0x1 PUSH1 0x1 PUSH1 0xA0 SHL SUB DUP3 AND DUP3 SUB PUSH2 0x1AD JUMPI JUMP JUMPDEST PUSH1 0x64 CALLDATALOAD SWAP1 PUSH1 0x1 PUSH1 0x1 PUSH1 0xA0 SHL SUB DUP3 AND DUP3 SUB PUSH2 0x1AD JUMPI JUMP JUMPDEST SWAP2 DUP2 PUSH1 0x1F DUP5 ADD SLT ISZERO PUSH2 0x1AD JUMPI DUP3 CALLDATALOAD SWAP2 PUSH8 0xFFFFFFFFFFFFFFFF DUP4 GT PUSH2 0x1AD JUMPI PUSH1 0x20 DUP4 DUP2 DUP7 ADD SWAP6 ADD ADD GT PUSH2 0x1AD JUMPI JUMP JUMPDEST CALLVALUE PUSH2 0x1AD JUMPI PUSH1 0xA0 CALLDATASIZE PUSH1 0x3 NOT ADD SLT PUSH2 0x1AD JUMPI PUSH2 0x2AF PUSH2 0x23C JUMP JUMPDEST PUSH1 0x24 CALLDATALOAD PUSH1 0x44 CALLDATALOAD PUSH2 0x2BD PUSH2 0x252 JUMP JUMPDEST POP PUSH1 0x84 CALLDATALOAD PUSH8 0xFFFFFFFFFFFFFFFF DUP2 GT PUSH2 0x1AD JUMPI PUSH2 0x2DE SWAP1 CALLDATASIZE SWAP1 PUSH1 0x4 ADD PUSH2 0x268 JUMP JUMPDEST PUSH32 0x0 SWAP5 SWAP2 PUSH1 0x1 PUSH1 0x1 PUSH1 0xA0 SHL SUB SWAP2 PUSH2 0x32B SWAP2 PUSH2 0x326 SWAP2 PUSH2 0x31F CALLER DUP7 DUP12 AND EQ PUSH2 0xC5D JUMP JUMPDEST CALLDATASIZE SWAP2 PUSH2 0xD22 JUMP JUMPDEST PUSH2 0x10D7 JUMP JUMPDEST PUSH1 0x40 DUP1 MLOAD PUSH4 0x70A08231 PUSH1 0xE0 SHL DUP2 MSTORE ADDRESS PUSH1 0x4 DUP3 ADD MSTORE SWAP1 SWAP11 SWAP7 DUP9 AND SWAP10 PUSH1 0x20 SWAP8 SWAP5 SWAP2 SWAP4 SWAP1 SWAP3 SWAP2 DUP9 DUP6 PUSH1 0x24 DUP2 DUP16 GAS STATICCALL SWAP7 DUP8 ISZERO PUSH2 0x52E JUMPI DUP11 SWAP9 DUP13 SWAP7 DUP12 PUSH1 0x0 SWAP11 PUSH2 0x579 JUMPI JUMPDEST POP POP SWAP2 PUSH2 0x3A8 SWAP5 SWAP4 SWAP2 PUSH2 0x383 SWAP4 DUP8 PUSH2 0x3AD SWAP11 SWAP12 SWAP13 PUSH2 0x126B JUMP JUMPDEST SWAP7 DUP1 DUP9 GT ISZERO PUSH2 0x56D JUMPI PUSH2 0x399 PUSH2 0x3A1 SWAP2 DUP10 PUSH2 0xD8A JUMP JUMPDEST SWAP2 JUMPDEST DUP6 PUSH2 0xDAB JUMP JUMPDEST GT ISZERO PUSH2 0xDB8 JUMP JUMPDEST PUSH2 0xDAB JUMP JUMPDEST DUP8 MLOAD PUSH4 0x95EA7B3 PUSH1 0xE0 SHL DUP1 DUP3 MSTORE PUSH1 0x1 PUSH1 0x1 PUSH1 0xA0 SHL SUB DUP5 AND PUSH1 0x4 DUP4 ADD MSTORE PUSH1 0x0 PUSH1 0x24 DUP4 ADD MSTORE SWAP2 SWAP4 SWAP1 SWAP3 SWAP1 SWAP2 SWAP1 DUP6 DUP5 DUP1 PUSH1 0x44 DUP2 ADD SUB DUP2 PUSH1 0x0 DUP14 GAS CALL SWAP2 DUP3 ISZERO PUSH2 0x52E JUMPI DUP6 SWAP5 DUP8 SWAP4 PUSH2 0x550 JUMPI JUMPDEST POP DUP11 MLOAD SWAP1 DUP2 MSTORE PUSH1 0x1 PUSH1 0x1 PUSH1 0xA0 SHL SUB SWAP2 SWAP1 SWAP2 AND PUSH1 0x4 DUP3 ADD MSTORE PUSH1 0x24 DUP2 ADD SWAP5 SWAP1 SWAP5 MSTORE DUP4 PUSH1 0x44 DUP2 PUSH1 0x0 DUP12 GAS CALL SWAP3 DUP4 ISZERO PUSH2 0x52E JUMPI PUSH2 0x433 SWAP4 PUSH2 0x533 JUMPI JUMPDEST POP PUSH2 0xD8A JUMP JUMPDEST SWAP4 DUP5 PUSH2 0x490 JUMPI JUMPDEST POP POP DUP4 MLOAD PUSH1 0x1 PUSH1 0x1 PUSH1 0xA0 SHL SUB SWAP1 SWAP2 AND DUP2 MSTORE PUSH1 0x20 DUP2 ADD SWAP2 SWAP1 SWAP2 MSTORE PUSH1 0x40 DUP2 ADD SWAP2 SWAP1 SWAP2 MSTORE PUSH32 0x6B503CCB8FE3617E786D56756579016943B3839C546866718CFA2ACCB1CBB3CA SWAP1 DUP1 PUSH1 0x60 DUP2 ADD JUMPDEST SUB SWAP1 LOG1 MLOAD PUSH1 0x1 DUP2 MSTORE PUSH1 0x20 SWAP1 RETURN JUMPDEST PUSH1 0x2 SLOAD DUP7 MLOAD PUSH4 0xA9059CBB PUSH1 0xE0 SHL DUP2 MSTORE PUSH1 0x1 PUSH1 0x1 PUSH1 0xA0 SHL SUB SWAP1 SWAP2 AND PUSH1 0x4 DUP3 ADD MSTORE PUSH1 0x24 DUP2 ADD DUP7 SWAP1 MSTORE SWAP5 SWAP1 DUP3 SWAP1 DUP7 SWAP1 PUSH1 0x44 SWAP1 DUP3 SWAP1 PUSH1 0x0 SWAP1 GAS CALL SWAP2 DUP3 ISZERO PUSH2 0x52E JUMPI PUSH32 0x6B503CCB8FE3617E786D56756579016943B3839C546866718CFA2ACCB1CBB3CA SWAP6 PUSH2 0x483 SWAP4 PUSH2 0x500 JUMPI JUMPDEST POP POP SWAP4 PUSH2 0x43A JUMP JUMPDEST DUP2 PUSH2 0x51F SWAP3 SWAP1 RETURNDATASIZE LT PUSH2 0x527 JUMPI JUMPDEST PUSH2 0x517 DUP2 DUP4 PUSH2 0xCC4 JUMP JUMPDEST DUP2 ADD SWAP1 PUSH2 0xDF5 JUMP JUMPDEST POP CODESIZE DUP1 PUSH2 0x4F8 JUMP JUMPDEST POP RETURNDATASIZE PUSH2 0x50D JUMP JUMPDEST PUSH2 0xD68 JUMP JUMPDEST PUSH2 0x549 SWAP1 DUP6 RETURNDATASIZE DUP8 GT PUSH2 0x527 JUMPI PUSH2 0x517 DUP2 DUP4 PUSH2 0xCC4 JUMP JUMPDEST POP CODESIZE PUSH2 0x42D JUMP JUMPDEST PUSH2 0x566 SWAP1 DUP5 RETURNDATASIZE DUP7 GT PUSH2 0x527 JUMPI PUSH2 0x517 DUP2 DUP4 PUSH2 0xCC4 JUMP JUMPDEST POP CODESIZE PUSH2 0x3F5 JUMP JUMPDEST POP PUSH2 0x3A1 PUSH1 0x0 SWAP2 PUSH2 0x39B JUMP JUMPDEST PUSH2 0x3AD SWAP10 SWAP11 POP SWAP2 DUP8 PUSH2 0x5AB PUSH2 0x3A8 SWAP9 SWAP8 SWAP6 SWAP4 DUP6 PUSH2 0x383 SWAP9 SWAP7 SWAP1 RETURNDATASIZE LT PUSH2 0x5BB JUMPI JUMPDEST PUSH2 0x5A3 DUP2 DUP4 PUSH2 0xCC4 JUMP JUMPDEST DUP2 ADD SWAP1 PUSH2 0xD59 JUMP JUMPDEST SWAP12 SWAP11 POP POP SWAP2 SWAP4 POP SWAP2 SWAP4 SWAP5 DUP12 PUSH2 0x36A JUMP JUMPDEST POP RETURNDATASIZE PUSH2 0x599 JUMP JUMPDEST CALLVALUE PUSH2 0x1AD JUMPI PUSH1 0x0 CALLDATASIZE PUSH1 0x3 NOT ADD SLT PUSH2 0x1AD JUMPI PUSH1 0x20 PUSH1 0x40 MLOAD PUSH20 0xE592427A0AECE92DE3EDEE1F18E0157C05861564 DUP2 MSTORE RETURN JUMPDEST CALLVALUE PUSH2 0x1AD JUMPI PUSH1 0x40 CALLDATASIZE PUSH1 0x3 NOT ADD SLT PUSH2 0x1AD JUMPI PUSH1 0x20 PUSH2 0x618 PUSH2 0x60F PUSH2 0x23C JUMP JUMPDEST PUSH1 0x24 CALLDATALOAD SWAP1 PUSH2 0xE0D JUMP JUMPDEST PUSH1 0x40 MLOAD SWAP1 DUP2 MSTORE RETURN JUMPDEST CALLVALUE PUSH2 0x1AD JUMPI PUSH1 0x0 CALLDATASIZE PUSH1 0x3 NOT ADD SLT PUSH2 0x1AD JUMPI PUSH1 0x20 PUSH1 0xFF PUSH1 0x0 SLOAD PUSH1 0xA0 SHR AND PUSH1 0x40 MLOAD SWAP1 ISZERO ISZERO DUP2 MSTORE RETURN JUMPDEST CALLVALUE PUSH2 0x1AD JUMPI PUSH1 0x20 DUP1 PUSH1 0x3 NOT CALLDATASIZE ADD SLT PUSH2 0x1AD JUMPI PUSH2 0x660 PUSH2 0x23C JUMP JUMPDEST PUSH2 0x668 PUSH2 0x168C JUMP JUMPDEST PUSH1 0x40 MLOAD PUSH4 0x70A08231 PUSH1 0xE0 SHL DUP2 MSTORE ADDRESS PUSH1 0x4 DUP3 ADD MSTORE PUSH1 0x1 PUSH1 0x1 PUSH1 0xA0 SHL SUB SWAP2 DUP3 AND SWAP2 SWAP1 DUP4 DUP2 PUSH1 0x24 DUP2 DUP7 GAS STATICCALL SWAP1 DUP2 ISZERO PUSH2 0x52E JUMPI PUSH1 0x0 SWAP2 PUSH2 0x706 JUMPI JUMPDEST POP DUP1 PUSH2 0x6A7 JUMPI STOP JUMPDEST PUSH1 0x0 DUP1 SLOAD PUSH1 0x40 MLOAD PUSH4 0xA9059CBB PUSH1 0xE0 SHL DUP2 MSTORE SWAP4 AND PUSH1 0x1 PUSH1 0x1 PUSH1 0xA0 SHL SUB AND PUSH1 0x4 DUP5 ADD MSTORE PUSH1 0x24 DUP4 ADD SWAP2 SWAP1 SWAP2 MSTORE SWAP1 SWAP2 DUP4 SWAP2 DUP4 SWAP2 SWAP1 DUP3 SWAP1 DUP2 PUSH1 0x44 DUP2 ADD SUB SWAP3 GAS CALL DUP1 ISZERO PUSH2 0x52E JUMPI PUSH2 0x6EE JUMPI STOP JUMPDEST DUP2 PUSH2 0x704 SWAP3 SWAP1 RETURNDATASIZE LT PUSH2 0x527 JUMPI PUSH2 0x517 DUP2 DUP4 PUSH2 0xCC4 JUMP JUMPDEST STOP JUMPDEST PUSH2 0x71D SWAP2 POP DUP5 RETURNDATASIZE DUP7 GT PUSH2 0x5BB JUMPI PUSH2 0x5A3 DUP2 DUP4 PUSH2 0xCC4 JUMP JUMPDEST CODESIZE PUSH2 0x69F JUMP JUMPDEST CALLVALUE PUSH2 0x1AD JUMPI PUSH1 0x0 DUP1 PUSH1 0x3 NOT CALLDATASIZE ADD SLT PUSH2 0x77E JUMPI PUSH2 0x73D PUSH2 0x168C JUMP JUMPDEST DUP1 SLOAD PUSH1 0x1 PUSH1 0x1 PUSH1 0xA0 SHL SUB NOT DUP2 AND DUP3 SSTORE DUP2 SWAP1 PUSH1 0x1 PUSH1 0x1 PUSH1 0xA0 SHL SUB AND PUSH32 0x8BE0079C531659141344CD1FD0A4F28419497F9722A3DAAFE3B4186F6B6457E0 DUP3 DUP1 LOG3 DUP1 RETURN JUMPDEST DUP1 REVERT JUMPDEST CALLVALUE PUSH2 0x1AD JUMPI PUSH1 0x0 DUP1 PUSH1 0x3 NOT CALLDATASIZE ADD SLT PUSH2 0x77E JUMPI PUSH2 0x79B PUSH2 0x168C JUMP JUMPDEST DUP1 SELFBALANCE DUP1 PUSH2 0x7A5 JUMPI POP RETURN JUMPDEST DUP2 SLOAD DUP3 SWAP2 DUP3 SWAP2 DUP3 SWAP2 SWAP1 PUSH1 0x1 PUSH1 0x1 PUSH1 0xA0 SHL SUB AND GAS CALL RETURNDATASIZE ISZERO PUSH2 0x826 JUMPI RETURNDATASIZE PUSH2 0x7C9 DUP2 PUSH2 0xD06 JUMP JUMPDEST SWAP1 PUSH2 0x7D7 PUSH1 0x40 MLOAD SWAP3 DUP4 PUSH2 0xCC4 JUMP JUMPDEST DUP2 MSTORE DUP3 PUSH1 0x20 RETURNDATASIZE SWAP3 ADD RETURNDATACOPY JUMPDEST ISZERO PUSH2 0x7E9 JUMPI DUP1 RETURN JUMPDEST PUSH1 0x40 MLOAD PUSH3 0x461BCD PUSH1 0xE5 SHL DUP2 MSTORE PUSH1 0x20 PUSH1 0x4 DUP3 ADD MSTORE PUSH1 0x15 PUSH1 0x24 DUP3 ADD MSTORE PUSH21 0x115512081DDA5D1A191C985DD85B0819985A5B1959 PUSH1 0x5A SHL PUSH1 0x44 DUP3 ADD MSTORE PUSH1 0x64 SWAP1 REVERT JUMPDEST PUSH2 0x7E1 JUMP JUMPDEST CALLVALUE PUSH2 0x1AD JUMPI PUSH1 0x0 CALLDATASIZE PUSH1 0x3 NOT ADD SLT PUSH2 0x1AD JUMPI PUSH1 0x20 PUSH1 0x40 MLOAD PUSH20 0xFF970A61A04B1CA14834A43F5DE4533EBDDB5CC8 DUP2 MSTORE RETURN JUMPDEST CALLVALUE PUSH2 0x1AD JUMPI PUSH1 0x0 CALLDATASIZE PUSH1 0x3 NOT ADD SLT PUSH2 0x1AD JUMPI PUSH1 0x0 SLOAD PUSH1 0x40 MLOAD PUSH1 0x1 PUSH1 0x1 PUSH1 0xA0 SHL SUB SWAP1 SWAP2 AND DUP2 MSTORE PUSH1 0x20 SWAP1 RETURN JUMPDEST CALLVALUE PUSH2 0x1AD JUMPI PUSH1 0x0 CALLDATASIZE PUSH1 0x3 NOT ADD SLT PUSH2 0x1AD JUMPI PUSH1 0x2 SLOAD PUSH1 0x40 MLOAD PUSH1 0x1 PUSH1 0x1 PUSH1 0xA0 SHL SUB SWAP1 SWAP2 AND DUP2 MSTORE PUSH1 0x20 SWAP1 RETURN JUMPDEST CALLVALUE PUSH2 0x1AD JUMPI PUSH1 0x40 CALLDATASIZE PUSH1 0x3 NOT ADD SLT PUSH2 0x1AD JUMPI PUSH1 0x20 PUSH2 0x618 PUSH2 0x8CA PUSH2 0x23C JUMP JUMPDEST PUSH1 0x24 CALLDATALOAD SWAP1 PUSH2 0xE5F JUMP JUMPDEST CALLVALUE PUSH2 0x1AD JUMPI PUSH1 0x20 CALLDATASIZE PUSH1 0x3 NOT ADD SLT PUSH2 0x1AD JUMPI PUSH2 0x8EC PUSH2 0x23C JUMP JUMPDEST PUSH2 0x8F4 PUSH2 0x168C JUMP JUMPDEST PUSH1 0x3 DUP1 SLOAD PUSH1 0x1 PUSH1 0x1 PUSH1 0xA0 SHL SUB NOT AND PUSH1 0x1 PUSH1 0x1 PUSH1 0xA0 SHL SUB SWAP3 SWAP1 SWAP3 AND SWAP2 SWAP1 SWAP2 OR SWAP1 SSTORE STOP JUMPDEST CALLVALUE PUSH2 0x1AD JUMPI PUSH1 0x0 CALLDATASIZE PUSH1 0x3 NOT ADD SLT PUSH2 0x1AD JUMPI PUSH1 0x3 SLOAD PUSH1 0x40 MLOAD PUSH1 0x1 PUSH1 0x1 PUSH1 0xA0 SHL SUB SWAP1 SWAP2 AND DUP2 MSTORE PUSH1 0x20 SWAP1 RETURN JUMPDEST CALLVALUE PUSH2 0x1AD JUMPI PUSH1 0x0 CALLDATASIZE PUSH1 0x3 NOT ADD SLT PUSH2 0x1AD JUMPI PUSH1 0x20 PUSH1 0x40 MLOAD PUSH20 0x82AF49447D8A07E3BD95BD0D56F35241523FBAB1 DUP2 MSTORE RETURN JUMPDEST CALLVALUE PUSH2 0x1AD JUMPI PUSH1 0x20 CALLDATASIZE PUSH1 0x3 NOT ADD SLT PUSH2 0x1AD JUMPI PUSH2 0x987 PUSH2 0x23C JUMP JUMPDEST PUSH2 0x98F PUSH2 0x168C JUMP JUMPDEST PUSH1 0x2 DUP1 SLOAD PUSH1 0x1 PUSH1 0x1 PUSH1 0xA0 SHL SUB NOT AND PUSH1 0x1 PUSH1 0x1 PUSH1 0xA0 SHL SUB SWAP3 SWAP1 SWAP3 AND SWAP2 SWAP1 SWAP2 OR SWAP1 SSTORE STOP JUMPDEST CALLVALUE PUSH2 0x1AD JUMPI PUSH1 0x20 CALLDATASIZE PUSH1 0x3 NOT ADD SLT PUSH2 0x1AD JUMPI PUSH1 0x40 PUSH2 0x9D4 PUSH2 0x9CF PUSH2 0x23C JUMP JUMPDEST PUSH2 0xEF2 JUMP JUMPDEST DUP3 MLOAD SWAP2 DUP3 MSTORE PUSH1 0x20 DUP3 ADD MSTORE RETURN JUMPDEST CALLVALUE PUSH2 0x1AD JUMPI PUSH1 0x0 CALLDATASIZE PUSH1 0x3 NOT ADD SLT PUSH2 0x1AD JUMPI PUSH1 0x20 PUSH1 0x40 MLOAD PUSH9 0x56BC75E2D63100000 DUP2 MSTORE RETURN JUMPDEST CALLVALUE PUSH2 0x1AD JUMPI PUSH1 0x60 CALLDATASIZE PUSH1 0x3 NOT ADD SLT PUSH2 0x1AD JUMPI PUSH2 0xA1D PUSH2 0x23C JUMP JUMPDEST PUSH1 0x24 CALLDATALOAD PUSH1 0x44 CALLDATALOAD PUSH8 0xFFFFFFFFFFFFFFFF DUP2 GT PUSH2 0x1AD JUMPI PUSH2 0xA40 SWAP1 CALLDATASIZE SWAP1 PUSH1 0x4 ADD PUSH2 0x268 JUMP JUMPDEST SWAP2 SWAP1 PUSH1 0x0 SWAP4 PUSH1 0xFF DUP6 SLOAD PUSH1 0xA0 SHR AND PUSH2 0xB72 JUMPI PUSH1 0x2 PUSH1 0x1 SLOAD EQ PUSH2 0xB60 JUMPI DUP5 SWAP3 PUSH1 0x2 PUSH1 0x1 SSTORE PUSH2 0xA6A PUSH2 0x168C JUMP JUMPDEST DUP1 ISZERO PUSH2 0xB45 JUMPI JUMPDEST PUSH2 0xA7C DUP2 ISZERO ISZERO PUSH2 0xFF0 JUMP JUMPDEST PUSH1 0x40 DUP1 MLOAD PUSH1 0x1 PUSH1 0x1 PUSH1 0xA0 SHL SUB DUP5 AND DUP2 MSTORE PUSH1 0x20 DUP2 ADD DUP4 SWAP1 MSTORE PUSH32 0x1E069908B6875EA1E6E903413F4B38AE5D61BA274C0E2CBA8C5E3FFF60E484C8 SWAP2 SWAP1 LOG1 PUSH32 0x0 PUSH1 0x1 PUSH1 0x1 PUSH1 0xA0 SHL SUB AND SWAP2 DUP3 EXTCODESIZE ISZERO PUSH2 0xB41 JUMPI DUP5 SWAP1 PUSH2 0xB0C PUSH1 0x40 MLOAD SWAP8 DUP9 SWAP7 DUP8 SWAP6 DUP7 SWAP5 PUSH4 0x10AC2DDF PUSH1 0xE2 SHL DUP7 MSTORE ADDRESS PUSH1 0x4 DUP8 ADD PUSH2 0x1027 JUMP JUMPDEST SUB SWAP3 GAS CALL DUP1 ISZERO PUSH2 0x52E JUMPI PUSH2 0xB28 JUMPI JUMPDEST POP PUSH2 0xB25 PUSH1 0x1 DUP1 SSTORE JUMP JUMPDEST DUP1 RETURN JUMPDEST DUP1 PUSH2 0xB35 PUSH2 0xB3B SWAP3 PUSH2 0xCAB JUMP JUMPDEST DUP1 PUSH2 0x1A2 JUMP JUMPDEST CODESIZE PUSH2 0xB1B JUMP JUMPDEST DUP5 DUP1 REVERT JUMPDEST POP PUSH2 0xB4F DUP2 PUSH2 0xEF2 JUMP JUMPDEST POP PUSH2 0xB5B DUP2 ISZERO ISZERO PUSH2 0xF92 JUMP JUMPDEST PUSH2 0xA71 JUMP JUMPDEST PUSH1 0x40 MLOAD PUSH4 0x3EE5AEB5 PUSH1 0xE0 SHL DUP2 MSTORE PUSH1 0x4 SWAP1 REVERT JUMPDEST PUSH1 0x40 MLOAD PUSH4 0xD93C0665 PUSH1 0xE0 SHL DUP2 MSTORE PUSH1 0x4 SWAP1 REVERT JUMPDEST CALLVALUE PUSH2 0x1AD JUMPI PUSH1 0x0 CALLDATASIZE PUSH1 0x3 NOT ADD SLT PUSH2 0x1AD JUMPI PUSH1 0x20 PUSH1 0x40 MLOAD PUSH20 0xFD086BC7CD5C481DCC9C85EBE478A1C0B69FCBB9 DUP2 MSTORE RETURN JUMPDEST CALLVALUE PUSH2 0x1AD JUMPI PUSH1 0x0 CALLDATASIZE PUSH1 0x3 NOT ADD SLT PUSH2 0x1AD JUMPI PUSH1 0x20 PUSH1 0x40 MLOAD PUSH7 0x38D7EA4C68000 DUP2 MSTORE RETURN JUMPDEST CALLVALUE PUSH2 0x1AD JUMPI PUSH1 0x20 CALLDATASIZE PUSH1 0x3 NOT ADD SLT PUSH2 0x1AD JUMPI PUSH2 0xBEE PUSH2 0x23C JUMP JUMPDEST PUSH2 0xBF6 PUSH2 0x168C JUMP JUMPDEST PUSH1 0x1 PUSH1 0x1 PUSH1 0xA0 SHL SUB SWAP1 DUP2 AND DUP1 ISZERO PUSH2 0xC44 JUMPI PUSH1 0x0 DUP1 SLOAD PUSH1 0x1 PUSH1 0x1 PUSH1 0xA0 SHL SUB NOT DUP2 AND DUP4 OR DUP3 SSTORE SWAP1 SWAP3 AND PUSH32 0x8BE0079C531659141344CD1FD0A4F28419497F9722A3DAAFE3B4186F6B6457E0 DUP4 DUP1 LOG3 DUP1 RETURN JUMPDEST PUSH1 0x40 MLOAD PUSH4 0x1E4FBDF7 PUSH1 0xE0 SHL DUP2 MSTORE PUSH1 0x0 PUSH1 0x4 DUP3 ADD MSTORE PUSH1 0x24 SWAP1 REVERT JUMPDEST ISZERO PUSH2 0xC64 JUMPI JUMP JUMPDEST PUSH1 0x40 MLOAD PUSH3 0x461BCD PUSH1 0xE5 SHL DUP2 MSTORE PUSH1 0x20 PUSH1 0x4 DUP3 ADD MSTORE PUSH1 0x9 PUSH1 0x24 DUP3 ADD MSTORE PUSH9 0x1BDB9B1E481C1BDBDB PUSH1 0xBA SHL PUSH1 0x44 DUP3 ADD MSTORE PUSH1 0x64 SWAP1 REVERT JUMPDEST PUSH4 0x4E487B71 PUSH1 0xE0 SHL PUSH1 0x0 MSTORE PUSH1 0x41 PUSH1 0x4 MSTORE PUSH1 0x24 PUSH1 0x0 REVERT JUMPDEST PUSH8 0xFFFFFFFFFFFFFFFF DUP2 GT PUSH2 0xCBF JUMPI PUSH1 0x40 MSTORE JUMP JUMPDEST PUSH2 0xC95 JUMP JUMPDEST SWAP1 PUSH1 0x1F DUP1 NOT SWAP2 ADD AND DUP2 ADD SWAP1 DUP2 LT PUSH8 0xFFFFFFFFFFFFFFFF DUP3 GT OR PUSH2 0xCBF JUMPI PUSH1 0x40 MSTORE JUMP JUMPDEST PUSH1 0x40 MLOAD SWAP1 PUSH1 0xA0 DUP3 ADD DUP3 DUP2 LT PUSH8 0xFFFFFFFFFFFFFFFF DUP3 GT OR PUSH2 0xCBF JUMPI PUSH1 0x40 MSTORE JUMP JUMPDEST PUSH8 0xFFFFFFFFFFFFFFFF DUP2 GT PUSH2 0xCBF JUMPI PUSH1 0x1F ADD PUSH1 0x1F NOT AND PUSH1 0x20 ADD SWAP1 JUMP JUMPDEST SWAP3 SWAP2 SWAP3 PUSH2 0xD2E DUP3 PUSH2 0xD06 JUMP JUMPDEST SWAP2 PUSH2 0xD3C PUSH1 0x40 MLOAD SWAP4 DUP5 PUSH2 0xCC4 JUMP JUMPDEST DUP3 SWAP5 DUP2 DUP5 MSTORE DUP2 DUP4 ADD GT PUSH2 0x1AD JUMPI DUP3 DUP2 PUSH1 0x20 SWAP4 DUP5 PUSH1 0x0 SWAP7 ADD CALLDATACOPY ADD ADD MSTORE JUMP JUMPDEST SWAP1 DUP2 PUSH1 0x20 SWAP2 SUB SLT PUSH2 0x1AD JUMPI MLOAD SWAP1 JUMP JUMPDEST PUSH1 0x40 MLOAD RETURNDATASIZE PUSH1 0x0 DUP3 RETURNDATACOPY RETURNDATASIZE SWAP1 REVERT JUMPDEST PUSH4 0x4E487B71 PUSH1 0xE0 SHL PUSH1 0x0 MSTORE PUSH1 0x11 PUSH1 0x4 MSTORE PUSH1 0x24 PUSH1 0x0 REVERT JUMPDEST SWAP2 SWAP1 DUP3 SUB SWAP2 DUP3 GT PUSH2 0xD97 JUMPI JUMP JUMPDEST PUSH2 0xD74 JUMP JUMPDEST SWAP1 PUSH2 0x12C DUP3 ADD DUP1 SWAP3 GT PUSH2 0xD97 JUMPI JUMP JUMPDEST SWAP2 SWAP1 DUP3 ADD DUP1 SWAP3 GT PUSH2 0xD97 JUMPI JUMP JUMPDEST ISZERO PUSH2 0xDBF JUMPI JUMP JUMPDEST PUSH1 0x40 MLOAD PUSH3 0x461BCD PUSH1 0xE5 SHL DUP2 MSTORE PUSH1 0x20 PUSH1 0x4 DUP3 ADD MSTORE PUSH1 0xE PUSH1 0x24 DUP3 ADD MSTORE PUSH14 0x6E6F742070726F66697461626C65 PUSH1 0x90 SHL PUSH1 0x44 DUP3 ADD MSTORE PUSH1 0x64 SWAP1 REVERT JUMPDEST SWAP1 DUP2 PUSH1 0x20 SWAP2 SUB SLT PUSH2 0x1AD JUMPI MLOAD DUP1 ISZERO ISZERO DUP2 SUB PUSH2 0x1AD JUMPI SWAP1 JUMP JUMPDEST PUSH1 0x1 PUSH1 0x1 PUSH1 0xA0 SHL SUB AND PUSH20 0x82AF49447D8A07E3BD95BD0D56F35241523FBAB0 NOT ADD PUSH2 0xE59 JUMPI PUSH1 0x3 DUP2 MUL DUP2 DUP2 DIV PUSH1 0x3 EQ DUP3 ISZERO OR ISZERO PUSH2 0xD97 JUMPI PUSH2 0x3E8 DUP1 DUP1 SWAP3 DIV SWAP3 MOD DIV DUP2 ADD DUP1 SWAP2 GT PUSH2 0xD97 JUMPI SWAP1 JUMP JUMPDEST POP PUSH1 0x0 SWAP1 JUMP JUMPDEST PUSH20 0x82AF49447D8A07E3BD95BD0D56F35241523FBAB0 NOT PUSH1 0x1 PUSH1 0x1 PUSH1 0xA0 SHL SUB DUP3 AND ADD PUSH2 0xEEB JUMPI PUSH1 0x40 MLOAD PUSH4 0x41F78E27 PUSH1 0xE0 SHL DUP2 MSTORE PUSH1 0x1 PUSH1 0x1 PUSH1 0xA0 SHL SUB SWAP2 SWAP1 SWAP2 AND PUSH1 0x4 DUP3 ADD MSTORE PUSH1 0x24 DUP2 ADD SWAP2 SWAP1 SWAP2 MSTORE PUSH1 0x20 DUP2 PUSH1 0x44 DUP2 ADDRESS GAS STATICCALL PUSH1 0x0 SWAP2 DUP2 PUSH2 0xECA JUMPI JUMPDEST POP PUSH2 0xEC7 JUMPI POP PUSH1 0x0 SWAP1 JUMP JUMPDEST SWAP1 JUMP JUMPDEST PUSH2 0xEE4 SWAP2 SWAP3 POP PUSH1 0x20 RETURNDATASIZE PUSH1 0x20 GT PUSH2 0x5BB JUMPI PUSH2 0x5A3 DUP2 DUP4 PUSH2 0xCC4 JUMP JUMPDEST SWAP1 CODESIZE PUSH2 0xEBC JUMP JUMPDEST POP POP PUSH1 0x0 SWAP1 JUMP JUMPDEST SWAP1 PUSH20 0x82AF49447D8A07E3BD95BD0D56F35241523FBAB0 NOT PUSH1 0x1 PUSH1 0x1 PUSH1 0xA0 SHL SUB DUP4 AND ADD PUSH2 0xF8A JUMPI PUSH8 0xDE0B6B3A7640000 PUSH1 0x0 SWAP3 DUP2 JUMPDEST PUSH9 0x56BC75E2D63100000 DUP2 GT ISZERO PUSH2 0xF54 JUMPI POP POP PUSH7 0x38D7EA4C68000 DUP4 GT PUSH2 0xF50 JUMPI POP PUSH1 0x0 SWAP2 POP DUP2 SWAP1 JUMP JUMPDEST SWAP2 SWAP1 JUMP JUMPDEST PUSH2 0xF5E DUP2 DUP4 PUSH2 0xE5F JUMP JUMPDEST DUP6 DUP2 GT PUSH2 0xF7F JUMPI JUMPDEST POP PUSH8 0x8AC7230489E80000 DUP2 ADD DUP1 SWAP2 GT ISZERO PUSH2 0xF26 JUMPI PUSH2 0xD74 JUMP JUMPDEST SWAP5 POP SWAP2 POP DUP2 CODESIZE PUSH2 0xF66 JUMP JUMPDEST PUSH1 0x0 SWAP2 POP DUP2 SWAP1 JUMP JUMPDEST ISZERO PUSH2 0xF99 JUMPI JUMP JUMPDEST PUSH1 0x40 MLOAD PUSH3 0x461BCD PUSH1 0xE5 SHL DUP2 MSTORE PUSH1 0x20 PUSH1 0x4 DUP3 ADD MSTORE PUSH1 0x29 PUSH1 0x24 DUP3 ADD MSTORE PUSH32 0x4E6F2070726F66697461626C6520617262697472616765206F70706F7274756E PUSH1 0x44 DUP3 ADD MSTORE PUSH9 0x1A5D1E48199BDD5B99 PUSH1 0xBA SHL PUSH1 0x64 DUP3 ADD MSTORE PUSH1 0x84 SWAP1 REVERT JUMPDEST ISZERO PUSH2 0xFF7 JUMPI JUMP JUMPDEST PUSH1 0x40 MLOAD PUSH3 0x461BCD PUSH1 0xE5 SHL DUP2 MSTORE PUSH1 0x20 PUSH1 0x4 DUP3 ADD MSTORE PUSH1 0x8 PUSH1 0x24 DUP3 ADD MSTORE PUSH8 0x616D6F756E743D3 PUSH1 0xC4 SHL PUSH1 0x44 DUP3 ADD MSTORE PUSH1 0x64 SWAP1 REVERT JUMPDEST SWAP6 SWAP5 PUSH1 0x0 SWAP5 PUSH1 0x80 SWAP5 DUP3 SWAP4 PUSH1 0xC0 SWAP6 PUSH1 0x1 DUP1 PUSH1 0xA0 SHL SUB DUP1 SWAP3 AND DUP12 MSTORE AND PUSH1 0x20 DUP11 ADD MSTORE PUSH1 0x40 DUP10 ADD MSTORE PUSH1 0xA0 PUSH1 0x60 DUP10 ADD MSTORE DUP2 PUSH1 0xA0 DUP10 ADD MSTORE DUP4 DUP9 ADD CALLDATACOPY DUP4 DUP3 DUP3 DUP9 ADD ADD MSTORE PUSH1 0x1F DUP1 NOT SWAP2 ADD AND DUP6 ADD ADD SWAP4 ADD MSTORE JUMP JUMPDEST PUSH1 0x0 JUMPDEST DUP4 DUP2 LT PUSH2 0x1085 JUMPI POP POP PUSH1 0x0 SWAP2 ADD MSTORE JUMP JUMPDEST DUP2 DUP2 ADD MLOAD DUP4 DUP3 ADD MSTORE PUSH1 0x20 ADD PUSH2 0x1075 JUMP JUMPDEST DUP2 PUSH1 0x1F DUP3 ADD SLT ISZERO PUSH2 0x1AD JUMPI DUP1 MLOAD PUSH2 0x10AB DUP2 PUSH2 0xD06 JUMP JUMPDEST SWAP3 PUSH2 0x10B9 PUSH1 0x40 MLOAD SWAP5 DUP6 PUSH2 0xCC4 JUMP JUMPDEST DUP2 DUP5 MSTORE PUSH1 0x20 DUP3 DUP5 ADD ADD GT PUSH2 0x1AD JUMPI PUSH2 0xEC7 SWAP2 PUSH1 0x20 DUP1 DUP6 ADD SWAP2 ADD PUSH2 0x1072 JUMP JUMPDEST SWAP1 DUP2 MLOAD DUP3 ADD SWAP2 PUSH1 0xA0 DUP2 PUSH1 0x20 DUP6 ADD SWAP5 SUB SLT PUSH2 0x1AD JUMPI PUSH1 0x20 DUP2 ADD MLOAD PUSH8 0xFFFFFFFFFFFFFFFF SWAP1 DUP2 DUP2 GT PUSH2 0x1AD JUMPI DUP5 PUSH1 0x20 PUSH2 0x1110 SWAP3 DUP6 ADD ADD PUSH2 0x1095 JUMP JUMPDEST SWAP4 PUSH1 0x40 DUP4 ADD MLOAD SWAP2 DUP3 GT PUSH2 0x1AD JUMPI PUSH1 0x20 PUSH2 0x112B SWAP3 DUP5 ADD ADD PUSH2 0x1095 JUMP JUMPDEST PUSH1 0x60 DUP3 ADD MLOAD PUSH1 0x80 DUP4 ADD MLOAD PUSH1 0xA0 SWAP1 SWAP4 ADD MLOAD SWAP2 SWAP4 SWAP1 SWAP3 SWAP2 SWAP1 JUMP JUMPDEST ISZERO PUSH2 0x114A JUMPI JUMP JUMPDEST PUSH1 0x40 MLOAD PUSH3 0x461BCD PUSH1 0xE5 SHL DUP2 MSTORE PUSH1 0x20 PUSH1 0x4 DUP3 ADD MSTORE PUSH1 0x14 PUSH1 0x24 DUP3 ADD MSTORE PUSH20 0x1C185D1A10481CDD185C9D08084F48185CDCD95D PUSH1 0x62 SHL PUSH1 0x44 DUP3 ADD MSTORE PUSH1 0x64 SWAP1 REVERT JUMPDEST ISZERO PUSH2 0x118D JUMPI JUMP JUMPDEST PUSH1 0x40 MLOAD PUSH3 0x461BCD PUSH1 0xE5 SHL DUP2 MSTORE PUSH1 0x20 PUSH1 0x4 DUP3 ADD MSTORE PUSH1 0x12 PUSH1 0x24 DUP3 ADD MSTORE PUSH18 0x1C185D1A1088195B9908084F48185CDCD95D PUSH1 0x72 SHL PUSH1 0x44 DUP3 ADD MSTORE PUSH1 0x64 SWAP1 REVERT JUMPDEST ISZERO PUSH2 0x11CE JUMPI JUMP JUMPDEST PUSH1 0x40 MLOAD PUSH3 0x461BCD PUSH1 0xE5 SHL DUP2 MSTORE PUSH1 0x20 PUSH1 0x4 DUP3 ADD MSTORE PUSH1 0x11 PUSH1 0x24 DUP3 ADD MSTORE PUSH17 0x1C185D1A1CC81B9BDD0818DA185A5B9959 PUSH1 0x7A SHL PUSH1 0x44 DUP3 ADD MSTORE PUSH1 0x64 SWAP1 REVERT JUMPDEST PUSH1 0xE0 SWAP2 PUSH1 0x20 DUP3 MSTORE PUSH1 0x80 DUP2 MLOAD SWAP2 PUSH1 0xA0 PUSH1 0x20 DUP6 ADD MSTORE PUSH2 0x1233 DUP4 MLOAD DUP1 SWAP5 DUP2 PUSH1 0xC0 DUP9 ADD MSTORE PUSH1 0x20 DUP9 DUP9 ADD SWAP2 ADD PUSH2 0x1072 JUMP JUMPDEST PUSH1 0x1 DUP1 PUSH1 0xA0 SHL SUB PUSH1 0x20 DUP3 ADD MLOAD AND PUSH1 0x40 DUP6 ADD MSTORE PUSH1 0x40 DUP2 ADD MLOAD PUSH1 0x60 DUP6 ADD MSTORE PUSH1 0x60 DUP2 ADD MLOAD DUP3 DUP6 ADD MSTORE ADD MLOAD PUSH1 0xA0 DUP4 ADD MSTORE PUSH1 0x1F DUP1 NOT SWAP2 ADD AND ADD ADD SWAP1 JUMP JUMPDEST SWAP6 SWAP5 SWAP3 SWAP2 SWAP1 SWAP2 PUSH2 0x127A DUP3 PUSH2 0x16F1 JUMP JUMPDEST SWAP3 PUSH2 0x1284 DUP4 PUSH2 0x170A JUMP JUMPDEST SWAP8 PUSH2 0x128E DUP4 PUSH2 0x16F1 JUMP JUMPDEST SWAP7 PUSH2 0x1298 DUP5 PUSH2 0x170A JUMP JUMPDEST PUSH1 0x1 PUSH1 0x1 PUSH1 0xA0 SHL SUB DUP8 DUP2 AND SWAP12 SWAP4 DUP2 AND SWAP10 SWAP2 SWAP9 SWAP1 SWAP4 SWAP1 SWAP2 DUP5 SWAP1 PUSH2 0x12BB DUP15 DUP14 EQ PUSH2 0x1143 JUMP JUMPDEST PUSH2 0x12C8 DUP12 DUP4 AND DUP14 EQ PUSH2 0x1186 JUMP JUMPDEST AND SWAP4 PUSH2 0x12D6 SWAP2 AND DUP5 EQ PUSH2 0x11C7 JUMP JUMPDEST PUSH1 0x40 DUP1 MLOAD PUSH4 0x70A08231 PUSH1 0xE0 SHL DUP1 DUP3 MSTORE ADDRESS PUSH1 0x4 DUP4 ADD MSTORE SWAP1 SWAP13 PUSH1 0x20 SWAP9 SWAP3 SWAP8 SWAP2 SWAP5 SWAP2 SWAP3 SWAP1 SWAP2 DUP10 DUP16 DUP15 DUP2 DUP1 PUSH1 0x24 DUP2 ADD SUB SWAP2 GAS STATICCALL SWAP15 DUP16 ISZERO PUSH2 0x52E JUMPI PUSH1 0x0 SWAP16 PUSH2 0x166D JUMPI JUMPDEST POP DUP9 MLOAD PUSH4 0x95EA7B3 PUSH1 0xE0 SHL DUP1 DUP3 MSTORE PUSH20 0xE592427A0AECE92DE3EDEE1F18E0157C05861564 PUSH1 0x4 DUP4 ADD MSTORE PUSH1 0x0 PUSH1 0x24 DUP4 ADD MSTORE SWAP4 SWAP1 DUP12 DUP2 DUP1 PUSH1 0x44 DUP2 ADD SUB DUP2 PUSH1 0x0 DUP7 GAS CALL DUP1 ISZERO PUSH2 0x52E JUMPI PUSH1 0x0 SWAP3 DUP14 SWAP3 PUSH2 0x139C SWAP3 PUSH2 0x1650 JUMPI JUMPDEST POP DUP12 DUP14 MLOAD SWAP5 DUP6 DUP1 SWAP5 DUP2 SWAP4 DUP12 DUP4 MSTORE PUSH1 0x4 DUP4 ADD SWAP2 SWAP1 PUSH1 0x20 PUSH1 0x40 DUP5 ADD SWAP4 PUSH20 0xE592427A0AECE92DE3EDEE1F18E0157C05861564 DUP2 MSTORE ADD MSTORE JUMP JUMPDEST SUB SWAP3 GAS CALL DUP1 ISZERO PUSH2 0x52E JUMPI PUSH2 0x1633 JUMPI JUMPDEST POP PUSH2 0x13B5 TIMESTAMP PUSH2 0xD9C JUMP JUMPDEST PUSH2 0x13BD PUSH2 0xCE6 JUMP JUMPDEST SWAP3 DUP4 MSTORE ADDRESS DUP12 DUP5 ADD MSTORE DUP10 DUP4 ADD MSTORE DUP8 PUSH1 0x60 DUP4 ADD MSTORE PUSH1 0x80 DUP3 ADD MSTORE DUP8 MLOAD SWAP4 DUP5 PUSH2 0x13F0 PUSH4 0xC04B8D59 PUSH1 0xE0 SHL SWAP4 DUP5 DUP4 MSTORE PUSH1 0x4 DUP4 ADD PUSH2 0x1207 JUMP JUMPDEST SUB SWAP3 DUP11 DUP7 PUSH20 0xE592427A0AECE92DE3EDEE1F18E0157C05861564 SWAP6 DUP2 PUSH1 0x0 DUP9 GAS CALL SWAP6 DUP7 ISZERO PUSH2 0x52E JUMPI PUSH1 0x0 SWAP7 PUSH2 0x1614 JUMPI JUMPDEST POP DUP10 MLOAD DUP2 DUP2 MSTORE PUSH20 0xE592427A0AECE92DE3EDEE1F18E0157C05861564 PUSH1 0x4 DUP3 ADD MSTORE PUSH1 0x0 PUSH1 0x24 DUP3 ADD MSTORE SWAP1 DUP12 DUP3 DUP1 PUSH1 0x44 DUP2 ADD SUB DUP2 PUSH1 0x0 DUP14 GAS CALL SWAP2 DUP3 ISZERO PUSH2 0x52E JUMPI DUP13 SWAP3 PUSH2 0x15F7 JUMPI JUMPDEST POP DUP11 MLOAD SWAP1 DUP2 MSTORE PUSH20 0xE592427A0AECE92DE3EDEE1F18E0157C05861564 PUSH1 0x4 DUP3 ADD MSTORE PUSH1 0x24 DUP2 ADD DUP8 SWAP1 MSTORE SWAP8 DUP9 SWAP1 PUSH1 0x44 SWAP1 DUP3 SWAP1 PUSH1 0x0 SWAP1 GAS CALL SWAP5 DUP6 ISZERO PUSH2 0x52E JUMPI PUSH2 0x14E6 SWAP8 DUP12 SWAP7 PUSH2 0x15DA JUMPI JUMPDEST POP PUSH2 0x14B3 TIMESTAMP PUSH2 0xD9C JUMP JUMPDEST PUSH2 0x14BB PUSH2 0xCE6 JUMP JUMPDEST SWAP6 DUP7 MSTORE ADDRESS DUP8 DUP8 ADD MSTORE DUP11 DUP7 ADD MSTORE PUSH1 0x60 DUP6 ADD MSTORE PUSH1 0x80 DUP5 ADD MSTORE PUSH1 0x0 DUP9 MLOAD DUP1 SWAP8 DUP2 SWAP6 DUP3 SWAP5 DUP4 MSTORE PUSH1 0x4 DUP4 ADD PUSH2 0x1207 JUMP JUMPDEST SUB SWAP3 GAS CALL SWAP2 DUP3 ISZERO PUSH2 0x52E JUMPI DUP6 SWAP3 PUSH2 0x15BD JUMPI JUMPDEST POP DUP4 MLOAD SWAP1 DUP2 MSTORE ADDRESS PUSH1 0x4 DUP3 ADD MSTORE SWAP7 DUP8 SWAP1 PUSH1 0x24 SWAP1 DUP3 SWAP1 GAS STATICCALL SWAP1 DUP2 ISZERO PUSH2 0x52E JUMPI PUSH32 0x479602BEF4BB9277C21BEADDA23C5E4DB7F0B2D4877D00070D6E0739E8C7C0E SWAP7 PUSH2 0x1590 SWAP5 PUSH1 0x0 SWAP4 PUSH2 0x159E JUMPI JUMPDEST POP POP DUP2 SWAP9 DUP1 DUP4 GT PUSH1 0x0 EQ PUSH2 0x1595 JUMPI PUSH2 0x155B SWAP1 DUP4 PUSH2 0xD8A JUMP JUMPDEST SWAP3 JUMPDEST MLOAD SWAP6 DUP7 SWAP6 DUP7 SWAP2 SWAP6 SWAP5 SWAP4 SWAP1 SWAP3 PUSH1 0x80 SWAP4 PUSH1 0xA0 DUP5 ADD SWAP8 PUSH1 0x1 DUP1 PUSH1 0xA0 SHL SUB DUP1 SWAP3 AND DUP6 MSTORE AND PUSH1 0x20 DUP5 ADD MSTORE PUSH1 0x40 DUP4 ADD MSTORE PUSH1 0x60 DUP3 ADD MSTORE ADD MSTORE JUMP JUMPDEST SUB SWAP1 LOG1 JUMP JUMPDEST POP PUSH1 0x0 SWAP3 PUSH2 0x155D JUMP JUMPDEST PUSH2 0x15B5 SWAP3 SWAP4 POP DUP1 RETURNDATASIZE LT PUSH2 0x5BB JUMPI PUSH2 0x5A3 DUP2 DUP4 PUSH2 0xCC4 JUMP JUMPDEST SWAP1 CODESIZE DUP1 PUSH2 0x1543 JUMP JUMPDEST PUSH2 0x15D3 SWAP1 DUP4 RETURNDATASIZE DUP6 GT PUSH2 0x5BB JUMPI PUSH2 0x5A3 DUP2 DUP4 PUSH2 0xCC4 JUMP JUMPDEST POP CODESIZE PUSH2 0x14F8 JUMP JUMPDEST PUSH2 0x15F0 SWAP1 DUP8 RETURNDATASIZE DUP10 GT PUSH2 0x527 JUMPI PUSH2 0x517 DUP2 DUP4 PUSH2 0xCC4 JUMP JUMPDEST POP CODESIZE PUSH2 0x14A9 JUMP JUMPDEST PUSH2 0x160D SWAP1 DUP4 RETURNDATASIZE DUP6 GT PUSH2 0x527 JUMPI PUSH2 0x517 DUP2 DUP4 PUSH2 0xCC4 JUMP JUMPDEST POP CODESIZE PUSH2 0x1463 JUMP JUMPDEST PUSH2 0x162C SWAP2 SWAP7 POP DUP12 RETURNDATASIZE DUP14 GT PUSH2 0x5BB JUMPI PUSH2 0x5A3 DUP2 DUP4 PUSH2 0xCC4 JUMP JUMPDEST SWAP5 CODESIZE PUSH2 0x141F JUMP JUMPDEST PUSH2 0x1649 SWAP1 DUP12 RETURNDATASIZE DUP14 GT PUSH2 0x527 JUMPI PUSH2 0x517 DUP2 DUP4 PUSH2 0xCC4 JUMP JUMPDEST POP CODESIZE PUSH2 0x13AB JUMP JUMPDEST PUSH2 0x1666 SWAP1 DUP5 RETURNDATASIZE DUP7 GT PUSH2 0x527 JUMPI PUSH2 0x517 DUP2 DUP4 PUSH2 0xCC4 JUMP JUMPDEST POP CODESIZE PUSH2 0x1367 JUMP JUMPDEST PUSH2 0x1685 SWAP2 SWAP16 POP DUP11 RETURNDATASIZE DUP13 GT PUSH2 0x5BB JUMPI PUSH2 0x5A3 DUP2 DUP4 PUSH2 0xCC4 JUMP JUMPDEST SWAP14 CODESIZE PUSH2 0x1314 JUMP JUMPDEST PUSH1 0x0 SLOAD PUSH1 0x1 PUSH1 0x1 PUSH1 0xA0 SHL SUB AND CALLER SUB PUSH2 0x16A0 JUMPI JUMP JUMPDEST PUSH1 0x40 MLOAD PUSH4 0x118CDAA7 PUSH1 0xE0 SHL DUP2 MSTORE CALLER PUSH1 0x4 DUP3 ADD MSTORE PUSH1 0x24 SWAP1 REVERT JUMPDEST ISZERO PUSH2 0x16BF JUMPI JUMP JUMPDEST PUSH1 0x40 MLOAD PUSH3 0x461BCD PUSH1 0xE5 SHL DUP2 MSTORE PUSH1 0x20 PUSH1 0x4 DUP3 ADD MSTORE PUSH1 0xA PUSH1 0x24 DUP3 ADD MSTORE PUSH10 0x1C185D1A081CDA1BDC9D PUSH1 0xB2 SHL PUSH1 0x44 DUP3 ADD MSTORE PUSH1 0x64 SWAP1 REVERT JUMPDEST PUSH1 0x20 SWAP1 PUSH2 0x1702 PUSH1 0x14 DUP3 MLOAD LT ISZERO PUSH2 0x16B8 JUMP JUMPDEST ADD MLOAD PUSH1 0x60 SHR SWAP1 JUMP JUMPDEST PUSH2 0x1718 PUSH1 0x14 DUP3 MLOAD LT ISZERO PUSH2 0x16B8 JUMP JUMPDEST DUP1 MLOAD DUP1 PUSH1 0x13 NOT DUP2 ADD GT PUSH2 0xD97 JUMPI ADD PUSH1 0xC ADD MLOAD PUSH1 0x60 SHR SWAP1 JUMP INVALID LOG2 PUSH5 0x6970667358 0x22 SLT KECCAK256 STOP 0xDB 0xBD CODECOPY 0xA6 PUSH4 0xFCFB663F 0xDB 0x28 LOG0 SWAP6 0x4F 0xD5 0xD5 CALLDATALOAD 0xC0 KECCAK256 0xE2 MUL SWAP13 0x4F XOR BLOCKHASH DIV 0xD1 0xBA PUSH3 0xB99764 PUSH20 0x6F6C634300081800330000000000000000000000 "},"methodIdentifiers":{"ADDRESSES_PROVIDER()":"0542975c","MAX_FLASH_AMOUNT()":"b1e79cd4","MIN_PROFIT_THRESHOLD()":"e73d668f","POOL()":"7535d246","UNISWAP_V3_ROUTER()":"41c64a2f","USDC()":"89a30271","USDT()":"c54e44eb","WETH()":"ad5c4648","calculateOptimalFlashAmount(address)":"aed4fa1a","emergencyWithdraw(address)":"6ff1c9bc","emergencyWithdrawETH()":"84536017","estimateArbitrageProfit(address,uint256)":"958f1ef8","executeOperation(address,uint256,uint256,address,bytes)":"1b11d0ff","goldstem()":"a7e11148","owner()":"8da5cb5b","paused()":"5c975abb","pool()":"16f0115b","provider()":"085d4883","renounceOwnership()":"715018a6","rootTreasury()":"91a99e88","runSimpleFlash(address,uint256,bytes)":"b3d8ad46","setGoldstem(address)":"994a8b31","setRootTreasury(address)":"ae8ccfe4","simulateArbitrage(address,uint256)":"41f78e27","transferOwnership(address)":"f2fde38b"}}}}}