{"contracts/FlashloanExecutor.sol":{"FlashloanExecutor":{"abi":[{"inputs":[{"internalType":"address","name":"_provider","type":"address"},{"internalType":"address","name":"_goldstem","type":"address"},{"internalType":"address","name":"_rootTreasury","type":"address"}],"stateMutability":"nonpayable","type":"constructor"},{"inputs":[],"name":"EnforcedPause","type":"error"},{"inputs":[],"name":"ExpectedPause","type":"error"},{"inputs":[{"internalType":"address","name":"owner","type":"address"}],"name":"OwnableInvalidOwner","type":"error"},{"inputs":[{"internalType":"address","name":"account","type":"address"}],"name":"OwnableUnauthorizedAccount","type":"error"},{"inputs":[],"name":"ReentrancyGuardReentrantCall","type":"error"},{"anonymous":false,"inputs":[{"indexed":false,"internalType":"address","name":"tokenIn","type":"address"},{"indexed":false,"internalType":"address","name":"tokenOut","type":"address"},{"indexed":false,"internalType":"uint256","name":"amountIn","type":"uint256"},{"indexed":false,"internalType":"uint256","name":"amountOut","type":"uint256"},{"indexed":false,"internalType":"uint256","name":"profit","type":"uint256"}],"name":"ArbitrageExecuted","type":"event"},{"anonymous":false,"inputs":[{"indexed":false,"internalType":"address","name":"asset","type":"address"},{"indexed":false,"internalType":"uint256","name":"premium","type":"uint256"},{"indexed":false,"internalType":"uint256","name":"profitWei","type":"uint256"}],"name":"FlashCompleted","type":"event"},{"anonymous":false,"inputs":[{"indexed":false,"internalType":"address","name":"asset","type":"address"},{"indexed":false,"internalType":"uint256","name":"amount","type":"uint256"}],"name":"FlashStarted","type":"event"},{"anonymous":false,"inputs":[{"indexed":true,"internalType":"address","name":"previousOwner","type":"address"},{"indexed":true,"internalType":"address","name":"newOwner","type":"address"}],"name":"OwnershipTransferred","type":"event"},{"anonymous":false,"inputs":[{"indexed":false,"internalType":"address","name":"account","type":"address"}],"name":"Paused","type":"event"},{"anonymous":false,"inputs":[{"indexed":false,"internalType":"address","name":"account","type":"address"}],"name":"Unpaused","type":"event"},{"inputs":[],"name":"ADDRESSES_PROVIDER","outputs":[{"internalType":"contract IPoolAddressesProvider","name":"","type":"address"}],"stateMutability":"view","type":"function"},{"inputs":[],"name":"MAX_FLASH_AMOUNT","outputs":[{"internalType":"uint256","name":"","type":"uint256"}],"stateMutability":"view","type":"function"},{"inputs":[],"name":"MIN_PROFIT_THRESHOLD","outputs":[{"internalType":"uint256","name":"","type":"uint256"}],"stateMutability":"view","type":"function"},{"inputs":[],"name":"POOL","outputs":[{"internalType":"contract IPool","name":"","type":"address"}],"stateMutability":"view","type":"function"},{"inputs":[],"name":"SUSHISWAP_ROUTER","outputs":[{"internalType":"address","name":"","type":"address"}],"stateMutability":"view","type":"function"},{"inputs":[],"name":"UNISWAP_FEE","outputs":[{"internalType":"uint24","name":"","type":"uint24"}],"stateMutability":"view","type":"function"},{"inputs":[],"name":"UNISWAP_V3_ROUTER","outputs":[{"internalType":"address","name":"","type":"address"}],"stateMutability":"view","type":"function"},{"inputs":[],"name":"USDC","outputs":[{"internalType":"address","name":"","type":"address"}],"stateMutability":"view","type":"function"},{"inputs":[],"name":"USDT","outputs":[{"internalType":"address","name":"","type":"address"}],"stateMutability":"view","type":"function"},{"inputs":[],"name":"WETH","outputs":[{"internalType":"address","name":"","type":"address"}],"stateMutability":"view","type":"function"},{"inputs":[{"internalType":"address","name":"asset","type":"address"}],"name":"calculateOptimalFlashAmount","outputs":[{"internalType":"uint256","name":"optimalAmount","type":"uint256"},{"internalType":"uint256","name":"expectedProfit","type":"uint256"}],"stateMutability":"view","type":"function"},{"inputs":[{"internalType":"address","name":"token","type":"address"}],"name":"emergencyWithdraw","outputs":[],"stateMutability":"nonpayable","type":"function"},{"inputs":[],"name":"emergencyWithdrawETH","outputs":[],"stateMutability":"nonpayable","type":"function"},{"inputs":[{"internalType":"address","name":"asset","type":"address"},{"internalType":"uint256","name":"amount","type":"uint256"}],"name":"estimateArbitrageProfit","outputs":[{"internalType":"uint256","name":"","type":"uint256"}],"stateMutability":"view","type":"function"},{"inputs":[{"internalType":"address","name":"asset","type":"address"},{"internalType":"uint256","name":"amount","type":"uint256"},{"internalType":"uint256","name":"premium","type":"uint256"},{"internalType":"address","name":"","type":"address"},{"internalType":"bytes","name":"","type":"bytes"}],"name":"executeOperation","outputs":[{"internalType":"bool","name":"","type":"bool"}],"stateMutability":"nonpayable","type":"function"},{"inputs":[{"internalType":"uint256","name":"amount","type":"uint256"}],"name":"executeWethArbitrage","outputs":[{"internalType":"uint256","name":"profit","type":"uint256"}],"stateMutability":"nonpayable","type":"function"},{"inputs":[],"name":"goldstem","outputs":[{"internalType":"address","name":"","type":"address"}],"stateMutability":"view","type":"function"},{"inputs":[],"name":"owner","outputs":[{"internalType":"address","name":"","type":"address"}],"stateMutability":"view","type":"function"},{"inputs":[],"name":"paused","outputs":[{"internalType":"bool","name":"","type":"bool"}],"stateMutability":"view","type":"function"},{"inputs":[],"name":"pool","outputs":[{"internalType":"address","name":"","type":"address"}],"stateMutability":"view","type":"function"},{"inputs":[],"name":"provider","outputs":[{"internalType":"address","name":"","type":"address"}],"stateMutability":"view","type":"function"},{"inputs":[],"name":"renounceOwnership","outputs":[],"stateMutability":"nonpayable","type":"function"},{"inputs":[],"name":"rootTreasury","outputs":[{"internalType":"address","name":"","type":"address"}],"stateMutability":"view","type":"function"},{"inputs":[{"internalType":"address","name":"asset","type":"address"},{"internalType":"uint256","name":"amount","type":"uint256"},{"internalType":"bytes","name":"params","type":"bytes"}],"name":"runSimpleFlash","outputs":[],"stateMutability":"nonpayable","type":"function"},{"inputs":[{"internalType":"address","name":"a","type":"address"}],"name":"setGoldstem","outputs":[],"stateMutability":"nonpayable","type":"function"},{"inputs":[{"internalType":"address","name":"a","type":"address"}],"name":"setRootTreasury","outputs":[],"stateMutability":"nonpayable","type":"function"},{"inputs":[{"internalType":"address","name":"asset","type":"address"},{"internalType":"uint256","name":"amount","type":"uint256"}],"name":"simulateArbitrage","outputs":[{"internalType":"uint256","name":"","type":"uint256"}],"stateMutability":"pure","type":"function"},{"inputs":[{"internalType":"address","name":"newOwner","type":"address"}],"name":"transferOwnership","outputs":[],"stateMutability":"nonpayable","type":"function"}],"evm":{"bytecode":{"linkReferences":{},"object":"60c06040523480156200001157600080fd5b50604051620033203803806200332083398181016040528101906200003791906200043f565b33600073ffffffffffffffffffffffffffffffffffffffff168173ffffffffffffffffffffffffffffffffffffffff1603620000ad5760006040517f1e4fbdf7000000000000000000000000000000000000000000000000000000008152600401620000a49190620004ac565b60405180910390fd5b620000be816200031160201b60201c565b5060018081905550600073ffffffffffffffffffffffffffffffffffffffff168373ffffffffffffffffffffffffffffffffffffffff1614158015620001315750600073ffffffffffffffffffffffffffffffffffffffff168273ffffffffffffffffffffffffffffffffffffffff1614155b80156200016b5750600073ffffffffffffffffffffffffffffffffffffffff168173ffffffffffffffffffffffffffffffffffffffff1614155b620001ad576040517f08c379a0000000000000000000000000000000000000000000000000000000008152600401620001a4906200052a565b60405180910390fd5b8273ffffffffffffffffffffffffffffffffffffffff1660a08173ffffffffffffffffffffffffffffffffffffffff16815250508273ffffffffffffffffffffffffffffffffffffffff1663026b1d5f6040518163ffffffff1660e01b8152600401602060405180830381865afa1580156200022d573d6000803e3d6000fd5b505050506040513d601f19601f820116820180604052508101906200025391906200054c565b73ffffffffffffffffffffffffffffffffffffffff1660808173ffffffffffffffffffffffffffffffffffffffff168152505081600360006101000a81548173ffffffffffffffffffffffffffffffffffffffff021916908373ffffffffffffffffffffffffffffffffffffffff16021790555080600260006101000a81548173ffffffffffffffffffffffffffffffffffffffff021916908373ffffffffffffffffffffffffffffffffffffffff1602179055505050506200057e565b60008060009054906101000a900473ffffffffffffffffffffffffffffffffffffffff169050816000806101000a81548173ffffffffffffffffffffffffffffffffffffffff021916908373ffffffffffffffffffffffffffffffffffffffff1602179055508173ffffffffffffffffffffffffffffffffffffffff168173ffffffffffffffffffffffffffffffffffffffff167f8be0079c531659141344cd1fd0a4f28419497f9722a3daafe3b4186f6b6457e060405160405180910390a35050565b600080fd5b600073ffffffffffffffffffffffffffffffffffffffff82169050919050565b60006200040782620003da565b9050919050565b6200041981620003fa565b81146200042557600080fd5b50565b60008151905062000439816200040e565b92915050565b6000806000606084860312156200045b576200045a620003d5565b5b60006200046b8682870162000428565b93505060206200047e8682870162000428565b9250506040620004918682870162000428565b9150509250925092565b620004a681620003fa565b82525050565b6000602082019050620004c360008301846200049b565b92915050565b600082825260208201905092915050565b7f7a65726f20616464720000000000000000000000000000000000000000000000600082015250565b600062000512600983620004c9565b91506200051f82620004da565b602082019050919050565b60006020820190508181036000830152620005458162000503565b9050919050565b600060208284031215620005655762000564620003d5565b5b6000620005758482850162000428565b91505092915050565b60805160a051612d52620005ce60003960008181610bd60152610bfc015260008181610c2001528181610c4601528181610dcf01528181610e6f015281816112a201526117a90152612d526000f3fe608060405234801561001057600080fd5b50600436106101c45760003560e01c80638da5cb5b116100f9578063ae8ccfe411610097578063b3d8ad4611610071578063b3d8ad46146104c6578063c54e44eb146104e2578063e73d668f14610500578063f2fde38b1461051e576101c4565b8063ae8ccfe41461045b578063aed4fa1a14610477578063b1e79cd4146104a8576101c4565b8063994a8b31116100d3578063994a8b31146103e5578063a167722814610401578063a7e111481461041f578063ad5c46481461043d576101c4565b80638da5cb5b1461037957806391a99e8814610397578063958f1ef8146103b5576101c4565b806341f78e2711610166578063715018a611610140578063715018a6146103295780637535d24614610333578063845360171461035157806389a302711461035b576101c4565b806341f78e27146102bf5780635c975abb146102ef5780636ff1c9bc1461030d576101c4565b806316f0115b116101a257806316f0115b146102355780631b11d0ff14610253578063277754ed1461028357806341c64a2f146102a1576101c4565b8063034c40eb146101c95780630542975c146101f9578063085d488314610217575b600080fd5b6101e360048036038101906101de9190611d04565b61053a565b6040516101f09190611d40565b60405180910390f35b610201610bd2565b60405161020e9190611dda565b60405180910390f35b61021f610bfa565b60405161022c9190611e16565b60405180910390f35b61023d610c1e565b60405161024a9190611e16565b60405180910390f35b61026d60048036038101906102689190611ec2565b610c42565b60405161027a9190611f77565b60405180910390f35b61028b611086565b6040516102989190611e16565b60405180910390f35b6102a961109e565b6040516102b69190611e16565b60405180910390f35b6102d960048036038101906102d49190611f92565b6110b6565b6040516102e69190611d40565b60405180910390f35b6102f761115a565b6040516103049190611f77565b60405180910390f35b61032760048036038101906103229190611fd2565b611170565b005b61033161128a565b005b61033b61129e565b6040516103489190612020565b60405180910390f35b6103596112c6565b005b610363611394565b6040516103709190611e16565b60405180910390f35b6103816113ac565b60405161038e9190611e16565b60405180910390f35b61039f6113d5565b6040516103ac9190611e16565b60405180910390f35b6103cf60048036038101906103ca9190611f92565b6113fb565b6040516103dc9190611d40565b60405180910390f35b6103ff60048036038101906103fa9190611fd2565b6114da565b005b610409611526565b6040516104169190612059565b60405180910390f35b61042761152c565b6040516104349190611e16565b60405180910390f35b610445611552565b6040516104529190611e16565b60405180910390f35b61047560048036038101906104709190611fd2565b61156a565b005b610491600480360381019061048c9190611fd2565b6115b6565b60405161049f929190612074565b60405180910390f35b6104b06116a3565b6040516104bd9190611d40565b60405180910390f35b6104e060048036038101906104db919061209d565b6116b0565b005b6104ea61184c565b6040516104f79190611e16565b60405180910390f35b610508611864565b6040516105159190611d40565b60405180910390f35b61053860048036038101906105339190611fd2565b61186f565b005b60003073ffffffffffffffffffffffffffffffffffffffff163373ffffffffffffffffffffffffffffffffffffffff16146105aa576040517f08c379a00000000000000000000000000000000000000000000000000000000081526004016105a19061216e565b60405180910390fd5b60007382af49447d8a07e3bd95bd0d56f35241523fbab173ffffffffffffffffffffffffffffffffffffffff166370a08231306040518263ffffffff1660e01b81526004016105f99190611e16565b602060405180830381865afa158015610616573d6000803e3d6000fd5b505050506040513d601f19601f8201168201806040525081019061063a91906121a3565b90507382af49447d8a07e3bd95bd0d56f35241523fbab173ffffffffffffffffffffffffffffffffffffffff1663095ea7b373e592427a0aece92de3edee1f18e0157c05861564856040518363ffffffff1660e01b815260040161069f9291906121d0565b6020604051808303816000875af11580156106be573d6000803e3d6000fd5b505050506040513d601f19601f820116820180604052508101906106e29190612225565b5060006040518061010001604052807382af49447d8a07e3bd95bd0d56f35241523fbab173ffffffffffffffffffffffffffffffffffffffff16815260200173ff970a61a04b1ca14834a43f5de4533ebddb5cc873ffffffffffffffffffffffffffffffffffffffff168152602001610bb862ffffff1681526020013073ffffffffffffffffffffffffffffffffffffffff16815260200161012c426107889190612281565b815260200185815260200160008152602001600073ffffffffffffffffffffffffffffffffffffffff168152509050600073e592427a0aece92de3edee1f18e0157c0586156473ffffffffffffffffffffffffffffffffffffffff1663414bf389836040518263ffffffff1660e01b81526004016108069190612393565b6020604051808303816000875af1158015610825573d6000803e3d6000fd5b505050506040513d601f19601f8201168201806040525081019061084991906121a3565b905073ff970a61a04b1ca14834a43f5de4533ebddb5cc873ffffffffffffffffffffffffffffffffffffffff1663095ea7b3731b02da8cb0d097eb8d57a175b88c7d8b47997506836040518363ffffffff1660e01b81526004016108ae9291906121d0565b6020604051808303816000875af11580156108cd573d6000803e3d6000fd5b505050506040513d601f19601f820116820180604052508101906108f19190612225565b506000600267ffffffffffffffff81111561090f5761090e6123af565b5b60405190808252806020026020018201604052801561093d5781602001602082028036833780820191505090505b50905073ff970a61a04b1ca14834a43f5de4533ebddb5cc881600081518110610969576109686123de565b5b602002602001019073ffffffffffffffffffffffffffffffffffffffff16908173ffffffffffffffffffffffffffffffffffffffff16815250507382af49447d8a07e3bd95bd0d56f35241523fbab1816001815181106109cc576109cb6123de565b5b602002602001019073ffffffffffffffffffffffffffffffffffffffff16908173ffffffffffffffffffffffffffffffffffffffff1681525050731b02da8cb0d097eb8d57a175b88c7d8b4799750673ffffffffffffffffffffffffffffffffffffffff166338ed1739836000843061012c42610a499190612281565b6040518663ffffffff1660e01b8152600401610a699594939291906124f7565b6000604051808303816000875af1158015610a88573d6000803e3d6000fd5b505050506040513d6000823e3d601f19601f82011682018060405250810190610ab19190612671565b5060007382af49447d8a07e3bd95bd0d56f35241523fbab173ffffffffffffffffffffffffffffffffffffffff166370a08231306040518263ffffffff1660e01b8152600401610b019190611e16565b602060405180830381865afa158015610b1e573d6000803e3d6000fd5b505050506040513d601f19601f82011682018060405250810190610b4291906121a3565b9050848111610b52576000610b5f565b8481610b5e91906126ba565b5b95507f0479602bef4bb9277c21beadda23c5e4db7f0b2d4877d00070d6e0739e8c7c0e7382af49447d8a07e3bd95bd0d56f35241523fbab173ff970a61a04b1ca14834a43f5de4533ebddb5cc889868a604051610bc09594939291906126ee565b60405180910390a15050505050919050565b60007f0000000000000000000000000000000000000000000000000000000000000000905090565b7f000000000000000000000000000000000000000000000000000000000000000081565b7f000000000000000000000000000000000000000000000000000000000000000081565b60007f000000000000000000000000000000000000000000000000000000000000000073ffffffffffffffffffffffffffffffffffffffff163373ffffffffffffffffffffffffffffffffffffffff1614610cd2576040517f08c379a0000000000000000000000000000000000000000000000000000000008152600401610cc99061278d565b60405180910390fd5b6000610cde88886118f5565b905060008688610cee9190612281565b905060008973ffffffffffffffffffffffffffffffffffffffff166370a08231306040518263ffffffff1660e01b8152600401610d2b9190611e16565b602060405180830381865afa158015610d48573d6000803e3d6000fd5b505050506040513d601f19601f82011682018060405250810190610d6c91906121a3565b905081811015610db1576040517f08c379a0000000000000000000000000000000000000000000000000000000008152600401610da89061281f565b60405180910390fd5b8973ffffffffffffffffffffffffffffffffffffffff1663095ea7b37f000000000000000000000000000000000000000000000000000000000000000060006040518363ffffffff1660e01b8152600401610e0d92919061283f565b6020604051808303816000875af1158015610e2c573d6000803e3d6000fd5b505050506040513d601f19601f82011682018060405250810190610e509190612225565b508973ffffffffffffffffffffffffffffffffffffffff1663095ea7b37f0000000000000000000000000000000000000000000000000000000000000000846040518363ffffffff1660e01b8152600401610eac9291906121d0565b6020604051808303816000875af1158015610ecb573d6000803e3d6000fd5b505050506040513d601f19601f82011682018060405250810190610eef9190612225565b5060008a73ffffffffffffffffffffffffffffffffffffffff166370a08231306040518263ffffffff1660e01b8152600401610f2b9190611e16565b602060405180830381865afa158015610f48573d6000803e3d6000fd5b505050506040513d601f19601f82011682018060405250810190610f6c91906121a3565b90506000838211610f7e576000610f8b565b8382610f8a91906126ba565b5b90506000811115611038578b73ffffffffffffffffffffffffffffffffffffffff1663a9059cbb600260009054906101000a900473ffffffffffffffffffffffffffffffffffffffff16836040518363ffffffff1660e01b8152600401610ff39291906121d0565b6020604051808303816000875af1158015611012573d6000803e3d6000fd5b505050506040513d601f19601f820116820180604052508101906110369190612225565b505b7f6b503ccb8fe3617e786d56756579016943b3839c546866718cfa2accb1cbb3ca8c8b8360405161106b93929190612868565b60405180910390a16001955050505050509695505050505050565b731b02da8cb0d097eb8d57a175b88c7d8b4799750681565b73e592427a0aece92de3edee1f18e0157c0586156481565b60007382af49447d8a07e3bd95bd0d56f35241523fbab173ffffffffffffffffffffffffffffffffffffffff168373ffffffffffffffffffffffffffffffffffffffff16146111085760009050611154565b60006103e860038461111a919061289f565b6111249190612910565b905060006103e880856111379190612941565b6111419190612910565b8261114c9190612281565b905080925050505b92915050565b60008060149054906101000a900460ff16905090565b611178611ad7565b60008173ffffffffffffffffffffffffffffffffffffffff166370a08231306040518263ffffffff1660e01b81526004016111b39190611e16565b602060405180830381865afa1580156111d0573d6000803e3d6000fd5b505050506040513d601f19601f820116820180604052508101906111f491906121a3565b90506000811115611286578173ffffffffffffffffffffffffffffffffffffffff1663a9059cbb6112236113ac565b836040518363ffffffff1660e01b81526004016112419291906121d0565b6020604051808303816000875af1158015611260573d6000803e3d6000fd5b505050506040513d601f19601f820116820180604052508101906112849190612225565b505b5050565b611292611ad7565b61129c6000611b5e565b565b60007f0000000000000000000000000000000000000000000000000000000000000000905090565b6112ce611ad7565b600047905060008111156113915760006112e66113ac565b73ffffffffffffffffffffffffffffffffffffffff1682604051611309906129a3565b60006040518083038185875af1925050503d8060008114611346576040519150601f19603f3d011682016040523d82523d6000602084013e61134b565b606091505b505090508061138f576040517f08c379a000000000000000000000000000000000000000000000000000000000815260040161138690612a04565b60405180910390fd5b505b50565b73ff970a61a04b1ca14834a43f5de4533ebddb5cc881565b60008060009054906101000a900473ffffffffffffffffffffffffffffffffffffffff16905090565b600260009054906101000a900473ffffffffffffffffffffffffffffffffffffffff1681565b60007382af49447d8a07e3bd95bd0d56f35241523fbab173ffffffffffffffffffffffffffffffffffffffff168373ffffffffffffffffffffffffffffffffffffffff161461144d57600090506114d4565b3073ffffffffffffffffffffffffffffffffffffffff166341f78e2784846040518363ffffffff1660e01b81526004016114889291906121d0565b602060405180830381865afa9250505080156114c257506040513d601f19601f820116820180604052508101906114bf91906121a3565b60015b6114cf57600090506114d4565b809150505b92915050565b6114e2611ad7565b80600360006101000a81548173ffffffffffffffffffffffffffffffffffffffff021916908373ffffffffffffffffffffffffffffffffffffffff16021790555050565b610bb881565b600360009054906101000a900473ffffffffffffffffffffffffffffffffffffffff1681565b7382af49447d8a07e3bd95bd0d56f35241523fbab181565b611572611ad7565b80600260006101000a81548173ffffffffffffffffffffffffffffffffffffffff021916908373ffffffffffffffffffffffffffffffffffffffff16021790555050565b6000807382af49447d8a07e3bd95bd0d56f35241523fbab173ffffffffffffffffffffffffffffffffffffffff168373ffffffffffffffffffffffffffffffffffffffff161461160c576000809150915061169e565b6000670de0b6b3a76400009050600068056bc75e2d63100000905060008290506000808490505b83811161167357600061164689836113fb565b905082811115611657578092508193505b50678ac7230489e800008161166c9190612281565b9050611633565b5066038d7ea4c68000811115611692578181955095505050505061169e565b60008095509550505050505b915091565b68056bc75e2d6310000081565b6116b8611c22565b6116c0611c63565b6116c8611ad7565b60008390506000810361172b5760006116e0866115b6565b50905060008111611726576040517f08c379a000000000000000000000000000000000000000000000000000000000815260040161171d90612a96565b60405180910390fd5b809150505b6000811161176e576040517f08c379a000000000000000000000000000000000000000000000000000000000815260040161176590612b02565b60405180910390fd5b7f1e069908b6875ea1e6e903413f4b38ae5d61ba274c0e2cba8c5e3fff60e484c8858260405161179f9291906121d0565b60405180910390a17f000000000000000000000000000000000000000000000000000000000000000073ffffffffffffffffffffffffffffffffffffffff166342b0b77c308784878760006040518763ffffffff1660e01b815260040161180b96959493929190612bae565b600060405180830381600087803b15801561182557600080fd5b505af1158015611839573d6000803e3d6000fd5b5050505050611846611ca9565b50505050565b73fd086bc7cd5c481dcc9c85ebe478a1c0b69fcbb981565b66038d7ea4c6800081565b611877611ad7565b600073ffffffffffffffffffffffffffffffffffffffff168173ffffffffffffffffffffffffffffffffffffffff16036118e95760006040517f1e4fbdf70000000000000000000000000000000000000000000000000000000081526004016118e09190611e16565b60405180910390fd5b6118f281611b5e565b50565b60007382af49447d8a07e3bd95bd0d56f35241523fbab173ffffffffffffffffffffffffffffffffffffffff168373ffffffffffffffffffffffffffffffffffffffff16146119475760009050611ad1565b3073ffffffffffffffffffffffffffffffffffffffff1663034c40eb836040518263ffffffff1660e01b81526004016119809190611d40565b6020604051808303816000875af19250505080156119bc57506040513d601f19601f820116820180604052508101906119b991906121a3565b60015b611acc576119c8612c17565b806308c379a003611a5957506119dc612c39565b806119e75750611a5b565b7f0479602bef4bb9277c21beadda23c5e4db7f0b2d4877d00070d6e0739e8c7c0e7382af49447d8a07e3bd95bd0d56f35241523fbab173ff970a61a04b1ca14834a43f5de4533ebddb5cc885600080604051611a47959493929190612cc9565b60405180910390a16000915050611ad1565b505b7f0479602bef4bb9277c21beadda23c5e4db7f0b2d4877d00070d6e0739e8c7c0e7382af49447d8a07e3bd95bd0d56f35241523fbab173ff970a61a04b1ca14834a43f5de4533ebddb5cc884600080604051611abb959493929190612cc9565b60405180910390a160009050611ad1565b809150505b92915050565b611adf611cb2565b73ffffffffffffffffffffffffffffffffffffffff16611afd6113ac565b73ffffffffffffffffffffffffffffffffffffffff1614611b5c57611b20611cb2565b6040517f118cdaa7000000000000000000000000000000000000000000000000000000008152600401611b539190611e16565b60405180910390fd5b565b60008060009054906101000a900473ffffffffffffffffffffffffffffffffffffffff169050816000806101000a81548173ffffffffffffffffffffffffffffffffffffffff021916908373ffffffffffffffffffffffffffffffffffffffff1602179055508173ffffffffffffffffffffffffffffffffffffffff168173ffffffffffffffffffffffffffffffffffffffff167f8be0079c531659141344cd1fd0a4f28419497f9722a3daafe3b4186f6b6457e060405160405180910390a35050565b611c2a61115a565b15611c61576040517fd93c066500000000000000000000000000000000000000000000000000000000815260040160405180910390fd5b565b600260015403611c9f576040517f3ee5aeb500000000000000000000000000000000000000000000000000000000815260040160405180910390fd5b6002600181905550565b60018081905550565b600033905090565b6000604051905090565b600080fd5b600080fd5b6000819050919050565b611ce181611cce565b8114611cec57600080fd5b50565b600081359050611cfe81611cd8565b92915050565b600060208284031215611d1a57611d19611cc4565b5b6000611d2884828501611cef565b91505092915050565b611d3a81611cce565b82525050565b6000602082019050611d556000830184611d31565b92915050565b600073ffffffffffffffffffffffffffffffffffffffff82169050919050565b6000819050919050565b6000611da0611d9b611d9684611d5b565b611d7b565b611d5b565b9050919050565b6000611db282611d85565b9050919050565b6000611dc482611da7565b9050919050565b611dd481611db9565b82525050565b6000602082019050611def6000830184611dcb565b92915050565b6000611e0082611d5b565b9050919050565b611e1081611df5565b82525050565b6000602082019050611e2b6000830184611e07565b92915050565b611e3a81611df5565b8114611e4557600080fd5b50565b600081359050611e5781611e31565b92915050565b600080fd5b600080fd5b600080fd5b60008083601f840112611e8257611e81611e5d565b5b8235905067ffffffffffffffff811115611e9f57611e9e611e62565b5b602083019150836001820283011115611ebb57611eba611e67565b5b9250929050565b60008060008060008060a08789031215611edf57611ede611cc4565b5b6000611eed89828a01611e48565b9650506020611efe89828a01611cef565b9550506040611f0f89828a01611cef565b9450506060611f2089828a01611e48565b935050608087013567ffffffffffffffff811115611f4157611f40611cc9565b5b611f4d89828a01611e6c565b92509250509295509295509295565b60008115159050919050565b611f7181611f5c565b82525050565b6000602082019050611f8c6000830184611f68565b92915050565b60008060408385031215611fa957611fa8611cc4565b5b6000611fb785828601611e48565b9250506020611fc885828601611cef565b9150509250929050565b600060208284031215611fe857611fe7611cc4565b5b6000611ff684828501611e48565b91505092915050565b600061200a82611da7565b9050919050565b61201a81611fff565b82525050565b60006020820190506120356000830184612011565b92915050565b600062ffffff82169050919050565b6120538161203b565b82525050565b600060208201905061206e600083018461204a565b92915050565b60006040820190506120896000830185611d31565b6120966020830184611d31565b9392505050565b600080600080606085870312156120b7576120b6611cc4565b5b60006120c587828801611e48565b94505060206120d687828801611cef565b935050604085013567ffffffffffffffff8111156120f7576120f6611cc9565b5b61210387828801611e6c565b925092505092959194509250565b600082825260208201905092915050565b7f4f6e6c792073656c662d63616c6c20616c6c6f77656400000000000000000000600082015250565b6000612158601683612111565b915061216382612122565b602082019050919050565b600060208201905081810360008301526121878161214b565b9050919050565b60008151905061219d81611cd8565b92915050565b6000602082840312156121b9576121b8611cc4565b5b60006121c78482850161218e565b91505092915050565b60006040820190506121e56000830185611e07565b6121f26020830184611d31565b9392505050565b61220281611f5c565b811461220d57600080fd5b50565b60008151905061221f816121f9565b92915050565b60006020828403121561223b5761223a611cc4565b5b600061224984828501612210565b91505092915050565b7f4e487b7100000000000000000000000000000000000000000000000000000000600052601160045260246000fd5b600061228c82611cce565b915061229783611cce565b92508282019050808211156122af576122ae612252565b5b92915050565b6122be81611df5565b82525050565b6122cd8161203b565b82525050565b6122dc81611cce565b82525050565b6122eb81611d5b565b82525050565b6101008201600082015161230860008501826122b5565b50602082015161231b60208501826122b5565b50604082015161232e60408501826122c4565b50606082015161234160608501826122b5565b50608082015161235460808501826122d3565b5060a082015161236760a08501826122d3565b5060c082015161237a60c08501826122d3565b5060e082015161238d60e08501826122e2565b50505050565b6000610100820190506123a960008301846122f1565b92915050565b7f4e487b7100000000000000000000000000000000000000000000000000000000600052604160045260246000fd5b7f4e487b7100000000000000000000000000000000000000000000000000000000600052603260045260246000fd5b6000819050919050565b600061243261242d6124288461240d565b611d7b565b611cce565b9050919050565b61244281612417565b82525050565b600081519050919050565b600082825260208201905092915050565b6000819050602082019050919050565b600061248083836122b5565b60208301905092915050565b6000602082019050919050565b60006124a482612448565b6124ae8185612453565b93506124b983612464565b8060005b838110156124ea5781516124d18882612474565b97506124dc8361248c565b9250506001810190506124bd565b5085935050505092915050565b600060a08201905061250c6000830188611d31565b6125196020830187612439565b818103604083015261252b8186612499565b905061253a6060830185611e07565b6125476080830184611d31565b9695505050505050565b6000601f19601f8301169050919050565b61256b82612551565b810181811067ffffffffffffffff8211171561258a576125896123af565b5b80604052505050565b600061259d611cba565b90506125a98282612562565b919050565b600067ffffffffffffffff8211156125c9576125c86123af565b5b602082029050602081019050919050565b60006125ed6125e8846125ae565b612593565b905080838252602082019050602084028301858111156126105761260f611e67565b5b835b818110156126395780612625888261218e565b845260208401935050602081019050612612565b5050509392505050565b600082601f83011261265857612657611e5d565b5b81516126688482602086016125da565b91505092915050565b60006020828403121561268757612686611cc4565b5b600082015167ffffffffffffffff8111156126a5576126a4611cc9565b5b6126b184828501612643565b91505092915050565b60006126c582611cce565b91506126d083611cce565b92508282039050818111156126e8576126e7612252565b5b92915050565b600060a0820190506127036000830188611e07565b6127106020830187611e07565b61271d6040830186611d31565b61272a6060830185611d31565b6127376080830184611d31565b9695505050505050565b7f6f6e6c7920706f6f6c0000000000000000000000000000000000000000000000600082015250565b6000612777600983612111565b915061278282612741565b602082019050919050565b600060208201905081810360008301526127a68161276a565b9050919050565b7f496e73756666696369656e742062616c616e636520746f20726570617920666c60008201527f617368206c6f616e000000000000000000000000000000000000000000000000602082015250565b6000612809602883612111565b9150612814826127ad565b604082019050919050565b60006020820190508181036000830152612838816127fc565b9050919050565b60006040820190506128546000830185611e07565b6128616020830184612439565b9392505050565b600060608201905061287d6000830186611e07565b61288a6020830185611d31565b6128976040830184611d31565b949350505050565b60006128aa82611cce565b91506128b583611cce565b92508282026128c381611cce565b915082820484148315176128da576128d9612252565b5b5092915050565b7f4e487b7100000000000000000000000000000000000000000000000000000000600052601260045260246000fd5b600061291b82611cce565b915061292683611cce565b925082612936576129356128e1565b5b828204905092915050565b600061294c82611cce565b915061295783611cce565b925082612967576129666128e1565b5b828206905092915050565b600081905092915050565b50565b600061298d600083612972565b91506129988261297d565b600082019050919050565b60006129ae82612980565b9150819050919050565b7f455448207769746864726177616c206661696c65640000000000000000000000600082015250565b60006129ee601583612111565b91506129f9826129b8565b602082019050919050565b60006020820190508181036000830152612a1d816129e1565b9050919050565b7f4e6f2070726f66697461626c6520617262697472616765206f70706f7274756e60008201527f69747920666f756e640000000000000000000000000000000000000000000000602082015250565b6000612a80602983612111565b9150612a8b82612a24565b604082019050919050565b60006020820190508181036000830152612aaf81612a73565b9050919050565b7f616d6f756e743d30000000000000000000000000000000000000000000000000600082015250565b6000612aec600883612111565b9150612af782612ab6565b602082019050919050565b60006020820190508181036000830152612b1b81612adf565b9050919050565b600082825260208201905092915050565b82818337600083830152505050565b6000612b4e8385612b22565b9350612b5b838584612b33565b612b6483612551565b840190509392505050565b600061ffff82169050919050565b6000612b98612b93612b8e8461240d565b611d7b565b612b6f565b9050919050565b612ba881612b7d565b82525050565b600060a082019050612bc36000830189611e07565b612bd06020830188611e07565b612bdd6040830187611d31565b8181036060830152612bf0818587612b42565b9050612bff6080830184612b9f565b979650505050505050565b60008160e01c9050919050565b600060033d1115612c365760046000803e612c33600051612c0a565b90505b90565b600060443d10612cc657612c4b611cba565b60043d036004823e80513d602482011167ffffffffffffffff82111715612c73575050612cc6565b808201805167ffffffffffffffff811115612c915750505050612cc6565b80602083010160043d038501811115612cae575050505050612cc6565b612cbd82602001850186612562565b82955050505050505b90565b600060a082019050612cde6000830188611e07565b612ceb6020830187611e07565b612cf86040830186611d31565b612d056060830185612439565b612d126080830184612439565b969550505050505056fea264697066735822122071847abc9fa4b01126cb54259a1ede1c8f6eea870158761ec205a2e6138313fa64736f6c63430008180033","opcodes":"PUSH1 0xC0 PUSH1 0x40 MSTORE CALLVALUE DUP1 ISZERO PUSH3 0x11 JUMPI PUSH1 0x0 DUP1 REVERT JUMPDEST POP PUSH1 0x40 MLOAD PUSH3 0x3320 CODESIZE SUB DUP1 PUSH3 0x3320 DUP4 CODECOPY DUP2 DUP2 ADD PUSH1 0x40 MSTORE DUP2 ADD SWAP1 PUSH3 0x37 SWAP2 SWAP1 PUSH3 0x43F JUMP JUMPDEST CALLER PUSH1 0x0 PUSH20 0xFFFFFFFFFFFFFFFFFFFFFFFFFFFFFFFFFFFFFFFF AND DUP2 PUSH20 0xFFFFFFFFFFFFFFFFFFFFFFFFFFFFFFFFFFFFFFFF AND SUB PUSH3 0xAD JUMPI PUSH1 0x0 PUSH1 0x40 MLOAD PUSH32 0x1E4FBDF700000000000000000000000000000000000000000000000000000000 DUP2 MSTORE PUSH1 0x4 ADD PUSH3 0xA4 SWAP2 SWAP1 PUSH3 0x4AC JUMP JUMPDEST PUSH1 0x40 MLOAD DUP1 SWAP2 SUB SWAP1 REVERT JUMPDEST PUSH3 0xBE DUP2 PUSH3 0x311 PUSH1 0x20 SHL PUSH1 0x20 SHR JUMP JUMPDEST POP PUSH1 0x1 DUP1 DUP2 SWAP1 SSTORE POP PUSH1 0x0 PUSH20 0xFFFFFFFFFFFFFFFFFFFFFFFFFFFFFFFFFFFFFFFF AND DUP4 PUSH20 0xFFFFFFFFFFFFFFFFFFFFFFFFFFFFFFFFFFFFFFFF AND EQ ISZERO DUP1 ISZERO PUSH3 0x131 JUMPI POP PUSH1 0x0 PUSH20 0xFFFFFFFFFFFFFFFFFFFFFFFFFFFFFFFFFFFFFFFF AND DUP3 PUSH20 0xFFFFFFFFFFFFFFFFFFFFFFFFFFFFFFFFFFFFFFFF AND EQ ISZERO JUMPDEST DUP1 ISZERO PUSH3 0x16B JUMPI POP PUSH1 0x0 PUSH20 0xFFFFFFFFFFFFFFFFFFFFFFFFFFFFFFFFFFFFFFFF AND DUP2 PUSH20 0xFFFFFFFFFFFFFFFFFFFFFFFFFFFFFFFFFFFFFFFF AND EQ ISZERO JUMPDEST PUSH3 0x1AD JUMPI PUSH1 0x40 MLOAD PUSH32 0x8C379A000000000000000000000000000000000000000000000000000000000 DUP2 MSTORE PUSH1 0x4 ADD PUSH3 0x1A4 SWAP1 PUSH3 0x52A JUMP JUMPDEST PUSH1 0x40 MLOAD DUP1 SWAP2 SUB SWAP1 REVERT JUMPDEST DUP3 PUSH20 0xFFFFFFFFFFFFFFFFFFFFFFFFFFFFFFFFFFFFFFFF AND PUSH1 0xA0 DUP2 PUSH20 0xFFFFFFFFFFFFFFFFFFFFFFFFFFFFFFFFFFFFFFFF AND DUP2 MSTORE POP POP DUP3 PUSH20 0xFFFFFFFFFFFFFFFFFFFFFFFFFFFFFFFFFFFFFFFF AND PUSH4 0x26B1D5F PUSH1 0x40 MLOAD DUP2 PUSH4 0xFFFFFFFF AND PUSH1 0xE0 SHL DUP2 MSTORE PUSH1 0x4 ADD PUSH1 0x20 PUSH1 0x40 MLOAD DUP1 DUP4 SUB DUP2 DUP7 GAS STATICCALL ISZERO DUP1 ISZERO PUSH3 0x22D JUMPI RETURNDATASIZE PUSH1 0x0 DUP1 RETURNDATACOPY RETURNDATASIZE PUSH1 0x0 REVERT JUMPDEST POP POP POP POP PUSH1 0x40 MLOAD RETURNDATASIZE PUSH1 0x1F NOT PUSH1 0x1F DUP3 ADD AND DUP3 ADD DUP1 PUSH1 0x40 MSTORE POP DUP2 ADD SWAP1 PUSH3 0x253 SWAP2 SWAP1 PUSH3 0x54C JUMP JUMPDEST PUSH20 0xFFFFFFFFFFFFFFFFFFFFFFFFFFFFFFFFFFFFFFFF AND PUSH1 0x80 DUP2 PUSH20 0xFFFFFFFFFFFFFFFFFFFFFFFFFFFFFFFFFFFFFFFF AND DUP2 MSTORE POP POP DUP2 PUSH1 0x3 PUSH1 0x0 PUSH2 0x100 EXP DUP2 SLOAD DUP2 PUSH20 0xFFFFFFFFFFFFFFFFFFFFFFFFFFFFFFFFFFFFFFFF MUL NOT AND SWAP1 DUP4 PUSH20 0xFFFFFFFFFFFFFFFFFFFFFFFFFFFFFFFFFFFFFFFF AND MUL OR SWAP1 SSTORE POP DUP1 PUSH1 0x2 PUSH1 0x0 PUSH2 0x100 EXP DUP2 SLOAD DUP2 PUSH20 0xFFFFFFFFFFFFFFFFFFFFFFFFFFFFFFFFFFFFFFFF MUL NOT AND SWAP1 DUP4 PUSH20 0xFFFFFFFFFFFFFFFFFFFFFFFFFFFFFFFFFFFFFFFF AND MUL OR SWAP1 SSTORE POP POP POP POP PUSH3 0x57E JUMP JUMPDEST PUSH1 0x0 DUP1 PUSH1 0x0 SWAP1 SLOAD SWAP1 PUSH2 0x100 EXP SWAP1 DIV PUSH20 0xFFFFFFFFFFFFFFFFFFFFFFFFFFFFFFFFFFFFFFFF AND SWAP1 POP DUP2 PUSH1 0x0 DUP1 PUSH2 0x100 EXP DUP2 SLOAD DUP2 PUSH20 0xFFFFFFFFFFFFFFFFFFFFFFFFFFFFFFFFFFFFFFFF MUL NOT AND SWAP1 DUP4 PUSH20 0xFFFFFFFFFFFFFFFFFFFFFFFFFFFFFFFFFFFFFFFF AND MUL OR SWAP1 SSTORE POP DUP2 PUSH20 0xFFFFFFFFFFFFFFFFFFFFFFFFFFFFFFFFFFFFFFFF AND DUP2 PUSH20 0xFFFFFFFFFFFFFFFFFFFFFFFFFFFFFFFFFFFFFFFF AND PUSH32 0x8BE0079C531659141344CD1FD0A4F28419497F9722A3DAAFE3B4186F6B6457E0 PUSH1 0x40 MLOAD PUSH1 0x40 MLOAD DUP1 SWAP2 SUB SWAP1 LOG3 POP POP JUMP JUMPDEST PUSH1 0x0 DUP1 REVERT JUMPDEST PUSH1 0x0 PUSH20 0xFFFFFFFFFFFFFFFFFFFFFFFFFFFFFFFFFFFFFFFF DUP3 AND SWAP1 POP SWAP2 SWAP1 POP JUMP JUMPDEST PUSH1 0x0 PUSH3 0x407 DUP3 PUSH3 0x3DA JUMP JUMPDEST SWAP1 POP SWAP2 SWAP1 POP JUMP JUMPDEST PUSH3 0x419 DUP2 PUSH3 0x3FA JUMP JUMPDEST DUP2 EQ PUSH3 0x425 JUMPI PUSH1 0x0 DUP1 REVERT JUMPDEST POP JUMP JUMPDEST PUSH1 0x0 DUP2 MLOAD SWAP1 POP PUSH3 0x439 DUP2 PUSH3 0x40E JUMP JUMPDEST SWAP3 SWAP2 POP POP JUMP JUMPDEST PUSH1 0x0 DUP1 PUSH1 0x0 PUSH1 0x60 DUP5 DUP7 SUB SLT ISZERO PUSH3 0x45B JUMPI PUSH3 0x45A PUSH3 0x3D5 JUMP JUMPDEST JUMPDEST PUSH1 0x0 PUSH3 0x46B DUP7 DUP3 DUP8 ADD PUSH3 0x428 JUMP JUMPDEST SWAP4 POP POP PUSH1 0x20 PUSH3 0x47E DUP7 DUP3 DUP8 ADD PUSH3 0x428 JUMP JUMPDEST SWAP3 POP POP PUSH1 0x40 PUSH3 0x491 DUP7 DUP3 DUP8 ADD PUSH3 0x428 JUMP JUMPDEST SWAP2 POP POP SWAP3 POP SWAP3 POP SWAP3 JUMP JUMPDEST PUSH3 0x4A6 DUP2 PUSH3 0x3FA JUMP JUMPDEST DUP3 MSTORE POP POP JUMP JUMPDEST PUSH1 0x0 PUSH1 0x20 DUP3 ADD SWAP1 POP PUSH3 0x4C3 PUSH1 0x0 DUP4 ADD DUP5 PUSH3 0x49B JUMP JUMPDEST SWAP3 SWAP2 POP POP JUMP JUMPDEST PUSH1 0x0 DUP3 DUP3 MSTORE PUSH1 0x20 DUP3 ADD SWAP1 POP SWAP3 SWAP2 POP POP JUMP JUMPDEST PUSH32 0x7A65726F20616464720000000000000000000000000000000000000000000000 PUSH1 0x0 DUP3 ADD MSTORE POP JUMP JUMPDEST PUSH1 0x0 PUSH3 0x512 PUSH1 0x9 DUP4 PUSH3 0x4C9 JUMP JUMPDEST SWAP2 POP PUSH3 0x51F DUP3 PUSH3 0x4DA JUMP JUMPDEST PUSH1 0x20 DUP3 ADD SWAP1 POP SWAP2 SWAP1 POP JUMP JUMPDEST PUSH1 0x0 PUSH1 0x20 DUP3 ADD SWAP1 POP DUP2 DUP2 SUB PUSH1 0x0 DUP4 ADD MSTORE PUSH3 0x545 DUP2 PUSH3 0x503 JUMP JUMPDEST SWAP1 POP SWAP2 SWAP1 POP JUMP JUMPDEST PUSH1 0x0 PUSH1 0x20 DUP3 DUP5 SUB SLT ISZERO PUSH3 0x565 JUMPI PUSH3 0x564 PUSH3 0x3D5 JUMP JUMPDEST JUMPDEST PUSH1 0x0 PUSH3 0x575 DUP5 DUP3 DUP6 ADD PUSH3 0x428 JUMP JUMPDEST SWAP2 POP POP SWAP3 SWAP2 POP POP JUMP JUMPDEST PUSH1 0x80 MLOAD PUSH1 0xA0 MLOAD PUSH2 0x2D52 PUSH3 0x5CE PUSH1 0x0 CODECOPY PUSH1 0x0 DUP2 DUP2 PUSH2 0xBD6 ADD MSTORE PUSH2 0xBFC ADD MSTORE PUSH1 0x0 DUP2 DUP2 PUSH2 0xC20 ADD MSTORE DUP2 DUP2 PUSH2 0xC46 ADD MSTORE DUP2 DUP2 PUSH2 0xDCF ADD MSTORE DUP2 DUP2 PUSH2 0xE6F ADD MSTORE DUP2 DUP2 PUSH2 0x12A2 ADD MSTORE PUSH2 0x17A9 ADD MSTORE PUSH2 0x2D52 PUSH1 0x0 RETURN INVALID PUSH1 0x80 PUSH1 0x40 MSTORE CALLVALUE DUP1 ISZERO PUSH2 0x10 JUMPI PUSH1 0x0 DUP1 REVERT JUMPDEST POP PUSH1 0x4 CALLDATASIZE LT PUSH2 0x1C4 JUMPI PUSH1 0x0 CALLDATALOAD PUSH1 0xE0 SHR DUP1 PUSH4 0x8DA5CB5B GT PUSH2 0xF9 JUMPI DUP1 PUSH4 0xAE8CCFE4 GT PUSH2 0x97 JUMPI DUP1 PUSH4 0xB3D8AD46 GT PUSH2 0x71 JUMPI DUP1 PUSH4 0xB3D8AD46 EQ PUSH2 0x4C6 JUMPI DUP1 PUSH4 0xC54E44EB EQ PUSH2 0x4E2 JUMPI DUP1 PUSH4 0xE73D668F EQ PUSH2 0x500 JUMPI DUP1 PUSH4 0xF2FDE38B EQ PUSH2 0x51E JUMPI PUSH2 0x1C4 JUMP JUMPDEST DUP1 PUSH4 0xAE8CCFE4 EQ PUSH2 0x45B JUMPI DUP1 PUSH4 0xAED4FA1A EQ PUSH2 0x477 JUMPI DUP1 PUSH4 0xB1E79CD4 EQ PUSH2 0x4A8 JUMPI PUSH2 0x1C4 JUMP JUMPDEST DUP1 PUSH4 0x994A8B31 GT PUSH2 0xD3 JUMPI DUP1 PUSH4 0x994A8B31 EQ PUSH2 0x3E5 JUMPI DUP1 PUSH4 0xA1677228 EQ PUSH2 0x401 JUMPI DUP1 PUSH4 0xA7E11148 EQ PUSH2 0x41F JUMPI DUP1 PUSH4 0xAD5C4648 EQ PUSH2 0x43D JUMPI PUSH2 0x1C4 JUMP JUMPDEST DUP1 PUSH4 0x8DA5CB5B EQ PUSH2 0x379 JUMPI DUP1 PUSH4 0x91A99E88 EQ PUSH2 0x397 JUMPI DUP1 PUSH4 0x958F1EF8 EQ PUSH2 0x3B5 JUMPI PUSH2 0x1C4 JUMP JUMPDEST DUP1 PUSH4 0x41F78E27 GT PUSH2 0x166 JUMPI DUP1 PUSH4 0x715018A6 GT PUSH2 0x140 JUMPI DUP1 PUSH4 0x715018A6 EQ PUSH2 0x329 JUMPI DUP1 PUSH4 0x7535D246 EQ PUSH2 0x333 JUMPI DUP1 PUSH4 0x84536017 EQ PUSH2 0x351 JUMPI DUP1 PUSH4 0x89A30271 EQ PUSH2 0x35B JUMPI PUSH2 0x1C4 JUMP JUMPDEST DUP1 PUSH4 0x41F78E27 EQ PUSH2 0x2BF JUMPI DUP1 PUSH4 0x5C975ABB EQ PUSH2 0x2EF JUMPI DUP1 PUSH4 0x6FF1C9BC EQ PUSH2 0x30D JUMPI PUSH2 0x1C4 JUMP JUMPDEST DUP1 PUSH4 0x16F0115B GT PUSH2 0x1A2 JUMPI DUP1 PUSH4 0x16F0115B EQ PUSH2 0x235 JUMPI DUP1 PUSH4 0x1B11D0FF EQ PUSH2 0x253 JUMPI DUP1 PUSH4 0x277754ED EQ PUSH2 0x283 JUMPI DUP1 PUSH4 0x41C64A2F EQ PUSH2 0x2A1 JUMPI PUSH2 0x1C4 JUMP JUMPDEST DUP1 PUSH4 0x34C40EB EQ PUSH2 0x1C9 JUMPI DUP1 PUSH4 0x542975C EQ PUSH2 0x1F9 JUMPI DUP1 PUSH4 0x85D4883 EQ PUSH2 0x217 JUMPI JUMPDEST PUSH1 0x0 DUP1 REVERT JUMPDEST PUSH2 0x1E3 PUSH1 0x4 DUP1 CALLDATASIZE SUB DUP2 ADD SWAP1 PUSH2 0x1DE SWAP2 SWAP1 PUSH2 0x1D04 JUMP JUMPDEST PUSH2 0x53A JUMP JUMPDEST PUSH1 0x40 MLOAD PUSH2 0x1F0 SWAP2 SWAP1 PUSH2 0x1D40 JUMP JUMPDEST PUSH1 0x40 MLOAD DUP1 SWAP2 SUB SWAP1 RETURN JUMPDEST PUSH2 0x201 PUSH2 0xBD2 JUMP JUMPDEST PUSH1 0x40 MLOAD PUSH2 0x20E SWAP2 SWAP1 PUSH2 0x1DDA JUMP JUMPDEST PUSH1 0x40 MLOAD DUP1 SWAP2 SUB SWAP1 RETURN JUMPDEST PUSH2 0x21F PUSH2 0xBFA JUMP JUMPDEST PUSH1 0x40 MLOAD PUSH2 0x22C SWAP2 SWAP1 PUSH2 0x1E16 JUMP JUMPDEST PUSH1 0x40 MLOAD DUP1 SWAP2 SUB SWAP1 RETURN JUMPDEST PUSH2 0x23D PUSH2 0xC1E JUMP JUMPDEST PUSH1 0x40 MLOAD PUSH2 0x24A SWAP2 SWAP1 PUSH2 0x1E16 JUMP JUMPDEST PUSH1 0x40 MLOAD DUP1 SWAP2 SUB SWAP1 RETURN JUMPDEST PUSH2 0x26D PUSH1 0x4 DUP1 CALLDATASIZE SUB DUP2 ADD SWAP1 PUSH2 0x268 SWAP2 SWAP1 PUSH2 0x1EC2 JUMP JUMPDEST PUSH2 0xC42 JUMP JUMPDEST PUSH1 0x40 MLOAD PUSH2 0x27A SWAP2 SWAP1 PUSH2 0x1F77 JUMP JUMPDEST PUSH1 0x40 MLOAD DUP1 SWAP2 SUB SWAP1 RETURN JUMPDEST PUSH2 0x28B PUSH2 0x1086 JUMP JUMPDEST PUSH1 0x40 MLOAD PUSH2 0x298 SWAP2 SWAP1 PUSH2 0x1E16 JUMP JUMPDEST PUSH1 0x40 MLOAD DUP1 SWAP2 SUB SWAP1 RETURN JUMPDEST PUSH2 0x2A9 PUSH2 0x109E JUMP JUMPDEST PUSH1 0x40 MLOAD PUSH2 0x2B6 SWAP2 SWAP1 PUSH2 0x1E16 JUMP JUMPDEST PUSH1 0x40 MLOAD DUP1 SWAP2 SUB SWAP1 RETURN JUMPDEST PUSH2 0x2D9 PUSH1 0x4 DUP1 CALLDATASIZE SUB DUP2 ADD SWAP1 PUSH2 0x2D4 SWAP2 SWAP1 PUSH2 0x1F92 JUMP JUMPDEST PUSH2 0x10B6 JUMP JUMPDEST PUSH1 0x40 MLOAD PUSH2 0x2E6 SWAP2 SWAP1 PUSH2 0x1D40 JUMP JUMPDEST PUSH1 0x40 MLOAD DUP1 SWAP2 SUB SWAP1 RETURN JUMPDEST PUSH2 0x2F7 PUSH2 0x115A JUMP JUMPDEST PUSH1 0x40 MLOAD PUSH2 0x304 SWAP2 SWAP1 PUSH2 0x1F77 JUMP JUMPDEST PUSH1 0x40 MLOAD DUP1 SWAP2 SUB SWAP1 RETURN JUMPDEST PUSH2 0x327 PUSH1 0x4 DUP1 CALLDATASIZE SUB DUP2 ADD SWAP1 PUSH2 0x322 SWAP2 SWAP1 PUSH2 0x1FD2 JUMP JUMPDEST PUSH2 0x1170 JUMP JUMPDEST STOP JUMPDEST PUSH2 0x331 PUSH2 0x128A JUMP JUMPDEST STOP JUMPDEST PUSH2 0x33B PUSH2 0x129E JUMP JUMPDEST PUSH1 0x40 MLOAD PUSH2 0x348 SWAP2 SWAP1 PUSH2 0x2020 JUMP JUMPDEST PUSH1 0x40 MLOAD DUP1 SWAP2 SUB SWAP1 RETURN JUMPDEST PUSH2 0x359 PUSH2 0x12C6 JUMP JUMPDEST STOP JUMPDEST PUSH2 0x363 PUSH2 0x1394 JUMP JUMPDEST PUSH1 0x40 MLOAD PUSH2 0x370 SWAP2 SWAP1 PUSH2 0x1E16 JUMP JUMPDEST PUSH1 0x40 MLOAD DUP1 SWAP2 SUB SWAP1 RETURN JUMPDEST PUSH2 0x381 PUSH2 0x13AC JUMP JUMPDEST PUSH1 0x40 MLOAD PUSH2 0x38E SWAP2 SWAP1 PUSH2 0x1E16 JUMP JUMPDEST PUSH1 0x40 MLOAD DUP1 SWAP2 SUB SWAP1 RETURN JUMPDEST PUSH2 0x39F PUSH2 0x13D5 JUMP JUMPDEST PUSH1 0x40 MLOAD PUSH2 0x3AC SWAP2 SWAP1 PUSH2 0x1E16 JUMP JUMPDEST PUSH1 0x40 MLOAD DUP1 SWAP2 SUB SWAP1 RETURN JUMPDEST PUSH2 0x3CF PUSH1 0x4 DUP1 CALLDATASIZE SUB DUP2 ADD SWAP1 PUSH2 0x3CA SWAP2 SWAP1 PUSH2 0x1F92 JUMP JUMPDEST PUSH2 0x13FB JUMP JUMPDEST PUSH1 0x40 MLOAD PUSH2 0x3DC SWAP2 SWAP1 PUSH2 0x1D40 JUMP JUMPDEST PUSH1 0x40 MLOAD DUP1 SWAP2 SUB SWAP1 RETURN JUMPDEST PUSH2 0x3FF PUSH1 0x4 DUP1 CALLDATASIZE SUB DUP2 ADD SWAP1 PUSH2 0x3FA SWAP2 SWAP1 PUSH2 0x1FD2 JUMP JUMPDEST PUSH2 0x14DA JUMP JUMPDEST STOP JUMPDEST PUSH2 0x409 PUSH2 0x1526 JUMP JUMPDEST PUSH1 0x40 MLOAD PUSH2 0x416 SWAP2 SWAP1 PUSH2 0x2059 JUMP JUMPDEST PUSH1 0x40 MLOAD DUP1 SWAP2 SUB SWAP1 RETURN JUMPDEST PUSH2 0x427 PUSH2 0x152C JUMP JUMPDEST PUSH1 0x40 MLOAD PUSH2 0x434 SWAP2 SWAP1 PUSH2 0x1E16 JUMP JUMPDEST PUSH1 0x40 MLOAD DUP1 SWAP2 SUB SWAP1 RETURN JUMPDEST PUSH2 0x445 PUSH2 0x1552 JUMP JUMPDEST PUSH1 0x40 MLOAD PUSH2 0x452 SWAP2 SWAP1 PUSH2 0x1E16 JUMP JUMPDEST PUSH1 0x40 MLOAD DUP1 SWAP2 SUB SWAP1 RETURN JUMPDEST PUSH2 0x475 PUSH1 0x4 DUP1 CALLDATASIZE SUB DUP2 ADD SWAP1 PUSH2 0x470 SWAP2 SWAP1 PUSH2 0x1FD2 JUMP JUMPDEST PUSH2 0x156A JUMP JUMPDEST STOP JUMPDEST PUSH2 0x491 PUSH1 0x4 DUP1 CALLDATASIZE SUB DUP2 ADD SWAP1 PUSH2 0x48C SWAP2 SWAP1 PUSH2 0x1FD2 JUMP JUMPDEST PUSH2 0x15B6 JUMP JUMPDEST PUSH1 0x40 MLOAD PUSH2 0x49F SWAP3 SWAP2 SWAP1 PUSH2 0x2074 JUMP JUMPDEST PUSH1 0x40 MLOAD DUP1 SWAP2 SUB SWAP1 RETURN JUMPDEST PUSH2 0x4B0 PUSH2 0x16A3 JUMP JUMPDEST PUSH1 0x40 MLOAD PUSH2 0x4BD SWAP2 SWAP1 PUSH2 0x1D40 JUMP JUMPDEST PUSH1 0x40 MLOAD DUP1 SWAP2 SUB SWAP1 RETURN JUMPDEST PUSH2 0x4E0 PUSH1 0x4 DUP1 CALLDATASIZE SUB DUP2 ADD SWAP1 PUSH2 0x4DB SWAP2 SWAP1 PUSH2 0x209D JUMP JUMPDEST PUSH2 0x16B0 JUMP JUMPDEST STOP JUMPDEST PUSH2 0x4EA PUSH2 0x184C JUMP JUMPDEST PUSH1 0x40 MLOAD PUSH2 0x4F7 SWAP2 SWAP1 PUSH2 0x1E16 JUMP JUMPDEST PUSH1 0x40 MLOAD DUP1 SWAP2 SUB SWAP1 RETURN JUMPDEST PUSH2 0x508 PUSH2 0x1864 JUMP JUMPDEST PUSH1 0x40 MLOAD PUSH2 0x515 SWAP2 SWAP1 PUSH2 0x1D40 JUMP JUMPDEST PUSH1 0x40 MLOAD DUP1 SWAP2 SUB SWAP1 RETURN JUMPDEST PUSH2 0x538 PUSH1 0x4 DUP1 CALLDATASIZE SUB DUP2 ADD SWAP1 PUSH2 0x533 SWAP2 SWAP1 PUSH2 0x1FD2 JUMP JUMPDEST PUSH2 0x186F JUMP JUMPDEST STOP JUMPDEST PUSH1 0x0 ADDRESS PUSH20 0xFFFFFFFFFFFFFFFFFFFFFFFFFFFFFFFFFFFFFFFF AND CALLER PUSH20 0xFFFFFFFFFFFFFFFFFFFFFFFFFFFFFFFFFFFFFFFF AND EQ PUSH2 0x5AA JUMPI PUSH1 0x40 MLOAD PUSH32 0x8C379A000000000000000000000000000000000000000000000000000000000 DUP2 MSTORE PUSH1 0x4 ADD PUSH2 0x5A1 SWAP1 PUSH2 0x216E JUMP JUMPDEST PUSH1 0x40 MLOAD DUP1 SWAP2 SUB SWAP1 REVERT JUMPDEST PUSH1 0x0 PUSH20 0x82AF49447D8A07E3BD95BD0D56F35241523FBAB1 PUSH20 0xFFFFFFFFFFFFFFFFFFFFFFFFFFFFFFFFFFFFFFFF AND PUSH4 0x70A08231 ADDRESS PUSH1 0x40 MLOAD DUP3 PUSH4 0xFFFFFFFF AND PUSH1 0xE0 SHL DUP2 MSTORE PUSH1 0x4 ADD PUSH2 0x5F9 SWAP2 SWAP1 PUSH2 0x1E16 JUMP JUMPDEST PUSH1 0x20 PUSH1 0x40 MLOAD DUP1 DUP4 SUB DUP2 DUP7 GAS STATICCALL ISZERO DUP1 ISZERO PUSH2 0x616 JUMPI RETURNDATASIZE PUSH1 0x0 DUP1 RETURNDATACOPY RETURNDATASIZE PUSH1 0x0 REVERT JUMPDEST POP POP POP POP PUSH1 0x40 MLOAD RETURNDATASIZE PUSH1 0x1F NOT PUSH1 0x1F DUP3 ADD AND DUP3 ADD DUP1 PUSH1 0x40 MSTORE POP DUP2 ADD SWAP1 PUSH2 0x63A SWAP2 SWAP1 PUSH2 0x21A3 JUMP JUMPDEST SWAP1 POP PUSH20 0x82AF49447D8A07E3BD95BD0D56F35241523FBAB1 PUSH20 0xFFFFFFFFFFFFFFFFFFFFFFFFFFFFFFFFFFFFFFFF AND PUSH4 0x95EA7B3 PUSH20 0xE592427A0AECE92DE3EDEE1F18E0157C05861564 DUP6 PUSH1 0x40 MLOAD DUP4 PUSH4 0xFFFFFFFF AND PUSH1 0xE0 SHL DUP2 MSTORE PUSH1 0x4 ADD PUSH2 0x69F SWAP3 SWAP2 SWAP1 PUSH2 0x21D0 JUMP JUMPDEST PUSH1 0x20 PUSH1 0x40 MLOAD DUP1 DUP4 SUB DUP2 PUSH1 0x0 DUP8 GAS CALL ISZERO DUP1 ISZERO PUSH2 0x6BE JUMPI RETURNDATASIZE PUSH1 0x0 DUP1 RETURNDATACOPY RETURNDATASIZE PUSH1 0x0 REVERT JUMPDEST POP POP POP POP PUSH1 0x40 MLOAD RETURNDATASIZE PUSH1 0x1F NOT PUSH1 0x1F DUP3 ADD AND DUP3 ADD DUP1 PUSH1 0x40 MSTORE POP DUP2 ADD SWAP1 PUSH2 0x6E2 SWAP2 SWAP1 PUSH2 0x2225 JUMP JUMPDEST POP PUSH1 0x0 PUSH1 0x40 MLOAD DUP1 PUSH2 0x100 ADD PUSH1 0x40 MSTORE DUP1 PUSH20 0x82AF49447D8A07E3BD95BD0D56F35241523FBAB1 PUSH20 0xFFFFFFFFFFFFFFFFFFFFFFFFFFFFFFFFFFFFFFFF AND DUP2 MSTORE PUSH1 0x20 ADD PUSH20 0xFF970A61A04B1CA14834A43F5DE4533EBDDB5CC8 PUSH20 0xFFFFFFFFFFFFFFFFFFFFFFFFFFFFFFFFFFFFFFFF AND DUP2 MSTORE PUSH1 0x20 ADD PUSH2 0xBB8 PUSH3 0xFFFFFF AND DUP2 MSTORE PUSH1 0x20 ADD ADDRESS PUSH20 0xFFFFFFFFFFFFFFFFFFFFFFFFFFFFFFFFFFFFFFFF AND DUP2 MSTORE PUSH1 0x20 ADD PUSH2 0x12C TIMESTAMP PUSH2 0x788 SWAP2 SWAP1 PUSH2 0x2281 JUMP JUMPDEST DUP2 MSTORE PUSH1 0x20 ADD DUP6 DUP2 MSTORE PUSH1 0x20 ADD PUSH1 0x0 DUP2 MSTORE PUSH1 0x20 ADD PUSH1 0x0 PUSH20 0xFFFFFFFFFFFFFFFFFFFFFFFFFFFFFFFFFFFFFFFF AND DUP2 MSTORE POP SWAP1 POP PUSH1 0x0 PUSH20 0xE592427A0AECE92DE3EDEE1F18E0157C05861564 PUSH20 0xFFFFFFFFFFFFFFFFFFFFFFFFFFFFFFFFFFFFFFFF AND PUSH4 0x414BF389 DUP4 PUSH1 0x40 MLOAD DUP3 PUSH4 0xFFFFFFFF AND PUSH1 0xE0 SHL DUP2 MSTORE PUSH1 0x4 ADD PUSH2 0x806 SWAP2 SWAP1 PUSH2 0x2393 JUMP JUMPDEST PUSH1 0x20 PUSH1 0x40 MLOAD DUP1 DUP4 SUB DUP2 PUSH1 0x0 DUP8 GAS CALL ISZERO DUP1 ISZERO PUSH2 0x825 JUMPI RETURNDATASIZE PUSH1 0x0 DUP1 RETURNDATACOPY RETURNDATASIZE PUSH1 0x0 REVERT JUMPDEST POP POP POP POP PUSH1 0x40 MLOAD RETURNDATASIZE PUSH1 0x1F NOT PUSH1 0x1F DUP3 ADD AND DUP3 ADD DUP1 PUSH1 0x40 MSTORE POP DUP2 ADD SWAP1 PUSH2 0x849 SWAP2 SWAP1 PUSH2 0x21A3 JUMP JUMPDEST SWAP1 POP PUSH20 0xFF970A61A04B1CA14834A43F5DE4533EBDDB5CC8 PUSH20 0xFFFFFFFFFFFFFFFFFFFFFFFFFFFFFFFFFFFFFFFF AND PUSH4 0x95EA7B3 PUSH20 0x1B02DA8CB0D097EB8D57A175B88C7D8B47997506 DUP4 PUSH1 0x40 MLOAD DUP4 PUSH4 0xFFFFFFFF AND PUSH1 0xE0 SHL DUP2 MSTORE PUSH1 0x4 ADD PUSH2 0x8AE SWAP3 SWAP2 SWAP1 PUSH2 0x21D0 JUMP JUMPDEST PUSH1 0x20 PUSH1 0x40 MLOAD DUP1 DUP4 SUB DUP2 PUSH1 0x0 DUP8 GAS CALL ISZERO DUP1 ISZERO PUSH2 0x8CD JUMPI RETURNDATASIZE PUSH1 0x0 DUP1 RETURNDATACOPY RETURNDATASIZE PUSH1 0x0 REVERT JUMPDEST POP POP POP POP PUSH1 0x40 MLOAD RETURNDATASIZE PUSH1 0x1F NOT PUSH1 0x1F DUP3 ADD AND DUP3 ADD DUP1 PUSH1 0x40 MSTORE POP DUP2 ADD SWAP1 PUSH2 0x8F1 SWAP2 SWAP1 PUSH2 0x2225 JUMP JUMPDEST POP PUSH1 0x0 PUSH1 0x2 PUSH8 0xFFFFFFFFFFFFFFFF DUP2 GT ISZERO PUSH2 0x90F JUMPI PUSH2 0x90E PUSH2 0x23AF JUMP JUMPDEST JUMPDEST PUSH1 0x40 MLOAD SWAP1 DUP1 DUP3 MSTORE DUP1 PUSH1 0x20 MUL PUSH1 0x20 ADD DUP3 ADD PUSH1 0x40 MSTORE DUP1 ISZERO PUSH2 0x93D JUMPI DUP2 PUSH1 0x20 ADD PUSH1 0x20 DUP3 MUL DUP1 CALLDATASIZE DUP4 CALLDATACOPY DUP1 DUP3 ADD SWAP2 POP POP SWAP1 POP JUMPDEST POP SWAP1 POP PUSH20 0xFF970A61A04B1CA14834A43F5DE4533EBDDB5CC8 DUP2 PUSH1 0x0 DUP2 MLOAD DUP2 LT PUSH2 0x969 JUMPI PUSH2 0x968 PUSH2 0x23DE JUMP JUMPDEST JUMPDEST PUSH1 0x20 MUL PUSH1 0x20 ADD ADD SWAP1 PUSH20 0xFFFFFFFFFFFFFFFFFFFFFFFFFFFFFFFFFFFFFFFF AND SWAP1 DUP2 PUSH20 0xFFFFFFFFFFFFFFFFFFFFFFFFFFFFFFFFFFFFFFFF AND DUP2 MSTORE POP POP PUSH20 0x82AF49447D8A07E3BD95BD0D56F35241523FBAB1 DUP2 PUSH1 0x1 DUP2 MLOAD DUP2 LT PUSH2 0x9CC JUMPI PUSH2 0x9CB PUSH2 0x23DE JUMP JUMPDEST JUMPDEST PUSH1 0x20 MUL PUSH1 0x20 ADD ADD SWAP1 PUSH20 0xFFFFFFFFFFFFFFFFFFFFFFFFFFFFFFFFFFFFFFFF AND SWAP1 DUP2 PUSH20 0xFFFFFFFFFFFFFFFFFFFFFFFFFFFFFFFFFFFFFFFF AND DUP2 MSTORE POP POP PUSH20 0x1B02DA8CB0D097EB8D57A175B88C7D8B47997506 PUSH20 0xFFFFFFFFFFFFFFFFFFFFFFFFFFFFFFFFFFFFFFFF AND PUSH4 0x38ED1739 DUP4 PUSH1 0x0 DUP5 ADDRESS PUSH2 0x12C TIMESTAMP PUSH2 0xA49 SWAP2 SWAP1 PUSH2 0x2281 JUMP JUMPDEST PUSH1 0x40 MLOAD DUP7 PUSH4 0xFFFFFFFF AND PUSH1 0xE0 SHL DUP2 MSTORE PUSH1 0x4 ADD PUSH2 0xA69 SWAP6 SWAP5 SWAP4 SWAP3 SWAP2 SWAP1 PUSH2 0x24F7 JUMP JUMPDEST PUSH1 0x0 PUSH1 0x40 MLOAD DUP1 DUP4 SUB DUP2 PUSH1 0x0 DUP8 GAS CALL ISZERO DUP1 ISZERO PUSH2 0xA88 JUMPI RETURNDATASIZE PUSH1 0x0 DUP1 RETURNDATACOPY RETURNDATASIZE PUSH1 0x0 REVERT JUMPDEST POP POP POP POP PUSH1 0x40 MLOAD RETURNDATASIZE PUSH1 0x0 DUP3 RETURNDATACOPY RETURNDATASIZE PUSH1 0x1F NOT PUSH1 0x1F DUP3 ADD AND DUP3 ADD DUP1 PUSH1 0x40 MSTORE POP DUP2 ADD SWAP1 PUSH2 0xAB1 SWAP2 SWAP1 PUSH2 0x2671 JUMP JUMPDEST POP PUSH1 0x0 PUSH20 0x82AF49447D8A07E3BD95BD0D56F35241523FBAB1 PUSH20 0xFFFFFFFFFFFFFFFFFFFFFFFFFFFFFFFFFFFFFFFF AND PUSH4 0x70A08231 ADDRESS PUSH1 0x40 MLOAD DUP3 PUSH4 0xFFFFFFFF AND PUSH1 0xE0 SHL DUP2 MSTORE PUSH1 0x4 ADD PUSH2 0xB01 SWAP2 SWAP1 PUSH2 0x1E16 JUMP JUMPDEST PUSH1 0x20 PUSH1 0x40 MLOAD DUP1 DUP4 SUB DUP2 DUP7 GAS STATICCALL ISZERO DUP1 ISZERO PUSH2 0xB1E JUMPI RETURNDATASIZE PUSH1 0x0 DUP1 RETURNDATACOPY RETURNDATASIZE PUSH1 0x0 REVERT JUMPDEST POP POP POP POP PUSH1 0x40 MLOAD RETURNDATASIZE PUSH1 0x1F NOT PUSH1 0x1F DUP3 ADD AND DUP3 ADD DUP1 PUSH1 0x40 MSTORE POP DUP2 ADD SWAP1 PUSH2 0xB42 SWAP2 SWAP1 PUSH2 0x21A3 JUMP JUMPDEST SWAP1 POP DUP5 DUP2 GT PUSH2 0xB52 JUMPI PUSH1 0x0 PUSH2 0xB5F JUMP JUMPDEST DUP5 DUP2 PUSH2 0xB5E SWAP2 SWAP1 PUSH2 0x26BA JUMP JUMPDEST JUMPDEST SWAP6 POP PUSH32 0x479602BEF4BB9277C21BEADDA23C5E4DB7F0B2D4877D00070D6E0739E8C7C0E PUSH20 0x82AF49447D8A07E3BD95BD0D56F35241523FBAB1 PUSH20 0xFF970A61A04B1CA14834A43F5DE4533EBDDB5CC8 DUP10 DUP7 DUP11 PUSH1 0x40 MLOAD PUSH2 0xBC0 SWAP6 SWAP5 SWAP4 SWAP3 SWAP2 SWAP1 PUSH2 0x26EE JUMP JUMPDEST PUSH1 0x40 MLOAD DUP1 SWAP2 SUB SWAP1 LOG1 POP POP POP POP POP SWAP2 SWAP1 POP JUMP JUMPDEST PUSH1 0x0 PUSH32 0x0 SWAP1 POP SWAP1 JUMP JUMPDEST PUSH32 0x0 DUP2 JUMP JUMPDEST PUSH32 0x0 DUP2 JUMP JUMPDEST PUSH1 0x0 PUSH32 0x0 PUSH20 0xFFFFFFFFFFFFFFFFFFFFFFFFFFFFFFFFFFFFFFFF AND CALLER PUSH20 0xFFFFFFFFFFFFFFFFFFFFFFFFFFFFFFFFFFFFFFFF AND EQ PUSH2 0xCD2 JUMPI PUSH1 0x40 MLOAD PUSH32 0x8C379A000000000000000000000000000000000000000000000000000000000 DUP2 MSTORE PUSH1 0x4 ADD PUSH2 0xCC9 SWAP1 PUSH2 0x278D JUMP JUMPDEST PUSH1 0x40 MLOAD DUP1 SWAP2 SUB SWAP1 REVERT JUMPDEST PUSH1 0x0 PUSH2 0xCDE DUP9 DUP9 PUSH2 0x18F5 JUMP JUMPDEST SWAP1 POP PUSH1 0x0 DUP7 DUP9 PUSH2 0xCEE SWAP2 SWAP1 PUSH2 0x2281 JUMP JUMPDEST SWAP1 POP PUSH1 0x0 DUP10 PUSH20 0xFFFFFFFFFFFFFFFFFFFFFFFFFFFFFFFFFFFFFFFF AND PUSH4 0x70A08231 ADDRESS PUSH1 0x40 MLOAD DUP3 PUSH4 0xFFFFFFFF AND PUSH1 0xE0 SHL DUP2 MSTORE PUSH1 0x4 ADD PUSH2 0xD2B SWAP2 SWAP1 PUSH2 0x1E16 JUMP JUMPDEST PUSH1 0x20 PUSH1 0x40 MLOAD DUP1 DUP4 SUB DUP2 DUP7 GAS STATICCALL ISZERO DUP1 ISZERO PUSH2 0xD48 JUMPI RETURNDATASIZE PUSH1 0x0 DUP1 RETURNDATACOPY RETURNDATASIZE PUSH1 0x0 REVERT JUMPDEST POP POP POP POP PUSH1 0x40 MLOAD RETURNDATASIZE PUSH1 0x1F NOT PUSH1 0x1F DUP3 ADD AND DUP3 ADD DUP1 PUSH1 0x40 MSTORE POP DUP2 ADD SWAP1 PUSH2 0xD6C SWAP2 SWAP1 PUSH2 0x21A3 JUMP JUMPDEST SWAP1 POP DUP2 DUP2 LT ISZERO PUSH2 0xDB1 JUMPI PUSH1 0x40 MLOAD PUSH32 0x8C379A000000000000000000000000000000000000000000000000000000000 DUP2 MSTORE PUSH1 0x4 ADD PUSH2 0xDA8 SWAP1 PUSH2 0x281F JUMP JUMPDEST PUSH1 0x40 MLOAD DUP1 SWAP2 SUB SWAP1 REVERT JUMPDEST DUP10 PUSH20 0xFFFFFFFFFFFFFFFFFFFFFFFFFFFFFFFFFFFFFFFF AND PUSH4 0x95EA7B3 PUSH32 0x0 PUSH1 0x0 PUSH1 0x40 MLOAD DUP4 PUSH4 0xFFFFFFFF AND PUSH1 0xE0 SHL DUP2 MSTORE PUSH1 0x4 ADD PUSH2 0xE0D SWAP3 SWAP2 SWAP1 PUSH2 0x283F JUMP JUMPDEST PUSH1 0x20 PUSH1 0x40 MLOAD DUP1 DUP4 SUB DUP2 PUSH1 0x0 DUP8 GAS CALL ISZERO DUP1 ISZERO PUSH2 0xE2C JUMPI RETURNDATASIZE PUSH1 0x0 DUP1 RETURNDATACOPY RETURNDATASIZE PUSH1 0x0 REVERT JUMPDEST POP POP POP POP PUSH1 0x40 MLOAD RETURNDATASIZE PUSH1 0x1F NOT PUSH1 0x1F DUP3 ADD AND DUP3 ADD DUP1 PUSH1 0x40 MSTORE POP DUP2 ADD SWAP1 PUSH2 0xE50 SWAP2 SWAP1 PUSH2 0x2225 JUMP JUMPDEST POP DUP10 PUSH20 0xFFFFFFFFFFFFFFFFFFFFFFFFFFFFFFFFFFFFFFFF AND PUSH4 0x95EA7B3 PUSH32 0x0 DUP5 PUSH1 0x40 MLOAD DUP4 PUSH4 0xFFFFFFFF AND PUSH1 0xE0 SHL DUP2 MSTORE PUSH1 0x4 ADD PUSH2 0xEAC SWAP3 SWAP2 SWAP1 PUSH2 0x21D0 JUMP JUMPDEST PUSH1 0x20 PUSH1 0x40 MLOAD DUP1 DUP4 SUB DUP2 PUSH1 0x0 DUP8 GAS CALL ISZERO DUP1 ISZERO PUSH2 0xECB JUMPI RETURNDATASIZE PUSH1 0x0 DUP1 RETURNDATACOPY RETURNDATASIZE PUSH1 0x0 REVERT JUMPDEST POP POP POP POP PUSH1 0x40 MLOAD RETURNDATASIZE PUSH1 0x1F NOT PUSH1 0x1F DUP3 ADD AND DUP3 ADD DUP1 PUSH1 0x40 MSTORE POP DUP2 ADD SWAP1 PUSH2 0xEEF SWAP2 SWAP1 PUSH2 0x2225 JUMP JUMPDEST POP PUSH1 0x0 DUP11 PUSH20 0xFFFFFFFFFFFFFFFFFFFFFFFFFFFFFFFFFFFFFFFF AND PUSH4 0x70A08231 ADDRESS PUSH1 0x40 MLOAD DUP3 PUSH4 0xFFFFFFFF AND PUSH1 0xE0 SHL DUP2 MSTORE PUSH1 0x4 ADD PUSH2 0xF2B SWAP2 SWAP1 PUSH2 0x1E16 JUMP JUMPDEST PUSH1 0x20 PUSH1 0x40 MLOAD DUP1 DUP4 SUB DUP2 DUP7 GAS STATICCALL ISZERO DUP1 ISZERO PUSH2 0xF48 JUMPI RETURNDATASIZE PUSH1 0x0 DUP1 RETURNDATACOPY RETURNDATASIZE PUSH1 0x0 REVERT JUMPDEST POP POP POP POP PUSH1 0x40 MLOAD RETURNDATASIZE PUSH1 0x1F NOT PUSH1 0x1F DUP3 ADD AND DUP3 ADD DUP1 PUSH1 0x40 MSTORE POP DUP2 ADD SWAP1 PUSH2 0xF6C SWAP2 SWAP1 PUSH2 0x21A3 JUMP JUMPDEST SWAP1 POP PUSH1 0x0 DUP4 DUP3 GT PUSH2 0xF7E JUMPI PUSH1 0x0 PUSH2 0xF8B JUMP JUMPDEST DUP4 DUP3 PUSH2 0xF8A SWAP2 SWAP1 PUSH2 0x26BA JUMP JUMPDEST JUMPDEST SWAP1 POP PUSH1 0x0 DUP2 GT ISZERO PUSH2 0x1038 JUMPI DUP12 PUSH20 0xFFFFFFFFFFFFFFFFFFFFFFFFFFFFFFFFFFFFFFFF AND PUSH4 0xA9059CBB PUSH1 0x2 PUSH1 0x0 SWAP1 SLOAD SWAP1 PUSH2 0x100 EXP SWAP1 DIV PUSH20 0xFFFFFFFFFFFFFFFFFFFFFFFFFFFFFFFFFFFFFFFF AND DUP4 PUSH1 0x40 MLOAD DUP4 PUSH4 0xFFFFFFFF AND PUSH1 0xE0 SHL DUP2 MSTORE PUSH1 0x4 ADD PUSH2 0xFF3 SWAP3 SWAP2 SWAP1 PUSH2 0x21D0 JUMP JUMPDEST PUSH1 0x20 PUSH1 0x40 MLOAD DUP1 DUP4 SUB DUP2 PUSH1 0x0 DUP8 GAS CALL ISZERO DUP1 ISZERO PUSH2 0x1012 JUMPI RETURNDATASIZE PUSH1 0x0 DUP1 RETURNDATACOPY RETURNDATASIZE PUSH1 0x0 REVERT JUMPDEST POP POP POP POP PUSH1 0x40 MLOAD RETURNDATASIZE PUSH1 0x1F NOT PUSH1 0x1F DUP3 ADD AND DUP3 ADD DUP1 PUSH1 0x40 MSTORE POP DUP2 ADD SWAP1 PUSH2 0x1036 SWAP2 SWAP1 PUSH2 0x2225 JUMP JUMPDEST POP JUMPDEST PUSH32 0x6B503CCB8FE3617E786D56756579016943B3839C546866718CFA2ACCB1CBB3CA DUP13 DUP12 DUP4 PUSH1 0x40 MLOAD PUSH2 0x106B SWAP4 SWAP3 SWAP2 SWAP1 PUSH2 0x2868 JUMP JUMPDEST PUSH1 0x40 MLOAD DUP1 SWAP2 SUB SWAP1 LOG1 PUSH1 0x1 SWAP6 POP POP POP POP POP POP SWAP7 SWAP6 POP POP POP POP POP POP JUMP JUMPDEST PUSH20 0x1B02DA8CB0D097EB8D57A175B88C7D8B47997506 DUP2 JUMP JUMPDEST PUSH20 0xE592427A0AECE92DE3EDEE1F18E0157C05861564 DUP2 JUMP JUMPDEST PUSH1 0x0 PUSH20 0x82AF49447D8A07E3BD95BD0D56F35241523FBAB1 PUSH20 0xFFFFFFFFFFFFFFFFFFFFFFFFFFFFFFFFFFFFFFFF AND DUP4 PUSH20 0xFFFFFFFFFFFFFFFFFFFFFFFFFFFFFFFFFFFFFFFF AND EQ PUSH2 0x1108 JUMPI PUSH1 0x0 SWAP1 POP PUSH2 0x1154 JUMP JUMPDEST PUSH1 0x0 PUSH2 0x3E8 PUSH1 0x3 DUP5 PUSH2 0x111A SWAP2 SWAP1 PUSH2 0x289F JUMP JUMPDEST PUSH2 0x1124 SWAP2 SWAP1 PUSH2 0x2910 JUMP JUMPDEST SWAP1 POP PUSH1 0x0 PUSH2 0x3E8 DUP1 DUP6 PUSH2 0x1137 SWAP2 SWAP1 PUSH2 0x2941 JUMP JUMPDEST PUSH2 0x1141 SWAP2 SWAP1 PUSH2 0x2910 JUMP JUMPDEST DUP3 PUSH2 0x114C SWAP2 SWAP1 PUSH2 0x2281 JUMP JUMPDEST SWAP1 POP DUP1 SWAP3 POP POP POP JUMPDEST SWAP3 SWAP2 POP POP JUMP JUMPDEST PUSH1 0x0 DUP1 PUSH1 0x14 SWAP1 SLOAD SWAP1 PUSH2 0x100 EXP SWAP1 DIV PUSH1 0xFF AND SWAP1 POP SWAP1 JUMP JUMPDEST PUSH2 0x1178 PUSH2 0x1AD7 JUMP JUMPDEST PUSH1 0x0 DUP2 PUSH20 0xFFFFFFFFFFFFFFFFFFFFFFFFFFFFFFFFFFFFFFFF AND PUSH4 0x70A08231 ADDRESS PUSH1 0x40 MLOAD DUP3 PUSH4 0xFFFFFFFF AND PUSH1 0xE0 SHL DUP2 MSTORE PUSH1 0x4 ADD PUSH2 0x11B3 SWAP2 SWAP1 PUSH2 0x1E16 JUMP JUMPDEST PUSH1 0x20 PUSH1 0x40 MLOAD DUP1 DUP4 SUB DUP2 DUP7 GAS STATICCALL ISZERO DUP1 ISZERO PUSH2 0x11D0 JUMPI RETURNDATASIZE PUSH1 0x0 DUP1 RETURNDATACOPY RETURNDATASIZE PUSH1 0x0 REVERT JUMPDEST POP POP POP POP PUSH1 0x40 MLOAD RETURNDATASIZE PUSH1 0x1F NOT PUSH1 0x1F DUP3 ADD AND DUP3 ADD DUP1 PUSH1 0x40 MSTORE POP DUP2 ADD SWAP1 PUSH2 0x11F4 SWAP2 SWAP1 PUSH2 0x21A3 JUMP JUMPDEST SWAP1 POP PUSH1 0x0 DUP2 GT ISZERO PUSH2 0x1286 JUMPI DUP2 PUSH20 0xFFFFFFFFFFFFFFFFFFFFFFFFFFFFFFFFFFFFFFFF AND PUSH4 0xA9059CBB PUSH2 0x1223 PUSH2 0x13AC JUMP JUMPDEST DUP4 PUSH1 0x40 MLOAD DUP4 PUSH4 0xFFFFFFFF AND PUSH1 0xE0 SHL DUP2 MSTORE PUSH1 0x4 ADD PUSH2 0x1241 SWAP3 SWAP2 SWAP1 PUSH2 0x21D0 JUMP JUMPDEST PUSH1 0x20 PUSH1 0x40 MLOAD DUP1 DUP4 SUB DUP2 PUSH1 0x0 DUP8 GAS CALL ISZERO DUP1 ISZERO PUSH2 0x1260 JUMPI RETURNDATASIZE PUSH1 0x0 DUP1 RETURNDATACOPY RETURNDATASIZE PUSH1 0x0 REVERT JUMPDEST POP POP POP POP PUSH1 0x40 MLOAD RETURNDATASIZE PUSH1 0x1F NOT PUSH1 0x1F DUP3 ADD AND DUP3 ADD DUP1 PUSH1 0x40 MSTORE POP DUP2 ADD SWAP1 PUSH2 0x1284 SWAP2 SWAP1 PUSH2 0x2225 JUMP JUMPDEST POP JUMPDEST POP POP JUMP JUMPDEST PUSH2 0x1292 PUSH2 0x1AD7 JUMP JUMPDEST PUSH2 0x129C PUSH1 0x0 PUSH2 0x1B5E JUMP JUMPDEST JUMP JUMPDEST PUSH1 0x0 PUSH32 0x0 SWAP1 POP SWAP1 JUMP JUMPDEST PUSH2 0x12CE PUSH2 0x1AD7 JUMP JUMPDEST PUSH1 0x0 SELFBALANCE SWAP1 POP PUSH1 0x0 DUP2 GT ISZERO PUSH2 0x1391 JUMPI PUSH1 0x0 PUSH2 0x12E6 PUSH2 0x13AC JUMP JUMPDEST PUSH20 0xFFFFFFFFFFFFFFFFFFFFFFFFFFFFFFFFFFFFFFFF AND DUP3 PUSH1 0x40 MLOAD PUSH2 0x1309 SWAP1 PUSH2 0x29A3 JUMP JUMPDEST PUSH1 0x0 PUSH1 0x40 MLOAD DUP1 DUP4 SUB DUP2 DUP6 DUP8 GAS CALL SWAP3 POP POP POP RETURNDATASIZE DUP1 PUSH1 0x0 DUP2 EQ PUSH2 0x1346 JUMPI PUSH1 0x40 MLOAD SWAP2 POP PUSH1 0x1F NOT PUSH1 0x3F RETURNDATASIZE ADD AND DUP3 ADD PUSH1 0x40 MSTORE RETURNDATASIZE DUP3 MSTORE RETURNDATASIZE PUSH1 0x0 PUSH1 0x20 DUP5 ADD RETURNDATACOPY PUSH2 0x134B JUMP JUMPDEST PUSH1 0x60 SWAP2 POP JUMPDEST POP POP SWAP1 POP DUP1 PUSH2 0x138F JUMPI PUSH1 0x40 MLOAD PUSH32 0x8C379A000000000000000000000000000000000000000000000000000000000 DUP2 MSTORE PUSH1 0x4 ADD PUSH2 0x1386 SWAP1 PUSH2 0x2A04 JUMP JUMPDEST PUSH1 0x40 MLOAD DUP1 SWAP2 SUB SWAP1 REVERT JUMPDEST POP JUMPDEST POP JUMP JUMPDEST PUSH20 0xFF970A61A04B1CA14834A43F5DE4533EBDDB5CC8 DUP2 JUMP JUMPDEST PUSH1 0x0 DUP1 PUSH1 0x0 SWAP1 SLOAD SWAP1 PUSH2 0x100 EXP SWAP1 DIV PUSH20 0xFFFFFFFFFFFFFFFFFFFFFFFFFFFFFFFFFFFFFFFF AND SWAP1 POP SWAP1 JUMP JUMPDEST PUSH1 0x2 PUSH1 0x0 SWAP1 SLOAD SWAP1 PUSH2 0x100 EXP SWAP1 DIV PUSH20 0xFFFFFFFFFFFFFFFFFFFFFFFFFFFFFFFFFFFFFFFF AND DUP2 JUMP JUMPDEST PUSH1 0x0 PUSH20 0x82AF49447D8A07E3BD95BD0D56F35241523FBAB1 PUSH20 0xFFFFFFFFFFFFFFFFFFFFFFFFFFFFFFFFFFFFFFFF AND DUP4 PUSH20 0xFFFFFFFFFFFFFFFFFFFFFFFFFFFFFFFFFFFFFFFF AND EQ PUSH2 0x144D JUMPI PUSH1 0x0 SWAP1 POP PUSH2 0x14D4 JUMP JUMPDEST ADDRESS PUSH20 0xFFFFFFFFFFFFFFFFFFFFFFFFFFFFFFFFFFFFFFFF AND PUSH4 0x41F78E27 DUP5 DUP5 PUSH1 0x40 MLOAD DUP4 PUSH4 0xFFFFFFFF AND PUSH1 0xE0 SHL DUP2 MSTORE PUSH1 0x4 ADD PUSH2 0x1488 SWAP3 SWAP2 SWAP1 PUSH2 0x21D0 JUMP JUMPDEST PUSH1 0x20 PUSH1 0x40 MLOAD DUP1 DUP4 SUB DUP2 DUP7 GAS STATICCALL SWAP3 POP POP POP DUP1 ISZERO PUSH2 0x14C2 JUMPI POP PUSH1 0x40 MLOAD RETURNDATASIZE PUSH1 0x1F NOT PUSH1 0x1F DUP3 ADD AND DUP3 ADD DUP1 PUSH1 0x40 MSTORE POP DUP2 ADD SWAP1 PUSH2 0x14BF SWAP2 SWAP1 PUSH2 0x21A3 JUMP JUMPDEST PUSH1 0x1 JUMPDEST PUSH2 0x14CF JUMPI PUSH1 0x0 SWAP1 POP PUSH2 0x14D4 JUMP JUMPDEST DUP1 SWAP2 POP POP JUMPDEST SWAP3 SWAP2 POP POP JUMP JUMPDEST PUSH2 0x14E2 PUSH2 0x1AD7 JUMP JUMPDEST DUP1 PUSH1 0x3 PUSH1 0x0 PUSH2 0x100 EXP DUP2 SLOAD DUP2 PUSH20 0xFFFFFFFFFFFFFFFFFFFFFFFFFFFFFFFFFFFFFFFF MUL NOT AND SWAP1 DUP4 PUSH20 0xFFFFFFFFFFFFFFFFFFFFFFFFFFFFFFFFFFFFFFFF AND MUL OR SWAP1 SSTORE POP POP JUMP JUMPDEST PUSH2 0xBB8 DUP2 JUMP JUMPDEST PUSH1 0x3 PUSH1 0x0 SWAP1 SLOAD SWAP1 PUSH2 0x100 EXP SWAP1 DIV PUSH20 0xFFFFFFFFFFFFFFFFFFFFFFFFFFFFFFFFFFFFFFFF AND DUP2 JUMP JUMPDEST PUSH20 0x82AF49447D8A07E3BD95BD0D56F35241523FBAB1 DUP2 JUMP JUMPDEST PUSH2 0x1572 PUSH2 0x1AD7 JUMP JUMPDEST DUP1 PUSH1 0x2 PUSH1 0x0 PUSH2 0x100 EXP DUP2 SLOAD DUP2 PUSH20 0xFFFFFFFFFFFFFFFFFFFFFFFFFFFFFFFFFFFFFFFF MUL NOT AND SWAP1 DUP4 PUSH20 0xFFFFFFFFFFFFFFFFFFFFFFFFFFFFFFFFFFFFFFFF AND MUL OR SWAP1 SSTORE POP POP JUMP JUMPDEST PUSH1 0x0 DUP1 PUSH20 0x82AF49447D8A07E3BD95BD0D56F35241523FBAB1 PUSH20 0xFFFFFFFFFFFFFFFFFFFFFFFFFFFFFFFFFFFFFFFF AND DUP4 PUSH20 0xFFFFFFFFFFFFFFFFFFFFFFFFFFFFFFFFFFFFFFFF AND EQ PUSH2 0x160C JUMPI PUSH1 0x0 DUP1 SWAP2 POP SWAP2 POP PUSH2 0x169E JUMP JUMPDEST PUSH1 0x0 PUSH8 0xDE0B6B3A7640000 SWAP1 POP PUSH1 0x0 PUSH9 0x56BC75E2D63100000 SWAP1 POP PUSH1 0x0 DUP3 SWAP1 POP PUSH1 0x0 DUP1 DUP5 SWAP1 POP JUMPDEST DUP4 DUP2 GT PUSH2 0x1673 JUMPI PUSH1 0x0 PUSH2 0x1646 DUP10 DUP4 PUSH2 0x13FB JUMP JUMPDEST SWAP1 POP DUP3 DUP2 GT ISZERO PUSH2 0x1657 JUMPI DUP1 SWAP3 POP DUP2 SWAP4 POP JUMPDEST POP PUSH8 0x8AC7230489E80000 DUP2 PUSH2 0x166C SWAP2 SWAP1 PUSH2 0x2281 JUMP JUMPDEST SWAP1 POP PUSH2 0x1633 JUMP JUMPDEST POP PUSH7 0x38D7EA4C68000 DUP2 GT ISZERO PUSH2 0x1692 JUMPI DUP2 DUP2 SWAP6 POP SWAP6 POP POP POP POP POP PUSH2 0x169E JUMP JUMPDEST PUSH1 0x0 DUP1 SWAP6 POP SWAP6 POP POP POP POP POP JUMPDEST SWAP2 POP SWAP2 JUMP JUMPDEST PUSH9 0x56BC75E2D63100000 DUP2 JUMP JUMPDEST PUSH2 0x16B8 PUSH2 0x1C22 JUMP JUMPDEST PUSH2 0x16C0 PUSH2 0x1C63 JUMP JUMPDEST PUSH2 0x16C8 PUSH2 0x1AD7 JUMP JUMPDEST PUSH1 0x0 DUP4 SWAP1 POP PUSH1 0x0 DUP2 SUB PUSH2 0x172B JUMPI PUSH1 0x0 PUSH2 0x16E0 DUP7 PUSH2 0x15B6 JUMP JUMPDEST POP SWAP1 POP PUSH1 0x0 DUP2 GT PUSH2 0x1726 JUMPI PUSH1 0x40 MLOAD PUSH32 0x8C379A000000000000000000000000000000000000000000000000000000000 DUP2 MSTORE PUSH1 0x4 ADD PUSH2 0x171D SWAP1 PUSH2 0x2A96 JUMP JUMPDEST PUSH1 0x40 MLOAD DUP1 SWAP2 SUB SWAP1 REVERT JUMPDEST DUP1 SWAP2 POP POP JUMPDEST PUSH1 0x0 DUP2 GT PUSH2 0x176E JUMPI PUSH1 0x40 MLOAD PUSH32 0x8C379A000000000000000000000000000000000000000000000000000000000 DUP2 MSTORE PUSH1 0x4 ADD PUSH2 0x1765 SWAP1 PUSH2 0x2B02 JUMP JUMPDEST PUSH1 0x40 MLOAD DUP1 SWAP2 SUB SWAP1 REVERT JUMPDEST PUSH32 0x1E069908B6875EA1E6E903413F4B38AE5D61BA274C0E2CBA8C5E3FFF60E484C8 DUP6 DUP3 PUSH1 0x40 MLOAD PUSH2 0x179F SWAP3 SWAP2 SWAP1 PUSH2 0x21D0 JUMP JUMPDEST PUSH1 0x40 MLOAD DUP1 SWAP2 SUB SWAP1 LOG1 PUSH32 0x0 PUSH20 0xFFFFFFFFFFFFFFFFFFFFFFFFFFFFFFFFFFFFFFFF AND PUSH4 0x42B0B77C ADDRESS DUP8 DUP5 DUP8 DUP8 PUSH1 0x0 PUSH1 0x40 MLOAD DUP8 PUSH4 0xFFFFFFFF AND PUSH1 0xE0 SHL DUP2 MSTORE PUSH1 0x4 ADD PUSH2 0x180B SWAP7 SWAP6 SWAP5 SWAP4 SWAP3 SWAP2 SWAP1 PUSH2 0x2BAE JUMP JUMPDEST PUSH1 0x0 PUSH1 0x40 MLOAD DUP1 DUP4 SUB DUP2 PUSH1 0x0 DUP8 DUP1 EXTCODESIZE ISZERO DUP1 ISZERO PUSH2 0x1825 JUMPI PUSH1 0x0 DUP1 REVERT JUMPDEST POP GAS CALL ISZERO DUP1 ISZERO PUSH2 0x1839 JUMPI RETURNDATASIZE PUSH1 0x0 DUP1 RETURNDATACOPY RETURNDATASIZE PUSH1 0x0 REVERT JUMPDEST POP POP POP POP POP PUSH2 0x1846 PUSH2 0x1CA9 JUMP JUMPDEST POP POP POP POP JUMP JUMPDEST PUSH20 0xFD086BC7CD5C481DCC9C85EBE478A1C0B69FCBB9 DUP2 JUMP JUMPDEST PUSH7 0x38D7EA4C68000 DUP2 JUMP JUMPDEST PUSH2 0x1877 PUSH2 0x1AD7 JUMP JUMPDEST PUSH1 0x0 PUSH20 0xFFFFFFFFFFFFFFFFFFFFFFFFFFFFFFFFFFFFFFFF AND DUP2 PUSH20 0xFFFFFFFFFFFFFFFFFFFFFFFFFFFFFFFFFFFFFFFF AND SUB PUSH2 0x18E9 JUMPI PUSH1 0x0 PUSH1 0x40 MLOAD PUSH32 0x1E4FBDF700000000000000000000000000000000000000000000000000000000 DUP2 MSTORE PUSH1 0x4 ADD PUSH2 0x18E0 SWAP2 SWAP1 PUSH2 0x1E16 JUMP JUMPDEST PUSH1 0x40 MLOAD DUP1 SWAP2 SUB SWAP1 REVERT JUMPDEST PUSH2 0x18F2 DUP2 PUSH2 0x1B5E JUMP JUMPDEST POP JUMP JUMPDEST PUSH1 0x0 PUSH20 0x82AF49447D8A07E3BD95BD0D56F35241523FBAB1 PUSH20 0xFFFFFFFFFFFFFFFFFFFFFFFFFFFFFFFFFFFFFFFF AND DUP4 PUSH20 0xFFFFFFFFFFFFFFFFFFFFFFFFFFFFFFFFFFFFFFFF AND EQ PUSH2 0x1947 JUMPI PUSH1 0x0 SWAP1 POP PUSH2 0x1AD1 JUMP JUMPDEST ADDRESS PUSH20 0xFFFFFFFFFFFFFFFFFFFFFFFFFFFFFFFFFFFFFFFF AND PUSH4 0x34C40EB DUP4 PUSH1 0x40 MLOAD DUP3 PUSH4 0xFFFFFFFF AND PUSH1 0xE0 SHL DUP2 MSTORE PUSH1 0x4 ADD PUSH2 0x1980 SWAP2 SWAP1 PUSH2 0x1D40 JUMP JUMPDEST PUSH1 0x20 PUSH1 0x40 MLOAD DUP1 DUP4 SUB DUP2 PUSH1 0x0 DUP8 GAS CALL SWAP3 POP POP POP DUP1 ISZERO PUSH2 0x19BC JUMPI POP PUSH1 0x40 MLOAD RETURNDATASIZE PUSH1 0x1F NOT PUSH1 0x1F DUP3 ADD AND DUP3 ADD DUP1 PUSH1 0x40 MSTORE POP DUP2 ADD SWAP1 PUSH2 0x19B9 SWAP2 SWAP1 PUSH2 0x21A3 JUMP JUMPDEST PUSH1 0x1 JUMPDEST PUSH2 0x1ACC JUMPI PUSH2 0x19C8 PUSH2 0x2C17 JUMP JUMPDEST DUP1 PUSH4 0x8C379A0 SUB PUSH2 0x1A59 JUMPI POP PUSH2 0x19DC PUSH2 0x2C39 JUMP JUMPDEST DUP1 PUSH2 0x19E7 JUMPI POP PUSH2 0x1A5B JUMP JUMPDEST PUSH32 0x479602BEF4BB9277C21BEADDA23C5E4DB7F0B2D4877D00070D6E0739E8C7C0E PUSH20 0x82AF49447D8A07E3BD95BD0D56F35241523FBAB1 PUSH20 0xFF970A61A04B1CA14834A43F5DE4533EBDDB5CC8 DUP6 PUSH1 0x0 DUP1 PUSH1 0x40 MLOAD PUSH2 0x1A47 SWAP6 SWAP5 SWAP4 SWAP3 SWAP2 SWAP1 PUSH2 0x2CC9 JUMP JUMPDEST PUSH1 0x40 MLOAD DUP1 SWAP2 SUB SWAP1 LOG1 PUSH1 0x0 SWAP2 POP POP PUSH2 0x1AD1 JUMP JUMPDEST POP JUMPDEST PUSH32 0x479602BEF4BB9277C21BEADDA23C5E4DB7F0B2D4877D00070D6E0739E8C7C0E PUSH20 0x82AF49447D8A07E3BD95BD0D56F35241523FBAB1 PUSH20 0xFF970A61A04B1CA14834A43F5DE4533EBDDB5CC8 DUP5 PUSH1 0x0 DUP1 PUSH1 0x40 MLOAD PUSH2 0x1ABB SWAP6 SWAP5 SWAP4 SWAP3 SWAP2 SWAP1 PUSH2 0x2CC9 JUMP JUMPDEST PUSH1 0x40 MLOAD DUP1 SWAP2 SUB SWAP1 LOG1 PUSH1 0x0 SWAP1 POP PUSH2 0x1AD1 JUMP JUMPDEST DUP1 SWAP2 POP POP JUMPDEST SWAP3 SWAP2 POP POP JUMP JUMPDEST PUSH2 0x1ADF PUSH2 0x1CB2 JUMP JUMPDEST PUSH20 0xFFFFFFFFFFFFFFFFFFFFFFFFFFFFFFFFFFFFFFFF AND PUSH2 0x1AFD PUSH2 0x13AC JUMP JUMPDEST PUSH20 0xFFFFFFFFFFFFFFFFFFFFFFFFFFFFFFFFFFFFFFFF AND EQ PUSH2 0x1B5C JUMPI PUSH2 0x1B20 PUSH2 0x1CB2 JUMP JUMPDEST PUSH1 0x40 MLOAD PUSH32 0x118CDAA700000000000000000000000000000000000000000000000000000000 DUP2 MSTORE PUSH1 0x4 ADD PUSH2 0x1B53 SWAP2 SWAP1 PUSH2 0x1E16 JUMP JUMPDEST PUSH1 0x40 MLOAD DUP1 SWAP2 SUB SWAP1 REVERT JUMPDEST JUMP JUMPDEST PUSH1 0x0 DUP1 PUSH1 0x0 SWAP1 SLOAD SWAP1 PUSH2 0x100 EXP SWAP1 DIV PUSH20 0xFFFFFFFFFFFFFFFFFFFFFFFFFFFFFFFFFFFFFFFF AND SWAP1 POP DUP2 PUSH1 0x0 DUP1 PUSH2 0x100 EXP DUP2 SLOAD DUP2 PUSH20 0xFFFFFFFFFFFFFFFFFFFFFFFFFFFFFFFFFFFFFFFF MUL NOT AND SWAP1 DUP4 PUSH20 0xFFFFFFFFFFFFFFFFFFFFFFFFFFFFFFFFFFFFFFFF AND MUL OR SWAP1 SSTORE POP DUP2 PUSH20 0xFFFFFFFFFFFFFFFFFFFFFFFFFFFFFFFFFFFFFFFF AND DUP2 PUSH20 0xFFFFFFFFFFFFFFFFFFFFFFFFFFFFFFFFFFFFFFFF AND PUSH32 0x8BE0079C531659141344CD1FD0A4F28419497F9722A3DAAFE3B4186F6B6457E0 PUSH1 0x40 MLOAD PUSH1 0x40 MLOAD DUP1 SWAP2 SUB SWAP1 LOG3 POP POP JUMP JUMPDEST PUSH2 0x1C2A PUSH2 0x115A JUMP JUMPDEST ISZERO PUSH2 0x1C61 JUMPI PUSH1 0x40 MLOAD PUSH32 0xD93C066500000000000000000000000000000000000000000000000000000000 DUP2 MSTORE PUSH1 0x4 ADD PUSH1 0x40 MLOAD DUP1 SWAP2 SUB SWAP1 REVERT JUMPDEST JUMP JUMPDEST PUSH1 0x2 PUSH1 0x1 SLOAD SUB PUSH2 0x1C9F JUMPI PUSH1 0x40 MLOAD PUSH32 0x3EE5AEB500000000000000000000000000000000000000000000000000000000 DUP2 MSTORE PUSH1 0x4 ADD PUSH1 0x40 MLOAD DUP1 SWAP2 SUB SWAP1 REVERT JUMPDEST PUSH1 0x2 PUSH1 0x1 DUP2 SWAP1 SSTORE POP JUMP JUMPDEST PUSH1 0x1 DUP1 DUP2 SWAP1 SSTORE POP JUMP JUMPDEST PUSH1 0x0 CALLER SWAP1 POP SWAP1 JUMP JUMPDEST PUSH1 0x0 PUSH1 0x40 MLOAD SWAP1 POP SWAP1 JUMP JUMPDEST PUSH1 0x0 DUP1 REVERT JUMPDEST PUSH1 0x0 DUP1 REVERT JUMPDEST PUSH1 0x0 DUP2 SWAP1 POP SWAP2 SWAP1 POP JUMP JUMPDEST PUSH2 0x1CE1 DUP2 PUSH2 0x1CCE JUMP JUMPDEST DUP2 EQ PUSH2 0x1CEC JUMPI PUSH1 0x0 DUP1 REVERT JUMPDEST POP JUMP JUMPDEST PUSH1 0x0 DUP2 CALLDATALOAD SWAP1 POP PUSH2 0x1CFE DUP2 PUSH2 0x1CD8 JUMP JUMPDEST SWAP3 SWAP2 POP POP JUMP JUMPDEST PUSH1 0x0 PUSH1 0x20 DUP3 DUP5 SUB SLT ISZERO PUSH2 0x1D1A JUMPI PUSH2 0x1D19 PUSH2 0x1CC4 JUMP JUMPDEST JUMPDEST PUSH1 0x0 PUSH2 0x1D28 DUP5 DUP3 DUP6 ADD PUSH2 0x1CEF JUMP JUMPDEST SWAP2 POP POP SWAP3 SWAP2 POP POP JUMP JUMPDEST PUSH2 0x1D3A DUP2 PUSH2 0x1CCE JUMP JUMPDEST DUP3 MSTORE POP POP JUMP JUMPDEST PUSH1 0x0 PUSH1 0x20 DUP3 ADD SWAP1 POP PUSH2 0x1D55 PUSH1 0x0 DUP4 ADD DUP5 PUSH2 0x1D31 JUMP JUMPDEST SWAP3 SWAP2 POP POP JUMP JUMPDEST PUSH1 0x0 PUSH20 0xFFFFFFFFFFFFFFFFFFFFFFFFFFFFFFFFFFFFFFFF DUP3 AND SWAP1 POP SWAP2 SWAP1 POP JUMP JUMPDEST PUSH1 0x0 DUP2 SWAP1 POP SWAP2 SWAP1 POP JUMP JUMPDEST PUSH1 0x0 PUSH2 0x1DA0 PUSH2 0x1D9B PUSH2 0x1D96 DUP5 PUSH2 0x1D5B JUMP JUMPDEST PUSH2 0x1D7B JUMP JUMPDEST PUSH2 0x1D5B JUMP JUMPDEST SWAP1 POP SWAP2 SWAP1 POP JUMP JUMPDEST PUSH1 0x0 PUSH2 0x1DB2 DUP3 PUSH2 0x1D85 JUMP JUMPDEST SWAP1 POP SWAP2 SWAP1 POP JUMP JUMPDEST PUSH1 0x0 PUSH2 0x1DC4 DUP3 PUSH2 0x1DA7 JUMP JUMPDEST SWAP1 POP SWAP2 SWAP1 POP JUMP JUMPDEST PUSH2 0x1DD4 DUP2 PUSH2 0x1DB9 JUMP JUMPDEST DUP3 MSTORE POP POP JUMP JUMPDEST PUSH1 0x0 PUSH1 0x20 DUP3 ADD SWAP1 POP PUSH2 0x1DEF PUSH1 0x0 DUP4 ADD DUP5 PUSH2 0x1DCB JUMP JUMPDEST SWAP3 SWAP2 POP POP JUMP JUMPDEST PUSH1 0x0 PUSH2 0x1E00 DUP3 PUSH2 0x1D5B JUMP JUMPDEST SWAP1 POP SWAP2 SWAP1 POP JUMP JUMPDEST PUSH2 0x1E10 DUP2 PUSH2 0x1DF5 JUMP JUMPDEST DUP3 MSTORE POP POP JUMP JUMPDEST PUSH1 0x0 PUSH1 0x20 DUP3 ADD SWAP1 POP PUSH2 0x1E2B PUSH1 0x0 DUP4 ADD DUP5 PUSH2 0x1E07 JUMP JUMPDEST SWAP3 SWAP2 POP POP JUMP JUMPDEST PUSH2 0x1E3A DUP2 PUSH2 0x1DF5 JUMP JUMPDEST DUP2 EQ PUSH2 0x1E45 JUMPI PUSH1 0x0 DUP1 REVERT JUMPDEST POP JUMP JUMPDEST PUSH1 0x0 DUP2 CALLDATALOAD SWAP1 POP PUSH2 0x1E57 DUP2 PUSH2 0x1E31 JUMP JUMPDEST SWAP3 SWAP2 POP POP JUMP JUMPDEST PUSH1 0x0 DUP1 REVERT JUMPDEST PUSH1 0x0 DUP1 REVERT JUMPDEST PUSH1 0x0 DUP1 REVERT JUMPDEST PUSH1 0x0 DUP1 DUP4 PUSH1 0x1F DUP5 ADD SLT PUSH2 0x1E82 JUMPI PUSH2 0x1E81 PUSH2 0x1E5D JUMP JUMPDEST JUMPDEST DUP3 CALLDATALOAD SWAP1 POP PUSH8 0xFFFFFFFFFFFFFFFF DUP2 GT ISZERO PUSH2 0x1E9F JUMPI PUSH2 0x1E9E PUSH2 0x1E62 JUMP JUMPDEST JUMPDEST PUSH1 0x20 DUP4 ADD SWAP2 POP DUP4 PUSH1 0x1 DUP3 MUL DUP4 ADD GT ISZERO PUSH2 0x1EBB JUMPI PUSH2 0x1EBA PUSH2 0x1E67 JUMP JUMPDEST JUMPDEST SWAP3 POP SWAP3 SWAP1 POP JUMP JUMPDEST PUSH1 0x0 DUP1 PUSH1 0x0 DUP1 PUSH1 0x0 DUP1 PUSH1 0xA0 DUP8 DUP10 SUB SLT ISZERO PUSH2 0x1EDF JUMPI PUSH2 0x1EDE PUSH2 0x1CC4 JUMP JUMPDEST JUMPDEST PUSH1 0x0 PUSH2 0x1EED DUP10 DUP3 DUP11 ADD PUSH2 0x1E48 JUMP JUMPDEST SWAP7 POP POP PUSH1 0x20 PUSH2 0x1EFE DUP10 DUP3 DUP11 ADD PUSH2 0x1CEF JUMP JUMPDEST SWAP6 POP POP PUSH1 0x40 PUSH2 0x1F0F DUP10 DUP3 DUP11 ADD PUSH2 0x1CEF JUMP JUMPDEST SWAP5 POP POP PUSH1 0x60 PUSH2 0x1F20 DUP10 DUP3 DUP11 ADD PUSH2 0x1E48 JUMP JUMPDEST SWAP4 POP POP PUSH1 0x80 DUP8 ADD CALLDATALOAD PUSH8 0xFFFFFFFFFFFFFFFF DUP2 GT ISZERO PUSH2 0x1F41 JUMPI PUSH2 0x1F40 PUSH2 0x1CC9 JUMP JUMPDEST JUMPDEST PUSH2 0x1F4D DUP10 DUP3 DUP11 ADD PUSH2 0x1E6C JUMP JUMPDEST SWAP3 POP SWAP3 POP POP SWAP3 SWAP6 POP SWAP3 SWAP6 POP SWAP3 SWAP6 JUMP JUMPDEST PUSH1 0x0 DUP2 ISZERO ISZERO SWAP1 POP SWAP2 SWAP1 POP JUMP JUMPDEST PUSH2 0x1F71 DUP2 PUSH2 0x1F5C JUMP JUMPDEST DUP3 MSTORE POP POP JUMP JUMPDEST PUSH1 0x0 PUSH1 0x20 DUP3 ADD SWAP1 POP PUSH2 0x1F8C PUSH1 0x0 DUP4 ADD DUP5 PUSH2 0x1F68 JUMP JUMPDEST SWAP3 SWAP2 POP POP JUMP JUMPDEST PUSH1 0x0 DUP1 PUSH1 0x40 DUP4 DUP6 SUB SLT ISZERO PUSH2 0x1FA9 JUMPI PUSH2 0x1FA8 PUSH2 0x1CC4 JUMP JUMPDEST JUMPDEST PUSH1 0x0 PUSH2 0x1FB7 DUP6 DUP3 DUP7 ADD PUSH2 0x1E48 JUMP JUMPDEST SWAP3 POP POP PUSH1 0x20 PUSH2 0x1FC8 DUP6 DUP3 DUP7 ADD PUSH2 0x1CEF JUMP JUMPDEST SWAP2 POP POP SWAP3 POP SWAP3 SWAP1 POP JUMP JUMPDEST PUSH1 0x0 PUSH1 0x20 DUP3 DUP5 SUB SLT ISZERO PUSH2 0x1FE8 JUMPI PUSH2 0x1FE7 PUSH2 0x1CC4 JUMP JUMPDEST JUMPDEST PUSH1 0x0 PUSH2 0x1FF6 DUP5 DUP3 DUP6 ADD PUSH2 0x1E48 JUMP JUMPDEST SWAP2 POP POP SWAP3 SWAP2 POP POP JUMP JUMPDEST PUSH1 0x0 PUSH2 0x200A DUP3 PUSH2 0x1DA7 JUMP JUMPDEST SWAP1 POP SWAP2 SWAP1 POP JUMP JUMPDEST PUSH2 0x201A DUP2 PUSH2 0x1FFF JUMP JUMPDEST DUP3 MSTORE POP POP JUMP JUMPDEST PUSH1 0x0 PUSH1 0x20 DUP3 ADD SWAP1 POP PUSH2 0x2035 PUSH1 0x0 DUP4 ADD DUP5 PUSH2 0x2011 JUMP JUMPDEST SWAP3 SWAP2 POP POP JUMP JUMPDEST PUSH1 0x0 PUSH3 0xFFFFFF DUP3 AND SWAP1 POP SWAP2 SWAP1 POP JUMP JUMPDEST PUSH2 0x2053 DUP2 PUSH2 0x203B JUMP JUMPDEST DUP3 MSTORE POP POP JUMP JUMPDEST PUSH1 0x0 PUSH1 0x20 DUP3 ADD SWAP1 POP PUSH2 0x206E PUSH1 0x0 DUP4 ADD DUP5 PUSH2 0x204A JUMP JUMPDEST SWAP3 SWAP2 POP POP JUMP JUMPDEST PUSH1 0x0 PUSH1 0x40 DUP3 ADD SWAP1 POP PUSH2 0x2089 PUSH1 0x0 DUP4 ADD DUP6 PUSH2 0x1D31 JUMP JUMPDEST PUSH2 0x2096 PUSH1 0x20 DUP4 ADD DUP5 PUSH2 0x1D31 JUMP JUMPDEST SWAP4 SWAP3 POP POP POP JUMP JUMPDEST PUSH1 0x0 DUP1 PUSH1 0x0 DUP1 PUSH1 0x60 DUP6 DUP8 SUB SLT ISZERO PUSH2 0x20B7 JUMPI PUSH2 0x20B6 PUSH2 0x1CC4 JUMP JUMPDEST JUMPDEST PUSH1 0x0 PUSH2 0x20C5 DUP8 DUP3 DUP9 ADD PUSH2 0x1E48 JUMP JUMPDEST SWAP5 POP POP PUSH1 0x20 PUSH2 0x20D6 DUP8 DUP3 DUP9 ADD PUSH2 0x1CEF JUMP JUMPDEST SWAP4 POP POP PUSH1 0x40 DUP6 ADD CALLDATALOAD PUSH8 0xFFFFFFFFFFFFFFFF DUP2 GT ISZERO PUSH2 0x20F7 JUMPI PUSH2 0x20F6 PUSH2 0x1CC9 JUMP JUMPDEST JUMPDEST PUSH2 0x2103 DUP8 DUP3 DUP9 ADD PUSH2 0x1E6C JUMP JUMPDEST SWAP3 POP SWAP3 POP POP SWAP3 SWAP6 SWAP2 SWAP5 POP SWAP3 POP JUMP JUMPDEST PUSH1 0x0 DUP3 DUP3 MSTORE PUSH1 0x20 DUP3 ADD SWAP1 POP SWAP3 SWAP2 POP POP JUMP JUMPDEST PUSH32 0x4F6E6C792073656C662D63616C6C20616C6C6F77656400000000000000000000 PUSH1 0x0 DUP3 ADD MSTORE POP JUMP JUMPDEST PUSH1 0x0 PUSH2 0x2158 PUSH1 0x16 DUP4 PUSH2 0x2111 JUMP JUMPDEST SWAP2 POP PUSH2 0x2163 DUP3 PUSH2 0x2122 JUMP JUMPDEST PUSH1 0x20 DUP3 ADD SWAP1 POP SWAP2 SWAP1 POP JUMP JUMPDEST PUSH1 0x0 PUSH1 0x20 DUP3 ADD SWAP1 POP DUP2 DUP2 SUB PUSH1 0x0 DUP4 ADD MSTORE PUSH2 0x2187 DUP2 PUSH2 0x214B JUMP JUMPDEST SWAP1 POP SWAP2 SWAP1 POP JUMP JUMPDEST PUSH1 0x0 DUP2 MLOAD SWAP1 POP PUSH2 0x219D DUP2 PUSH2 0x1CD8 JUMP JUMPDEST SWAP3 SWAP2 POP POP JUMP JUMPDEST PUSH1 0x0 PUSH1 0x20 DUP3 DUP5 SUB SLT ISZERO PUSH2 0x21B9 JUMPI PUSH2 0x21B8 PUSH2 0x1CC4 JUMP JUMPDEST JUMPDEST PUSH1 0x0 PUSH2 0x21C7 DUP5 DUP3 DUP6 ADD PUSH2 0x218E JUMP JUMPDEST SWAP2 POP POP SWAP3 SWAP2 POP POP JUMP JUMPDEST PUSH1 0x0 PUSH1 0x40 DUP3 ADD SWAP1 POP PUSH2 0x21E5 PUSH1 0x0 DUP4 ADD DUP6 PUSH2 0x1E07 JUMP JUMPDEST PUSH2 0x21F2 PUSH1 0x20 DUP4 ADD DUP5 PUSH2 0x1D31 JUMP JUMPDEST SWAP4 SWAP3 POP POP POP JUMP JUMPDEST PUSH2 0x2202 DUP2 PUSH2 0x1F5C JUMP JUMPDEST DUP2 EQ PUSH2 0x220D JUMPI PUSH1 0x0 DUP1 REVERT JUMPDEST POP JUMP JUMPDEST PUSH1 0x0 DUP2 MLOAD SWAP1 POP PUSH2 0x221F DUP2 PUSH2 0x21F9 JUMP JUMPDEST SWAP3 SWAP2 POP POP JUMP JUMPDEST PUSH1 0x0 PUSH1 0x20 DUP3 DUP5 SUB SLT ISZERO PUSH2 0x223B JUMPI PUSH2 0x223A PUSH2 0x1CC4 JUMP JUMPDEST JUMPDEST PUSH1 0x0 PUSH2 0x2249 DUP5 DUP3 DUP6 ADD PUSH2 0x2210 JUMP JUMPDEST SWAP2 POP POP SWAP3 SWAP2 POP POP JUMP JUMPDEST PUSH32 0x4E487B7100000000000000000000000000000000000000000000000000000000 PUSH1 0x0 MSTORE PUSH1 0x11 PUSH1 0x4 MSTORE PUSH1 0x24 PUSH1 0x0 REVERT JUMPDEST PUSH1 0x0 PUSH2 0x228C DUP3 PUSH2 0x1CCE JUMP JUMPDEST SWAP2 POP PUSH2 0x2297 DUP4 PUSH2 0x1CCE JUMP JUMPDEST SWAP3 POP DUP3 DUP3 ADD SWAP1 POP DUP1 DUP3 GT ISZERO PUSH2 0x22AF JUMPI PUSH2 0x22AE PUSH2 0x2252 JUMP JUMPDEST JUMPDEST SWAP3 SWAP2 POP POP JUMP JUMPDEST PUSH2 0x22BE DUP2 PUSH2 0x1DF5 JUMP JUMPDEST DUP3 MSTORE POP POP JUMP JUMPDEST PUSH2 0x22CD DUP2 PUSH2 0x203B JUMP JUMPDEST DUP3 MSTORE POP POP JUMP JUMPDEST PUSH2 0x22DC DUP2 PUSH2 0x1CCE JUMP JUMPDEST DUP3 MSTORE POP POP JUMP JUMPDEST PUSH2 0x22EB DUP2 PUSH2 0x1D5B JUMP JUMPDEST DUP3 MSTORE POP POP JUMP JUMPDEST PUSH2 0x100 DUP3 ADD PUSH1 0x0 DUP3 ADD MLOAD PUSH2 0x2308 PUSH1 0x0 DUP6 ADD DUP3 PUSH2 0x22B5 JUMP JUMPDEST POP PUSH1 0x20 DUP3 ADD MLOAD PUSH2 0x231B PUSH1 0x20 DUP6 ADD DUP3 PUSH2 0x22B5 JUMP JUMPDEST POP PUSH1 0x40 DUP3 ADD MLOAD PUSH2 0x232E PUSH1 0x40 DUP6 ADD DUP3 PUSH2 0x22C4 JUMP JUMPDEST POP PUSH1 0x60 DUP3 ADD MLOAD PUSH2 0x2341 PUSH1 0x60 DUP6 ADD DUP3 PUSH2 0x22B5 JUMP JUMPDEST POP PUSH1 0x80 DUP3 ADD MLOAD PUSH2 0x2354 PUSH1 0x80 DUP6 ADD DUP3 PUSH2 0x22D3 JUMP JUMPDEST POP PUSH1 0xA0 DUP3 ADD MLOAD PUSH2 0x2367 PUSH1 0xA0 DUP6 ADD DUP3 PUSH2 0x22D3 JUMP JUMPDEST POP PUSH1 0xC0 DUP3 ADD MLOAD PUSH2 0x237A PUSH1 0xC0 DUP6 ADD DUP3 PUSH2 0x22D3 JUMP JUMPDEST POP PUSH1 0xE0 DUP3 ADD MLOAD PUSH2 0x238D PUSH1 0xE0 DUP6 ADD DUP3 PUSH2 0x22E2 JUMP JUMPDEST POP POP POP POP JUMP JUMPDEST PUSH1 0x0 PUSH2 0x100 DUP3 ADD SWAP1 POP PUSH2 0x23A9 PUSH1 0x0 DUP4 ADD DUP5 PUSH2 0x22F1 JUMP JUMPDEST SWAP3 SWAP2 POP POP JUMP JUMPDEST PUSH32 0x4E487B7100000000000000000000000000000000000000000000000000000000 PUSH1 0x0 MSTORE PUSH1 0x41 PUSH1 0x4 MSTORE PUSH1 0x24 PUSH1 0x0 REVERT JUMPDEST PUSH32 0x4E487B7100000000000000000000000000000000000000000000000000000000 PUSH1 0x0 MSTORE PUSH1 0x32 PUSH1 0x4 MSTORE PUSH1 0x24 PUSH1 0x0 REVERT JUMPDEST PUSH1 0x0 DUP2 SWAP1 POP SWAP2 SWAP1 POP JUMP JUMPDEST PUSH1 0x0 PUSH2 0x2432 PUSH2 0x242D PUSH2 0x2428 DUP5 PUSH2 0x240D JUMP JUMPDEST PUSH2 0x1D7B JUMP JUMPDEST PUSH2 0x1CCE JUMP JUMPDEST SWAP1 POP SWAP2 SWAP1 POP JUMP JUMPDEST PUSH2 0x2442 DUP2 PUSH2 0x2417 JUMP JUMPDEST DUP3 MSTORE POP POP JUMP JUMPDEST PUSH1 0x0 DUP2 MLOAD SWAP1 POP SWAP2 SWAP1 POP JUMP JUMPDEST PUSH1 0x0 DUP3 DUP3 MSTORE PUSH1 0x20 DUP3 ADD SWAP1 POP SWAP3 SWAP2 POP POP JUMP JUMPDEST PUSH1 0x0 DUP2 SWAP1 POP PUSH1 0x20 DUP3 ADD SWAP1 POP SWAP2 SWAP1 POP JUMP JUMPDEST PUSH1 0x0 PUSH2 0x2480 DUP4 DUP4 PUSH2 0x22B5 JUMP JUMPDEST PUSH1 0x20 DUP4 ADD SWAP1 POP SWAP3 SWAP2 POP POP JUMP JUMPDEST PUSH1 0x0 PUSH1 0x20 DUP3 ADD SWAP1 POP SWAP2 SWAP1 POP JUMP JUMPDEST PUSH1 0x0 PUSH2 0x24A4 DUP3 PUSH2 0x2448 JUMP JUMPDEST PUSH2 0x24AE DUP2 DUP6 PUSH2 0x2453 JUMP JUMPDEST SWAP4 POP PUSH2 0x24B9 DUP4 PUSH2 0x2464 JUMP JUMPDEST DUP1 PUSH1 0x0 JUMPDEST DUP4 DUP2 LT ISZERO PUSH2 0x24EA JUMPI DUP2 MLOAD PUSH2 0x24D1 DUP9 DUP3 PUSH2 0x2474 JUMP JUMPDEST SWAP8 POP PUSH2 0x24DC DUP4 PUSH2 0x248C JUMP JUMPDEST SWAP3 POP POP PUSH1 0x1 DUP2 ADD SWAP1 POP PUSH2 0x24BD JUMP JUMPDEST POP DUP6 SWAP4 POP POP POP POP SWAP3 SWAP2 POP POP JUMP JUMPDEST PUSH1 0x0 PUSH1 0xA0 DUP3 ADD SWAP1 POP PUSH2 0x250C PUSH1 0x0 DUP4 ADD DUP9 PUSH2 0x1D31 JUMP JUMPDEST PUSH2 0x2519 PUSH1 0x20 DUP4 ADD DUP8 PUSH2 0x2439 JUMP JUMPDEST DUP2 DUP2 SUB PUSH1 0x40 DUP4 ADD MSTORE PUSH2 0x252B DUP2 DUP7 PUSH2 0x2499 JUMP JUMPDEST SWAP1 POP PUSH2 0x253A PUSH1 0x60 DUP4 ADD DUP6 PUSH2 0x1E07 JUMP JUMPDEST PUSH2 0x2547 PUSH1 0x80 DUP4 ADD DUP5 PUSH2 0x1D31 JUMP JUMPDEST SWAP7 SWAP6 POP POP POP POP POP POP JUMP JUMPDEST PUSH1 0x0 PUSH1 0x1F NOT PUSH1 0x1F DUP4 ADD AND SWAP1 POP SWAP2 SWAP1 POP JUMP JUMPDEST PUSH2 0x256B DUP3 PUSH2 0x2551 JUMP JUMPDEST DUP2 ADD DUP2 DUP2 LT PUSH8 0xFFFFFFFFFFFFFFFF DUP3 GT OR ISZERO PUSH2 0x258A JUMPI PUSH2 0x2589 PUSH2 0x23AF JUMP JUMPDEST JUMPDEST DUP1 PUSH1 0x40 MSTORE POP POP POP JUMP JUMPDEST PUSH1 0x0 PUSH2 0x259D PUSH2 0x1CBA JUMP JUMPDEST SWAP1 POP PUSH2 0x25A9 DUP3 DUP3 PUSH2 0x2562 JUMP JUMPDEST SWAP2 SWAP1 POP JUMP JUMPDEST PUSH1 0x0 PUSH8 0xFFFFFFFFFFFFFFFF DUP3 GT ISZERO PUSH2 0x25C9 JUMPI PUSH2 0x25C8 PUSH2 0x23AF JUMP JUMPDEST JUMPDEST PUSH1 0x20 DUP3 MUL SWAP1 POP PUSH1 0x20 DUP2 ADD SWAP1 POP SWAP2 SWAP1 POP JUMP JUMPDEST PUSH1 0x0 PUSH2 0x25ED PUSH2 0x25E8 DUP5 PUSH2 0x25AE JUMP JUMPDEST PUSH2 0x2593 JUMP JUMPDEST SWAP1 POP DUP1 DUP4 DUP3 MSTORE PUSH1 0x20 DUP3 ADD SWAP1 POP PUSH1 0x20 DUP5 MUL DUP4 ADD DUP6 DUP2 GT ISZERO PUSH2 0x2610 JUMPI PUSH2 0x260F PUSH2 0x1E67 JUMP JUMPDEST JUMPDEST DUP4 JUMPDEST DUP2 DUP2 LT ISZERO PUSH2 0x2639 JUMPI DUP1 PUSH2 0x2625 DUP9 DUP3 PUSH2 0x218E JUMP JUMPDEST DUP5 MSTORE PUSH1 0x20 DUP5 ADD SWAP4 POP POP PUSH1 0x20 DUP2 ADD SWAP1 POP PUSH2 0x2612 JUMP JUMPDEST POP POP POP SWAP4 SWAP3 POP POP POP JUMP JUMPDEST PUSH1 0x0 DUP3 PUSH1 0x1F DUP4 ADD SLT PUSH2 0x2658 JUMPI PUSH2 0x2657 PUSH2 0x1E5D JUMP JUMPDEST JUMPDEST DUP2 MLOAD PUSH2 0x2668 DUP5 DUP3 PUSH1 0x20 DUP7 ADD PUSH2 0x25DA JUMP JUMPDEST SWAP2 POP POP SWAP3 SWAP2 POP POP JUMP JUMPDEST PUSH1 0x0 PUSH1 0x20 DUP3 DUP5 SUB SLT ISZERO PUSH2 0x2687 JUMPI PUSH2 0x2686 PUSH2 0x1CC4 JUMP JUMPDEST JUMPDEST PUSH1 0x0 DUP3 ADD MLOAD PUSH8 0xFFFFFFFFFFFFFFFF DUP2 GT ISZERO PUSH2 0x26A5 JUMPI PUSH2 0x26A4 PUSH2 0x1CC9 JUMP JUMPDEST JUMPDEST PUSH2 0x26B1 DUP5 DUP3 DUP6 ADD PUSH2 0x2643 JUMP JUMPDEST SWAP2 POP POP SWAP3 SWAP2 POP POP JUMP JUMPDEST PUSH1 0x0 PUSH2 0x26C5 DUP3 PUSH2 0x1CCE JUMP JUMPDEST SWAP2 POP PUSH2 0x26D0 DUP4 PUSH2 0x1CCE JUMP JUMPDEST SWAP3 POP DUP3 DUP3 SUB SWAP1 POP DUP2 DUP2 GT ISZERO PUSH2 0x26E8 JUMPI PUSH2 0x26E7 PUSH2 0x2252 JUMP JUMPDEST JUMPDEST SWAP3 SWAP2 POP POP JUMP JUMPDEST PUSH1 0x0 PUSH1 0xA0 DUP3 ADD SWAP1 POP PUSH2 0x2703 PUSH1 0x0 DUP4 ADD DUP9 PUSH2 0x1E07 JUMP JUMPDEST PUSH2 0x2710 PUSH1 0x20 DUP4 ADD DUP8 PUSH2 0x1E07 JUMP JUMPDEST PUSH2 0x271D PUSH1 0x40 DUP4 ADD DUP7 PUSH2 0x1D31 JUMP JUMPDEST PUSH2 0x272A PUSH1 0x60 DUP4 ADD DUP6 PUSH2 0x1D31 JUMP JUMPDEST PUSH2 0x2737 PUSH1 0x80 DUP4 ADD DUP5 PUSH2 0x1D31 JUMP JUMPDEST SWAP7 SWAP6 POP POP POP POP POP POP JUMP JUMPDEST PUSH32 0x6F6E6C7920706F6F6C0000000000000000000000000000000000000000000000 PUSH1 0x0 DUP3 ADD MSTORE POP JUMP JUMPDEST PUSH1 0x0 PUSH2 0x2777 PUSH1 0x9 DUP4 PUSH2 0x2111 JUMP JUMPDEST SWAP2 POP PUSH2 0x2782 DUP3 PUSH2 0x2741 JUMP JUMPDEST PUSH1 0x20 DUP3 ADD SWAP1 POP SWAP2 SWAP1 POP JUMP JUMPDEST PUSH1 0x0 PUSH1 0x20 DUP3 ADD SWAP1 POP DUP2 DUP2 SUB PUSH1 0x0 DUP4 ADD MSTORE PUSH2 0x27A6 DUP2 PUSH2 0x276A JUMP JUMPDEST SWAP1 POP SWAP2 SWAP1 POP JUMP JUMPDEST PUSH32 0x496E73756666696369656E742062616C616E636520746F20726570617920666C PUSH1 0x0 DUP3 ADD MSTORE PUSH32 0x617368206C6F616E000000000000000000000000000000000000000000000000 PUSH1 0x20 DUP3 ADD MSTORE POP JUMP JUMPDEST PUSH1 0x0 PUSH2 0x2809 PUSH1 0x28 DUP4 PUSH2 0x2111 JUMP JUMPDEST SWAP2 POP PUSH2 0x2814 DUP3 PUSH2 0x27AD JUMP JUMPDEST PUSH1 0x40 DUP3 ADD SWAP1 POP SWAP2 SWAP1 POP JUMP JUMPDEST PUSH1 0x0 PUSH1 0x20 DUP3 ADD SWAP1 POP DUP2 DUP2 SUB PUSH1 0x0 DUP4 ADD MSTORE PUSH2 0x2838 DUP2 PUSH2 0x27FC JUMP JUMPDEST SWAP1 POP SWAP2 SWAP1 POP JUMP JUMPDEST PUSH1 0x0 PUSH1 0x40 DUP3 ADD SWAP1 POP PUSH2 0x2854 PUSH1 0x0 DUP4 ADD DUP6 PUSH2 0x1E07 JUMP JUMPDEST PUSH2 0x2861 PUSH1 0x20 DUP4 ADD DUP5 PUSH2 0x2439 JUMP JUMPDEST SWAP4 SWAP3 POP POP POP JUMP JUMPDEST PUSH1 0x0 PUSH1 0x60 DUP3 ADD SWAP1 POP PUSH2 0x287D PUSH1 0x0 DUP4 ADD DUP7 PUSH2 0x1E07 JUMP JUMPDEST PUSH2 0x288A PUSH1 0x20 DUP4 ADD DUP6 PUSH2 0x1D31 JUMP JUMPDEST PUSH2 0x2897 PUSH1 0x40 DUP4 ADD DUP5 PUSH2 0x1D31 JUMP JUMPDEST SWAP5 SWAP4 POP POP POP POP JUMP JUMPDEST PUSH1 0x0 PUSH2 0x28AA DUP3 PUSH2 0x1CCE JUMP JUMPDEST SWAP2 POP PUSH2 0x28B5 DUP4 PUSH2 0x1CCE JUMP JUMPDEST SWAP3 POP DUP3 DUP3 MUL PUSH2 0x28C3 DUP2 PUSH2 0x1CCE JUMP JUMPDEST SWAP2 POP DUP3 DUP3 DIV DUP5 EQ DUP4 ISZERO OR PUSH2 0x28DA JUMPI PUSH2 0x28D9 PUSH2 0x2252 JUMP JUMPDEST JUMPDEST POP SWAP3 SWAP2 POP POP JUMP JUMPDEST PUSH32 0x4E487B7100000000000000000000000000000000000000000000000000000000 PUSH1 0x0 MSTORE PUSH1 0x12 PUSH1 0x4 MSTORE PUSH1 0x24 PUSH1 0x0 REVERT JUMPDEST PUSH1 0x0 PUSH2 0x291B DUP3 PUSH2 0x1CCE JUMP JUMPDEST SWAP2 POP PUSH2 0x2926 DUP4 PUSH2 0x1CCE JUMP JUMPDEST SWAP3 POP DUP3 PUSH2 0x2936 JUMPI PUSH2 0x2935 PUSH2 0x28E1 JUMP JUMPDEST JUMPDEST DUP3 DUP3 DIV SWAP1 POP SWAP3 SWAP2 POP POP JUMP JUMPDEST PUSH1 0x0 PUSH2 0x294C DUP3 PUSH2 0x1CCE JUMP JUMPDEST SWAP2 POP PUSH2 0x2957 DUP4 PUSH2 0x1CCE JUMP JUMPDEST SWAP3 POP DUP3 PUSH2 0x2967 JUMPI PUSH2 0x2966 PUSH2 0x28E1 JUMP JUMPDEST JUMPDEST DUP3 DUP3 MOD SWAP1 POP SWAP3 SWAP2 POP POP JUMP JUMPDEST PUSH1 0x0 DUP2 SWAP1 POP SWAP3 SWAP2 POP POP JUMP JUMPDEST POP JUMP JUMPDEST PUSH1 0x0 PUSH2 0x298D PUSH1 0x0 DUP4 PUSH2 0x2972 JUMP JUMPDEST SWAP2 POP PUSH2 0x2998 DUP3 PUSH2 0x297D JUMP JUMPDEST PUSH1 0x0 DUP3 ADD SWAP1 POP SWAP2 SWAP1 POP JUMP JUMPDEST PUSH1 0x0 PUSH2 0x29AE DUP3 PUSH2 0x2980 JUMP JUMPDEST SWAP2 POP DUP2 SWAP1 POP SWAP2 SWAP1 POP JUMP JUMPDEST PUSH32 0x455448207769746864726177616C206661696C65640000000000000000000000 PUSH1 0x0 DUP3 ADD MSTORE POP JUMP JUMPDEST PUSH1 0x0 PUSH2 0x29EE PUSH1 0x15 DUP4 PUSH2 0x2111 JUMP JUMPDEST SWAP2 POP PUSH2 0x29F9 DUP3 PUSH2 0x29B8 JUMP JUMPDEST PUSH1 0x20 DUP3 ADD SWAP1 POP SWAP2 SWAP1 POP JUMP JUMPDEST PUSH1 0x0 PUSH1 0x20 DUP3 ADD SWAP1 POP DUP2 DUP2 SUB PUSH1 0x0 DUP4 ADD MSTORE PUSH2 0x2A1D DUP2 PUSH2 0x29E1 JUMP JUMPDEST SWAP1 POP SWAP2 SWAP1 POP JUMP JUMPDEST PUSH32 0x4E6F2070726F66697461626C6520617262697472616765206F70706F7274756E PUSH1 0x0 DUP3 ADD MSTORE PUSH32 0x69747920666F756E640000000000000000000000000000000000000000000000 PUSH1 0x20 DUP3 ADD MSTORE POP JUMP JUMPDEST PUSH1 0x0 PUSH2 0x2A80 PUSH1 0x29 DUP4 PUSH2 0x2111 JUMP JUMPDEST SWAP2 POP PUSH2 0x2A8B DUP3 PUSH2 0x2A24 JUMP JUMPDEST PUSH1 0x40 DUP3 ADD SWAP1 POP SWAP2 SWAP1 POP JUMP JUMPDEST PUSH1 0x0 PUSH1 0x20 DUP3 ADD SWAP1 POP DUP2 DUP2 SUB PUSH1 0x0 DUP4 ADD MSTORE PUSH2 0x2AAF DUP2 PUSH2 0x2A73 JUMP JUMPDEST SWAP1 POP SWAP2 SWAP1 POP JUMP JUMPDEST PUSH32 0x616D6F756E743D30000000000000000000000000000000000000000000000000 PUSH1 0x0 DUP3 ADD MSTORE POP JUMP JUMPDEST PUSH1 0x0 PUSH2 0x2AEC PUSH1 0x8 DUP4 PUSH2 0x2111 JUMP JUMPDEST SWAP2 POP PUSH2 0x2AF7 DUP3 PUSH2 0x2AB6 JUMP JUMPDEST PUSH1 0x20 DUP3 ADD SWAP1 POP SWAP2 SWAP1 POP JUMP JUMPDEST PUSH1 0x0 PUSH1 0x20 DUP3 ADD SWAP1 POP DUP2 DUP2 SUB PUSH1 0x0 DUP4 ADD MSTORE PUSH2 0x2B1B DUP2 PUSH2 0x2ADF JUMP JUMPDEST SWAP1 POP SWAP2 SWAP1 POP JUMP JUMPDEST PUSH1 0x0 DUP3 DUP3 MSTORE PUSH1 0x20 DUP3 ADD SWAP1 POP SWAP3 SWAP2 POP POP JUMP JUMPDEST DUP3 DUP2 DUP4 CALLDATACOPY PUSH1 0x0 DUP4 DUP4 ADD MSTORE POP POP POP JUMP JUMPDEST PUSH1 0x0 PUSH2 0x2B4E DUP4 DUP6 PUSH2 0x2B22 JUMP JUMPDEST SWAP4 POP PUSH2 0x2B5B DUP4 DUP6 DUP5 PUSH2 0x2B33 JUMP JUMPDEST PUSH2 0x2B64 DUP4 PUSH2 0x2551 JUMP JUMPDEST DUP5 ADD SWAP1 POP SWAP4 SWAP3 POP POP POP JUMP JUMPDEST PUSH1 0x0 PUSH2 0xFFFF DUP3 AND SWAP1 POP SWAP2 SWAP1 POP JUMP JUMPDEST PUSH1 0x0 PUSH2 0x2B98 PUSH2 0x2B93 PUSH2 0x2B8E DUP5 PUSH2 0x240D JUMP JUMPDEST PUSH2 0x1D7B JUMP JUMPDEST PUSH2 0x2B6F JUMP JUMPDEST SWAP1 POP SWAP2 SWAP1 POP JUMP JUMPDEST PUSH2 0x2BA8 DUP2 PUSH2 0x2B7D JUMP JUMPDEST DUP3 MSTORE POP POP JUMP JUMPDEST PUSH1 0x0 PUSH1 0xA0 DUP3 ADD SWAP1 POP PUSH2 0x2BC3 PUSH1 0x0 DUP4 ADD DUP10 PUSH2 0x1E07 JUMP JUMPDEST PUSH2 0x2BD0 PUSH1 0x20 DUP4 ADD DUP9 PUSH2 0x1E07 JUMP JUMPDEST PUSH2 0x2BDD PUSH1 0x40 DUP4 ADD DUP8 PUSH2 0x1D31 JUMP JUMPDEST DUP2 DUP2 SUB PUSH1 0x60 DUP4 ADD MSTORE PUSH2 0x2BF0 DUP2 DUP6 DUP8 PUSH2 0x2B42 JUMP JUMPDEST SWAP1 POP PUSH2 0x2BFF PUSH1 0x80 DUP4 ADD DUP5 PUSH2 0x2B9F JUMP JUMPDEST SWAP8 SWAP7 POP POP POP POP POP POP POP JUMP JUMPDEST PUSH1 0x0 DUP2 PUSH1 0xE0 SHR SWAP1 POP SWAP2 SWAP1 POP JUMP JUMPDEST PUSH1 0x0 PUSH1 0x3 RETURNDATASIZE GT ISZERO PUSH2 0x2C36 JUMPI PUSH1 0x4 PUSH1 0x0 DUP1 RETURNDATACOPY PUSH2 0x2C33 PUSH1 0x0 MLOAD PUSH2 0x2C0A JUMP JUMPDEST SWAP1 POP JUMPDEST SWAP1 JUMP JUMPDEST PUSH1 0x0 PUSH1 0x44 RETURNDATASIZE LT PUSH2 0x2CC6 JUMPI PUSH2 0x2C4B PUSH2 0x1CBA JUMP JUMPDEST PUSH1 0x4 RETURNDATASIZE SUB PUSH1 0x4 DUP3 RETURNDATACOPY DUP1 MLOAD RETURNDATASIZE PUSH1 0x24 DUP3 ADD GT PUSH8 0xFFFFFFFFFFFFFFFF DUP3 GT OR ISZERO PUSH2 0x2C73 JUMPI POP POP PUSH2 0x2CC6 JUMP JUMPDEST DUP1 DUP3 ADD DUP1 MLOAD PUSH8 0xFFFFFFFFFFFFFFFF DUP2 GT ISZERO PUSH2 0x2C91 JUMPI POP POP POP POP PUSH2 0x2CC6 JUMP JUMPDEST DUP1 PUSH1 0x20 DUP4 ADD ADD PUSH1 0x4 RETURNDATASIZE SUB DUP6 ADD DUP2 GT ISZERO PUSH2 0x2CAE JUMPI POP POP POP POP POP PUSH2 0x2CC6 JUMP JUMPDEST PUSH2 0x2CBD DUP3 PUSH1 0x20 ADD DUP6 ADD DUP7 PUSH2 0x2562 JUMP JUMPDEST DUP3 SWAP6 POP POP POP POP POP POP JUMPDEST SWAP1 JUMP JUMPDEST PUSH1 0x0 PUSH1 0xA0 DUP3 ADD SWAP1 POP PUSH2 0x2CDE PUSH1 0x0 DUP4 ADD DUP9 PUSH2 0x1E07 JUMP JUMPDEST PUSH2 0x2CEB PUSH1 0x20 DUP4 ADD DUP8 PUSH2 0x1E07 JUMP JUMPDEST PUSH2 0x2CF8 PUSH1 0x40 DUP4 ADD DUP7 PUSH2 0x1D31 JUMP JUMPDEST PUSH2 0x2D05 PUSH1 0x60 DUP4 ADD DUP6 PUSH2 0x2439 JUMP JUMPDEST PUSH2 0x2D12 PUSH1 0x80 DUP4 ADD DUP5 PUSH2 0x2439 JUMP JUMPDEST SWAP7 SWAP6 POP POP POP POP POP POP JUMP INVALID LOG2 PUSH5 0x6970667358 0x22 SLT KECCAK256 PUSH18 0x847ABC9FA4B01126CB54259A1EDE1C8F6EEA DUP8 ADD PC PUSH23 0x1EC205A2E6138313FA64736F6C63430008180033000000 "},"methodIdentifiers":{"ADDRESSES_PROVIDER()":"0542975c","MAX_FLASH_AMOUNT()":"b1e79cd4","MIN_PROFIT_THRESHOLD()":"e73d668f","POOL()":"7535d246","SUSHISWAP_ROUTER()":"277754ed","UNISWAP_FEE()":"a1677228","UNISWAP_V3_ROUTER()":"41c64a2f","USDC()":"89a30271","USDT()":"c54e44eb","WETH()":"ad5c4648","calculateOptimalFlashAmount(address)":"aed4fa1a","emergencyWithdraw(address)":"6ff1c9bc","emergencyWithdrawETH()":"84536017","estimateArbitrageProfit(address,uint256)":"958f1ef8","executeOperation(address,uint256,uint256,address,bytes)":"1b11d0ff","executeWethArbitrage(uint256)":"034c40eb","goldstem()":"a7e11148","owner()":"8da5cb5b","paused()":"5c975abb","pool()":"16f0115b","provider()":"085d4883","renounceOwnership()":"715018a6","rootTreasury()":"91a99e88","runSimpleFlash(address,uint256,bytes)":"b3d8ad46","setGoldstem(address)":"994a8b31","setRootTreasury(address)":"ae8ccfe4","simulateArbitrage(address,uint256)":"41f78e27","transferOwnership(address)":"f2fde38b"}}}}}