{"contracts/Goldstem.sol":{"Goldstem":{"abi":[{"inputs":[{"internalType":"address","name":"_fruitWallet","type":"address"},{"internalType":"address","name":"_branchesWallet","type":"address"}],"stateMutability":"nonpayable","type":"constructor"},{"anonymous":false,"inputs":[{"indexed":true,"internalType":"address","name":"from","type":"address"},{"indexed":false,"internalType":"uint256","name":"amount","type":"uint256"},{"indexed":false,"internalType":"uint256","name":"fruitAmount","type":"uint256"},{"indexed":false,"internalType":"uint256","name":"branchesAmount","type":"uint256"}],"name":"FundsSplit","type":"event"},{"inputs":[],"name":"branchesShare","outputs":[{"internalType":"uint256","name":"","type":"uint256"}],"stateMutability":"view","type":"function"},{"inputs":[],"name":"branchesWallet","outputs":[{"internalType":"address","name":"","type":"address"}],"stateMutability":"view","type":"function"},{"inputs":[],"name":"fruitShare","outputs":[{"internalType":"uint256","name":"","type":"uint256"}],"stateMutability":"view","type":"function"},{"inputs":[],"name":"fruitWallet","outputs":[{"internalType":"address","name":"","type":"address"}],"stateMutability":"view","type":"function"},{"inputs":[],"name":"owner","outputs":[{"internalType":"address","name":"","type":"address"}],"stateMutability":"view","type":"function"},{"inputs":[{"internalType":"uint256","name":"_fruitShare","type":"uint256"},{"internalType":"uint256","name":"_branchesShare","type":"uint256"}],"name":"setShares","outputs":[],"stateMutability":"nonpayable","type":"function"},{"inputs":[{"internalType":"address","name":"_fruitWallet","type":"address"},{"internalType":"address","name":"_branchesWallet","type":"address"}],"name":"setWallets","outputs":[],"stateMutability":"nonpayable","type":"function"},{"inputs":[],"name":"withdraw","outputs":[],"stateMutability":"nonpayable","type":"function"},{"stateMutability":"payable","type":"receive"}],"evm":{"bytecode":{"linkReferences":{},"object":"60803461009c57601f61066438819003918201601f19168301916001600160401b038311848410176100a157808492604094855283398101031261009c57610052602061004b836100b7565b92016100b7565b906014600355605060045560018060a01b0319913383600054161760005560018060a01b038092168360015416176001551690600254161760025560405161059890816100cc8239f35b600080fd5b634e487b7160e01b600052604160045260246000fd5b51906001600160a01b038216820361009c5756fe60806040818152600480361015610029575b505050361561001f57600080fd5b610027610421565b005b600092833560e01c90816312d437761461037b575080632aca3e7d146102a25780633ccfd60b146101dc5780638a780b92146101b35780638da5cb5b1461018b578063940a49bd14610162578063b4d7fb121461013f5763d3f6a15703610011573461013b578160031936011261013b576001600160a01b0391813583811692919083900361013757602435938085168095036101335785541633036100f05750506bffffffffffffffffffffffff60a01b90816001541617600155600254161760025580f35b906020606492519162461bcd60e51b8352820152601a60248201527f4f6e6c79206f776e65722063616e207365742077616c6c6574730000000000006044820152fd5b8580fd5b8480fd5b8280fd5b50503461015e578160031936011261015e576020906003549051908152f35b5080fd5b50503461015e578160031936011261015e5760015490516001600160a01b039091168152602090f35b50503461015e578160031936011261015e57905490516001600160a01b039091168152602090f35b50503461015e578160031936011261015e5760025490516001600160a01b039091168152602090f35b50903461013b578260031936011261013b5782546001600160a01b03163381900361025f57838080809347905af1610212610397565b501561021c578280f35b906020606492519162461bcd60e51b8352820152601860248201527f4661696c656420746f2077697468647261772066756e647300000000000000006044820152fd5b815162461bcd60e51b8152602081850152601760248201527f4f6e6c79206f776e65722063616e2077697468647261770000000000000000006044820152606490fd5b503461013b578160031936011261013b578254602435928235916001600160a01b0316330361033957838201808311610326576064036102e457506003555580f35b5162461bcd60e51b8152602081840152601960248201527f536861726573206d7573742061646420757020746f20313030000000000000006044820152606490fd5b634e487b7160e01b865260118452602486fd5b5162461bcd60e51b8152602081840152601960248201527f4f6e6c79206f776e65722063616e2073657420736861726573000000000000006044820152606490fd5b9250503461013b578260031936011261013b5760209250548152f35b3d156103f35767ffffffffffffffff903d8281116103dd5760405192601f8201601f19908116603f01168401908111848210176103dd5760405282523d6000602084013e565b634e487b7160e01b600052604160045260246000fd5b606090565b8181029291811591840414171561040b57565b634e487b7160e01b600052601160045260246000fd5b3415610560576064610435600354346103f8565b046064610444600454346103f8565b04600060018060a01b03818080808785600154165af1610462610397565b501561050f578180848193600254165af161047b610397565b50156104ba5760405191348352602083015260408201527f7f23c79eca79eabf5f003b161350b7b38c9d413b8c990d5ade37a24f49b2dd8760603392a2565b60405162461bcd60e51b815260206004820152602760248201527f4661696c656420746f2073656e642066756e647320746f206272616e63686573604482015266081dd85b1b195d60ca1b6064820152608490fd5b60405162461bcd60e51b8152602060048201526024808201527f4661696c656420746f2073656e642066756e647320746f2066727569742077616044820152631b1b195d60e21b6064820152608490fd5b56fea2646970667358221220c92953c47430e8a8b5dc457d41e747d9291c781c0bfd9a0aeb7e08df566715d164736f6c63430008180033","opcodes":"PUSH1 0x80 CALLVALUE PUSH2 0x9C JUMPI PUSH1 0x1F PUSH2 0x664 CODESIZE DUP2 SWAP1 SUB SWAP2 DUP3 ADD PUSH1 0x1F NOT AND DUP4 ADD SWAP2 PUSH1 0x1 PUSH1 0x1 PUSH1 0x40 SHL SUB DUP4 GT DUP5 DUP5 LT OR PUSH2 0xA1 JUMPI DUP1 DUP5 SWAP3 PUSH1 0x40 SWAP5 DUP6 MSTORE DUP4 CODECOPY DUP2 ADD SUB SLT PUSH2 0x9C JUMPI PUSH2 0x52 PUSH1 0x20 PUSH2 0x4B DUP4 PUSH2 0xB7 JUMP JUMPDEST SWAP3 ADD PUSH2 0xB7 JUMP JUMPDEST SWAP1 PUSH1 0x14 PUSH1 0x3 SSTORE PUSH1 0x50 PUSH1 0x4 SSTORE PUSH1 0x1 DUP1 PUSH1 0xA0 SHL SUB NOT SWAP2 CALLER DUP4 PUSH1 0x0 SLOAD AND OR PUSH1 0x0 SSTORE PUSH1 0x1 DUP1 PUSH1 0xA0 SHL SUB DUP1 SWAP3 AND DUP4 PUSH1 0x1 SLOAD AND OR PUSH1 0x1 SSTORE AND SWAP1 PUSH1 0x2 SLOAD AND OR PUSH1 0x2 SSTORE PUSH1 0x40 MLOAD PUSH2 0x598 SWAP1 DUP2 PUSH2 0xCC DUP3 CODECOPY RETURN JUMPDEST PUSH1 0x0 DUP1 REVERT JUMPDEST PUSH4 0x4E487B71 PUSH1 0xE0 SHL PUSH1 0x0 MSTORE PUSH1 0x41 PUSH1 0x4 MSTORE PUSH1 0x24 PUSH1 0x0 REVERT JUMPDEST MLOAD SWAP1 PUSH1 0x1 PUSH1 0x1 PUSH1 0xA0 SHL SUB DUP3 AND DUP3 SUB PUSH2 0x9C JUMPI JUMP INVALID PUSH1 0x80 PUSH1 0x40 DUP2 DUP2 MSTORE PUSH1 0x4 DUP1 CALLDATASIZE LT ISZERO PUSH2 0x29 JUMPI JUMPDEST POP POP POP CALLDATASIZE ISZERO PUSH2 0x1F JUMPI PUSH1 0x0 DUP1 REVERT JUMPDEST PUSH2 0x27 PUSH2 0x421 JUMP JUMPDEST STOP JUMPDEST PUSH1 0x0 SWAP3 DUP4 CALLDATALOAD PUSH1 0xE0 SHR SWAP1 DUP2 PUSH4 0x12D43776 EQ PUSH2 0x37B JUMPI POP DUP1 PUSH4 0x2ACA3E7D EQ PUSH2 0x2A2 JUMPI DUP1 PUSH4 0x3CCFD60B EQ PUSH2 0x1DC JUMPI DUP1 PUSH4 0x8A780B92 EQ PUSH2 0x1B3 JUMPI DUP1 PUSH4 0x8DA5CB5B EQ PUSH2 0x18B JUMPI DUP1 PUSH4 0x940A49BD EQ PUSH2 0x162 JUMPI DUP1 PUSH4 0xB4D7FB12 EQ PUSH2 0x13F JUMPI PUSH4 0xD3F6A157 SUB PUSH2 0x11 JUMPI CALLVALUE PUSH2 0x13B JUMPI DUP2 PUSH1 0x3 NOT CALLDATASIZE ADD SLT PUSH2 0x13B JUMPI PUSH1 0x1 PUSH1 0x1 PUSH1 0xA0 SHL SUB SWAP2 DUP2 CALLDATALOAD DUP4 DUP2 AND SWAP3 SWAP2 SWAP1 DUP4 SWAP1 SUB PUSH2 0x137 JUMPI PUSH1 0x24 CALLDATALOAD SWAP4 DUP1 DUP6 AND DUP1 SWAP6 SUB PUSH2 0x133 JUMPI DUP6 SLOAD AND CALLER SUB PUSH2 0xF0 JUMPI POP POP PUSH12 0xFFFFFFFFFFFFFFFFFFFFFFFF PUSH1 0xA0 SHL SWAP1 DUP2 PUSH1 0x1 SLOAD AND OR PUSH1 0x1 SSTORE PUSH1 0x2 SLOAD AND OR PUSH1 0x2 SSTORE DUP1 RETURN JUMPDEST SWAP1 PUSH1 0x20 PUSH1 0x64 SWAP3 MLOAD SWAP2 PUSH3 0x461BCD PUSH1 0xE5 SHL DUP4 MSTORE DUP3 ADD MSTORE PUSH1 0x1A PUSH1 0x24 DUP3 ADD MSTORE PUSH32 0x4F6E6C79206F776E65722063616E207365742077616C6C657473000000000000 PUSH1 0x44 DUP3 ADD MSTORE REVERT JUMPDEST DUP6 DUP1 REVERT JUMPDEST DUP5 DUP1 REVERT JUMPDEST DUP3 DUP1 REVERT JUMPDEST POP POP CALLVALUE PUSH2 0x15E JUMPI DUP2 PUSH1 0x3 NOT CALLDATASIZE ADD SLT PUSH2 0x15E JUMPI PUSH1 0x20 SWAP1 PUSH1 0x3 SLOAD SWAP1 MLOAD SWAP1 DUP2 MSTORE RETURN JUMPDEST POP DUP1 REVERT JUMPDEST POP POP CALLVALUE PUSH2 0x15E JUMPI DUP2 PUSH1 0x3 NOT CALLDATASIZE ADD SLT PUSH2 0x15E JUMPI PUSH1 0x1 SLOAD SWAP1 MLOAD PUSH1 0x1 PUSH1 0x1 PUSH1 0xA0 SHL SUB SWAP1 SWAP2 AND DUP2 MSTORE PUSH1 0x20 SWAP1 RETURN JUMPDEST POP POP CALLVALUE PUSH2 0x15E JUMPI DUP2 PUSH1 0x3 NOT CALLDATASIZE ADD SLT PUSH2 0x15E JUMPI SWAP1 SLOAD SWAP1 MLOAD PUSH1 0x1 PUSH1 0x1 PUSH1 0xA0 SHL SUB SWAP1 SWAP2 AND DUP2 MSTORE PUSH1 0x20 SWAP1 RETURN JUMPDEST POP POP CALLVALUE PUSH2 0x15E JUMPI DUP2 PUSH1 0x3 NOT CALLDATASIZE ADD SLT PUSH2 0x15E JUMPI PUSH1 0x2 SLOAD SWAP1 MLOAD PUSH1 0x1 PUSH1 0x1 PUSH1 0xA0 SHL SUB SWAP1 SWAP2 AND DUP2 MSTORE PUSH1 0x20 SWAP1 RETURN JUMPDEST POP SWAP1 CALLVALUE PUSH2 0x13B JUMPI DUP3 PUSH1 0x3 NOT CALLDATASIZE ADD SLT PUSH2 0x13B JUMPI DUP3 SLOAD PUSH1 0x1 PUSH1 0x1 PUSH1 0xA0 SHL SUB AND CALLER DUP2 SWAP1 SUB PUSH2 0x25F JUMPI DUP4 DUP1 DUP1 DUP1 SWAP4 SELFBALANCE SWAP1 GAS CALL PUSH2 0x212 PUSH2 0x397 JUMP JUMPDEST POP ISZERO PUSH2 0x21C JUMPI DUP3 DUP1 RETURN JUMPDEST SWAP1 PUSH1 0x20 PUSH1 0x64 SWAP3 MLOAD SWAP2 PUSH3 0x461BCD PUSH1 0xE5 SHL DUP4 MSTORE DUP3 ADD MSTORE PUSH1 0x18 PUSH1 0x24 DUP3 ADD MSTORE PUSH32 0x4661696C656420746F2077697468647261772066756E64730000000000000000 PUSH1 0x44 DUP3 ADD MSTORE REVERT JUMPDEST DUP2 MLOAD PUSH3 0x461BCD PUSH1 0xE5 SHL DUP2 MSTORE PUSH1 0x20 DUP2 DUP6 ADD MSTORE PUSH1 0x17 PUSH1 0x24 DUP3 ADD MSTORE PUSH32 0x4F6E6C79206F776E65722063616E207769746864726177000000000000000000 PUSH1 0x44 DUP3 ADD MSTORE PUSH1 0x64 SWAP1 REVERT JUMPDEST POP CALLVALUE PUSH2 0x13B JUMPI DUP2 PUSH1 0x3 NOT CALLDATASIZE ADD SLT PUSH2 0x13B JUMPI DUP3 SLOAD PUSH1 0x24 CALLDATALOAD SWAP3 DUP3 CALLDATALOAD SWAP2 PUSH1 0x1 PUSH1 0x1 PUSH1 0xA0 SHL SUB AND CALLER SUB PUSH2 0x339 JUMPI DUP4 DUP3 ADD DUP1 DUP4 GT PUSH2 0x326 JUMPI PUSH1 0x64 SUB PUSH2 0x2E4 JUMPI POP PUSH1 0x3 SSTORE SSTORE DUP1 RETURN JUMPDEST MLOAD PUSH3 0x461BCD PUSH1 0xE5 SHL DUP2 MSTORE PUSH1 0x20 DUP2 DUP5 ADD MSTORE PUSH1 0x19 PUSH1 0x24 DUP3 ADD MSTORE PUSH32 0x536861726573206D7573742061646420757020746F2031303000000000000000 PUSH1 0x44 DUP3 ADD MSTORE PUSH1 0x64 SWAP1 REVERT JUMPDEST PUSH4 0x4E487B71 PUSH1 0xE0 SHL DUP7 MSTORE PUSH1 0x11 DUP5 MSTORE PUSH1 0x24 DUP7 REVERT JUMPDEST MLOAD PUSH3 0x461BCD PUSH1 0xE5 SHL DUP2 MSTORE PUSH1 0x20 DUP2 DUP5 ADD MSTORE PUSH1 0x19 PUSH1 0x24 DUP3 ADD MSTORE PUSH32 0x4F6E6C79206F776E65722063616E207365742073686172657300000000000000 PUSH1 0x44 DUP3 ADD MSTORE PUSH1 0x64 SWAP1 REVERT JUMPDEST SWAP3 POP POP CALLVALUE PUSH2 0x13B JUMPI DUP3 PUSH1 0x3 NOT CALLDATASIZE ADD SLT PUSH2 0x13B JUMPI PUSH1 0x20 SWAP3 POP SLOAD DUP2 MSTORE RETURN JUMPDEST RETURNDATASIZE ISZERO PUSH2 0x3F3 JUMPI PUSH8 0xFFFFFFFFFFFFFFFF SWAP1 RETURNDATASIZE DUP3 DUP2 GT PUSH2 0x3DD JUMPI PUSH1 0x40 MLOAD SWAP3 PUSH1 0x1F DUP3 ADD PUSH1 0x1F NOT SWAP1 DUP2 AND PUSH1 0x3F ADD AND DUP5 ADD SWAP1 DUP2 GT DUP5 DUP3 LT OR PUSH2 0x3DD JUMPI PUSH1 0x40 MSTORE DUP3 MSTORE RETURNDATASIZE PUSH1 0x0 PUSH1 0x20 DUP5 ADD RETURNDATACOPY JUMP JUMPDEST PUSH4 0x4E487B71 PUSH1 0xE0 SHL PUSH1 0x0 MSTORE PUSH1 0x41 PUSH1 0x4 MSTORE PUSH1 0x24 PUSH1 0x0 REVERT JUMPDEST PUSH1 0x60 SWAP1 JUMP JUMPDEST DUP2 DUP2 MUL SWAP3 SWAP2 DUP2 ISZERO SWAP2 DUP5 DIV EQ OR ISZERO PUSH2 0x40B JUMPI JUMP JUMPDEST PUSH4 0x4E487B71 PUSH1 0xE0 SHL PUSH1 0x0 MSTORE PUSH1 0x11 PUSH1 0x4 MSTORE PUSH1 0x24 PUSH1 0x0 REVERT JUMPDEST CALLVALUE ISZERO PUSH2 0x560 JUMPI PUSH1 0x64 PUSH2 0x435 PUSH1 0x3 SLOAD CALLVALUE PUSH2 0x3F8 JUMP JUMPDEST DIV PUSH1 0x64 PUSH2 0x444 PUSH1 0x4 SLOAD CALLVALUE PUSH2 0x3F8 JUMP JUMPDEST DIV PUSH1 0x0 PUSH1 0x1 DUP1 PUSH1 0xA0 SHL SUB DUP2 DUP1 DUP1 DUP1 DUP8 DUP6 PUSH1 0x1 SLOAD AND GAS CALL PUSH2 0x462 PUSH2 0x397 JUMP JUMPDEST POP ISZERO PUSH2 0x50F JUMPI DUP2 DUP1 DUP5 DUP2 SWAP4 PUSH1 0x2 SLOAD AND GAS CALL PUSH2 0x47B PUSH2 0x397 JUMP JUMPDEST POP ISZERO PUSH2 0x4BA JUMPI PUSH1 0x40 MLOAD SWAP2 CALLVALUE DUP4 MSTORE PUSH1 0x20 DUP4 ADD MSTORE PUSH1 0x40 DUP3 ADD MSTORE PUSH32 0x7F23C79ECA79EABF5F003B161350B7B38C9D413B8C990D5ADE37A24F49B2DD87 PUSH1 0x60 CALLER SWAP3 LOG2 JUMP JUMPDEST PUSH1 0x40 MLOAD PUSH3 0x461BCD PUSH1 0xE5 SHL DUP2 MSTORE PUSH1 0x20 PUSH1 0x4 DUP3 ADD MSTORE PUSH1 0x27 PUSH1 0x24 DUP3 ADD MSTORE PUSH32 0x4661696C656420746F2073656E642066756E647320746F206272616E63686573 PUSH1 0x44 DUP3 ADD MSTORE PUSH7 0x81DD85B1B195D PUSH1 0xCA SHL PUSH1 0x64 DUP3 ADD MSTORE PUSH1 0x84 SWAP1 REVERT JUMPDEST PUSH1 0x40 MLOAD PUSH3 0x461BCD PUSH1 0xE5 SHL DUP2 MSTORE PUSH1 0x20 PUSH1 0x4 DUP3 ADD MSTORE PUSH1 0x24 DUP1 DUP3 ADD MSTORE PUSH32 0x4661696C656420746F2073656E642066756E647320746F206672756974207761 PUSH1 0x44 DUP3 ADD MSTORE PUSH4 0x1B1B195D PUSH1 0xE2 SHL PUSH1 0x64 DUP3 ADD MSTORE PUSH1 0x84 SWAP1 REVERT JUMPDEST JUMP INVALID LOG2 PUSH5 0x6970667358 0x22 SLT KECCAK256 0xC9 0x29 MSTORE8 0xC4 PUSH21 0x30E8A8B5DC457D41E747D9291C781C0BFD9A0AEB7E ADDMOD 0xDF JUMP PUSH8 0x15D164736F6C6343 STOP ADDMOD XOR STOP CALLER "},"methodIdentifiers":{"branchesShare()":"12d43776","branchesWallet()":"8a780b92","fruitShare()":"b4d7fb12","fruitWallet()":"940a49bd","owner()":"8da5cb5b","setShares(uint256,uint256)":"2aca3e7d","setWallets(address,address)":"d3f6a157","withdraw()":"3ccfd60b"}}}}}